:100000000C94C5020C940C030C940C030C940C037C
:100010000C940C030C940C030C940C030C940C0324
:100020000C940C030C940C030C94E4290C940C0316
:100030000C94772D0C940C030C940C030C940C036F
:100040000C940C030C940C030C940C030C940C03F4
:100050000C940C030C94532D0C940C030C940C0373
:100060000C940C030C940C030C940C030C940C03D4
:100070000C940C030C940C030C940C030C940C03C4
:100080000C940C030C940C030C940C030C940C03B4
:100090000C940C030C940C030C940C030C940C03A4
:1000A0000C940C030C940C030C940C034D617920FC
:1000B000313720323031390076312E313A20436CDD
:1000C00061794D0000000000000000000000000009
:1000D0000000000000000000000000000000000020
:1000E0000000000000000000000000000000000010
:1000F0000000000000000000000000000000000000
:1001000000000000000000000000000000000000EF
:1001100000000000000000000000000000000000DF
:1001200000000000000000000000000000000000CF
:1001300000000000000000000000000000000000BF
:1001400000000000000000000000000000000000AF
:10015000000000000000000000000000000000009F
:100160000000000000010101010101000101010185
:10017000000000000000000000000000000001007E
:100180000100010101010101010101010101010160
:100190000101010101010101010101010101010050
:1001A000000001010000000000000000000000004D
:1001B000000000000000000000000000000000013E
:1001C0000101010000000000000000002A2B2800AF
:1001D00000000000000000000000000000000029F6
:1001E000000000002C1E3420212224342627252E36
:1001F000362D3738271E1F2021222324252633336E
:10020000362E37381F0405060708090A0B0C0D0E99
:100210000F101112131415161718191A1B1C1D2F65
:100220003130232D350405060708090A0B0C0D0E85
:100230000F101112131415161718191A1B1C1D2F45
:100240003130354C0000165A175A195A00001A5A04
:100250001B5A185A00001C5A1D5A235A00001E5AD5
:100260001F5A00000000205A215A00000000225AA4
:10027000295A000000000000000000000000115A90
:10028000125A105A00000D5A0E5A0F5A00000B5AFB
:100290000C5A015A0000095A0A5A00000000075A75
:1002A000085A00000000005A155A00000000000023
:1002B0000000000000001C000B00250200001800D8
:1002C0000D004C0000000C000E0010500000120049
:1002D0000F000000000013003300000000002800A1
:1002E00034020000000000000000000000001700C1
:1002F0000A0028420000150009002C000000080038
:100300000700E20000001A001600000000001400C0
:10031000040000000000E100E00000000000000018
:10032000000000000000230011002502000024004E
:1003300010004C000000250036021050000026007E
:1003400037020000000027003802000000002D00E6
:10035000E500000000000000000000000000220096
:10036000050028000000210019002C0000002000DA
:100370000600E20000001F001B00000000001E003D
:100380001D0000000000E100E0000000000000008F
:100390000000000000D0D0D0D0D0D001010204086D
:1003A0001020414244484800000048485060818283
:1003B000848890A0C1C2C4D0D0D0D0D0D0C8000012
:1003C000000000000000000000000000000000002D
:1003D0000000000005010906A1018501050719E0DB
:1003E00029E7150025019508750181029501750819
:1003F00081010508190129059505750191029501ED
:10040000750391010507190029FF150026FF0095C6
:100410000675088100C005010902A10185020901D4
:10042000A10005091901290515002501950575018A
:10043000810295017503810105010930093115819A
:10044000257F95027508810609381581257F95015C
:1004500075088106050C0A38021581257F950175FE
:10046000088106C0C005010980A1018503160100AD
:100470002603001A81002A8300751095018100C0AF
:10048000050C0901A1018504160100269C021A0130
:10049000002A9C02751095018100C005010906A182
:1004A000018505050719E029E7150025019508755F
:1004B000018102050819012905950575019102952B
:1004C00001750391010507190029EF150025019514
:1004D000F075018102C009025F00030100A0FA0962
:1004E00004000001030101000921110100012202A1
:1004F000010705810320000A080B01020202010026
:100500000904010001020201000524001001042475
:1005100002020524060102070582030800FF090400
:100520000200020A0000000705040210000507058A
:10053000830210000512011001EF020108EDFE37E1
:10054000130100010203010403300000000E034701
:100550000065006F007200670069000000260367F5
:100560000020004800650061007600790020004905
:10057000006E00640075007300740072006900650D
:100580000073000000040309040011241FBECFEF14
:10059000DAE0DEBFCDBF04B603FE27C08091A20320
:1005A0009091A303A091A403B091A5038730904B31
:1005B000A740B04BD1F41092A2031092A303109263
:1005C000A4031092A50314BE84B7877F84BF0FB61F
:1005D000F894A895809160008861809360001092E3
:1005E00060000FBEE0E0F8E3099511E0A0E0B1E0A3
:1005F000E8EFFCE502C005900D92A033B107D9F7F2
:1006000023E0A0E3B1E001C01D92A23AB207E1F7F6
:100610000E94BA2A0C941A2E0C940000E8EDF0E027
:1006200080818E7F80831092E2001092DA00109217
:10063000E100A0EEB0E08C9181608C9380818F7797
:10064000808319BCA7EDB0E08C918E7F8C93808164
:100650008F7E80831092730308952091E40030917F
:10066000E50095E6A9012091EC00822F817020FF22
:1006700006C08091E80080FF06C080E008952091C8
:10068000E80022FD1AC08091A103882389F08530FB
:1006900089F08091EB0085FD0FC02091E40030913E
:1006A000E50042175307F9F29150E1F684E008950E
:1006B00082E0089583E0089581E008958091A10388
:1006C000843061F58091210190912201A091230154
:1006D000B0912401892B8A2B8B2B01F180910E0183
:1006E0008F708093E9009091F3008091F200892B44
:1006F00011F480E008959091E8008091E8008E77F1
:100700008093E80095FDF5CF0E942D03811107C06D
:100710009091E8009E779093E800089582E0089514
:100720008091990387FF13C08091E80082FF06C083
:100730008091E8008B778093E80004C08091A1034A
:100740008111F2CF08958091A1038823D9F380917C
:10075000E80080FFF8CF8091E8008E77ECCF982FEB
:100760009093E900242F762F50E0891731F0709193
:10077000EC002091ED005091F00021FD07C09F5F3B
:10078000973071F78093E90081E008953091EB0094
:100790003E7F3093EB003091ED003D7F3093ED00D4
:1007A0003091EB0031603093EB007093EC002093BC
:1007B000ED005093F0002091EE0027FDE0CF80E0A7
:1007C0000895CF92DF92EF92FF920F931F93CF93F2
:1007D000DF93C8EDD0E088818F7E8883E7EDF0E07D
:1007E00080818160808384E082BF81E08093730395
:1007F00088818E7F888302EE10E0F80110821092CB
:10080000DA0081EEC82ED12CF601108288818F7714
:10081000888388818068888388818F7D888319BCDC
:100820001092A103109298031092970310929603CE
:1008300090EEE92EF12CF70180818B7F80838881F7
:100840008160888342E060E080E00E94AF03F601AF
:1008500080818E7F8083F8018081816080838081A8
:1008600088608083F70180818E7F808388818061AA
:100870008883DF91CF911F910F91FF90EF90DF90D0
:10088000CF900895FC0180919F039091A00386175B
:100890009707A0F06115710529F49091E8009E7703
:1008A0009093E80090E06115710551F4911108C032
:1008B0008091E80082FF34C080E00895BC01F2CF4F
:1008C0008091A1038823C1F18530C1F18091E800B6
:1008D00083FD30C08091E80082FDEACF8091E8007E
:1008E00080FFE1CF8091F3002091F200382F611555
:1008F000710519F02830310558F091E028303105A4
:1009000009F090E02091E8002E772093E800CBCF0B
:1009100081918093F100615071092F5F3F4FE7CFC4
:100920008091A103882341F0853041F08091E80057
:1009300083FFBECF81E0089582E0089583E00895AB
:1009400080917203811107C08091A103843011F45A
:1009500082E0089581E00895809175030895909153
:100960005B03803F41F480915C0387FD10925C0340
:10097000992371F00895813F29F480915C03181642
:10098000ACF3F6CF823F81F497FFF2CF10925B0376
:1009900080915C0390915D03892B90915E03892B7C
:1009A00049F710925F030895833F19F4191674F301
:1009B000DFCF893F39F480915D031816CCF6109291
:1009C0005D03D6CF8A3F29F480915D0387FFD0CFA6
:1009D000F6CF8B3F39F480915E0387FFC9CF109229
:1009E0005E03C6CF8C3F29F480915E031816BCF3DA
:1009F000BFCF843F31F480915A038E7F80935A0396
:100A0000B7CF853F21F480915A038D7FF7CF863F82
:100A100021F480915A038B7FF1CF873F21F480919D
:100A20005A03877FEBCF883F21F480915A038F7E52
:100A3000E5CF8D3F31F48091FE028E7F8093FE02E0
:100A400097CF8E3F21F48091FE028D7FF7CF8F3FAD
:100A500009F08ECF8091FE028B7FF0CF8091FE0255
:100A600080FD16C081FD16C082FD16C080915F0317
:100A70008823A1F0883280F428E0829FC0011124ED
:100A800068E270E00E94AA2D862F672B39F0089546
:100A900082E0089584E0089588E0089581E0089553
:100AA0008091FE0280FD16C081FD16C082FD18C037
:100AB00080915F03882391F08C3390F423E2829F2E
:100AC000C00111246CE370E00E94AA2D862F672BD1
:100AD00049F0089588E0089581E1089585E008953A
:100AE00083E2089581E00895803F31F40E9450052B
:100AF000819580935C030895813F19F40E9450050D
:100B0000F8CF823F31F40E945005819580935B03BA
:100B10000895833F19F40E945005F8CF893F29F4C6
:100B20000E942E0580935D0308958A3F21F40E9460
:100B30002E058195F7CF8B3F31F40E942E058195CC
:100B400080935E0308958C3F19F40E942E05F8CF20
:100B5000843F31F480915A03816080935A03089551
:100B6000853F21F480915A038260F7CF863F21F4BC
:100B700080915A038460F1CF873F21F480915A031A
:100B80008860EBCF883F21F480915A038061E5CFE4
:100B90008D3F31F48091FE0281608093FE020895C2
:100BA0008E3F21F48091FE028260F7CF8F3FB9F72C
:100BB0008091FE028460F1CFCF92DF92EF92FF929C
:100BC0000F931F932FB7F8944091FA025091FB02B4
:100BD0006091FC027091FD022FBF6A017B01EE243F
:100BE000FF248C0130E020E0C016D106E206F306B7
:100BF00050F0481B590BCA011F910F91FF90EF90C5
:100C0000DF90CF90089541505109F3CF2FB7F8945A
:100C10008091FA029091FB02A091FC02B091FD023A
:100C20002FBF08950F931F93CF93DF93C82F109278
:100C3000BC0084EA8093BC000E9406068C0180916F
:100C4000BC0087FF27C08091B900887F883029F0D9
:100C50008091B900887F803199F5C093BB0084E80A
:100C60008093BC000E940606EC018091BC0087FFC7
:100C70001FC02091B900287F90E080E0283199F0D2
:100C800081E090E0203411F490E080E0919581952E
:100C9000910909C00E940606801B910B883E934073
:100CA00070F28EEF9FEFDF91CF911F910F9108951A
:100CB0000E9406068C1B9D0B883E9340B0F2F1CF3C
:100CC0008FEF9FEFF0CFCF93DF938093BB0084E84B
:100CD0008093BC000E940606EC018091BC0087FF57
:100CE0000FC02091B900287F81E090E0283211F4F4
:100CF00090E080E0919581959109DF91CF910895E1
:100D00000E9406068C1B9D0B883E934030F38EEFAD
:100D10009FEFF3CFE0914803F0914903309749F0FA
:100D200082E0809359030480F581E02D89E593E00A
:100D300009950E94060690936103809360030895CD
:100D40008091F5029091F402892B9091F302892B06
:100D500080933101E0914803F0914903309799F075
:100D600080910C01882369F08091460387FF09C0B8
:100D700085E0809330010280F381E02D80E391E0F3
:100D8000099481E0F6CF089590910C019923D1F058
:100D90009091460397FF16C0E82FE695E695E695F5
:100DA000EE31E0F4F0E0E05DFE4F282F277081E0A7
:100DB00090E001C0880F2A95EAF7809592818923F7
:100DC00082830895E3E3F1E09191891303C0DF0189
:100DD00011971C9291E0E933F907B1F708959091CA
:100DE0000C019923C1F09091460397FF14C0E82F9E
:100DF000E695E695E695EE31F8F4F0E0E05DFE4F1D
:100E0000877021E030E001C0220F8A95EAF78281E5
:100E1000822B82830895A3E3B1E0EFEF90E02D9160
:100E2000821751F0EF3F19F4211101C0E92F9F5FA4
:100E30009630A9F7EF3F09F408950E2E000CFF0B32
:100E4000E05DFE4F83830895990F990F890F982FC6
:100E5000977086958695869525E0829FF0011124EE
:100E6000E453FD4F50E040E080E0219130E0092E56
:100E700002C0369527950A94E2F721703327042E95
:100E800001C0220F0A94EAF7822B4F5F5F4F453073
:100E9000510559F70895990F990F890F982F977059
:100EA00041E001C0440F9A95EAF7869586958695AC
:100EB00095E0899FF0011124E453FD4F30E020E0DC
:100EC00070E05191DF011197CB01022E02C096957F
:100ED00087950A94E2F78170819585278423852779
:100EE0008C932F5F3F4F2530310559F7089580913E
:100EF000CB0290919A02981301C008958F5F87707A
:100F0000FACF882341F080959091F5028923809350
:100F1000F5020C94A0060895882339F09091F5020B
:100F2000982B9093F5020C94A00608952091DF0170
:100F30003091E0012817390771F09093E001809318
:100F4000DF01E0914803F0914903309721F00084DC
:100F5000F185E02D099408952091DD013091DE01A5
:100F60002817390771F09093DE018093DD01E0913D
:100F70004803F0914903309721F00680F781E02D76
:100F8000099408951092F4021092F3020E94A006B0
:100F900086E0E9E5F3E0DF011D928A95E9F710921A
:100FA0005F031092FE020E948A0690E080E00E9499
:100FB000AC0790E080E00C9496076093EF0270938A
:100FC000F0028093F1029093F2020C94C2070F9307
:100FD0001F9341E050E060E070E004C0440F551FF3
:100FE000661F771F8A95D2F7CB01BA01609570957D
:100FF000809590950091EF021091F0022091F102FE
:101000003091F20260237123822393231F910F9169
:101010000C94DD070F931F9341E050E060E070E017
:1010200004C0440F551F661F771F8A95D2F7809121
:10103000EF029091F002A091F102B091F2028A01C8
:101040009B01082B192B2A2B3B2BC901B8011F919F
:101050000F910C94DD076093F6027093F702809372
:10106000F8029093F9020C94C207E0914803F091C2
:101070004903309721F00190F081E02D099480E040
:101080000895882309F459C0823871F40E94350804
:1010900081FF53C089E30E94EF060E94A00689E306
:1010A0000E94C4060C94A006833859F40E943508A7
:1010B00080FF43C083E50E94EF060E94A00683E5FF
:1010C000EFCF843859F40E94350882FF36C087E498
:1010D0000E94EF060E94A00687E4E2CF9CEF980FE3
:1010E000913AF0F290E2980F983088F4877021E0FE
:1010F00030E0A90102C0440F551F8A95E2F7CA01EA
:1011000080959091F50289238093F502CBCF9BE5E2
:10111000980F933020F490E080E00C94AC0798E5B1
:10112000980F973120F490E080E00C949607803F70
:1011300020F00E94AF040C948A060895CF93DF93A9
:1011400000D000D00F92CDB7DEB76B837C838D8348
:101150008C819D81892B21F0CA0189238F3F51F415
:1011600080E081700F900F900F900F900F90DF91A3
:10117000CF9108958B81F5CF9091460392FF06C0E1
:10118000282F2871283069F4877F846093FF06C078
:10119000282F2871283161F4877E846194FD877E31
:1011A0000895282F2471243089F78B7F8860EECF33
:1011B000282F2471243191F78B7E8861EFCFCF9354
:1011C000DF932EE0829FC0011124FC01E70FF11D87
:1011D000EE0FFF1FEE0FFF1FE60FF11DEE0FFF1FBB
:1011E000EC5BFD4FC591D491CE01C238D105B9F168
:1011F00008F03EC0C133D10509F482C048F5C932B8
:10120000D10509F476C0CA32D10509F480C0C115F0
:1012100030E5D30708F0AFC0C11540E4D40708F0AB
:10122000A9C1C83ED10508F08AC0C03ED105E8F486
:10123000C83AD10508F072C0C53AD10508F0F6C029
:10124000C130D10591F0209729F1249770F422C084
:10125000C533D10509F446C0C933D105C1F6209183
:101260004603237011F080EE90E0DF91CF91089556
:10127000C33ED10539F188F4C03ED105E1F0C23E4C
:10128000D10529F62091460322FFEFCF83EE90E0AF
:1012900024FFEBCF90E080E0E8CFC63ED105C9F057
:1012A000C73ED10509F0B3CF2091460323FF0EC0FE
:1012B00086EE90E0DACF2091460320FFD6CF89E377
:1012C00090E0D3CF2091460322FD9DC124FFCDCFD6
:1012D000E1CF2091460323FFC8CF87EE90E024FDA5
:1012E000D9CFC3CF2091460325FFBFCF89E290E03D
:1012F000BCCF2091460325FFB8CF85E390E0B5CF62
:101300002091460326FFB1CF8AE290E0AECF209134
:10131000460326FFAACF81E390E0A7CFCF3BD105BC
:1013200008F493C0C03CD10508F4B4CFCE01880FB7
:10133000991F8C539F4FFC018591949196CFC115B5
:1013400050E2D50760F4C11521E0D20708F08DCF37
:10135000CE019065C03FD10508F087CF9BCFC11566
:1013600030E3D30708F0FEC0FE01FF70EE0FFF1F51
:10137000EC5BFD4FE1CFC11545E5D40748F5C1153C
:1013800054E5D50708F027C1C11582E5D80750F408
:10139000C11521E5D20708F4F1C09C2F8827816F81
:1013A000906A63CF2C2F26952695AE014370552762
:1013B000C115D34508F000C181E090E002C0880F5C
:1013C000991F4A95E2F750E2259F90011124F0C041
:1013D000C11549E5D407A0F4C11558E5D50708F0B3
:1013E000FFC0C11586E5D80708F054CF8C2F0E94A6
:1013F000BC0890E0982F882788279F71906235CF8E
:10140000C1152AE5D20708F4F0C0CE019056811527
:10141000904208F03FCF8D2F8F710E94BC0890E062
:10142000982F882788279F718C2BE8CF81E890E43C
:10143000C53AD10509F419CF82E890E4C63AD1053E
:1014400009F413CF83E890E410CF82EE94E4C83A15
:10145000D10509F40ACF89EE94E4C93AD10509F41B
:1014600004CF8AEE94E4CA3AD10509F4FECE85EBA6
:1014700094E4CB3AD10509F4F8CE86EB94E4CC3A67
:10148000D10509F4F2CE83EB94E4CB3BD10509F40A
:10149000ECCE84EB94E4CC3BD10509F4E6CE87EBAB
:1014A00094E4CD3AD10509F4E0CE8CEC94E4C03B51
:1014B000D10509F4DACE8DEC94E4CE3AD10509F4E5
:1014C000D4CE83E895E4CF3AD10509F4CECE8AE8AC
:1014D00095E4C13BD10509F4C8CE82E995E4C23B4D
:1014E000D10509F4C2CE84E995E4C33BD10509F4E2
:1014F000BCCE81E296E4C43BD10509F4B6CE83E2CA
:1015000096E4C53BD10509F4B0CE84E296E4C63B2F
:10151000D10509F4AACE85E296E4C73BD10509F4CA
:10152000A4CE86E296E4C83BD10509F49ECE87E2BC
:1015300096E4C93BD10509F498CE8FE694E4CD3BFF
:10154000D10509F492CE80E794E4CE3BD10509F4AD
:101550008CCE80E094E4CA3BD10509F086CE8AE2C5
:1015600096E483CECE019927D3FF02C0986C7DCE3E
:10157000906C7BCECE019F70906A77CE9E01E4E0A6
:1015800036952795EA95E1F723708C2F86958695F9
:10159000837040E2849FC0011124AC01522B9A0158
:1015A000C37081E090E002C0880F991FCA95E2F7EE
:1015B000822B932B9C6859CE81E090E002C0880F6B
:1015C000991F4A95E2F740E2249F90011124822B53
:1015D000932B9A684ACE9C2F8827846F906A45CEB9
:1015E0009C2F8827806F906A40CE8C2F8F700E942E
:1015F000BC0834E0D695C7953A95E1F7CF708F7067
:10160000806E9C2FB9CF82EE90E02FCEBF92CF920A
:10161000DF92EF92FF920F931F93CF93DF938C0192
:10162000C090EF02D090F002E090F102F090F20250
:101630008091F6029091F702A091F802B091F90220
:10164000C82AD92AEA2AFB2ACFE1D0E0BC2ED7014A
:10165000C6010C2E04C0B695A795979587950A9458
:10166000D2F780FD0EC0219788F7B12C8B2DDF912A
:10167000CF911F910F91FF90EF90DF90CF90BF908F
:101680000895B8018C2F0E94DF08019761F3EECF17
:10169000CF93DF93EC010E94060BBE01DF91CF9147
:1016A0000C94DF080E94480B292F2F7092959F7091
:1016B00092509E3078F4E92FF0E0E45EF14D0C9406
:1016C000BE2D803F19F020F4803E20F481E0089583
:1016D000843FE1F380E00895803EC0F3813FD1F77D
:1016E000F5CF822F86958695869508956093D501CE
:1016F0007093D6018093D7019093D80180916802AE
:10170000909169029093D4018093D301E7EEF1E0C8
:10171000A3E5B1E041915191619171914D935D9338
:101720006D937D9382E0E736F807A1F708950F9354
:101730001F93CF93DF93EC018B01FB018281882300
:1017400009F44EC00E940606909352018093510105
:1017500081E080936A02F8019281FE01FA55EA3233
:10176000F10508F0D9C1E65DF14D0C94BE2D409114
:1017700083025091840260918502709186029923C0
:1017800031F1446040938302509384026093850258
:10179000709386028091680290916902FC01EE0FBD
:1017A000FF1FEE0FFF1FE951FE4F40918302509142
:1017B0008402609185027091860240835183628326
:1017C00073830196909369028093680209C04B7FEE
:1017D0004093830250938402609385027093860243
:1017E00081E0DF91CF911F910F9108954091830285
:1017F000509184026091850270918602992311F0C4
:101800004860C0CF477FE4CF40918302509184026B
:101810006091850270918602992311F04061B2CFE8
:101820004F7ED6CF40918302509184026091850211
:1018300070918602992311F04062A4CF4F7DC8CFEA
:1018400040918302509184026091850270918602DA
:10185000992311F0416096CF4E7FBACF4091830219
:10186000509184026091850270918602992311F053
:10187000426088CF4D7FACCF40918302509184026B
:101880006091850270918602992311F040647ACFAD
:101890004F7B9ECF409183025091840260918502DC
:1018A00070918602992311F040686CCF4F7790CFEA
:1018B000409183025091840260918502709186026A
:1018C000992311F051605ECF5E7F82CF40918302F9
:1018D000509184026091850270918602992311F0E3
:1018E000526050CF5D7F74CF40918302509184024B
:1018F0006091850270918602992311F0546042CF65
:101900005B7F66CF40918302509184026091850293
:1019100070918602992311F0586034CF577F58CFC9
:1019200040918302509184026091850270918602F9
:10193000992311F0506126CF5F7E4ACF40918302F8
:10194000509184026091850270918602992311F072
:10195000506218CF5F7D3CCF40918302509184024A
:101960006091850270918602992311F050640ACF2C
:101970005F7B2ECF4091830250918402609185025B
:1019800070918602992311F05068FCCE5F7720CFCA
:101990004091830250918402609185027091860289
:1019A000992311F06160EECE6E7F12CF40918302D9
:1019B000509184026091850270918602992311F002
:1019C0006260E0CE6D7F04CF40918302509184022B
:1019D0006091850270918602992311F06460D2CEE5
:1019E0006B7FF6CE40918302509184026091850214
:1019F00070918602992311F06860C4CE677FE8CEAB
:101A00004091830250918402609185027091860218
:101A1000992311F06061B6CE6F7EDACE40918302D9
:101A2000509184026091850270918602992311F091
:101A30006062A8CE6F7DCCCE40918302509184022B
:101A40006091850270918602992311F060649ACEAC
:101A50006F7BBECE409183025091840260918502DB
:101A600070918602992311F060688CCE6F77B0CEAA
:101A700040918302509184026091850270918602A8
:101A8000992311F071607ECE7E7FA2CE40918302B9
:101A9000509184026091850270918602992311F021
:101AA000726070CE7D7F94CE40918302509184020B
:101AB0006091850270918602992311F0746062CE64
:101AC0007B7F86CE40918302509184026091850293
:101AD00070918602992311F0786054CE777F78CE8A
:101AE0004091830250918402609185027091860238
:101AF000992311F0706146CE7F7E6ACE40918302B9
:101B0000509184026091850270918602992311F0B0
:101B1000706238CE7F7D5CCE992309F461CE3ACED7
:101B2000CF93C82F873050F580910001909101012B
:101B3000892B11F580E40E94120690930101809395
:101B40000001892BB1F482E10E94630690930101A8
:101B500080930001892B69F481E090E001C0880F37
:101B6000CA95EAF780950E946306909301018093DD
:101B7000000184E98093BC00CF9108958A30B1F0D0
:101B800038F4883069F0893071F0209A2898F4CFC1
:101B90008C3091F070F08D30C1F73E9A4698ECCFC2
:101BA000219A2998E9CF229A2A98E6CF239A2B984E
:101BB000E3CF529A5A98E0CF539A5B98DDCF84B125
:101BC000807F84B985B1807F85B93E9846988AB177
:101BD000837F8AB98BB1837F8BB9089580B38D7869
:101BE00080BB81B3826781BB0895CF92DF92EF9271
:101BF000FF920F931F93CF93DF93C82F873008F086
:101C000090C08091000190910101892B09F094C04E
:101C100080E40E9412069093010180930001892BB9
:101C200009F44BC090E084E98093BC002C2F30E095
:101C3000F901E95CFC4FA081A9279083F901EE0F1F
:101C4000FF1FEE0FFF1FE150FD4F70E060E040E02E
:101C5000C1E0D0E0CA2ED12C55E0162F8191882307
:101C600009F46CC07F01A1E0EA1AF1088150D701A4
:101C70008C93D60102C0B595A7951A95E2F7A0FFFF
:101C800005C08F0101501109D8015C936F5F7F4F30
:101C90006430710511F7255B3C4F842F8095F90165
:101CA000208182239423892BDF91CF911F910F9163
:101CB000FF90EF90DF90CF90089583E10E9463063C
:101CC0009093010180930001892B09F0ABCF81E44F
:101CD0000E9412069093010180930001892B09F064
:101CE000A1CF84E88093BC000E9406068C018091FD
:101CF000BC0087FF08C09091BB0090951092010135
:101D00001092000190CF0E940606801B910B883E26
:101D1000934068F38EEF9FEF909301018093000151
:101D200081CF8FB19FB18695817096959695969546
:101D30009E70982B90957ACF90E078CF7E01062EFA
:101D400001C0EE0C0A94EAF74E2993CFCF93C091CD
:101D5000E9002091EC00922F917020FD90E82091F5
:101D60001D0120FF12C0CF70C92B90910E019F70F2
:101D70009093E9009091EB0090FF04C09091EE00E9
:101D800097FD05C0CF70C093E900CF9108959FEFF4
:101D90002091E800915025FD06C025ED2A95F1F728
:101DA00000009111F5CF8093F1008DE091E00E9449
:101DB0005E038091E80080FFE5CF8091E8008E7798
:101DC0008093E800DFCF882309F408C18238B9F492
:101DD0000E94350881FD02C189E30E94EF060E943E
:101DE000A0062FEF81EE94E0215080409040E1F773
:101DF00000C0000089E30E94C4060C94A00683384A
:101E0000A1F40E94350880FDE9C083E50E94EF0639
:101E10000E94A0062FEF81EE94E021508040904078
:101E2000E1F700C0000083E5E6CF8438A1F40E940A
:101E3000350882FDD3C087E40E94EF060E94A00609
:101E40002FEF81EE94E0215080409040E1F700C0F8
:101E5000000087E4D0CF9CEF980F913A18F40E94CD
:101E6000EF06CBCF90E2980F983068F4877021E0AE
:101E700030E001C0220F8A95EAF78091F502822BAB
:101E80008093F502BACF9BE5980F933070F4853AB2
:101E900031F0863A39F083E890E00C94AC0781E8A1
:101EA00090E0FBCF82E890E0F8CF98E5980F97316B
:101EB00008F08EC0883A09F446C0893A09F446C051
:101EC0008A3A09F446C08B3A09F446C08C3A09F4C0
:101ED00046C08B3B09F446C08C3B09F446C08D3AA2
:101EE00009F446C0803B09F446C08E3A09F446C066
:101EF0008F3A09F446C0813B09F446C0823B09F49D
:101F000046C0833B09F446C0843B09F446C0853B88
:101F100009F446C0863B09F446C0873B09F446C035
:101F2000883B09F446C0893B09F446C08D3B09F45F
:101F300046C08E3B09F446C08A3B09F446C090E097
:101F400080E00C94960782EE90E0FBCF89EE90E063
:101F5000F8CF8AEE90E0F5CF85EB90E0F2CF86EBFC
:101F600090E0EFCF83EB90E0ECCF84EB90E0E9CF13
:101F700087EB90E0E6CF8CEC90E0E3CF8DEC90E047
:101F8000E0CF83E891E0DDCF8AE891E0DACF82E923
:101F900091E0D7CF84E991E0D4CF81E292E0D1CF34
:101FA00083E292E0CECF84E292E0CBCF85E292E072
:101FB000C8CF86E292E0C5CF87E292E0C2CF8FE63B
:101FC00090E0BFCF80E790E0BCCF8AE292E0B9CF4B
:101FD000803F20F00E9474050C948A060895909129
:101FE0008102923069F490918002943158F4E92F83
:101FF000F0E0E559FD4F80839F5F90938002089544
:102000000C94E30E0895CF92DF92EF92FF92C0906E
:102010008302D0908402E0908502F0908602C11481
:1020200091E0D906E104F10461F4811103C084E177
:102030000E94EF0FC701B601FF90EF90DF90CF90A5
:102040000895C11492E0D906E104F10421F481114C
:10205000F1CF84E0EDCFC11494E0D906E104F1049E
:1020600021F48111E7CF8AE1E3CFC11490E1D906D1
:10207000E104F10421F48111DDCF88E0D9CFC1144E
:1020800090E4D906E104F10421F48111D3CF85E174
:10209000CFCFC11498E0D906E104F10421F48111F5
:1020A000C9CF86E1C5CFC11490E2D906E104F1049D
:1020B00021F48111BFCF87E0BBCFC11490E8D906CE
:1020C000E104F10421F48111B5CF89E0B1CF94E0AE
:1020D000C916D104E104F10421F48111ABCF87E1E9
:1020E000A7CF98E0C916D104E104F10421F48111CD
:1020F000A1CF8AE09DCFC114D10491E0E906F1049B
:1021000021F4811197CF86E093CFC114D10492E0DE
:10211000E906F10421F481118DCF89E189CFC11441
:10212000D10494E0E906F10421F4811183CF81E127
:102130007FCFC114D10498E0E906F10421F48111A4
:1021400079CF80E175CF90E1C916D104E104F104A3
:1021500021F481116FCF8CE16BCF90E2C916D104CD
:10216000E104F10421F4811165CF8BE061CFC1144A
:10217000D10490E1E906F10421F481115BCF88E1FB
:1021800057CFC114D10490E4E906F10421F4811180
:1021900051CF8CE04DCFC114D104E10491E0F90698
:1021A00021F4811147CF82E143CFC114D104E1046E
:1021B00094E0F90621F481113DCF83E139CFC114B8
:1021C000D104E10490E1F90621F4811133CF8FE2CB
:1021D0002FCFC114D10490E2E906F10421F481115A
:1021E00029CF8DE025CFC114D10490E8E906F10490
:1021F00021F481111FCF8EE01BCFC114D104E10463
:1022000092E0F90621F4811115CF8FE011CFC114AE
:10221000D104E10498E0F90621F481110BCF83E3A6
:1022200007CFC114D104E10490E2F90621F4811131
:1022300001CF86E3FDCE90E4C916D104E104F10498
:1022400021F48111F7CE8EE1F3CE90E8C916D104C6
:10225000E104F104B1F3C12CD12C7601EBCE0F9344
:102260001F93CF93DF93C62FD42F022FFC018281BF
:102270008823A1F0609390020E9406069093DC01EF
:102280008093DB01C77081E001C0880FCA95EAF72F
:10229000DF91CF911F910F910C948C0710919002B8
:1022A000161338C08091DB019091DC010E94DC059F
:1022B000883C910578F5C0E2CD0F1D17B9F080E29A
:1022C000810F883040F4177081E001C0880F1A95A3
:1022D000EAF70E948107C83048F481E09D2F97708B
:1022E00001C0880F9A95EAF70E948C07802F0E9400
:1022F000E30E802F0E944108C83098F4D77081E027
:1023000001C0880FDA95EAF7DF91CF911F910F9105
:102310000C948107C77081E001C0880FCA95EAF765
:10232000F3CFDF91CF911F910F910895FF920F93FB
:102330001F93CF93DF938C01F8012491222309F49A
:1023400050C0E8012196213049F4FE011491812FFB
:102350000E94E30E812F0E94410806C0223041F402
:10236000FE0184910E94E30E8E010F5F1F4FE4CFA8
:10237000233019F4FE018491EECF30E0F901EC53E3
:10238000FE4FD491F901EC5BFE4FF490F901EC5350
:10239000FF4FC491FF2019F081EE0E94E30ECC2381
:1023A00019F086EE0E94E30E8D2F0E94E30ED933C2
:1023B00049F4FFEF23EC89E0F15020408040E1F741
:1023C00000C000008D2F0E944108CC2319F086EE3A
:1023D0000E944108FF2019F081EE0E944108E801A7
:1023E000C3CFDF91CF911F910F91FF900895CF92AE
:1023F000DF92EF92FF92C0908302D0908402E0902F
:102400008502F090860290E4C916D104E1049CE3B1
:10241000F90689F4811108C088EB90E00E949611BA
:102420008CEA90E00E949611C701B601FF90EF90F0
:10243000DF90CF90089590ECC916D1049FE0E90693
:10244000F10431F48111F0CF8EEA0E94EF0FECCF4E
:10245000C1149CE3D906E104F10449F48111E4CFED
:1024600080918102813001F78093DA01DDCF9CE217
:10247000C91690E2D906E104F10431F48111D4CFF8
:102480008AE20E94EF0FD0CFC1149AE0D90692E001
:10249000E906F10471F48111C7CF85EF0E9474053C
:1024A0000E948A0681E08093880285EF80938702EC
:1024B000BBCFC11490EAD90692E0E906F10471F4A9
:1024C0008111B2CF84EF0E9474050E948A0681E0D8
:1024D0008093880284EF80938702A6CFC114D10431
:1024E0009FE0E906F10431F481119ECF89E30E9457
:1024F000EF0F9ACFC114D10499E0E906F10431F449
:10250000811192CF89E20E94EF0F8ECFC114D104C6
:1025100096E0E906F10431F4811186CF80EE0E9445
:10252000EF0F82CF90ECC916D10499E0E906F104CF
:1025300049F4811179CF80EE0E94EF0F81EE0E9465
:10254000EF0F72CF90E4C916D10495E0E906F104CB
:1025500061F4811169CF80EE0E94EF0F81EE0E943D
:10256000EF0F82EE0E94EF0F5FCFC114D104E104A0
:102570009CE3F90631F4811157CF83EE0E94EF0FEF
:1025800053CFC114D104E10494E1F90631F481116F
:102590004BCF80EE0E94EF0F47CFC114D104E1046E
:1025A00098E2F90631F481113FCF82EE0E94EF0FDD
:1025B0003BCF90E4C916D10491E0E906F10431F46F
:1025C000811132CF80EE0E94EF0F2ECFC114D104C3
:1025D00093E0E906F10431F4811126CF82EE0E94E6
:1025E000EF0F22CFC114D10492E0E906F10431F4D7
:1025F00081111ACF81EE0E94EF0F16CFC1149AE518
:10260000D90690E3E906F10431F481110DCF8EE390
:102610000E94EF0F09CFC1149AE5D90690ECE906A4
:10262000F10431F4811100CF8FE30E94EF0FFCCE53
:10263000C1149AE5D906E10493E0F90631F4811159
:10264000F3CE80E40E94EF0FEFCEC1149AE5D906D5
:10265000E1049CE0F90631F48111E6CE81E40E94A8
:10266000EF0FE2CEC1149AE5D90690E1E906F10434
:1026700031F48111D9CE8AE30E94EF0FD5CEC11477
:102680009AE5D90690E4E906F10431F48111CCCE43
:102690008BE30E94EF0FC8CEC1149AE5D906E1047E
:1026A00091E0F90631F48111BFCE8CE30E94EF0F67
:1026B000BBCEC1149AE5D906E10494E0F90631F4E1
:1026C0008111B2CE8DE30E94EF0FAECEC1149AE518
:1026D000D90690E2E906F10431F48111A5CE82E435
:1026E0000E94EF0FA1CEC1149AE5D906E10492E051
:1026F000F90631F4811198CE83E40E94EF0F94CE55
:10270000C1149AE5D90690E8E906F10431F4811183
:102710008BCE84E40E94EF0F87CEC1149AE5D906D0
:10272000E10498E0F90631F481117ECE85E40E943F
:10273000EF0F7ACE9CE0C916D10490E1E906F104CE
:1027400031F4811171CE80E50E94EF0F6DCE9CE0D7
:10275000C916D10490E4E906F10431F4811164CE84
:1027600081E50E94EF0F60CE9CE0C916D104E10420
:1027700091E0F90631F4811157CE82E50E94EF0F06
:1027800053CE9CE0C916D104E10494E0F90631F47B
:1027900081114ACE8FE40E94EF0F46CE9CE1C9160C
:1027A000D104E104F10431F481113ECE8BE40E94A6
:1027B000EF0F3ACE9CE2C916D104E104F10431F4E2
:1027C000811132CE8EE40E94EF0F2ECEC1149AEA10
:1027D000D90690E1E906F10431F4811125CE8CEAA5
:1027E0000E94EF0F21CEC1149AEAD90690E4E906BF
:1027F000F10431F4811118CE8EEA0E94EF0F14CE4D
:10280000C1149AEAD906E10491E0F90631F4811184
:102810000BCE8EEA0E94EF0F07CEC1149AEAD906BA
:10282000E10494E0F90631F48111FECD8BEA0E94B7
:10283000EF0FFACDC1149AEAD906E10490E1F90646
:1028400031F48111F1CD89EA0E94EF0FEDCDC11471
:102850009AEAD906E10490E2F90631F48111E4CD57
:102860008AEA0E94EF0FE0CDC1149AEAD906E1048A
:1028700098E0F90631F48111D7CD88EA0E94EF0F74
:10288000D3CD90E4C91691E0D906E104F10431F406
:102890008111CACD8EE10E94EF0FC6CD90E4C9161A
:1028A00094E0D906E104F10431F48111BDCD8FE14A
:1028B0000E94EF0FB9CD90E4C91690E1D906E1046A
:1028C000F10431F48111B0CD80E20E94EF0FACCD64
:1028D00090E4C916D906E104F10431F48111A4CDC4
:1028E00081E20E94EF0FA0CD94E4C916D104E10467
:1028F000F10431F4811198CD82E20E94EF0F94CD62
:1029000090E5C916D104E104F10431F481118CCDB4
:1029100083E20E94EF0F88CD90E4C916D10490E1C4
:10292000E906F10431F481117FCD84E20E94EF0FBA
:102930007BCD90E4C916D104E906F10431F481118C
:1029400073CD85E20E94EF0F6FCD90E4C916D104DC
:10295000E10491E0F90631F4811166CD86E20E942E
:10296000EF0F62CD90E4C916D104E10494E0F906BA
:1029700031F4811159CD87E20E94EF0F55CD90E8D7
:10298000C91691E0D906E104F10431F481114CCD6E
:102990008EE10E94EF0F48CD90E8C91694E0D90669
:1029A000E104F10431F481113FCD8FE10E94EF0F7A
:1029B0003BCD90E8C91690E1D906E104F10431F469
:1029C000811132CD80E20E94EF0F2ECD90E8C91622
:1029D00090E4D906E104F10431F4811125CD81E2BE
:1029E0000E94EF0F21CD94E8C916D104E104F1044F
:1029F00031F4811119CD82E20E94EF0F15CD90E9DB
:102A0000C916D104E104F10431F481110DCD83E242
:102A10000E94EF0F09CD90E8C916D10490E1E906B4
:102A2000F10431F4811100CD84E20E94EF0FFCCC5F
:102A300090E8C916D10490E4E906F10431F481115B
:102A4000F3CC85E20E94EF0FEFCC90E8C916D104D9
:102A5000E10491E0F90631F48111E6CC86E20E94AE
:102A6000EF0FE2CC90E8C916D104E10494E0F90636
:102A700031F48111D9CC87E20E94EF0FD5CC90E8D8
:102A8000C916D10491E0E906F10431F48111CCCCEE
:102A900082E20E94EF0FC8CC90E8C916D10498E0FA
:102AA000E906F10431F48111BFCC8BE20E94EF0FF3
:102AB000BBCCC114D1049CE0E906F10431F48111CE
:102AC000B3CC8AE20E94EF0FAFCCC114D104E10471
:102AD00090E3F90631F48111A7CC88E20E94EF0F50
:102AE000A3CCC114D10494E0E906F10431F48111BE
:102AF0009BCC88E20E94EF0F97CCC114D104E10473
:102B000090E1F90631F481118FCC8AE20E94EF0F37
:102B10008BCC90E4C916D104E104F10431F48111A5
:102B200083CC8AE20E94EF0F7FCC90E8C916D104D3
:102B3000E104F10431F4811177CC8AE20E94EF0FB5
:102B400073CCC114D10491E0E906F10431F4811190
:102B50006BCC8CE20E94EF0F67CCC114D10498E0DB
:102B6000E906F10431F481115FCC8CE20E94EF0F91
:102B70005BCCC114D104E10490E2F90631F4811177
:102B800053CC89E20E94EF0F4FCC92E0C916D104DA
:102B90009CE0E906F10431F4811146CC88E20E9400
:102BA000EF0F42CC92E0C916D10493E0E906F1049C
:102BB00031F4811139CC8CE20E94EF0F35CC92E0D8
:102BC000C91690E3D906E104F10449F481112CCC33
:102BD00081EE0E94EF0F86E20E94EF0F25CC92E07B
:102BE000C91690ECD906E104F10449F481111CCC1A
:102BF00081EE0E94EF0F87E20E94EF0F15CC9EE05E
:102C0000C916D104E104F10431F481110DCC85E33E
:102C10000E94EF0F09CC92E0C916D104E10490E3C1
:102C2000F90631F4811100CC89E20E94EF0FFCCB50
:102C300092E0C91693E0D906E104F10449F4811148
:102C4000F3CB81EE0E94EF0F80E20E94EF0FECCBFE
:102C500092E0C9169CE0D906E104F10449F481111F
:102C6000E3CB81EE0E94EF0F81E20E94EF0FDCCBFD
:102C700092E0C91691E0D906E104F10449F481110A
:102C8000D3CB81EE0E94EF0F8EE10E94EF0FCCCBF1
:102C900092E0C916D906E104F10449F48111C4CBCC
:102CA00081EE0E94EF0F82E20E94EF0FBDCB92E017
:102CB000C91694E0D906E104F10449F48111B4CBBA
:102CC00081EE0E94EF0F8FE10E94EF0FADCB92E0FB
:102CD000C91698E0D906E104F10449F48111A4CBA6
:102CE00081EE0E94EF0F83E20E94EF0F9DCB92E0F6
:102CF000C91690E1D906E104F10449F4811194CB9D
:102D000081EE0E94EF0F8FE20E94EF0F8DCB92E0D9
:102D1000C91690E2D906E104F10431F4811184CBA3
:102D20008FE20E94EF0F80CB92E0C91690E4D906A3
:102D3000E104F10449F4811177CB81EE0E94EF0F99
:102D400080E30E94EF0F70CB92E0C91690E8D9069D
:102D5000E104F10431F4811167CB80E30E94EF0FAD
:102D600063CB96E0C916D104E104F10449F4811162
:102D70005BCB81EE0E94EF0F81E30E94EF0F54CBFB
:102D80009AE0C916D104E104F10449F481114CCB55
:102D900081EE0E94EF0F85E30E94EF0F45CB92E199
:102DA000C916D104E104F10431F481113DCB84E36F
:102DB0000E94EF0F39CB92E2C916D104E104F1046D
:102DC00049F4811131CB81EE0E94EF0F84E30E9420
:102DD000EF0F2ACB92E0C916D10490E1E906F10485
:102DE00031F4811121CB87E50E94EF0F1DCB92E0DA
:102DF000C916D10490E2E906F10449F4811114CB1B
:102E000081EE0E94EF0F84E20E94EF0F0DCB92E063
:102E1000C916D10490E4E906F10431F4811104CB20
:102E20008DE20E94EF0F00CB92E0C916D10490E82A
:102E3000E906F10431F48111F7CA8EE20E94EF0F26
:102E4000F3CA92E0C916D104E10491E0F90631F425
:102E50008111EACA88E30E94EF0FE6CA92E0C91620
:102E6000D104E104F90631F48111DECA86E30E943F
:102E7000EF0FDACA92E0C916D104E10494E0F90632
:102E800031F48111D1CA85E50E94EF0FCDCA92E0DD
:102E9000C916D104E10498E0F90631F48111C4CADD
:102EA00087E30E94EF0FC0CA92E0C916D104E10483
:102EB00090E1F90631F48111B7CA8BE20E94EF0F5D
:102EC000B3CA92E0C916D10491E0E906F10431F4E5
:102ED0008111AACA81EE0E94EF0FA6CA92E0C9161C
:102EE000D104E906F10431F481119ECA88E30E94FD
:102EF000EF0F9ACA92E0C916D10494E0E906F104F2
:102F000031F4811191CA83E30E94EF0F8DCA92E0E0
:102F1000C916D10498E0E906F10431F4811184CA9C
:102F200081E30E94EF0F80CA92E4C916D104E10444
:102F3000F10431F4811178CA81E30E94EF0F74CA61
:102F400092E0C916D10490E3E906F10431F481114D
:102F50006BCA80E50E94EF0F67CA92E0C916D104E0
:102F600090ECE906F10431F481115ECA81E50E941A
:102F7000EF0F5ACA92E0C916D104E10493E0F906B2
:102F800031F4811151CA82E50E94EF0F4DCA92E0DF
:102F9000C916D104E1049CE0F90631F4811144CA58
:102FA0008FE40E94EF0F40CAC11493E0D906E104F8
:102FB000F10431F4811138CA84E00E94EF0F34CA61
:102FC000C1149CE0D906E104F10431F481112CCA4A
:102FD00086E10E94EF0F28CAC11490E3D906E104EC
:102FE000F10431F4811120CA87E00E94EF0F1CCA5E
:102FF000C11490ECD906E104F10431F4811114CA32
:1030000089E00E94EF0F10CA9CE0C916D104E104C8
:10301000F10431F4811108CA8AE00E94EF0F04CA5A
:1030200090E3C916D104E104F10431F48111FCC923
:103030008BE00E94EF0FF8C9C114D10490E3E906B8
:10304000F10431F48111F0C98DE00E94EF0FECC959
:10305000C114D104E1049CE0F90631F48111E4C902
:1030600083E30E94EF0FE0C9C114D104E10493E0AF
:10307000F90631F48111D8C98FE00E94EF0FD4C94D
:10308000C114D10490ECE906F10431F48111CCC9EA
:103090008EE00E94EF0FC8C9C11491E0D906E10487
:1030A000F10431F48111C0C984E10E94EF0FBCC961
:1030B000C11492E0D906E104F10431F48111B4C9DC
:1030C0008DE10E94EF0FB0C9C11494E0D906E1046C
:1030D000F10431F48111A8C98AE10E94EF0FA4C95B
:1030E000C11498E0D906E104F10431F481119CC9BE
:1030F0008BE10E94EF0F98C9C11490E1D906E10459
:10310000F10431F4811190C988E00E94EF0F8CC95D
:10311000C11490E2D906E104F10431F4811184C9AB
:1031200086E00E94EF0F80C9C11490E4D906E10443
:10313000F10431F4811178C985E10E94EF0F74C95F
:10314000C11490E8D906E104F10431F481116CC98D
:1031500089E10E94EF0F68C994E0C916D104E10427
:10316000F10431F4811160C987E10E94EF0F5CC95D
:1031700098E0C916D104E104F10431F4811154C975
:1031800085E00E94EF0F50C990E1C916D104E10417
:10319000F10431F4811148C98CE10E94EF0F44C958
:1031A00090E2C916D104E104F10431F481113CC963
:1031B00081E10E94EF0F38C9C114D10490E1E90602
:1031C000F10431F4811130C988E10E94EF0F2CC95C
:1031D000C114D10490E2E906F10431F4811124C94B
:1031E00080E10E94EF0F20C9C114D10490E4E906E8
:1031F000F10431F4811118C98CE00E94EF0F14C959
:10320000C114D10490E8E906F10431F481110CC92C
:1032100086E30E94EF0F08C9C114D104E10491E0D4
:10322000F90631F4811100C982E10E94EF0FFCC858
:10323000C114D104E10492E0F90631F48111F4C81B
:1032400087E30E94EF0FF0C8C114D104E10494E0B9
:10325000F90631F48111E8C883E10E94EF0FE4C858
:10326000C114D104E10498E0F90631F48111DCC8FD
:1032700088E30E94EF0FD8C8C12CD12C7601D4C8A6
:103280002F923F924F925F926F927F928F929F9276
:10329000AF92BF92CF92DF92EF92FF920F931F9364
:1032A000CF93DF93CDB7DEB7CB57D1090FB6F894E4
:1032B000DEBF0FBECDBF182FC0908302D090840216
:1032C000E0908502F0908602C0FE0CC0D701C601D6
:1032D00021E082278093830290938402A093850249
:1032E000B0938602112361F181E00E940310809067
:1032F000830290908402A0908502B09086026815A7
:1033000079058A059B05E1F480E0C558DF4F0FB6CB
:10331000F894DEBF0FBECDBFDF91CF911F910F910B
:10332000FF90EF90DF90CF90BF90AF909F908F90E5
:103330007F906F905F904F903F902F900C94031070
:1033400081E00E94F7118090830290908402A09007
:103350008502B0908602681579058A059B0509F4F7
:1033600046C0AE014F5F5F4FA3965FAF4EAFA397CE
:10337000A5965FAF4EAFA597812C912C5401EA968C
:103380001FAE1EAEEA978C149D04AE04BF0409F470
:1033900075C127EE31E0A7963FAF2EAFA797312C2E
:1033A000212CA8961FAEA897EB961FAEEB97EC9634
:1033B0001FAEEC9700E060E070E0CB012401350126
:1033C0004094509460947094E0964CAE5DAE6EAEB6
:1033D0007FAEE097A501940122703327442755273B
:1033E000E4962CAF3DAF4EAF5FAFE497C5C080E031
:1033F0000E94F7118091DA01882361F18091D50153
:103400009091D601A091D701B091D8018093830209
:1034100090938402A0938502B09386028091D30199
:103420009091D4019093690280936802E3E5F1E002
:10343000A7EEB1E041915191619171914D935D93EE
:103440006D937D9351E0E33DF507A1F71092DA010A
:1034500010E032CF609183027091840280918502E6
:1034600090918602C558DF4F0FB6F894DEBF0FBEAD
:10347000CDBFDF91CF911F910F91FF90EF90DF9023
:10348000CF90BF90AF909F908F907F906F905F9004
:103490004F903F902F900C94760BA796AEADBFAD9A
:1034A000A7972D913D914D915D91A796BFAFAEAF7E
:1034B000A797E0964CAC5DAC6EAC7FACE097422237
:1034C000532264227522E8964CAE5DAE6EAE7FAE9E
:1034D000E897409283025092840260928502709233
:1034E0008602411451046104710409F442C021149C
:1034F000310489F0611571058105910561F0462659
:10350000572668267926A30192012230310541050C
:10351000510509F443C0E4964CAC5DAC6EAC7FAC95
:10352000E49745284628472879F0E8962CAD3DAD2C
:103530004EAD5FADE8972260209383023093840202
:10354000409385025093860281E0112309F45CC008
:103550000E940310611571058105910551F0A8962F
:103560006FAFA897EB967FAFEB97EC968FAFEC978A
:10357000092F2FEF221A320A209168023091690236
:10358000221533050CF089CFA8966FADA897EB965E
:103590007FADEB97EC968FADEC97902F862A972A0C
:1035A000A82AB92AA596AEADBFADA5976D937D9318
:1035B0008D939D93A596BFAFAEAFA597EA96EEAD5E
:1035C000FFADEA973196EA96FFAFEEAFEA977897AC
:1035D00009F0D9CEC558DF4F0FB6F894DEBF0FBE45
:1035E000CDBFDF91CF911F910F91FF90EF90DF90B2
:1035F000CF90BF90AF909F908F907F906F905F9093
:103600004F903F902F9008950E94F711A3CFA3965B
:10361000EEADFFADA39781919191A191B191A39648
:10362000FFAFEEAFA3978093830290938402A093A1
:103630008502B093860280E01123E9F00E94031016
:10364000FFEFAF1ABF0AEA964EAC5FACEA974A1496
:103650005B04E9F68091DA01811104C0C701B6016B
:103660000E94760BC0928302D0928402E09285027F
:10367000F0928602AFCF0E94F711E2CFB12CA12CBD
:10368000E2CF80E290E0909301018093000180916D
:10369000D901811111C01092B9008CE08093B8005B
:1036A00081E08093D9012FEF83ED90E3215080409A
:1036B0009040E1F700C0000080E40E941206909361
:1036C000010180930001892B09F040C080E00E9435
:1036D00063069093010180930001892BB9F580E87E
:1036E0000E9463069093010180930001892B71F57C
:1036F0008FEF0E9463069093010180930001892B54
:1037000029F584E98093BC0080E40E94120690931E
:10371000010180930001892BC9F48CE00E946306AB
:103720009093010180930001892B81F480E80E942D
:1037300063069093010180930001892B39F48FEF88
:103740000E946306909301018093000184E98093B5
:10375000BC0080910001089590E080E00E94E02D7F
:1037600021E08D3E9E4F09F020E0822F08956DEEFE
:103770007EEF90E080E00E94042E60E082E090E026
:103780000E94E62D60E083E090E00E94E62D10921A
:10379000F6021092F7021092F8021092F90260E01D
:1037A00084E090E00E94E62D60E085E090E00E94D9
:1037B000E62D60E086E090E00E94E62D6FEF87E066
:1037C00090E00E94E62D40E050E0BA0188E090E0F1
:1037D0000E94F82D60E08DE090E00E94E62D40E030
:1037E00050E0BA0188E190E00E94F82D60E087E1A6
:1037F00090E00E94E62D40E050E0BA018FE090E0BA
:103800000E94F82D40E050E0BA0183E190E00C9472
:10381000F82D1092F50280910C01882369F08091B7
:10382000460387FF09C0E2E3F1E08EE1DF011D926C
:103830008A95E9F70C94C207E3E3F1E086E0F6CF5E
:103840000F931F93CF93DF93CDB7DEB7AA970FB631
:10385000F894DEBF0FBECDBF8091A103882309F489
:1038600069C31091E9001F709091EC00892F81705D
:1038700090FD80E8182B1092E9008091E80083FF0A
:1038800056C389E993E02091F100FC012193CF0117
:10389000F3E0813A9F07B9F780919A03833009F4E6
:1038A000B8C008F04CC0813009F47EC0823009F401
:1038B000F8C08091E80083FF9BC020910D018091AA
:1038C0009D0390919E032817190609F091C08091DD
:1038D0009A03813209F405C108F0F4C0803209F07E
:1038E00087C080919903813209F082C08091E800FD
:1038F000877F8093E8008091E80082FF2FC130919C
:10390000F1002091F1009091F1008091F10030934D
:10391000210120932201909323018093240180911F
:10392000F100809325018091F10080932601809120
:10393000F100809327018091E8008B770AC18A30DB
:1039400009F49EC08B3009F481C0893009F0B1CFF1
:1039500080919903813209F0ACCF80919D039091C1
:103960009E03892B09F0A5CF8091E800877F809383
:10397000E8008091E80082FF37C09091F3008091C9
:10398000F200029729F48091F1008B7F813021F4BD
:103990008091F100809375038091E8008B7780938C
:1039A000E8000E94900385CF80919903813A09F045
:1039B00080CF8091E800877F8093E80080919D030D
:1039C00090919E03892B61F460E286E793E070E0BA
:1039D0000E9442048091E8008B778093E80069CFD1
:1039E00060E090E080E0F3CF8091A1038111C1CF2E
:1039F0008091E80083FF8DC28091990390919A0392
:103A00009A3008F086C2E92FF0E0EC5AF14D0C94A0
:103A1000BE2D80919903813A09F04BCF80919D038F
:103A200090919E03892B09F044CF8091E800877F15
:103A30008093E8008091E80080FFFCCF80910C012A
:103A40008093F1008091E8008E77A9CF809199034F
:103A5000813209F02ECF80919D0390919E03892B96
:103A600009F027CF8091E800877F8093E8000E94CB
:103A7000900380919B0380930C010E94091C19CF35
:103A800080919903813209F014CF8091E800877FFB
:103A90008093E8000E94900380919C0380937403BC
:103AA00008CF80919903813A09F003CF8091E80013
:103AB000877F8093E8008091E80080FFFCCF8091B1
:103AC0007403BECF823209F44EC0833209F090CF26
:103AD00080919903813209F08BCF8091E800877F34
:103AE00038C080919903813A09F082CF8091E80033
:103AF000877F8093E8008091E80080FFFCCF809171
:103B0000210190912201A0912301B0912401809381
:103B1000F100492F5A2F6B2F77274093F100AD0109
:103B2000662777274093F1008B2F9927AA27BB2779
:103B30008093F100809125018093F100809126010E
:103B40008093F100809127018093F1008091E8003B
:103B50008E778093E8000E9490034ACF8091A10362
:103B60008111C9CE45CF80919903813209F040CFB0
:103B70008091E800877F8093E8000E949003809105
:103B80009B0390919C0390931E0180931D0130CF65
:103B9000803899F0823809F0BCC180919D038F7004
:103BA000873008F0B6C18093E9008091EB0085FB77
:103BB000882780F91092E90006C0809196039091C1
:103BC0009703911182609091E800977F9093E800AD
:103BD0008093F1001092F1008091E8008E7795C1FA
:103BE000882309F483C1823009F093C180919B033B
:103BF000811186C180919D038F702FEF280F263091
:103C000008F087C18093E9002091EB0020FF78C184
:103C1000933031F48091EB0080628093EB0070C1AF
:103C20009091EB0090619093EB0021E030E001C0B7
:103C3000220F8A95EAF72093EA001092EA00809119
:103C4000EB008860EACF811164C100919B030F777C
:103C50008091E3008078802B8093E3008091E800DE
:103C6000877F8093E8000E9490038091E80080FFA6
:103C7000FCCF8091E30080688093E30082E0011133
:103C800083E08093A10345C18058823008F041C190
:103C900080919B0390919C038C3D23E09207A1F5BA
:103CA00083E08A838AE289834FB7F894DE01139612
:103CB00020E03EE051E2E32FF0E050935700E49122
:103CC00020FF03C0E295EF703F5FEF708E2F90E012
:103CD000EA30C0F0C7968D939D932F5F243159F73A
:103CE0004FBF8091E800877F8093E8006AE270E030
:103CF000CE0101960E9442048091E8008B77809368
:103D0000E80007C1C096E7CF40919D0350919E0304
:103D1000292F33272330310509F440C078F52130AD
:103D2000310509F472C08FE590E0E6EDF4E0223051
:103D3000310509F0EEC02091E800277F2093E800CC
:103D400020919F033091A0038217930708F49C01F0
:103D500040E02115310509F05DC041115BC0809143
:103D6000E80082FDC9CF8091A103882329F2853024
:103D700019F28091E80083FFF2CFBECF21323105E6
:103D800009F43BC02232310509F0C3C0452B09F0CC
:103D9000C0C082E091E0E4EDF3E0CDCF992781301F
:103DA0009105D9F0009771F082309105F1F00397F9
:103DB00009F0AFC0E7E4F5E0E4918E2F90E0E7E48E
:103DC000F5E007C0E5E8F5E0E4918E2F90E0E5E846
:103DD000F5E0009709F49DC0AECFEDE5F5E0E49184
:103DE0008E2F90E0EDE5F5E0F4CFEDE4F5E0E49121
:103DF0008E2F90E0EDE4F5E0ECCF452B09F089C083
:103E000089E090E0E8EEF4E096CF82E190E0E5E32F
:103E1000F5E091CF8091A103882309F46DCF85301F
:103E200009F46ACF8091E80083FD66CF8091E800B5
:103E300082FD95CF8091E80080FF8BCF9091F300B9
:103E40008091F2002115310519F08830910550F06C
:103E500041E0089709F040E08091E8008E77809378
:103E6000E80077CF44914093F10031962150310919
:103E70000196E8CF803809F04CC08091E800877F38
:103E80008093E800809198038093F100A5CE811182
:103E900040C000919B030230E0F58091E800877FED
:103EA0008093E800009398030E949003002311F090
:103EB00084E005C08091E30087FDFACF81E0809324
:103EC000A10342E261EC81E00E94AF0342E061ECB9
:103ED00082E00E94AF0342E160E884E00E94AF0309
:103EE00042E161E883E00E94AF0313C080919B032D
:103EF000813079F481E0933009F080E0809397037A
:103F00001092E9008091E800877F8093E8000E948A
:103F100090038091E80083FF0AC08091E800877FCA
:103F20008093E8008091EB0080628093EB001F702B
:103F30001093E900AA960FB6F894DEBF0FBECDBF6E
:103F4000DF91CF911F910F910895EF92FF920F9300
:103F50001F93CF937C018B010E942D03C82F8111E9
:103F600019C08091E80085FD0DC08091E8008E7732
:103F70008093E8000E94201C0E942D03882389F36F
:103F8000C82F08C0F70181917F018093F100015093
:103F9000110939F78C2FCF911F910F91FF90EF905E
:103FA00008950F931F93CF93DF9300D00F92CDB757
:103FB000DEB78C010E94A004823011F0843021F51C
:103FC00084E089831B830A8381E08093E9008FEF7B
:103FD0009091E800815095FD06C095ED9A95F1F716
:103FE00000008111F5CF8091E80085FF0DC050E001
:103FF00040E063E070E0CE0101960E94A51F809131
:10400000E8008E778093E8000F900F900F90DF917B
:10401000CF911F910F910895CF93DF9300D00F920E
:10402000CDB7DEB72091A103243031F523E02983F9
:10403000805891099B838A8381E08093E9008FEF08
:104040009091E800815095FD06C095ED9A95F1F7A5
:1040500000008111F5CF8091E80085FF0DC050E090
:1040600040E063E070E0CE0101960E94A51F8091C0
:10407000E8008E778093E8000F900F900F90DF910B
:10408000CF910895CF93DF93EC010E94A00482307A
:1040900011F08430F9F481E08093E9008FEF909182
:1040A000E800815095FD06C095ED9A95F1F7000066
:1040B0008111F5CF8091E80085FF0CC050E040E011
:1040C00066E070E0CE010E94A51F8091E8008E7727
:1040D0008093E800DF91CF910895CF93DF93EC01B7
:1040E0000E94A004823011F08430A9F580910C0167
:1040F000882321F08091460360E287FF69E081E038
:104100008093E9008FEF9091E800815095FD06C003
:1041100095ED9A95F1F700008111F5CF8091E800B7
:1041200085FF19C080910C01811118C050E040E05A
:1041300068E070E0CE0101960E94A51F8091E80022
:104140008E778093E80080E2FE01A6E7B3E001905D
:104150000D928A95E1F7DF91CF91089570E050E0DC
:1041600040E0CE01E9CF0F931F93CF93DF9380916F
:10417000000190910101892B71F0809150018F5FB6
:1041800080935001811107C00E94411B90E09093E1
:104190000101809300010BE413E0C0E08C2F0E942A
:1041A000900DD7E0DC0F8D2F0E94900D8C2F0E9478
:1041B000F50DF80181938F018D2F0E94F50DF80107
:1041C00086830E94DF0DCF5FC73041F78091810267
:1041D000813089F480916A02882369F080916702B6
:1041E00081110FC080915101909152010E94DC0514
:1041F0008F3E924000F581E0DF91CF911F910F91AA
:10420000089580915101909152010E94DC054A97D6
:1042100090F380E00E9440190E94A0060E94091CB1
:104220000E9406069093520180935101809167028B
:104230008111E1CFD7CF81E080936702DCCF86E0A8
:10424000E1EEF1E0DF01982F1D929A95E9F7E9E898
:10425000F2E0DF011D928A95E9F70895CF93C82F08
:104260000E941F21C09345036C2F8DE090E0CF91F9
:104270000C94E62D8F929F92AF92BF92CF92DF92D5
:10428000EF92FF920F931F93CF93DF9300D000D054
:104290000F92CDB7DEB77C01FC0183819481892B1D
:1042A00039F010810181812F80238F3F09F0AFC544
:1042B0000F900F900F900F900F90DF91CF911F9163
:1042C0000F91FF90EF90DF90CF90BF90AF909F90B5
:1042D0008F9008950E94060BD82E682F89819A81AD
:1042E0000E944B07E02FF0E02EE0D29EE00DF11D82
:1042F0001124EE0FFF1FEE0FFF1FE10FF11DEE0F58
:10430000FF1FEC5BFD4F0591149100334AE5140744
:1043100009F44CC090F5C8019A558A9708F46DC00D
:10432000003FFCE51F0709F419C208F0C5C1083DAC
:104330004CE5140709F40EC2093D8CE5180709F491
:104340001DC2073D9CE5190709F0C2C126E241EEF6
:1043500061EEC7010F900F900F900F900F90DF91BB
:10436000CF911F910F91FF90EF90DF90CF90BF9072
:10437000AF909F908F900C942F1101339AE51907FD
:1043800079F6B70181E39AE50E94970B882309F437
:104390008FCFF701408151816281738184810E94B6
:1043A0009E08882309F484CF81E014C0B70180E31C
:1043B0009AE50E94970B882309F47ACFF701408190
:1043C00051816281738184810E949E08882309F44F
:1043D0006FCF80E00F900F900F900F900F90DF91B4
:1043E000CF911F910F91FF90EF90DF90CF90BF90F2
:1043F000AF909F908F900C942E21B701C8010E941E
:10440000970B882309F454CFD0904503F7014081DE
:1044100051816281738184810E949E08582FDD2022
:10442000A1F0F1E0DF1699F110918F02F7014081C0
:1044300051816281738184810E949E08882309F4DE
:1044400048C01F5F10938F0233CFF801FF27EC564F
:10445000FC4F9491A92FA295A695A695A370B0E0C4
:10446000882371F09D012F513E4FF9018081892BE6
:104470008083A757BD4F0C91E92FE02BEC93D4CF4D
:10448000AF51BE4FE92FE0950C91E023F7CF802F7D
:1044900067E00E949E2D492F90E066E070E0641B6B
:1044A000710921E030E001C0220F6A95EAF7FC01B2
:1044B000EF51FE4F4081552349F0422B4083FC01D0
:1044C000E757FD4F8081282B2083AECF20952423F2
:1044D000FBCF115011160CF4B5CF10928F028091C2
:1044E0008802882341F010928802809187020E94FE
:1044F000AF040E948A068091830290918402A09169
:104500008502B09186028F309105A105B10541F574
:104510008091820291E08927809382021092830227
:1045200010928402109285021092860210926A0202
:1045300010926902109268020E94091C1092670290
:10454000E7EEF1E087E692E04FEF5FEF60E070E0CA
:1045500041935193619371938E179F07C9F75CC084
:1045600083309105A105F0E3BF0739F58091810201
:10457000823041F01092800280937F0282E080932B
:104580008102CCCF80917F02809381023BE6E32EB3
:1045900032E0F32E10E000E08091800280171106D7
:1045A00009F01CF40E94091CB9CFF70181917F0129
:1045B0000E94E30E0F5F1F4FEFCF83339105A105DC
:1045C000B10521F481E00E940A08A8CF2091810260
:1045D00081309105A105B10539F4211102C081E0B6
:1045E000CECF109281029ACF213049F580FF31C0A1
:1045F00010926A021092690210926802109283026D
:1046000010928402109285021092860280914503D6
:10461000882359F18130E1F10F900F900F900F90A6
:104620000F90DF91CF911F910F91FF90EF90DF904E
:10463000CF90BF90AF909F908F900C941F2122300D
:1046400041F083709927AA27BB27892B8A2B8B2BB4
:1046500021F080E00E94401961CF2111C9CF8091E3
:104660008202882329F281E0F5CF09E812E02DE8E3
:10467000E22E22E0F22EF80181918F0181110E9439
:10468000A60EE016F106B9F780E00E94A60EC4CF90
:104690008091890280688093890209E812E09FE88E
:1046A000E92E92E0F92EF80181918F010E94A60E69
:1046B000E016F106C1F7B0CF023FECE51E0709F4A2
:1046C00055C008F44FC0033F2CE5120709F452C04F
:1046D000F7018281882309F4ABC31092900205315F
:1046E000FCE51F0708F04DC002302CE5120708F06A
:1046F000CAC001154CE5140709F489C001301C45F6
:1047000009F4B4C0F70100811181882309F440C184
:10471000C8010E94060BD82E682FC8010E944B07C3
:10472000B8018D2D0E94DF08182FD82EF701358192
:1047300032953F70228121111092F402092F0295C7
:104740000F700C3008F05EC1E02FF0E0E25AF14D3E
:104750000C94BE2D27E245EE65EEFBCD26E241EE40
:1047600060EEF7CD27E245EE64EEF3CD26E241EEB2
:1047700062EEEFCD27E245EE66EEEBCD28E241E0BA
:10478000EBCF0C3DECE51E0709F476C020F50631B1
:104790001C4509F0B7CF8091F5028A7A91E009F4BF
:1047A00090E0909391028111EFC089E20E94EF06A0
:1047B0000F900F900F900F900F90DF91CF911F915E
:1047C0000F91FF90EF90DF90CF90BF90AF909F90B0
:1047D0008F900C94A0060D3D4CE5140709F44FC0D2
:1047E0000E3D1C4509F08ECF0F900F900F900F904B
:1047F0000F90DF91CF911F910F91FF90EF90DF907D
:10480000CF90BF90AF909F908F900C94B71B0E9459
:10481000091CEFEFF4E32CE0E150F0402040E1F719
:1048200000C0000081E08093E00080E28093D80027
:104830001092C9008FE19EE40197F1F700C00000DB
:1048400087E090EBDC018093A2039093A303A093F5
:10485000A403B093A50388E19CE00FB6F894A89553
:10486000809360000FBE90936000FFCF8091630340
:104870008160809363031CCD1092720319CD82E096
:104880008093720315CD0E94AC1B811102C00E945F
:10489000B71B84E090E00E94D82D90E090934703EE
:1048A00080934603F801E350FC4580914603816004
:1048B000E231F10538F4E659F14D0C94BE2D8091AA
:1048C00046038260809346036091460384E090E053
:1048D0000E94E62D0F900F900F900F900F90DF9198
:1048E000CF911F910F91FF90EF90DF90CF90BF90ED
:1048F000AF909F908F900C94091C80914603846028
:10490000E1CF809146038860DDCF809146038061CE
:10491000D9CF809146038062D5CF809146038064D1
:10492000D1CF809146038068CDCF809146038C60C3
:10493000C9CF809146038E7FC5CF809146038D7F7E
:10494000C1CF809146038B7FBDCF80914603877F87
:10495000B9CF809146038F7EB5CF809146038F7D7E
:10496000B1CF809146038F7BADCF809146038F7787
:10497000A9CF80914603837FA5CF90914603892FCD
:1049800097FB87F980589ECF85E310CF85E372C2ED
:10499000C8010E942407D82EC3CEF92FFF70FF2E26
:1049A000907F19F0F29480EFF8222223C9F0FF20C3
:1049B00069F080E2810F883010F0D1100BC0809137
:1049C000F502F82AF092F5020E94A006812F0E94BB
:1049D000E30E18C08091F402F82AF092F402F4CFAA
:1049E000812F0E944108FF2069F0F094105E18307A
:1049F00010F0D11023C08091F502F822F092F50258
:104A00000E94A006083039F008F452CC0A5F0F70FB
:104A1000023008F04DCC0F900F900F900F900F9038
:104A2000DF91CF911F910F91FF90EF90DF90CF908A
:104A3000BF90AF909F908F900C9435088091F402B6
:104A4000F822F092F402DCCF892F8F70907F9032A1
:104A500011F08295807F41E0D4120CC0222329F00E
:104A6000333080F60E948C07CDCF323058F60E944A
:104A70008107C8CF222319F03323A1F3A7CF332313
:104A8000B1F3812F0E944108BDCF892F869586956D
:104A9000837061F0813009F0B5CF812F93702111BF
:104AA00002C090E080E00E949607ACCF812F937007
:104AB000211102C090E080E00E94AC07A3CF222326
:104AC00009F1153F99F0163FB9F0143F49F4809170
:104AD000920290919302816090939302809392024C
:104AE000812F0E9474050E948A068CCF80919202C9
:104AF000909193028260F0CF809192029091930204
:104B00008460EACF153F89F0163FA9F0143F49F4BD
:104B100080919202909193028E7F90939302809362
:104B20009202812F0E94AF04DECF80919202909179
:104B300093028D7FF2CF80919202909193028B7FAE
:104B4000ECCF892F837009F06EC021115BCF812FCC
:104B5000829586958770880F880F612F6F70C62E9B
:104B6000D12CF12CE12C082E04C0CC0CDD1CEE1C49
:104B7000FF1C0A94D2F740E050E0BA0114FF0FC0C6
:104B80004FE050E060E070E004C0440F551F661F26
:104B9000771F8A95D2F740955095609570959695B8
:104BA000969593708090F6029090F702A090F8028C
:104BB000B090F9029230D9F028F5913069F04C2983
:104BC0005D296E297F29CB01BA01682179218A21CB
:104BD0009B210E942B0816CFC828D928EA28FB2839
:104BE000CB01BA016C297D298E299F29F2CF4C294E
:104BF0005D296E297F29CB01BA01682579258A258F
:104C00009B25E7CFCB01BA01682179218A219B211D
:104C10000E942B086091F6027091F7028091F802D1
:104C20009091F902DFCF8695222311F0892F8170B0
:104C3000882309F4E7CE812F829586958770880FA7
:104C4000880F612F6F70C62ED12CF12CE12C082E0D
:104C500004C0CC0CDD1CEE1CFF1C0A94D2F740E013
:104C600050E0BA0114FF0FC04FE050E060E070E088
:104C700004C0440F551F661F771F8A95D2F74095D1
:104C80005095609570959695969593708090EF02EB
:104C90009090F002A090F102B090F2029230D9F020
:104CA00028F5913069F04C295D296E297F29CB01C7
:104CB000BA01682179218A219B210E94DD07A2CEB9
:104CC000C828D928EA28FB28CB01BA016C297D29FC
:104CD0008E299F29F2CF4C295D296E297F29CB018E
:104CE000BA01682579258A259B25E7CFCB01BA0132
:104CF000682179218A219B210E94DD076091EF02C2
:104D00007091F0028091F1029091F202DFCF812F39
:104D1000E0EFDE16A9F1ED1558F0F0EEDF1618F50C
:104D2000222309F462C0311151CE892F8F714FC0F7
:104D300042EFD41609F44EC0D41608F444C0E3EF91
:104D4000DE12EECF222309F44CC0292F2F7161E02F
:104D500070E080E090E004C0660F771F881F991F05
:104D60002A95D2F7AACF1F70892F8F71222321F0A5
:104D70000E940A08812F76CE0E94E707812F77CE06
:104D80002223E9F0323008F03DCE292F2F7161E067
:104D900070E080E090E004C0660F771F881F991FC5
:104DA0002A95D2F7C090EF02D090F002E090F10285
:104DB000F090F2026C257D258E259F257ECF333025
:104DC00008F020CEE2CF892F8F71222339F00E9484
:104DD0000A0818CE892F8F712223C9F30E94E70792
:104DE00011CE60E070E0CB0168CF332369F08933E6
:104DF00009F047CEFFEF23EC49E0F150204040405E
:104E0000E1F700C000003DCE892F8F71E7CF85E02C
:104E1000DE01119601900D928A95E1F7F70122814A
:104E200089819A81211156CA0E942407D82E5ACA14
:104E30000531FCE51F0778F402302CE5120708F075
:104E400061CC01154CE5140709F432CA01301C4548
:104E500009F42ECA57CC0C3DECE51E0709F428CA0C
:104E600060F406311C4509F04DCC8091910281110E
:104E70008DCD89E20E94C4069BCC0D3D4CE5140704
:104E800009F416CA0E3D1C4509F412CA3BCC1F9307
:104E9000CF93DF9380919902807FC1F48091960235
:104EA0008823A1F08091CB02C0919A026091940274
:104EB000709195024091970250919802D62FD72376
:104EC000DA01A095B09516E0C81304C0DF91CF9128
:104ED0001F91089590E04115510511F0DF3F31F425
:104EE00001968770F1CF2A0F3B1F17C0189FF00162
:104EF000199FF00D1124E556FD4F21812713F0CFA6
:104F000020812613EDCF22812111EACF2381348124
:104F10002417350740F3241B350B283C310500F7D7
:104F2000209199022F7020612093990226E0289FFA
:104F3000F001299FF00D1124E056FD4F80818F7004
:104F40008061808384E992E00E943A21DF91CF91D1
:104F50001F910C947707BF92CF92DF92EF92FF924E
:104F60000F931F93CF93DF93CDB7DEB761970FB643
:104F7000F894DEBF0FBECDBF8C0185E0F801DE01E5
:104F80001D9601900D928A95E1F7D8012C9111960A
:104F90003C9111971296EC90129780919702909104
:104FA0009802009709F463C14091940250919502D0
:104FB000642F65236F3F09F45AC11396CD90DC909E
:104FC000B0909602BB2009F413C1C816D906C0F1EF
:104FD000F601E81BF90BCF01FF24F394883C9105FF
:104FE00008F0F12C80919902982F907FFF2009F40E
:104FF000C1C091117DC0FE2C531327C0421325C0A0
:10500000E11023C08F7080618093990284E992E05F
:105010000E943A2180919902D80115968C938F2D88
:1050200061960FB6F894DEBF0FBECDBFDF91CF9172
:105030001F910F91FF90EF90DF90CF90BF90089558
:10504000809590958C0D9D1DC7CFCD2829F0822F7E
:1050500083238F3F09F029C180E0B82FB170DB2E88
:1050600080FF3CC08091CB0240919A0256E08413AD
:1050700015C02D873E878D859E850E94480B292F60
:1050800022952F702230F0F0243018F59F70F1F047
:10509000F8019581907FD1F4D12C1EC090E0589FEB
:1050A000F001599FF00D1124E556FD4F6181361333
:1050B00006C06081261303C06281E6120FC001960C
:1050C0008770D5CF9F7011F0882331F3805E8830D0
:1050D00018F3C8010E943A21FD2CA1CFEE2009F45B
:1050E0009ECF80919902816080939902F12C97CF95
:1050F000531313C0421311C0E1100FC0D80115960D
:105100008C93C8010E943A2186E0F801A4E9B2E03C
:1051100001900D928A95E1F782CF2D873E878D858C
:105120009E850E94520B882309F1EE20F9F08091B0
:105130009902803270F02091940230919502388764
:105140002F831986DB86CA868C87CE0107960E943C
:105150003A2186E0F801A4E9B2E001900D928A9527
:10516000E1F70E944727FF24F39459CFC8010E941A
:105170003A21F9CF91110CC084E992E00E943A21C2
:1051800086E0E4E9F2E0DF011D928A95E9F747CF76
:10519000531312C0421310C0E1100EC0F8018583F2
:1051A000C8010E943A21E4E9F2E086E0DF011D92A5
:1051B0008A95E9F7FB2C33CF2D873E878D859E8519
:1051C0000E94520B882391F2EE2081F28091990285
:1051D000803208F4BECF20919402309195023A8338
:1051E00029831B82DD82CC828E83CE010196AFCFD4
:1051F000C816D90640F0C81AD90AB8ECCB16D104A3
:1052000048F0F12CBDCF809590958C0D9D1D883C6C
:105210009105B8F7FE2CEE2009F4A8CF531316C061
:10522000421314C08091990280FD6ECF982F907F19
:1052300009F46ACFF8018583903F09F462CF982F73
:10524000907F905F8F70892B85835BCF2D873E8702
:105250008D859E850E94520B81117BCF8091990292
:10526000816080939902C8010E943A21D8CEEE2035
:1052700009F47CCF2D873E878D859E850E94520B39
:10528000F82E882309F472CF86E0F801A4E9B2E091
:1052900001900D928A95E1F7809194029091950288
:1052A0000E94480B0E944727BACE81E08E25D5CEBA
:1052B0001F93CF93DF93CDB7DEB767970FB6F89400
:1052C000DEBF0FBECDBF4B8B5C8B6D8B7E8B8F8B10
:1052D0001A8A198A85E0FE017396DE011D960190F7
:1052E0000D928A95E1F786E0FE013D96DE01179664
:1052F00001900D928A95E1F7CE0107960E94AB27A7
:10530000811112C086E0FE013796DE0111960190F0
:105310000D928A95E1F78A859B85892B29F08F81EB
:10532000988589238F3FB1F516E08091CB0290914B
:105330009A0289131DC067960FB6F894DEBF0FBEA0
:10534000CDBFDF91CF911F91089596E0929FD0013C
:10535000939FB00D1124A556BD4FFE0131960190CB
:105360000D929A95E1F780939A020E947707DCCF1D
:10537000819FC001112485569D4F0E94AB27882331
:10538000D1F28091CB0290E00196877099278093AB
:10539000CB02CBCF20919A0230E0C90101968770F1
:1053A00099274091CB024817190679F60E94091CEB
:1053B00010929A021092CB0286E0E4E9F2E0DF015B
:1053C0001D928A95E9F7B0CF1F920F920FB60F92F8
:1053D00011242F933F934F935F936F937F938F93FA
:1053E0009F93AF93BF93EF93FF938091E10082FF70
:1053F00009C08091E20082FF05C08091E1008B7FAF
:105400008093E1008091DA0080FF24C08091D80071
:1054100080FF20C08091DA008E7F8093DA00809137
:10542000D90080FF9AC080E189BD82E189BD09B4BD
:1054300000FEFDCF81E08093A10380917303811171
:1054400009C00E940E030E94E1038091E200846083
:105450008093E2008091E10080FF17C08091E2001C
:1054600080FF13C08091E2008E7F8093E2008091E4
:10547000E20080618093E2008091D8008062809396
:10548000D80019BC85E08093A1038091E10084FFDE
:105490002DC08091E20084FF29C080E189BD82E1B6
:1054A00089BD89B5982F917080FFFBCF8091D8007E
:1054B0008F7D8093D8008091E1008F7E8093E10002
:1054C0008091E2008F7E8093E2008091E200816013
:1054D0008093E20080919803882309F444C084E01B
:1054E0008093A1030E94091C0E9435088091E1006D
:1054F00083FF22C08091E20083FF1EC08091E10003
:10550000877F8093E10082E08093A103109298034B
:105510008091E1008E7F8093E1008091E2008E7F98
:105520008093E2008091E20080618093E20042E09B
:1055300060E080E00E94AF03FF91EF91BF91AF91D7
:105540009F918F917F916F915F914F913F912F919B
:105550000F900FBE0F901F90189519BC1092A103C9
:105560001092730377CF8091E30087FD93E09093CF
:10557000A103B8CFCDB7DEB72D970FB6F894DEBF35
:105580000FBECDBF84B7877F84BF0FB6F894A895B0
:1055900080916000886180936000109260000FBE6F
:1055A00080E8809361001092610085B7806885BFB4
:1055B00085B7806885BF0E940E030E94E103809139
:1055C000E20084608093E20078940E94201C82E0D4
:1055D00084BD93E095BD9AEF97BD80936E000E94C5
:1055E000411B90E090930101809300010E94DF0D28
:1055F0000E94EE0D87E393E0EFEFF2E04BE453E01F
:10560000DA011D92AD01DC011D92CD0110821182E3
:10561000128213823496B3E049355B0789F70E9402
:10562000AC1B811102C00E94B71B81E00E942E2199
:105630003F988AB18F708AB96E98479A8BB1806F04
:105640008BB9769A0E94AC1B811102C00E94B71BD5
:1056500082E090E00E94D82D8093630384E090E084
:105660000E94D82D90E0909347038093460383E0F7
:1056700090E00E94D82D682F70E090E080E00E94BA
:105680002B080E94AC1B811102C00E94B71B8DE049
:1056900090E00E94D82D8093450380914603806856
:1056A0008093460382E091E09093490380934803FE
:1056B00082E090E09093200180931F018091A103EC
:1056C000843079F58091210190912201A0912301EC
:1056D000B0912401892B8A2B8B2B19F18091180111
:1056E0008F708093E90088E0E8E2F1E0DE01119636
:1056F00001900D928A95E1F750E040E068E070E09B
:10570000CE0101960E94A51F50E040E062E070E0EB
:105710008FE191E00E94A51F8091E8008E77809331
:10572000E800BB24B394AA24AA94EE24E394F12CB9
:1057300090E1592E22E1622E38E1C32ED12C40E4B3
:10574000742E8091A103853009F490C00E94B3208B
:10575000A4E6B3E0EBE4F3E010E000E0702F619129
:105760002D91261709F4CFC090E080E0262730E085
:10577000982EA901082E02C0559547950A94E2F784
:1057800040FFBCC089837A83C70102C0880F991F7C
:105790009A94E2F74C01862F90E08821992121E02C
:1057A000892B09F420E02B830E9406068160782F64
:1057B0009D838C8349815A816B818D810E945829F8
:1057C000F801EC59FC4F808188268082809160032B
:1057D000909161030E94DC059C0190915F039923E5
:1057E00019F02431310578F020915B0390905C032F
:1057F00000915D0310915E0321119BC0802F8929C8
:10580000812B09F04CC10E943508909162038917E1
:1058100021F00E943508809362038091A1038430B7
:1058200009F009C18091210190912201A0912301E9
:10583000B0912401892B8A2B8B2B09F4FCC0809119
:1058400013018F708093E9009091E80092FFF3C0FC
:105850009091F3002091F200392F232B09F0CBC057
:105860008091E8008B778093E800E5C08091A103E8
:10587000843009F110924A030FB6F894A895C092AB
:1058800060000FBE7092600083B7817F846083BF29
:1058900083B7816083BF7894889583B78E7F83BFF9
:1058A0000FB6F894A895809160008861809360009D
:1058B000109260000FBE80919703882309F441CFB6
:1058C0000E94411B90E090930101809300010E948F
:1058D000DF0D0E94EE0DEBE4F3E0119223E0E935D9
:1058E000F207D9F70E94B320EBE4F3E08191811134
:1058F000C2C043E0E935F407C9F723CF01968430ED
:10590000910509F035CF0F5F1F4F0E30110509F0DB
:1059100025CFA986AA861B860E9406068160782F5D
:105920009D878C8749855A856B858D850E9458296E
:105930004DCF9F3F19F09F5F90935F03121624F4A1
:105940000E94500580935B0380915B0387FF05C035
:105950000E945005819580935B03191424F40E94E2
:10596000500580935C0380915C0387FF05C00E9413
:105970005005819580935C0330915B033323A1F044
:1059800020915C03222381F045EB3403C0011124F4
:10599000992359F190935B0345EB24039001112463
:1059A000332331F130935C03101624F40E942E054A
:1059B00080935D0380915D0387FF05C00E942E05E3
:1059C000819580935D03111624F40E942E05809327
:1059D0005E0380915E0387FF05C00E942E058195BE
:1059E00080935E030E948A060ECFB0925B03D4CFF1
:1059F000B0925C03D9CF9091F3002091F200392F3F
:105A0000232BC9F09091A1039430A9F48093E9006D
:105A10008091E80082FF0FC09091F3008091F20026
:105A2000892B11F08091F1009091F3008091F200A8
:105A3000892B09F415CF8091A1038430C9F480919A
:105A4000210190912201A0912301B0912401892B81
:105A50008A2B8B2B69F080910E018F708093E90067
:105A60008091E80080FF04C08DE091E00E945E0319
:105A70000E94201C66CE59BC69BC09B400FEFDCF53
:105A80008091D8008F7D8093D8008091E000826063
:105A90008093E0008091E00081FDFCCF52CE9F3FDB
:105AA00009F049CF5ACF78941F921FB61F92112444
:105AB0008F939F93AF93BF938091FA029091FB02D3
:105AC000A091FC02B091FD020196A11DB11D809331
:105AD000FA029093FB02A093FC02B093FD02BF91E7
