:100000000C9489020C94D0020C94D0020C94D0026F
:100010000C94D0020C94D0020C94D0020C94D00218
:100020000C94D0020C94D0020C94EC230C94D002CB
:100030000C946D270C94D0020C94D0020C94D00236
:100040000C94D0020C94D0020C94D0020C94D002E8
:100050000C94D0020C9449270C94D0020C94D0023A
:100060000C94D0020C94D0020C94D0020C94D002C8
:100070000C94D0020C94D0020C94D0020C94D002B8
:100080000C94D0020C94D0020C94D0020C94D002A8
:100090000C94D0020C94D0020C94D0020C94D00298
:1000A0000C94D0020C94D0020C94D00241707220B7
:1000B0002035203230313900416C70686120303396
:1000C0003A20546F6D61746F536F757000000000BB
:1000D0000000000000000000000000000000000020
:1000E000000000000000000000000000000001010E
:1000F00001010101000101010100000000000000F8
:1001000000000000000000010001000101010101E8
:1001100001010101010101010101010101010101CF
:1001200001010101010101010000000101000000C5
:1001300000000000000000000000000000000000BF
:1001400000000000000000000101010100000000AB
:1001500000000000002A2B28000000000000000022
:10016000000000000000000029000000002C1E34E8
:1001700020212224342627252E362D3738271E1FEE
:10018000202122232425263333362E37381F040519
:10019000060708090A0B0C0D0E0F10111213141587
:1001A000161718191A1B1C1D2F3130232D35040565
:1001B000060708090A0B0C0D0E0F10111213141567
:1001C000161718191A1B1C1D2F3130354C0000163C
:1001D0005A175A195A00001A5A1B5A185A00001C6A
:1001E0005A1D5A235A00001E5A1F5A0000000020B0
:1001F0005A215A00000000225A295A00000000002B
:1002000000000000000000115A125A105A00000DA0
:100210005A0E5A0F5A00000B5A0C5A015A00000984
:100220005A0A5A00000000075A085A00000000004D
:100230005A155A0000000000000000000000001CD9
:10024000000B002502000018000D004C0000000CFF
:10025000000E001050000012000F000000000013FC
:1002600000330000000000280034020000000000FD
:100270000000000000000017000A002842000015DE
:100280000009002C00000008000700E20000001A2E
:10029000001600000000001400040000000000E14F
:1002A00000E000000000000000000000000000234B
:1002B00000110025020000240010004C0000002561
:1002C0000036021050000026003702000000002710
:1002D000003802000000002D00E5000000000000D2
:1002E000000000000000002200050028000000219E
:1002F0000019002C00000020000600E20000001F92
:10030000001B00000000001E001D0000000000E1B6
:1003100000E0000000000000000000000000D0D05D
:10032000D0D0D0D0010102040810204142444848F6
:10033000000000484850608182848890A0C1C2C4F7
:10034000D0D0D0D0D0D0C800000000000000000005
:10035000000000000000000000000000000501098E
:1003600006A1018501050719E029E715002501957A
:100370000875018102950175088101050819012997
:100380000595057501910295017503910105071900
:100390000029FF150026FF00950675088100C0059D
:1003A000010902A10185020901A10005091901291C
:1003B00005150025019505750181029501750381DB
:1003C000010501093009311581257F9502750881E4
:1003D0000609381581257F950175088106050C0AE7
:1003E00038021581257F950175088106C0C0050179
:1003F0000980A10185031601002603001A81002A45
:100400008300751095018100C0050C0901A10185CB
:1004100004160100269C021A01002A9C0275109500
:10042000018100C005010906A1018505050719E044
:1004300029E71500250195087501810205081901B4
:10044000290595057501910295017503910105072F
:10045000190029EF1500250195F075018102C009E9
:10046000025F00030100A0FA09040000010301017A
:10047000000921110100012202010705810320006A
:100480000A080B0102020201000904010001020234
:1004900001000524001001042402020524060102C3
:1004A000070582030800FF09040200020A00000099
:1004B000070504021000050705830210000512015C
:1004C0001001EF020108EDFE3713010001020301E4
:1004D0000403300000000E03470065006F00720047
:1004E00067006900000026036700200048006500DF
:1004F000610076007900200049006E0064007500FC
:10050000730074007200690065007300000004034A
:10051000090411241FBECFEFDAE0DEBFCDBF04B661
:1005200003FE27C08091E4029091E502A091E602CB
:10053000B091E7028730904BA740B04BD1F41092B6
:10054000E4021092E5021092E6021092E70214BE55
:1005500084B7877F84BF0FB6F894A8958091600018
:10056000886180936000109260000FBEE0E0F8E3C5
:10057000099511E0A0E0B1E0E0EBF0E502C00590E4
:100580000D92A033B107D9F722E0A0E3B1E001C09A
:100590001D92A43EB207E1F70E94C1240C941028DA
:1005A0000C940000E8EDF0E080818E7F8083109253
:1005B000E2001092DA001092E100A0EEB0E08C911F
:1005C00081608C9380818F77808319BCA7EDB0E028
:1005D0008C918E7F8C9380818F7E80831092B50268
:1005E00008952091E4003091E50085E6A9019091FD
:1005F000EC0090FF06C09091E80090FF06C080E0FC
:1006000008959091E80092FDFACF9091E30299232A
:1006100089F0953089F09091EB0095FD0FC0209105
:10062000E4003091E5004217530709F38150F1F6D9
:1006300084E0089582E0089583E0089581E00895BC
:100640008091E302843061F5809121019091220133
:10065000A0912301B0912401892B8A2B8B2B01F1CE
:1006600080910E018F708093E9009091F30080914A
:10067000F200892B11F480E008959091E8008091B8
:10068000E8008E778093E80095FDF5CF0E94F10297
:10069000811107C09091E8009E779093E80008953B
:1006A00082E008958091DB0287FF13C08091E8000B
:1006B00082FF06C08091E8008B778093E80004C039
:1006C0008091E3028111F2CF08958091E3028823A3
:1006D000D9F38091E80080FFF8CF8091E8008E7711
:1006E000ECCF982F9093E900242F762F50E08917B4
:1006F00031F07091EC002091ED005091F00021FD5F
:1007000007C09F5F973071F78093E90081E00895FB
:100710003091EB003E7F3093EB003091ED003D7F58
:100720003093ED003091EB0031603093EB0070932B
:10073000EC002093ED005093F0002091EE0027FD97
:10074000E0CF80E00895CF92DF92EF92FF920F9377
:100750001F93CF93DF93C8EDD0E088818F7E88838D
:10076000E7EDF0E080818160808384E082BF81E0FA
:100770008093B50288818E7F888302EE10E0F801B5
:1007800010821092DA0081EEC82ED12CF601108270
:1007900088818F77888388818068888388818F7D2E
:1007A000888319BC1092E3021092DA021092D902E7
:1007B0001092D80290EEE92EF12CF70180818B7F08
:1007C000808388818160888342E060E080E00E94CD
:1007D0007103F60180818E7F8083F80180818160C2
:1007E0008083808188608083F70180818E7F808311
:1007F000888180618883DF91CF911F910F91FF9055
:10080000EF90DF90CF900895FC018091E1029091EC
:10081000E20286179707A0F06115710529F49091FF
:10082000E8009E779093E80090E06115710551F41F
:10083000911108C08091E80082FF34C080E00895E3
:10084000BC01F2CF8091E3028823C1F18530C1F170
:100850008091E80083FD30C08091E80082FDEACFFE
:100860008091E80080FFE1CF8091F3002091F200B9
:10087000382F6115710519F02830310558F091E0D5
:100880002830310509F090E02091E8002E77209380
:10089000E800CBCF81918093F100615071092F5F07
:1008A0003F4FE7CF8091E302882341F0853041F04C
:1008B0008091E80083FFBECF81E0089582E0089533
:1008C00083E008958091B402811107C08091E30212
:1008D000843011F482E0089581E008958091B70298
:1008E000089590919D02803F41F480919E0287FD82
:1008F00010929E02992371F00895813F29F480910E
:100900009E021816ACF3F6CF823F81F497FFF2CF28
:1009100010929D0280919E0290919F02892B90914E
:10092000A002892B49F71092A1020895833F19F480
:10093000191674F3DFCF893F39F480919F0218169E
:10094000CCF610929F02D6CF8A3F29F480919F0265
:1009500087FFD0CFF6CF8B3F39F48091A00287FF7D
:10096000C9CF1092A002C6CF8C3F29F48091A0027B
:100970001816BCF3BFCF843F31F480919C028E7F68
:1009800080939C02B7CF853F21F480919C028D7F9C
:10099000F7CF863F21F480919C028B7FF1CF873F78
:1009A00021F480919C02877FEBCF883F21F48091D6
:1009B0009C028F7EE5CF8D3F31F4809140028E7F87
:1009C0008093400297CF8E3F21F4809140028D7F2B
:1009D000F7CF8F3F09F08ECF809140028B7FF0CF11
:1009E0008091400280FD16C081FD16C082FD16C0B8
:1009F0008091A1028823A1F0883280F428E0829FB0
:100A0000C001112468E270E00E94A027862F672BA6
:100A100039F0089582E0089584E0089588E008950B
:100A200081E008958091400280FD16C081FD16C0CE
:100A300082FD18C08091A102882391F08C3390F43C
:100A400023E2829FC00111246CE370E00E94A02782
:100A5000862F672B49F0089588E0089581E1089575
:100A600085E0089583E2089581E00895803F31F4A0
:100A70000E941205819580939E020895813F19F48A
:100A80000E941205F8CF823F31F40E941205819531
:100A900080939D020895833F19F40E941205F8CFB8
:100AA000893F29F40E94F00480939F0208958A3FB1
:100AB00021F40E94F0048195F7CF8B3F31F40E941E
:100AC000F00481958093A00208958C3F19F40E9450
:100AD000F004F8CF843F31F480919C0281608093D0
:100AE0009C020895853F21F480919C028260F7CF9B
:100AF000863F21F480919C028460F1CF873F21F4EE
:100B000080919C028860EBCF883F21F480919C0209
:100B10008061E5CF8D3F31F4809140028160809308
:100B2000400208958E3F21F4809140028260F7CF09
:100B30008F3FB9F7809140028460F1CFCF92DF926E
:100B4000EF92FF920F931F932FB7F89440913C02BE
:100B500050913D0260913E0270913F022FBF6A01A9
:100B60007B01EE24FF248C0130E020E0C016D1068A
:100B7000E206F30650F0481B590BCA011F910F9172
:100B8000FF90EF90DF90CF90089541505109F3CF3F
:100B90002FB7F89480913C0290913D02A0913E02C3
:100BA000B0913F022FBF08950F931F93CF93DF9310
:100BB000C82F1092BC0084EA8093BC000E94C80534
:100BC0008C018091BC0087FF27C08091B900887F8D
:100BD000883029F08091B900887F803199F5C093E1
:100BE000BB0084E88093BC000E94C805EC018091A2
:100BF000BC0087FF1FC02091B900287F90E080E0F3
:100C0000283199F081E090E0203411F490E080E008
:100C100091958195910909C00E94C805801B910B8F
:100C2000883E934070F28EEF9FEFDF91CF911F913E
:100C30000F9108950E94C8058C1B9D0B883E934020
:100C4000B0F2F1CF8FEF9FEFF0CFCF93DF93809390
:100C5000BB0084E88093BC000E94C805EC01809131
:100C6000BC0087FF0FC02091B900287F81E090E091
:100C7000283211F490E080E0919581959109DF91FF
:100C8000CF9108950E94C8058C1B9D0B883E934010
:100C900030F38EEF9FEFF3CFE0918A02F0918B0259
:100CA000309749F082E080939B020480F581E02D2B
:100CB0008BE992E009950E94C8059093A302809366
:100CC000A20208958091370290913602892B90916B
:100CD0003502892B80933101E0918A02F0918B02D9
:100CE000309799F080910C01882369F080918802F7
:100CF00087FF09C085E0809330010280F381E02DF9
:100D000080E391E0099481E0F6CF089590910C0181
:100D10009923D1F09091880297FF16C0E82FE695AD
:100D2000E695E695EE31E0F4F0E0E05DFE4F282F29
:100D3000277081E090E001C0880F2A95EAF780953E
:100D40009281892382830895E3E3F1E091918913ED
:100D500003C0DF0111971C9291E0E933F907B1F765
:100D6000089590910C019923C1F09091880297FF0A
:100D700014C0E82FE695E695E695EE31F8F4F0E03C
:100D8000E05DFE4F877021E030E001C0220F8A95C0
:100D9000EAF78281822B82830895A3E3B1E0EFEF2B
:100DA00090E02D91821751F0EF3F19F4211101C00D
:100DB000E92F9F5F9630A9F7EF3F09F408950E2EB3
:100DC000000CFF0BE05DFE4F83830895990F990F90
:100DD000890F982F977086958695869525E0829F36
:100DE000F0011124E25FFD4F50E040E080E02191EE
:100DF00030E0092E02C0369527950A94E2F721705B
:100E00003327042E01C0220F0A94EAF7822B4F5F8A
:100E10005F4F4530510559F70895990F990F890F84
:100E2000982F977041E001C0440F9A95EAF7869594
:100E30008695869595E0899FF0011124E25FFD4F2C
:100E400030E020E070E05191DF011197CB01022EDC
:100E500002C0969587950A94E2F78170819585275F
:100E6000842385278C932F5F3F4F2530310559F719
:100E7000089520915601309157012817390771F0D4
:100E80009093570180935601E0918A02F0918B0272
:100E9000309721F00084F185E02D09940895209188
:100EA0005401309155012817390771F0909355017D
:100EB00080935401E0918A02F0918B02309721F0E7
:100EC0000680F781E02D0994089510923602109261
:100ED00035020E94620686E0EBE9F2E0DF011D9236
:100EE0008A95E9F71092A102109240020E944C06E6
:100EF00090E080E00E944F0790E080E00C9439077A
:100F000060933102709332028093330290933402E3
:100F10000C946507609338027093390280933A020B
:100F200090933B020C946507E0918A02F0918B024A
:100F3000309721F00190F081E02D099480E0089530
:100F4000882309F459C0823871F40E94940781FF04
:100F500053C089E30E94B1060E94620689E30E94A1
:100F600086060C946206833859F40E94940780FF29
:100F700043C083E50E94B1060E94620683E5EFCF7D
:100F8000843859F40E94940782FF36C087E40E9497
:100F9000B1060E94620687E4E2CF9CEF980F913A77
:100FA000F0F290E2980F983088F4877021E030E0FA
:100FB000A90102C0440F551F8A95E2F7CA01809526
:100FC00090913702892380933702CBCF9BE5980F0E
:100FD000933020F490E080E00C944F0798E5980F50
:100FE000973120F490E080E00C943907803F20F0A6
:100FF0000E9471040C944C060895CF93DF9300D0A7
:1010000000D00F92CDB7DEB76B837C838D838C814C
:101010009D81892B21F0CA0189238F3F51F480E003
:1010200081700F900F900F900F900F90DF91CF91E4
:1010300008958B81F5CF9091880292FF06C0282FEA
:101040002871283069F4877F846093FF06C0282FB9
:101050002871283161F4877E846194FD877E08952C
:10106000282F2471243089F78B7F8860EECF282FBA
:101070002471243191F78B7E8861EFCFCF93DF937A
:101080002EE0829FC0011124FC01E70FF11DEE0F3D
:10109000FF1FEE0FFF1FE60FF11DEE0FFF1FE353C3
:1010A000FE4FC591D491CE01C238D105B9F108F0F7
:1010B0003EC0C133D10509F482C048F5C932D1051B
:1010C00009F476C0CA32D10509F480C0C11530E5F3
:1010D000D30708F0AFC0C11540E4D40708F0A9C198
:1010E000C83ED10508F08AC0C03ED105E8F4C83A30
:1010F000D10508F072C0C53AD10508F0F6C0C1307C
:10110000D10591F0209729F1249770F422C0C533BE
:10111000D10509F446C0C933D105C1F62091880232
:10112000237011F080EE90E0DF91CF910895C33EDF
:10113000D10539F188F4C03ED105E1F0C23ED105B8
:1011400029F62091880222FFEFCF83EE90E024FF62
:10115000EBCF90E080E0E8CFC63ED105C9F0C73EB6
:10116000D10509F0B3CF2091880223FF0EC086EE8F
:1011700090E0DACF2091880220FFD6CF89E390E07B
:10118000D3CF2091880222FD9DC124FFCDCFE1CF96
:101190002091880223FFC8CF87EE90E024FDD9CFAD
:1011A000C3CF2091880225FFBFCF89E290E0BCCF5A
:1011B0002091880225FFB8CF85E390E0B5CF20913C
:1011C000880226FFB1CF8AE290E0AECF209188025C
:1011D00026FFAACF81E390E0A7CFCF3BD10508F44B
:1011E00093C0C03CD10508F4B4CFCE01880F991F3D
:1011F000835B9F4FFC018591949196CFC11550E27E
:10120000D50760F4C11521E0D20708F08DCFCE01DB
:101210009065C03FD10508F087CF9BCFC11530E363
:10122000D30708F0FEC0FE01FF70EE0FFF1FE3536F
:10123000FE4FE1CFC11545E5D40748F5C11554E58A
:10124000D50708F027C1C11582E5D80750F4C115AC
:1012500021E5D20708F4F1C09C2F8827816F906A9E
:1012600063CF2C2F26952695AE0143705527C115C7
:10127000D34508F000C181E090E002C0880F991FBB
:101280004A95E2F750E2259F90011124F0C0C11564
:1012900049E5D407A0F4C11558E5D50708F0FFC00B
:1012A000C11586E5D80708F054CF8C2F0E941B0883
:1012B00090E0982F882788279F71906235CFC115BD
:1012C0002AE5D20708F4F0C0CE019056811590426D
:1012D00008F03FCF8D2F8F710E941B0890E0982F50
:1012E000882788279F718C2BE8CF81E890E4C53A46
:1012F000D10509F419CF82E890E4C63AD10509F482
:1013000013CF83E890E410CF82EE94E4C83AD1057D
:1013100009F40ACF89EE94E4C93AD10509F404CF5F
:101320008AEE94E4CA3AD10509F4FECE85EB94E442
:10133000CB3AD10509F4F8CE86EB94E4CC3AD1054A
:1013400009F4F2CE83EB94E4CB3BD10509F4ECCE67
:1013500084EB94E4CC3BD10509F4E6CE87EB94E42E
:10136000CD3AD10509F4E0CE8CEC94E4C03BD10534
:1013700009F4DACE8DEC94E4CE3AD10509F4D4CE5A
:1013800083E895E4CF3AD10509F4CECE8AE895E416
:10139000C13BD10509F4C8CE82E995E4C23BD10531
:1013A00009F4C2CE84E995E4C33BD10509F4BCCE6F
:1013B00081E296E4C43BD10509F4B6CE83E296E41B
:1013C000C53BD10509F4B0CE84E296E4C63BD10515
:1013D00009F4AACE85E296E4C73BD10509F4A4CE70
:1013E00086E296E4C83BD10509F49ECE87E296E4F6
:1013F000C93BD10509F498CE8FE694E4CD3BD105E5
:1014000009F492CE80E794E4CE3BD10509F48CCE6A
:1014100080E094E4CA3BD10509F086CE8AE296E4E6
:1014200083CECE019927D3FF02C0986C7DCE906CFD
:101430007BCECE019F70906A77CE9E01E4E0369518
:101440002795EA95E1F723708C2F86958695837012
:1014500040E2849FC0011124AC01522B9A01C37059
:1014600081E090E002C0880F991FCA95E2F7822BB5
:10147000932B9C6859CE81E090E002C0880F991FA1
:101480004A95E2F740E2249F90011124822B932B8E
:101490009A684ACE9C2F8827846F906A45CE9C2FED
:1014A0008827806F906A40CE8C2F8F700E941B0817
:1014B00034E0D695C7953A95E1F7CF708F70806E7E
:1014C0009C2FB9CF82EE90E02FCEBF92CF92DF92C9
:1014D000EF92FF920F931F93CF93DF938C01C090F5
:1014E0003102D0903202E0903302F09034028091C9
:1014F000380290913902A0913A02B0913B02C82A79
:10150000D92AEA2AFB2ACFE1D0E0BC2ED701C601B6
:101510000C2E04C0B695A795979587950A94D2F797
:1015200080FD0EC0219788F7B12C8B2DDF91CF91D4
:101530001F910F91FF90EF90DF90CF90BF90089593
:10154000B8018C2F0E943E08019761F3EECF0F93F4
:101550001F93CF93DF93EC018B01FB0182818823E2
:1015600009F44BC00E94C805909353018093520127
:10157000F8019281FE01FA55EA32F10508F0D9C16D
:10158000EE5EF74D0C94B4274091F8015091F901AB
:101590006091FA017091FB01992331F1446040930D
:1015A000F8015093F9016093FA017093FB01809167
:1015B000DE019091DF01FC01EE0FFF1FEE0FFF1F18
:1015C000E25AFE4F4091F8015091F9016091FA0101
:1015D0007091FB01408351836283738301969093E2
:1015E000DF018093DE0109C04B7F4093F8015093E7
:1015F000F9016093FA017093FB0181E0DF91CF91D3
:101600001F910F9108954091F8015091F901609157
:10161000FA017091FB01992311F04860C0CF477F18
:10162000E4CF4091F8015091F9016091FA01709175
:10163000FB01992311F04061B2CF4F7ED6CF40918C
:10164000F8015091F9016091FA017091FB01992321
:1016500011F04062A4CF4F7DC8CF4091F801509166
:10166000F9016091FA017091FB01992311F0416039
:1016700096CF4E7FBACF4091F8015091F901609119
:10168000FA017091FB01992311F0426088CF4D7FE0
:10169000ACCF4091F8015091F9016091FA0170913D
:1016A000FB01992311F040647ACF4F7B9ECF40918C
:1016B000F8015091F9016091FA017091FB019923B1
:1016C00011F040686CCF4F7790CF4091F801509166
:1016D000F9016091FA017091FB01992311F05160B9
:1016E0005ECF5E7F82CF4091F8015091F901609109
:1016F000FA017091FB01992311F0526050CF5D7F88
:1017000074CF4091F8015091F9016091FA01709104
:10171000FB01992311F0546042CF5B7F66CF40916B
:10172000F8015091F9016091FA017091FB01992340
:1017300011F0586034CF577F58CF4091F801509145
:10174000F9016091FA017091FB01992311F0506148
:1017500026CF5F7E4ACF4091F8015091F901609108
:10176000FA017091FB01992311F0506218CF5F7D4F
:101770003CCF4091F8015091F9016091FA017091CC
:10178000FB01992311F050640ACF5F7B2ECF40916B
:10179000F8015091F9016091FA017091FB019923D0
:1017A00011F05068FCCE5F7720CF4091F801509146
:1017B000F9016091FA017091FB01992311F06160C8
:1017C000EECE6E7F12CF4091F8015091F9016091F9
:1017D000FA017091FB01992311F06260E0CE6D7FF8
:1017E00004CF4091F8015091F9016091FA01709194
:1017F000FB01992311F06460D2CE6B7FF6CE40914D
:10180000F8015091F9016091FA017091FB0199235F
:1018100011F06860C4CE677FE8CE4091F801509126
:10182000F9016091FA017091FB01992311F0606157
:10183000B6CE6F7EDACE4091F8015091F9016091F9
:10184000FA017091FB01992311F06062A8CE6F7DBF
:10185000CCCE4091F8015091F9016091FA0170915C
:10186000FB01992311F060649ACE6F7BBECE40914C
:10187000F8015091F9016091FA017091FB019923EF
:1018800011F060688CCE6F77B0CE4091F801509126
:10189000F9016091FA017091FB01992311F07160D7
:1018A0007ECE7E7FA2CE4091F8015091F9016091E9
:1018B000FA017091FB01992311F0726070CE7D7F67
:1018C00094CE4091F8015091F9016091FA01709124
:1018D000FB01992311F0746062CE7B7F86CE40912C
:1018E000F8015091F9016091FA017091FB0199237F
:1018F00011F0786054CE777F78CE4091F801509106
:10190000F9016091FA017091FB01992311F0706166
:1019100046CE7F7E6ACE4091F8015091F9016091E8
:10192000FA017091FB01992311F0706238CE7F7D2E
:101930005CCE992309F461CE3ACECF93C82F87307D
:1019400050F58091000190910101892B11F580E4FF
:101950000E94D4059093010180930001892BB1F47A
:1019600082E10E9425069093010180930001892B5A
:1019700069F481E090E001C0880FCA95EAF780958C
:101980000E942506909301018093000184E98093D1
:10199000BC00CF9108958A30B1F038F4883069F0F6
:1019A000893071F0209A2898F4CF8C3091F070F043
:1019B0008D30C1F73E9A4698ECCF219A2998E9CF0D
:1019C000229A2A98E6CF239A2B98E3CF529A5A98D4
:1019D000E0CF539A5B98DDCF84B1807F84B985B125
:1019E000807F85B93E9846988AB1837F8AB98BB14A
:1019F000837F8BB9089580B38D7880BB81B3826774
:101A000081BB0895CF92DF92EF92FF920F931F93C5
:101A1000CF93DF93C82F873008F090C080910001EA
:101A200090910101892B09F094C080E40E94D405B3
:101A30009093010180930001892B09F44BC090E041
:101A400084E98093BC002C2F30E0F901E758FD4F6A
:101A5000A081A9279083F901EE0FFF1FEE0FFF1F52
:101A6000EF5BFD4F70E060E040E0C1E0D0E0CA2EE7
:101A7000D12C55E0162F8191882309F46CC07F0189
:101A8000A1E0EA1AF1088150D7018C93D60102C077
:101A9000B595A7951A95E2F7A0FF05C08F010150F3
:101AA0001109D8015C936F5F7F4F6430710511F7A6
:101AB00023573D4F842F8095F90120818223942361
:101AC000892BDF91CF911F910F91FF90EF90DF90C5
:101AD000CF90089583E10E942506909301018093A1
:101AE0000001892B09F0ABCF81E40E94D4059093CB
:101AF000010180930001892B09F0A1CF84E8809334
:101B0000BC000E94C8058C018091BC0087FF08C002
:101B10009091BB009095109201011092000190CF1E
:101B20000E94C805801B910B883E934068F38EEF9E
:101B30009FEF909301018093000181CF8FB19FB1FE
:101B4000869581709695969596959E70982B909512
:101B50007ACF90E078CF7E01062E01C0EE0C0A9479
:101B6000EAF74E2993CFCF93C091E9009091EC0012
:101B700090FD19C090E020911D0120FF12C0CF7090
:101B8000C92B90910E019F709093E9009091EB000A
:101B900090FF04C09091EE0097FD07C0CF70C093F6
:101BA000E900CF91089590E8E6CF9FEF2091E800FB
:101BB000915025FD06C025ED2A95F1F70000911101
:101BC000F5CF8093F1008DE091E00E942003809199
:101BD000E80080FFE3CF8091E8008E778093E800F3
:101BE000DDCF882309F408C18238B9F40E94940734
:101BF00081FD02C189E30E94B1060E9462062FEFB7
:101C000081EE94E0215080409040E1F700C0000058
:101C100089E30E9486060C9462068338A1F40E9430
:101C2000940780FDE9C083E50E94B1060E94620628
:101C30002FEF81EE94E0215080409040E1F700C00A
:101C4000000083E5E6CF8438A1F40E94940782FD6A
:101C5000D3C087E40E94B1060E9462062FEF81EE96
:101C600094E0215080409040E1F700C0000087E4FC
:101C7000D0CF9CEF980F913A18F40E94B106CBCFC9
:101C800090E2980F983068F4877021E030E001C04E
:101C9000220F8A95EAF780913702822B80933702D0
:101CA000BACF9BE5980F933070F4853A31F0863ABD
:101CB00039F083E890E00C944F0781E890E0FBCF87
:101CC00082E890E0F8CF98E5980F973108F08EC041
:101CD000883A09F446C0893A09F446C08A3A09F4B8
:101CE00046C08B3A09F446C08C3A09F446C08B3B97
:101CF00009F446C08C3B09F446C08D3A09F446C04D
:101D0000803B09F446C08E3A09F446C08F3A09F484
:101D100046C0813B09F446C0823B09F446C0833B80
:101D200009F446C0843B09F446C0853B09F446C02B
:101D3000863B09F446C0873B09F446C0883B09F45A
:101D400046C0893B09F446C08D3B09F446C08E3B32
:101D500009F446C08A3B09F446C090E080E00C9448
:101D6000390782EE90E0FBCF89EE90E0F8CF8AEE63
:101D700090E0F5CF85EB90E0F2CF86EB90E0EFCFEF
:101D800083EB90E0ECCF84EB90E0E9CF87EB90E041
:101D9000E6CF8CEC90E0E3CF8DEC90E0E0CF83E8F1
:101DA00091E0DDCF8AE891E0DACF82E991E0D7CF08
:101DB00084E991E0D4CF81E292E0D1CF83E292E056
:101DC000CECF84E292E0CBCF85E292E0C8CF86E22C
:101DD00092E0C5CF87E292E0C2CF8FE690E0BFCF1E
:101DE00080E790E0BCCF8AE292E0B9CF803F20F05C
:101DF0000E9436050C944C0608959091F60192309D
:101E000069F49091F501943158F4E92FF0E0E05233
:101E1000FE4F80839F5F9093F50108950C94F10D20
:101E20000895CF92DF92EF92FF92C090F801D09088
:101E3000F901E090FA01F090FB01C11491E0D9069C
:101E4000E104F10461F4811103C084E10E94FD0EFC
:101E5000C701B601FF90EF90DF90CF900895C114B5
:101E600092E0D906E104F10421F48111F1CF84E07C
:101E7000EDCFC11494E0D906E104F10421F48111FD
:101E8000E7CF8AE1E3CFC11490E1D906E104F10480
:101E900021F48111DDCF88E0D9CFC11490E4D906B7
:101EA000E104F10421F48111D3CF85E1CFCFC11436
:101EB00098E0D906E104F10421F48111C9CF86E14B
:101EC000C5CFC11490E2D906E104F10421F48111D7
:101ED000BFCF87E0BBCFC11490E8D906E104F1047D
:101EE00021F48111B5CF89E0B1CF94E0C916D104B6
:101EF000E104F10421F48111ABCF87E1A7CF98E091
:101F0000C916D104E104F10421F48111A1CF8AE0C2
:101F10009DCFC114D10491E0E906F10421F48111AF
:101F200097CF86E093CFC114D10492E0E906F10483
:101F300021F481118DCF89E189CFC114D10494E0BE
:101F4000E906F10421F4811183CF81E17FCFC1142F
:101F5000D10498E0E906F10421F4811179CF80E100
:101F600075CF90E1C916D104E104F10421F4811187
:101F70006FCF8CE16BCF90E2C916D104E104F1047C
:101F800021F4811165CF8BE061CFC114D10490E1C0
:101F9000E906F10421F481115BCF88E157CFC11428
:101FA000D10490E4E906F10421F4811151CF8CE0D1
:101FB0004DCFC114D104E10491E0F90621F481115F
:101FC00047CF82E143CFC114D104E10494E0F90684
:101FD00021F481113DCF83E139CFC114D104E10453
:101FE00090E1F90621F4811133CF8FE22FCFC11494
:101FF000D10490E2E906F10421F4811129CF8DE0AA
:1020000025CFC114D10490E8E906F10421F481112F
:102010001FCF8EE01BCFC114D104E10492E0F9067A
:1020200021F4811115CF8FE011CFC114D104E10447
:1020300098E0F90621F481110BCF83E307CFC11497
:10204000D104E10490E2F90621F4811101CF86E385
:10205000FDCE90E4C916D104E104F10421F481110C
:10206000F7CE8EE1F3CE90E8C916D104E104F10475
:10207000B1F3C12CD12C7601EBCE0F931F93CF93EC
:10208000DF938C01F8012491222309F43AC0E8017E
:102090002196213049F4FE011491812F0E94F10D07
:1020A000812F0E94A00706C0223041F4FE018491D6
:1020B0000E94F10D8E010F5F1F4FE4CF233019F402
:1020C000FE018491EECF30E0F901E35BFE4FC49155
:1020D00023533F4FF9012491222371F081EE0E9496
:1020E000F10D8C2F0E94F10D8C2F0E94A00781EE24
:1020F0000E94A007E801DECF8C2F0E94F10D8C2FEB
:10210000F7CFDF91CF911F910F910895CF92DF927A
:10211000EF92FF92C090F801D090F901E090FA019F
:10212000F090FB0190E4C916D104E1049CE3F906A8
:1021300089F4811108C088EB90E00E943D108CEA80
:1021400090E00E943D10C701B601FF90EF90DF9034
:10215000CF90089590ECC916D1049FE0E906F104F0
:1021600031F48111F0CF8EEA0E94FD0EECCF9CE39A
:10217000C916D104E104F10431F48111E4CF8AE2FB
:102180000E94FD0EE0CFC114D1049FE0E906F104E6
:1021900031F48111D8CF89E30E94FD0ED4CFC11450
:1021A000D10499E0E906F10431F48111CCCF89E240
:1021B0000E94FD0EC8CFC114D10496E0E906F104D7
:1021C00031F48111C0CF80EE0E94FD0EBCCF90ECA7
:1021D000C916D10499E0E906F10449F48111B3CF9D
:1021E00080EE0E94FD0E81EE0E94FD0EACCF90E4C9
:1021F000C916D10495E0E906F10461F48111A3CF79
:1022000080EE0E94FD0E81EE0E94FD0E82EE0E9485
:10221000FD0E99CFC114D104E1049CE3F90631F419
:10222000811191CF83EE0E94FD0E8DCFC114D10498
:10223000E10494E1F90631F4811185CF80EE0E942A
:10224000FD0E81CFC114D104E10498E2F90631F406
:10225000811179CF82EE0E94FD0E75CF90E4C916F0
:10226000D10491E0E906F10431F481116CCF80EEE4
:102270000E94FD0E68CFC114D10493E0E906F10479
:1022800031F4811160CF82EE0E94FD0E5CCFC1144B
:10229000D10492E0E906F10431F4811154CF81EECA
:1022A0000E94FD0E50CFC1149AE5D90690E3E906CD
:1022B000F10431F4811147CF8EE30E94FD0E43CF2C
:1022C000C1149AE5D90690ECE906F10431F48111C4
:1022D0003ACF8FE30E94FD0E36CFC1149AE5D9069E
:1022E000E10493E0F90631F481112DCF80E40E94DE
:1022F000FD0E29CFC1149AE5D906E1049CE0F90648
:1023000031F4811120CF81E40E94FD0E1CCFC11455
:102310009AE5D90690E1E906F10431F4811113CF71
:102320008AE30E94FD0E0FCFC1149AE5D90690E40E
:10233000E906F10431F4811106CF8BE30E94FD0E12
:1023400002CFC1149AE5D906E10491E0F90631F40F
:102350008111F9CE8CE30E94FD0EF5CEC1149AE5F1
:10236000D906E10494E0F90631F48111ECCE8DE355
:102370000E94FD0EE8CEC1149AE5D90690E2E90666
:10238000F10431F48111DFCE82E40E94FD0EDBCE38
:10239000C1149AE5D906E10492E0F90631F48111FD
:1023A000D2CE83E40E94FD0ECECEC1149AE5D906AA
:1023B00090E8E906F10431F48111C5CE84E40E946D
:1023C000FD0EC1CEC1149AE5D906E10498E0F906E4
:1023D00031F48111B8CE85E40E94FD0EB4CE9CE0AC
:1023E000C916D10490E1E906F10431F48111ABCEB4
:1023F00080E50E94FD0EA7CE9CE0C916D10490E4B2
:10240000E906F10431F481119ECE81E50E94FD0EB2
:102410009ACE9CE0C916D104E10491E0F90631F4AA
:10242000811191CE82E50E94FD0E8DCE9CE0C916F1
:10243000D104E10494E0F90631F4811184CE8FE4F3
:102440000E94FD0E80CE9CE1C916D104E104F10486
:1024500031F4811178CE8BE40E94FD0E74CE9CE2A3
:10246000C916D104E104F10431F481116CCE8EE47B
:102470000E94FD0E68CEC1149AEAD90690E1E906E1
:10248000F10431F481115FCE8CEA0E94FD0E5BCE27
:10249000C1149AEAD90690E4E906F10431F48111F5
:1024A00052CE8EEA0E94FD0E4ECEC1149AEAD90693
:1024B000E10491E0F90631F4811145CE8EEA0E94E3
:1024C000FD0E41CEC1149AEAD906E10494E0F90662
:1024D00031F4811138CE8BEA0E94FD0E34CEC11446
:1024E0009AEAD906E10490E1F90631F481112BCE84
:1024F00089EA0E94FD0E27CEC1149AEAD906E104AA
:1025000090E2F90631F481111ECE8AEA0E94FD0E96
:102510001ACEC1149AEAD906E10498E0F90631F41A
:10252000811111CE88EA0E94FD0E0DCEC11490E5F6
:10253000D906E104F10471F4811105CE84EF0E9403
:1025400036050E944C0681E08093FD0184EF809364
:10255000FC01F9CDC11490EAD906E104F10471F44B
:102560008111F1CD85EF0E9436050E944C0681E075
:102570008093FD0185EF8093FC01E5CD90E4C916C1
:1025800091E0D906E104F10431F48111DCCD8EE152
:102590000E94FD0ED8CD90E4C91694E0D906E1045E
:1025A000F10431F48111CFCD8FE10E94FD0ECBCD2E
:1025B00090E4C91690E1D906E104F10431F48111E7
:1025C000C2CD80E20E94FD0EBECD90E4C916D906B0
:1025D000E104F10431F48111B6CD81E20E94FD0ED7
:1025E000B2CD94E4C916D104E104F10431F48111AF
:1025F000AACD82E20E94FD0EA6CD90E5C916D104B7
:10260000E104F10431F481119ECD83E20E94FD0EBC
:102610009ACD90E4C916D10490E1E906F10431F4B1
:10262000811191CD84E20E94FD0E8DCD90E4C916FA
:10263000D104E906F10431F4811185CD85E20E94CF
:10264000FD0E81CD90E4C916D104E10491E0F906B4
:1026500031F4811178CD86E20E94FD0E74CD90E4B4
:10266000C916D104E10494E0F90631F481116BCD6F
:1026700087E20E94FD0E67CD90E8C91691E0D90669
:10268000E104F10431F481115ECD8EE10E94FD0E72
:102690005ACD90E8C91694E0D906E104F10431F46A
:1026A000811151CD8FE10E94FD0E4DCD90E8C916EC
:1026B00090E1D906E104F10431F4811144CD80E2C6
:1026C0000E94FD0E40CD90E8C91690E4D906E104C1
:1026D000F10431F4811137CD81E20E94FD0E33CD3A
:1026E00094E8C916D104E104F10431F481112BCD31
:1026F00082E20E94FD0E27CD90E9C916D104E104C3
:10270000F10431F481111FCD83E20E94FD0E1BCD37
:1027100090E8C916D10490E1E906F10431F4811181
:1027200012CD84E20E94FD0E0ECD90E8C916D104B0
:1027300090E4E906F10431F4811105CD85E20E94AF
:10274000FD0E01CD90E8C916D104E10491E0F9062F
:1027500031F48111F8CC86E20E94FD0EF4CC90E8B1
:10276000C916D104E10494E0F90631F48111EBCCEF
:1027700087E20E94FD0EE7CC90E8C916D10491E0F3
:10278000E906F10431F48111DECC82E20E94FD0EF3
:10279000DACC90E8C916D10498E0E906F10431F4E6
:1027A0008111D1CC8BE20E94FD0ECDCCC114D1049D
:1027B0009CE0E906F10431F48111C5CC8AE20E9463
:1027C000FD0EC1CCC114D104E10490E3F90631F44B
:1027D0008111B9CC88E20E94FD0EB5CCC114D104A0
:1027E00094E0E906F10431F48111ADCC88E20E9455
:1027F000FD0EA9CCC114D104E10490E1F90631F435
:102800008111A1CC8AE20E94FD0E9DCC90E4C916F4
:10281000D104E104F10431F4811195CC8AE20E94E3
:10282000FD0E91CC90E8C916D104E104F10431F415
:10283000811189CC8AE20E94FD0E85CCC114D1049D
:1028400091E0E906F10431F481117DCC8CE20E9423
:10285000FD0E79CCC114D10498E0E906F10431F4FD
:10286000811171CC8CE20E94FD0E6DCCC114D1049B
:10287000E10490E2F90631F4811165CC89E20E940D
:10288000FD0E61CC92E0C916D1049CE0E906F1048A
:1028900031F4811158CC88E20E94FD0E54CC92E0B4
:1028A000C916D10493E0E906F10431F481114BCC4F
:1028B0008CE20E94FD0E47CC92E0C91690E3D90647
:1028C000E104F10449F481113ECC81EE0E94FD0E39
:1028D00086E20E94FD0E37CC92E0C91690ECD90634
:1028E000E104F10449F481112ECC81EE0E94FD0E29
:1028F00087E20E94FD0E27CC9EE0C916D104E104B8
:10290000F10431F481111FCC85E30E94FD0E1BCC34
:1029100092E0C916D104E10490E3F90631F4811183
:1029200012CC89E20E94FD0E0ECC92E0C91693E013
:10293000D906E104F10449F4811105CC81EE0E942D
:10294000FD0E80E20E94FD0EFECB92E0C9169CE0D7
:10295000D906E104F10449F48111F5CB81EE0E941E
:10296000FD0E81E20E94FD0EEECB92E0C91691E0D1
:10297000D906E104F10449F48111E5CB81EE0E940E
:10298000FD0E8EE10E94FD0EDECB92E0C916D90647
:10299000E104F10449F48111D6CB81EE0E94FD0ED1
:1029A00082E20E94FD0ECFCB92E0C91694E0D906D8
:1029B000E104F10449F48111C6CB81EE0E94FD0EC1
:1029C0008FE10E94FD0EBFCB92E0C91698E0D906B8
:1029D000E104F10449F48111B6CB81EE0E94FD0EB1
:1029E00083E20E94FD0EAFCB92E0C91690E1D906BA
:1029F000E104F10449F48111A6CB81EE0E94FD0EA1
:102A00008FE20E94FD0E9FCB92E0C91690E2D9069C
:102A1000E104F10431F4811196CB8FE20E94FD0EA6
:102A200092CB92E0C91690E4D906E104F10449F48E
:102A3000811189CB81EE0E94FD0E80E30E94FD0E84
:102A400082CB92E0C91690E8D906E104F10431F492
:102A5000811179CB80E30E94FD0E75CB96E0C916FB
:102A6000D104E104F10449F481116DCB81EE0E949F
:102A7000FD0E81E30E94FD0E66CB9AE0C916D104DB
:102A8000E104F10449F481115ECB81EE0E94FD0E58
:102A900085E30E94FD0E57CB92E1C916D104E104F3
:102AA000F10431F481114FCB84E30E94FD0E4BCB36
:102AB00092E2C916D104E104F10449F4811143CB37
:102AC00081EE0E94FD0E84E30E94FD0E3CCB92E05D
:102AD000C916D10490E1E906F10431F4811133CB38
:102AE00087E50E94FD0E2FCB92E0C916D10490E23B
:102AF000E906F10449F4811126CB81EE0E94FD0E16
:102B000084E20E94FD0E1FCB92E0C916D10490E42E
:102B1000E906F10431F4811116CB8DE20E94FD0E1D
:102B200012CB92E0C916D10490E8E906F10431F421
:102B3000811109CB8EE20E94FD0E05CB92E0C916F1
:102B4000D104E10491E0F90631F48111FCCA88E373
:102B50000E94FD0EF8CA92E0C916D104E104F906FC
:102B600031F48111F0CA86E30E94FD0EECCA92E0B6
:102B7000C916D104E10494E0F90631F48111E3CAE5
:102B800085E50E94FD0EDFCA92E0C916D104E1047A
:102B900098E0F90631F48111D6CA87E30E94FD0E50
:102BA000D2CA92E0C916D104E10490E1F90631F4E9
:102BB0008111C9CA8BE20E94FD0EC5CA92E0C916F6
:102BC000D10491E0E906F10431F48111BCCA83E338
:102BD0000E94FD0EB8CA92E0C916D104E906F104BC
:102BE00031F48111B0CA88E30E94FD0EACCA92E0B4
:102BF000C916D10494E0E906F10431F48111A3CAA5
:102C000083E30E94FD0E9FCA92E0C916D10498E0AA
:102C1000E906F10431F4811196CA88E30E94FD0EA1
:102C200092CAC11493E0D906E104F10431F4811190
:102C30008ACA84E00E94FD0E86CAC1149CE0D906AF
:102C4000E104F10431F481117ECA86E10E94FD0E97
:102C50007ACAC11490E3D906E104F10431F4811178
:102C600072CA87E00E94FD0E6ECAC11490ECD906AC
:102C7000E104F10431F4811166CA89E00E94FD0E7D
:102C800062CA9CE0C916D104E104F10431F4811157
:102C90005ACA8AE00E94FD0E56CA90E3C916D104B2
:102CA000E104F10431F481114ECA8BE00E94FD0E63
:102CB0004ACAC114D10490E3E906F10431F4811148
:102CC00042CA8DE00E94FD0E3ECAC114D104E10447
:102CD0009CE0F90631F4811136CA83E30E94FD0EAF
:102CE00032CAC114D104E10493E0F90631F4811130
:102CF0002ACA8FE00E94FD0E26CAC114D10490ECAE
:102D0000E906F10431F481111ECA8EE00E94FD0E25
:102D10001ACAC11491E0D906E104F10431F4811119
:102D200012CA84E10E94FD0E0ECAC11492E0D906B7
:102D3000E104F10431F4811106CA8DE10E94FD0E17
:102D400002CAC11494E0D906E104F10431F48111FE
:102D5000FAC98AE10E94FD0EF6C9C11498E0D906AD
:102D6000E104F10431F48111EEC98BE10E94FD0E02
:102D7000EAC9C11490E1D906E104F10431F48111EA
:102D8000E2C988E00E94FD0EDEC9C11490E2D906B6
:102D9000E104F10431F48111D6C986E00E94FD0EF0
:102DA000D2C9C11490E4D906E104F10431F48111CF
:102DB000CAC985E10E94FD0EC6C9C11490E8D906B2
:102DC000E104F10431F48111BEC989E10E94FD0ED4
:102DD000BAC994E0C916D104E104F10431F48111B7
:102DE000B2C987E10E94FD0EAEC998E0C916D104B0
:102DF000E104F10431F48111A6C985E00E94FD0EC1
:102E0000A2C990E1C916D104E104F10431F48111A1
:102E10009AC98CE10E94FD0E96C990E2C916D104B0
:102E2000E104F10431F481118EC981E10E94FD0EAB
:102E30008AC9C114D10490E1E906F10431F4811189
:102E400082C988E10E94FD0E7EC9C114D10490E2BE
:102E5000E906F10431F4811176C980E10E94FD0E8A
:102E600072C9C114D10490E4E906F10431F481116E
:102E70006AC98CE00E94FD0E66C9C114D10490E8B5
:102E8000E906F10431F481115EC986E30E94FD0E6A
:102E90005AC9C114D104E10491E0F90631F4811159
:102EA00052C982E10E94FD0E4EC9C114D104E10451
:102EB00092E0F90631F4811146C987E30E94FD0EC4
:102EC00042C9C114D104E10494E0F90631F481113E
:102ED0003AC983E10E94FD0E36C9C114D104E10450
:102EE00098E0F90631F481112EC988E30E94FD0EA5
:102EF0002AC9C12CD12C760126C93F924F925F92EC
:102F00006F927F928F929F92AF92BF92CF92DF92F9
:102F1000EF92FF920F931F93CF93DF93CDB7DEB75E
:102F2000E0970FB6F894DEBF0FBECDBF382E80916C
:102F3000F8019091F901A091FA01B091FB0180FF95
:102F40000AC021E082278093F8019093F901A093B1
:102F5000FA01B093FB01332051F181E00E94110F7F
:102F60000091F8011091F9012091FA013091FB01D3
:102F70006017710782079307D1F480E0E0960FB6DF
:102F8000F894DEBF0FBECDBFDF91CF911F910F919F
:102F9000FF90EF90DF90CF90BF90AF909F908F9079
:102FA0007F906F905F904F903F900C94110F81E055
:102FB0000E9486100091F8011091F9012091FA0108
:102FC0003091FB01601771078207930709F096C0E3
:102FD00080E0E0960FB6F894DEBF0FBECDBFDF9164
:102FE000CF911F910F91FF90EF90DF90CF90BF9006
:102FF000AF909F908F907F906F905F904F903F9099
:103000000C948610F801EE0FFF1FEE0FFF1FE25A1F
:10301000FE4F80819181A281B381B301A2014095CD
:1030200050956095709584239523A623B7238093AC
:10303000F8019093F901A093FA01B093FB0181E0AC
:10304000332009F458C00E94110F611571058105E4
:10305000910511F52091DE013091DF0148285928B2
:103060006A287B2841E0C41AD108A701440F551FE4
:10307000440F551FE1E0F0E0EC0FFD1FE40FF51FDA
:1030800080829182A282B382EFEFEE1AFE0A0217CB
:10309000130711F0015011090F5F1F4F4B015C0125
:1030A0008091DE019091DF018017910724F01C14BC
:1030B0001D040CF4A7CFCE0101966C0110E000E0D6
:1030C000E016F10649F5E0960FB6F894DEBF0FBEA4
:1030D000CDBFDF91CF911F910F91FF90EF90DF90C7
:1030E000CF90BF90AF909F908F907F906F905F90A8
:1030F0004F903F9008950E948610A7CF10E000E007
:10310000412C512C3201812C912C54018AE0C82E83
:10311000D12CF12CE12CC4CFF60181919191A19198
:10312000B1916F018093F8019093F901A093FA0196
:10313000B093FB0180E0332029F00E94110F0F5F54
:103140001F4FBECF0E948610FACF80E290E090938E
:1031500001018093000180915101811111C01092F1
:10316000B9008CE08093B80081E0809351012FEF8B
:1031700083ED90E3215080409040E1F700C00000D3
:1031800080E40E94D4059093010180930001892B73
:1031900009F040C080E00E942506909301018093D1
:1031A0000001892BB9F580E80E9425069093010162
:1031B00080930001892B71F58FEF0E942506909373
:1031C000010180930001892B29F584E98093BC00DB
:1031D00080E40E94D4059093010180930001892B23
:1031E000C9F48CE00E9425069093010180930001B0
:1031F000892B81F480E80E94250690930101809339
:103200000001892B39F48FEF0E942506909301016C
:103210008093000184E98093BC00809100010895AF
:103220000F931F93CF93DF93809100019091010141
:10323000892B71F0809150018F5F80935001811133
:1032400007C00E94A51890E09093010180930001AF
:103250000DE812E0C0E08C2F0E949D0CD7E0DC0F3F
:103260008D2F0E949D0C8C2F0E94020DF8018193DE
:103270008F018D2F0E94020DF80186830E94EC0CB5
:10328000CF5FC73041F78091F6018130A1F4809182
:103290005201909153010E949E058B3F910558F079
:1032A00080E00E9486100E9462060E94C8059093EA
:1032B00053018093520181E0DF91CF911F910F91D3
:1032C000089590E080E00E94D62721E08D3E9E4F39
:1032D00009F020E0822F08956DEE7EEF90E080E00F
:1032E0000E94FA2760E082E090E00E94DC2760E024
:1032F00083E090E00E94DC2710923802109239029D
:1033000010923A0210923B0260E084E090E00E944A
:10331000DC2760E085E090E00E94DC2760E086E04A
:1033200090E00E94DC276FEF87E090E00E94DC27AE
:1033300040E050E0BA0188E090E00E94EE2760E0B3
:103340008DE090E00E94DC2740E050E0BA0188E187
:1033500090E00E94EE2760E087E190E00E94DC2789
:1033600040E050E0BA018FE090E00E94EE2740E09C
:1033700050E0BA0183E190E00C94EE2710923702FE
:1033800080910C01882369F08091880287FF09C031
:10339000E2E3F1E08EE1DF011D928A95E9F70C94FA
:1033A0006507E3E3F1E086E0F6CF0F931F93CF9339
:1033B000DF93CDB7DEB7AA970FB6F894DEBF0FBE86
:1033C000CDBF8091E302882309F46AC31091E9001C
:1033D0001F708091EC0080FD66C080E0182B109279
:1033E000E9008091E80083FF58C38BED92E02091C3
:1033F000F100FC012193CF01F2E0833E9F07B9F772
:103400008091DC02833009F4BAC008F04EC08130EC
:1034100009F480C0823009F4FAC08091E80083FF8B
:103420009DC020910D018091DF029091E00228174C
:10343000190609F093C08091DC02813209F407C1BA
:1034400008F0F6C0803209F089C08091DB02813239
:1034500009F084C08091E800877F8093E800809124
:10346000E80082FF31C13091F1002091F10090918C
:10347000F1008091F100309321012093220190937B
:103480002301809324018091F10080932501809194
:10349000F100809326018091F100809327018091B3
:1034A000E8008B770CC180E899CF8A3009F49EC080
:1034B0008B3009F481C0893009F0AFCF8091DB02F5
:1034C000813209F0AACF8091DF029091E002892B2E
:1034D00009F0A3CF8091E800877F8093E800809176
:1034E000E80082FF37C09091F3008091F2000297CC
:1034F00029F48091F1008B7F813021F48091F100DB
:103500008093B7028091E8008B778093E8000E9457
:10351000520383CF8091DB02813A09F07ECF809104
:10352000E800877F8093E8008091DF029091E002BD
:10353000892B61F460E288EB92E070E00E94040461
:103540008091E8008B778093E80067CF60E090E09F
:1035500080E0F3CF8091E3028111C1CF8091E80038
:1035600083FF8DC28091DB029091DC029A3008F0DB
:1035700086C2E92FF0E0E45CF74D0C94B42780910B
:10358000DB02813A09F049CF8091DF029091E0029D
:10359000892B09F042CF8091E800877F8093E80073
:1035A0008091E80080FFFCCF80910C018093F100B6
:1035B0008091E8008E77A9CF8091DB02813209F0FB
:1035C0002CCF8091DF029091E002892B09F025CF6A
:1035D0008091E800877F8093E8000E9452038091E9
:1035E000DD0280930C010E94BE1917CF8091DB028F
:1035F000813209F012CF8091E800877F8093E80044
:103600000E9452038091DE028093B60206CF809121
:10361000DB02813A09F001CF8091E800877F809337
:10362000E8008091E80080FFFCCF8091B602BECF19
:10363000823209F44EC0833209F090CF8091DB02D0
:10364000813209F08BCF8091E800877F38C080916C
:10365000DB02813A09F082CF8091E800877F809376
:10366000E8008091E80080FFFCCF809121019091DB
:103670002201A0912301B09124018093F100492FF0
:103680005A2F6B2F77274093F100AD0166277727DC
:103690004093F1008B2F9927AA27BB278093F10035
:1036A000809125018093F100809126018093F100A3
:1036B000809127018093F1008091E8008E778093BC
:1036C000E8000E9452034ACF8091E3028111C7CEE5
:1036D00045CF8091DB02813209F040CF8091E80034
:1036E000877F8093E8000E9452038091DD029091D1
:1036F000DE0290931E0180931D0130CF803899F037
:10370000823809F0BCC18091DF028F70873008F0E9
:10371000B6C18093E9008091EB0085FB882780F992
:103720001092E90006C08091D8029091D9029111BF
:1037300082609091E800977F9093E8008093F10079
:103740001092F1008091E8008E7795C1882309F4EA
:1037500083C1823009F093C18091DD02811186C15D
:103760008091DF028F702FEF280F263008F087C17D
:103770008093E9002091EB0020FF78C1933031F471
:103780008091EB0080628093EB0070C19091EB0020
:1037900090619093EB0021E030E001C0220F8A9508
:1037A000EAF72093EA001092EA008091EB0088602B
:1037B000EACF811164C10091DD020F778091E300AF
:1037C0008078802B8093E3008091E800877F80934E
:1037D000E8000E9452038091E80080FFFCCF8091B6
:1037E000E30080688093E30082E0011183E080932E
:1037F000E30245C18058823008F041C18091DD026A
:103800009091DE028C3D23E09207A1F583E08A834C
:103810008AE289834FB7F894DE01139620E03EE0F8
:1038200051E2E32FF0E050935700E49120FF03C0F2
:10383000E295EF703F5FEF708E2F90E0EA30C0F0BE
:10384000C7968D939D932F5F243159F74FBF809179
:10385000E800877F8093E8006AE270E0CE0101967D
:103860000E9404048091E8008B778093E80007C1F0
:10387000C096E7CF4091DF025091E002292F332715
:103880002330310509F440C078F52130310509F4C1
:1038900072C08FE590E0EFE5F4E02230310509F0E9
:1038A000EEC02091E800277F2093E8002091E102FC
:1038B0003091E2028217930708F49C0140E0211541
:1038C000310509F05DC041115BC08091E80082FDC7
:1038D000C9CF8091E302882329F2853019F28091C3
:1038E000E80083FFF2CFBECF2132310509F43BC09F
:1038F0002232310509F0C3C0452B09F0C0C082E077
:1039000091E0EDE5F3E0CDCF992781309105D9F035
:10391000009771F082309105F1F0039709F0AFC084
:10392000E0EDF4E0E4918E2F90E0E0EDF4E007C0EC
:10393000EEE0F5E0E4918E2F90E0EEE0F5E0009708
:1039400009F49DC0AECFE6EEF4E0E4918E2F90E056
:10395000E6EEF4E0F4CFE6EDF4E0E4918E2F90E0B3
:10396000E6EDF4E0ECCF452B09F089C089E090E06A
:10397000E1E7F4E096CF82E190E0EEEBF4E091CF66
:103980008091E302882309F46DCF853009F46ACF72
:103990008091E80083FD66CF8091E80082FD95CF9D
:1039A0008091E80080FF8BCF9091F3008091F2002E
:1039B0002115310519F08830910550F041E0089744
:1039C00009F040E08091E8008E778093E80077CF9F
:1039D00044914093F1003196215031090196E8CF8E
:1039E000803809F04CC08091E800877F8093E80020
:1039F0008091DA028093F100A5CE811140C0009140
:103A0000DD020230E0F58091E800877F8093E800D6
:103A10000093DA020E945203002311F084E005C0F3
:103A20008091E30087FDFACF81E08093E30242E2D8
:103A300061EC81E00E94710342E061EC82E00E944F
:103A4000710342E160E884E00E94710342E161E8B1
:103A500083E00E94710313C08091DD02813079F40C
:103A600081E0933009F080E08093D9021092E90060
:103A70008091E800877F8093E8000E945203809144
:103A8000E80083FF0AC08091E800877F8093E80008
:103A90008091EB0080628093EB001F701093E9002F
:103AA000AA960FB6F894DEBF0FBECDBFDF91CF91BF
:103AB0001F910F910895EF92FF920F931F93CF9351
:103AC0007C018B010E94F102C82F811119C08091E5
:103AD000E80085FD0DC08091E8008E778093E800B6
:103AE0000E94D5190E94F102882389F3C82F08C0CB
:103AF000F70181917F018093F1000150110939F79D
:103B00008C2FCF911F910F91FF90EF9008950F93FD
:103B10001F93CF93DF9300D00F92CDB7DEB78C0108
:103B20000E946204823011F0843021F584E08983A0
:103B30001B830A8381E08093E9008FEF9091E80076
:103B4000815095FD06C095ED9A95F1F70000811121
:103B5000F5CF8091E80085FF0DC050E040E063E0C4
:103B600070E0CE0101960E945B1D8091E8008E7787
:103B70008093E8000F900F900F90DF91CF911F91ED
:103B80000F910895CF93DF9300D00F92CDB7DEB79A
:103B90002091E302243031F523E0298380589109F4
:103BA0009B838A8381E08093E9008FEF9091E80006
:103BB000815095FD06C095ED9A95F1F700008111B1
:103BC000F5CF8091E80085FF0DC050E040E063E054
:103BD00070E0CE0101960E945B1D8091E8008E7717
:103BE0008093E8000F900F900F90DF91CF91089590
:103BF000CF93DF93EC010E946204823011F0843095
:103C0000F9F481E08093E9008FEF9091E800815012
:103C100095FD06C095ED9A95F1F700008111F5CF5D
:103C20008091E80085FF0CC050E040E066E070E065
:103C3000CE010E945B1D8091E8008E778093E800A2
:103C4000DF91CF910895CF93DF93EC010E9462043E
:103C5000823011F08430A9F580910C01882321F085
:103C60008091880260E287FF69E081E08093E9004B
:103C70008FEF9091E800815095FD06C095ED9A95E3
:103C8000F1F700008111F5CF8091E80085FF19C0A0
:103C900080910C01811118C050E040E068E070E0B4
:103CA000CE0101960E945B1D8091E8008E77809383
:103CB000E80080E2FE01A8EBB2E001900D928A9547
:103CC000E1F7DF91CF91089570E050E040E0CE0140
:103CD000E9CF86E0E8E5F1E0DF01982F1D929A95A3
:103CE000E9F7EEEFF1E0DF011D928A95E9F708951B
:103CF000CF93C82F0E94691EC09387026C2F8DE05E
:103D000090E0CF910C94DC278F929F92AF92BF925C
:103D1000CF92DF92EF92FF920F931F93CF93DF9397
:103D20008C01FC0183819481892B39F0C081D18180
:103D30008C2F8D238F3F09F045C5DF91CF911F91C7
:103D40000F91FF90EF90DF90CF90BF90AF909F903A
:103D50008F900895C7010E94650AD82E682FC70169
:103D60000E940D07ED2FF0E02EE0D29EE00DF11D38
:103D70001124EE0FFF1FEE0FFF1FEC0FF11DEE0FD2
:103D8000FF1FE353FE4FC591D491C0338AE5D80796
:103D900009F46BC008F04FC0CE019A558A9708F419
:103DA00086C0F8018281C73DFCE5DF0709F4E3C264
:103DB00008F0E0C1C5319CE5D90708F0C6C1C230A2
:103DC000ECE5DE0708F058C2C115FCE5DF0709F491
:103DD0000BC2C130DC4509F439C291E090930A026C
:103DE00090930B02F801C081D181882309F44DC35F
:103DF000CE010E94650AF82E682FCE010E940D07A1
:103E0000BE018F2D0E943E08D82F292FF82EF801D1
:103E10008281811110923602122F12951F70143078
:103E200009F4D5C308F036C3123008F495C318302E
:103E300009F083CF83C3C133EAE5DE0709F0B1CFD0
:103E4000B80181E39AE50E94A70A882309F475CF97
:103E5000F801408151816281738184810E94FD0754
:103E6000882309F46ACF81E014C0B80180E39AE5A1
:103E70000E94A70A882309F460CFF801408151818C
:103E80006281738184810E94FD07882309F455CFE4
:103E900080E0DF91CF911F910F91FF90EF90DF9025
:103EA000CF90BF90AF909F908F900C94781EB801E8
:103EB000CE010E94A70A882309F43FCFF090870221
:103EC000F801408151816281738184810E94FD07E4
:103ED000582FFF20A1F0F1E0FF1681F1C0910402FC
:103EE000F801408151816281738184810E94FD07C4
:103EF000882309F445C0CF5FC09304021ECFFE01A2
:103F0000FF27E35EFC4FE491AE2FA295A695A69500
:103F1000A370B0E0882361F0ED01C85ADE4F8881BC
:103F20008E2B8883A250BE4FCC91EC2BEC93D6CF36
:103F3000A85ABE4FE095CC91EC23F8CF8C2F67E0C8
:103F40000E949427492F90E066E070E0641B71099D
:103F500021E030E001C0220F6A95EAF7FC01E85A3F
:103F6000FE4F4081552349F0422B4083FC01E25033
:103F7000FE4F8081282B2083B1CF20952423FBCFB7
:103F8000C1501C160CF4B8CF109204028091FD01B0
:103F9000882341F01092FD018091FC010E94710480
:103FA0000E944C068091F8019091F901A091FA01CC
:103FB000B091FB018F309105A105B10521F58091EC
:103FC000F70191E089278093F7011092F801109290
:103FD000F9011092FA011092FB011092DF01109288
:103FE000DE010E94BE19EEE5F1E08EED91E04FEFAB
:103FF0005FEF60E070E041935193619371938E178E
:104000009F07C9F75FC083309105A105F0E3BF07A3
:1040100021F58091F601823041F01092F5018093F4
:10402000F40182E08093F601D0CF8091F401809377
:10403000F60100EE11E0D0E0C0E08091F5018C17B0
:104040001D0609F01CF40E94BE19BFCFF801819132
:104050008F010E94F10D2196F0CF83339105A105C8
:10406000B10561F4609131027091320280913302A6
:104070009091340262600E948007A7CF2091F601E0
:1040800081309105A105B10539F4211102C081E00B
:10409000C9CF1092F60199CF213011F580FF2AC0C7
:1040A0001092DF011092DE011092F8011092F901D6
:1040B0001092FA011092FB0180918702882331F15E
:1040C000813099F1DF91CF911F910F91FF90EF9087
:1040D000DF90CF90BF90AF909F908F900C94691E0F
:1040E000223041F083709927AA27BB27892B8A2B7E
:1040F0008B2B21F080E00E947D1767CF2111D0CF5C
:104100008091F701882361F281E0F5CFCEEFD1E015
:1041100002E012E0899181110E94B30D0C171D0776
:10412000C9F780E00E94B30DCDCF8091FE01806879
:104130008093FE01CEEFD1E004E012E089910E946D
:10414000B30D0C171D07D1F7BDCFC631DC4509F003
:1041500044CE882309F48FC1809137028A7A91E096
:1041600009F490E090930502811183C189E20E94D5
:10417000B10610C1CC3DECE5DE0709F470C0D0F407
:10418000C83D2CE5D20709F42AC1C93DDC4509F038
:1041900024CEC0913702882309F446C110920B0245
:1041A0000E94C8059093090280930802C062C093E0
:1041B0003702F0C0CD3DECE5DE0709F456C0CE3D38
:1041C000DC4509F00ACE882309F4B7CDDF91CF9101
:1041D0001F910F91FF90EF90DF90CF90BF90AF9025
:1041E0009F908F900C946C19882309F4A6CD0E949F
:1041F000BE192FEF84E39CE0215080409040E1F70E
:1042000000C0000081E08093E00080E28093D8004D
:104210001092C900EFE1FEE43197F1F700C0000011
:1042200087E090EBDC018093E4029093E502A09399
:10423000E602B093E70288E19CE00FB6F894A895F7
:10424000809360000FBE90936000FFCF882309F435
:1042500074CD8091A50281608093A5026ECD8823E4
:1042600009F46BCD1092B40268CD882309F465CDB2
:1042700082E08093B40261CD882309F4B3CD0E941B
:104280006119811102C00E946C1984E090E00E94C3
:10429000CE2790E09093890280938802FE01E3503C
:1042A000FC45809188028160E231F10538F4EA5BD7
:1042B000F74D0C94B4278091880282608093880225
:1042C0006091880284E090E00E94DC27DF91CF912A
:1042D0001F910F91FF90EF90DF90CF90BF90AF9024
:1042E0009F908F900C94BE19809188028460E6CFD5
:1042F000809188028860E2CF809188028061DECF61
:10430000809188028062DACF809188028064D6CF63
:10431000809188028068D2CF809188028C60CECF55
:10432000809188028E7FCACF809188028D7FC6CF10
:10433000809188028B7FC2CF80918802877FBECF19
:10434000809188028F7EBACF809188028F7DB6CF10
:10435000809188028F7BB2CF809188028F77AECF19
:1043600080918802837FAACF90918802892F97FB42
:1043700087F98058A3CF8823D9F010920A020E94AF
:10438000C8059093070280930602809137028260ED
:1043900080933702DF91CF911F910F91FF90EF90A3
:1043A000DF90CF90BF90AF909F908F900C9462065B
:1043B00080910A0281110FC080910602909107023C
:1043C0000E949E05883C910530F486E20E94F10D22
:1043D00086E20E94A007809137028D7FD9CF882383
:1043E00061F010920B020E94C8059093090280931D
:1043F0000802809137028062CBCF80910B0281113D
:104400000FC080910802909109020E949E05883C8D
:10441000910530F487E20E94F10D87E20E94A00727
:10442000809137028F7DB4CFCF7D80910B028111B7
:10443000BECE80910802909109020E949E05883CA0
:10444000910508F0B4CEC09337020E94620688E25C
:104450000E94F10D88E2DF91CF911F910F91FF90A3
:10446000EF90DF90CF90BF90AF909F908F900C9483
:10447000A00785E37CCE80910502811104C089E20A
:104480000E94860687CF85E3FBCFCE010E94E60619
:10449000F82EB6CC153009F4B8C0183009F0C7CCE6
:1044A000922F937009F01AC1811148C03D2F3295A7
:1044B00036953770330F330F6D2F6F70C62ED12C9A
:1044C000F12CE12C032E04C0CC0CDD1CEE1CFF1CD7
:1044D0000A94D2F780E090E0DC01D4FF0FC08FE0B7
:1044E00090E0A0E0B0E004C0880F991FAA1FBB1F96
:1044F0003A95D2F780959095A095B095422F469524
:1045000046954370009138021091390220913A0289
:1045100030913B02423009F4C5C008F0CEC04130B2
:1045200009F4B5C08C299D29AE29BF29BC01CD0154
:1045300060237123822393230E948A07DF91CF9106
:104540001F910F91FF90EF90DF90CF90BF90AF90B1
:104550009F908F900C949407C22FCF70207F11F002
:10456000C295C07F8823C9F0CC2369F080E28D0F0B
:10457000883010F0F1100BC080913702C82BC09327
:1045800037020E9462068D2F0E94F10D50CC80915F
:104590003602C82BC0933602F4CF8D2F0E94A0079D
:1045A000CC2309F444CCC095D05ED83010F0F11083
:1045B00008C080913702C823C09337020E94620668
:1045C00036CC80913602C823C0933602F7CF922FA3
:1045D00096959695937059F0913009F0AECB88235B
:1045E00089F08D2F922F93700E943907A6CB8823D4
:1045F00031F08D2F922F93700E944F079ECB90E049
:1046000080E0FACF90E080E0EFCF882309F1D53F3A
:1046100099F0D63FB9F0D43F49F480910C029091C3
:104620000D02816090930D0280930C028D2F0E94E9
:1046300036050E944C0681CB80910C0290910D02B0
:104640008260F0CF80910C0290910D028460EACFDD
:10465000D53F89F0D63FA9F0D43F49F480910C02B0
:1046600090910D028E7F90930D0280930C028D2FFE
:104670000E947104DECF80910C0290910D028D7F1B
:10468000F2CF80910C0290910D028B7FECCFC02A6B
:10469000D12AE22AF32ABC01CD016C297D298E2979
:1046A0009F294ACF8C299D29AE29BF29BC01CD0164
:1046B00060277127822793273FCFBC01CD0160235C
:1046C0007123822393230E948A076091380270919C
:1046D000390280913A0290913B02DFCF9695882370
:1046E00011F0922F9170992309F428CF3D2F329524
:1046F00036953770330F330F6D2F6F70C62ED12C58
:10470000F12CE12C032E04C0CC0CDD1CEE1CFF1C94
:104710000A94D2F780E090E0DC01D4FF0FC08FE074
:1047200090E0A0E0B0E004C0880F991FAA1FBB1F53
:104730003A95D2F780959095A095B09526952695B7
:1047400023708090310290903202A0903302B0909A
:1047500034022230D9F028F5213069F08C299D29C6
:10476000AE29BF29BC01CD01682179218A219B2175
:104770000E948007E3CEC828D928EA28FB28BC017C
:10478000CD016C297D298E299F29F2CF8C299D2965
:10479000AE29BF29BC01CD01682579258A259B2535
:1047A000E7CFBC01CD01682179218A219B210E949C
:1047B00080076091310270913202809133029091B2
:1047C0003402DFCFE080F18082818111C3CAC7014A
:1047D0000E94E606D82EC6CA1F920F920FB60F92FD
:1047E00011242F933F934F935F936F937F938F93F6
:1047F0009F93AF93BF93EF93FF938091E10082FF6C
:1048000009C08091E20082FF05C08091E1008B7FAA
:104810008093E1008091DA0080FF24C08091D8006D
:1048200080FF20C08091DA008E7F8093DA00809133
:10483000D90080FF98C080E189BD82E189BD09B4BB
:1048400000FEFDCF81E08093E3028091B5028111EB
:1048500009C00E94D2020E94A3038091E2008460FA
:104860008093E2008091E10080FF17C08091E20018
:1048700080FF13C08091E2008E7F8093E2008091E0
:10488000E20080618093E2008091D8008062809392
:10489000D80019BC85E08093E3028091E10084FF99
:1048A0002BC08091E20084FF27C080E189BD82E1B6
:1048B00089BD09B400FEFDCF8091D8008F7D809323
:1048C000D8008091E1008F7E8093E1008091E2002A
:1048D0008F7E8093E2008091E20081608093E2000D
:1048E0008091DA02882309F444C084E08093E302D3
:1048F0000E94BE190E9494078091E10083FF22C0AC
:104900008091E20083FF1EC08091E100877F809349
:10491000E10082E08093E3021092DA028091E100EC
:104920008E7F8093E1008091E2008E7F8093E20091
:104930008091E20080618093E20042E060E080E0EC
:104940000E947103FF91EF91BF91AF919F918F9161
:104950007F916F915F914F913F912F910F900FBE7B
:104960000F901F90189519BC1092E3021092B50297
:1049700079CF8091E30087FD02C081E0B7CF83E06B
:10498000B5CFCDB7DEB728970FB6F894DEBF0FBE10
:10499000CDBF84B7877F84BF0FB6F894A895809168
:1049A0006000886180936000109260000FBE80E814
:1049B000809361001092610085B7806885BF85B7DC
:1049C000806885BF0E94D2020E94A3038091E2000A
:1049D00084608093E20078940E94D51982E084BDBF
:1049E00093E095BD9AEF97BD80936E000E94A51845
:1049F00090E090930101809300010E94EC0C0E94D2
:104A0000FB0C89E792E0E1E4F2E04DE852E0DA01E4
:104A10001D92AD01DC011D92CD0110821182128226
:104A200013823496B2E04B395B0789F70E94611913
:104A3000811102C00E946C1981E00E94781E3F988B
:104A40008AB18F708AB96E98479A8BB1806F8BB993
:104A5000769A0E946119811102C00E946C1982E04D
:104A600090E00E94CE278093A50284E090E00E940F
:104A7000CE2790E0909389028093880283E090E0B3
:104A80000E94CE27682F70E090E080E00E948A07A5
:104A90000E946119811102C00E946C198DE090E0A2
:104AA0000E94CE278093870280918802806880933D
:104AB000880282E091E090938B0280938A0282E0E8
:104AC00090E09093200180931F018091E302843055
:104AD00079F58091210190912201A0912301B0915B
:104AE0002401892B8A2B8B2B19F1809118018F704F
:104AF0008093E90088E0E8E2F1E0DE0111960190A0
:104B00000D928A95E1F750E040E068E070E0CE0158
:104B100001960E945B1D50E040E062E070E08FE192
:104B200091E00E945B1D8091E8008E778093E80001
:104B3000EE24EA94AA24A394B12C90E1292E22E138
:104B4000522E38E1832E912C40E4442E8091E302D2
:104B5000853009F48CC00E941019A6EAB2E0EDE895
:104B6000F2E010E000E0302EF1908D918F1509F405
:104B7000CEC0D12CC12C8F2590E09C010C2C02C002
:104B8000359527950A94E2F720FFB9C035010C2C22
:104B900002C0660C771C0A94E2F70E94C805C9821D
:104BA0003A822F2D30E02621372141E0232B09F4D2
:104BB00040E04B8381609D838C83CE0101960E94EF
:104BC000841EF801EA55FD4F80816826608280913D
:104BD000A2029091A3020E949E059C019091A102C5
:104BE000992319F02431310578F020919D02F0903D
:104BF0009E0210919F020091A00221119BC0812F63
:104C00008F29802B09F041C10E9494079091A40242
:104C1000891721F00E9494078093A4028091E302F7
:104C2000843009F0FEC08091210190912201A09171
:104C30002301B0912401892B8A2B8B2B09F4F1C01D
:104C4000809113018F708093E9009091E80092FFAA
:104C5000E8C09091F3002091F200392F232B09F046
:104C6000C0C08091E8008B778093E800DAC0809123
:104C7000E302843009F110928C020FB6F894A895E3
:104C8000809260000FBE4092600083B7817F846095
:104C900083BF83B7816083BF7894889583B78E7F05
:104CA00083BF0FB6F894A8958091600088618093C7
:104CB0006000109260000FBE8091D902882309F431
:104CC00045CF0E94A51890E09093010180930001C8
:104CD0000E94EC0C0E94FB0CEDE8F2E0119222E045
:104CE000EB39F207D9F70E941019EDE8F2E0819153
:104CF0008111B7C042E0EB39F407C9F727CF2FEF96
:104D0000C21AD20A44E0C416D10409F036CF0F5FAC
:104D10001F4F0E30110509F026CF0E94C805E98209
:104D2000EA821B8281609D838C83CE0101960E9462
:104D3000841E4DCF9F3F19F09F5F9093A1021216E2
:104D400024F40E94120580939D0280919D0287FFAA
:104D500005C00E941205819580939D021F1424F4C2
:104D60000E94120580939E0280919E0287FF05C0DB
:104D70000E941205819580939E0230919D023323FB
:104D800079F020919E02222359F045EB3403C001B3
:104D9000112490939D0224039001112430939E02CC
:104DA000111624F40E94F00480939F0280919F02C8
:104DB00087FF05C00E94F004819580939F02101622
:104DC00024F40E94F0048093A0028091A00287FF47
:104DD00005C00E94F00481958093A0020E944C06B9
:104DE00013CF9091F3002091F200392F232BC9F0BB
:104DF0009091E3029430A9F48093E9008091E80057
:104E000082FF0FC09091F3008091F200892B11F086
:104E10008091F1009091F3008091F200892B09F4C8
:104E200020CF8091E3028430C9F4809121019091D8
:104E30002201A0912301B0912401892B8A2B8B2B75
:104E400069F080910E018F708093E9008091E800F5
:104E500080FF04C08DE091E00E9420030E94D519DC
:104E600075CE29BC59BC09B400FEFDCF8091D80095
:104E70008F7D8093D8008091E00082608093E00075
:104E80008091E00081FDFCCF61CE9F3F09F054CFBF
:104E900065CF78941F921FB61F9211248F939F9312
:104EA000AF93BF9380913C0290913D02A0913E024E
:104EB000B0913F020196A11DB11D80933C029093D9
:104EC0003D02A0933E02B0933F02BF91AF919F91EC
:104ED0008F911F901FBE1F9018951F921FB61F9293
:104EE00011248F939F93AF93BF9380918C02811174
:104EF00013C080913C0290913D02A0913E02B0917E
:104F00003F024196A11DB11D80933C0290933D024A
:104F1000A0933E02B0933F02BF91AF919F918F91BA
:104F20001F901FBE1F901895991B79E004C0991F10
:104F3000961708F0961B881F7A95C9F780950895F3
:104F400097FB072E16F4009407D077FD09D00E9436
:104F5000BA2707FC05D03EF4909581959F4F0895A0
:104F6000709561957F4F0895EE0FFF1F0590F491A6
:104F7000E02D0994AA1BBB1B51E107C0AA1FBB1F50
:104F8000A617B70710F0A61BB70B881F991F5A95D5
:104F9000A9F780959095BC01CD010895F999FECFB0
:104FA00092BD81BDF89A992780B50895A8E1B0E037
:104FB00042E050E00C940228262FF999FECF92BDD2
:104FC00081BDF89A019700B4021639F01FBA20BDCE
:104FD0000FB6F894FA9AF99A0FBE08950396272F00
:104FE0000E94DD270E94DC27252F0E94DD27242F29
:104FF0000C94DD270196272F0E94DD270C94DC27D7
:10500000DC01CB01FC01F999FECF06C0F2BDE1BD88
:10501000F89A319600B40D9241505040B8F7089577
:10502000F894FFCF2D0B490B490B490B490B490B4A
:10503000490B650B730B810B8F0B9D0BAB0BB90BE6
:10504000C70BD50BE30BC40A030B990C990C3B0B54
:10505000110B1F0BF10BFF0B0D0C1B0C290C370C4C
:10506000450C530C610C6F0C7D0C570B570B570BF9
:10507000570B570B570B8B0C7E1BA61B3F1DA61BFC
:105080003F1DD91BFA1B3F1DF01CFD1C5B21742129
:1050900078217C218021842188218C2190219421D8
:1050A00098219C21A021A421A821AC21B021B421C8
:1050B00020006E04231EF81DC21D871D01018310F0
:1050C000000001041000000182080000010000003F
:1050D0000000000000000000A1200000000002000D
:0200000400807A
:0402E4000000000016
:00000001FF
