:100000000C94D0030C9417040C9417040C9417044C
:100010000C9417040C9417040C9417040C941704F4
:100020000C9417040C9417040C94662D0C9417046C
:100030000C94B2310C9417040C9417040C9417040C
:100040000C9417040C9417040C9417040C941704C4
:100050000C9417040C948E310C9417040C94170410
:100060000C9417040C9417040C9417040C941704A4
:100070000C9417040C9417040C9417040C94170494
:100080000C9417040C9417040C9417040C94170484
:100090000C9417040C9417040C9417040C94170474
:1000A0000C9417040C9417040C9417044932433A27
:1000B0002025640A00723A256420633A2564200AE8
:1000C000006C656674207369646520617474616393
:1000D0006865640A006C6566742073696465206EE7
:1000E0006F7420726573706F6E64696E670A007456
:1000F0007279696E6720746F207265736574206D04
:10010000637032333031380A00434D44204C454E41
:100110003A202564204255463A2025640A0073742B
:10012000617274696E6720696E6974004170722033
:10013000333020323031390076312E303A2053744A
:10014000656E6F6B6E6967687400000000000000E8
:10015000000000000000000000000000000000009F
:10016000000000000000000000000000000000008F
:10017000000000000000000000000000000000007F
:10018000000000000000000000000000000000006F
:10019000000000000000000000000000000000005F
:1001A000000000000000000000000000000000004F
:1001B000000000000000000000000000000000003F
:1001C000000000000000000000000000000000002F
:1001D000000000000000000000000000000000001F
:1001E000000000000000000000000001010101010A
:1001F00001000101010100000000000000000000FA
:1002000000000000010001000101010101010101E4
:1002100001010101010101010101010101010101CE
:1002200001010101010000000101000000000000C7
:1002300000000000000000000000000000000000BE
:1002400000000000000101010100000000000000AA
:1002500000002A2B28000000000000000000000021
:10026000000000000029000000002C1E3420212284
:1002700024342627252E362D3738271E1F202122ED
:10028000232425263333362E37381F040506070866
:10029000090A0B0C0D0E0F10111213141516171856
:1002A000191A1B1C1D2F3130232D35040506070894
:1002B000090A0B0C0D0E0F10111213141516171836
:1002C000191A1B1C1D2F3130354C0000165A175AB5
:1002D000195A00001A5A1B5A185A00001C5A1D5A63
:1002E000235A00001E5A1F5A00000000205A215AAB
:1002F00000000000225A295A0000000000000000FF
:1003000000000000115A125A105A00000D5A0E5ADD
:100310000F5A00000B5A0C5A015A0000095A0A5A87
:1003200000000000075A085A00000000005A155A41
:100330000000000000000000000000001C000B0096
:100340002502000018000D004C0000000C000E00FB
:100350001050000012000F000000000013003300D6
:10036000000000002800340200000000000000002F
:100370000000000017000A002842000015000900D4
:100380002C00000008000700E20000001A00160020
:10039000000000001400040000000000E100E00084
:1003A0000000000000000000000000002300110019
:1003B00025020000240010004C0000002500360239
:1003C000105000002600370200000000270038020D
:1003D000000000002D00E50000000000000000000B
:1003E0000000000022000500280000002100190084
:1003F0002C00000020000600E20000001F001B008F
:10040000000000001E001D0000000000E100E000F0
:100410000000000000000000000000D0D0D0D0D0CC
:10042000D001010204081020414244484800000065
:10043000484850608182848890A0C1C2C4D0D0D086
:10044000D0D0D0C800000000000000000000000074
:10045000000000000000000000005377697463682A
:10046000696E6720746F20514D4B0A00434F4D4D0C
:10047000414E4420546F67676C650A0046616C6C9E
:100480006261636B20546F67676C650A0044454284
:1004900055473A20656E61626C65642E0A0061649E
:1004A000645F6B65795F6269743A2063616E27747B
:1004B000206164643A20253032580A0064656C5F1C
:1004C0006B65795F6269743A2063616E277420649A
:1004D000656C3A20253032580A000A00253032581F
:1004E00020006B6579626F6172645F7265706F7214
:1004F000743A2000290A002575002F002575005D3B
:1005000028002564002000256400200025640020C8
:10051000002564007C0025303258006D6F757365CE
:100520006B6579205B62746E7C7820792076206818
:100530005D287265702F61636C293A205B000A00A8
:100540002530313662003A200025303258000A72D8
:100550002F63203031323334353637383941424316
:100560004445460A000A0025303258006B6579621E
:100570006F6172645F7365745F6C65643A20005BE1
:10058000735D004B6579626F617264207374617290
:10059000742E0A005B435D005B445D005B535D00AD
:1005A0005B575D005B525D000631FF0974A10109D4
:1005B00075150026FF009520750881020976150043
:1005C00026FF00952075089102C005010906A101CA
:1005D0008501050719E029E7150025019508750132
:1005E0008102950175088101050819012905950504
:1005F000750191029501750391010507190029FF05
:10060000150026FF00950675088100C00501090246
:10061000A10185020901A10005091901290515009B
:10062000250195057501810295017503810105017B
:10063000093009311581257F950275088106093831
:100640001581257F950175088106050C0A3802156C
:1006500081257F950175088106C0C005010980A12B
:100660000185031601002603001A81002A83007504
:100670001095018100C0050C0901A1018504160136
:1006800000269C021A01002A9C0275109501810027
:10069000C005010906A1018505050719E029E7152F
:1006A00000250195087501810205081901290595A4
:1006B000057501910295017503910105071900293E
:1006C000EF1500250195F075018102C009027F0038
:1006D000040100A0FA09040000010301010009213E
:1006E000110100012202010705810320000A09040B
:1006F0000100020300000009211101000122220073
:100700000705820320000107050203200001080BF2
:1007100002020202010009040200010202010005B6
:1007200024001001042402020524060203070583A5
:10073000030800FF09040300020A00000007050582
:10074000021000050705840210000512011001EFD8
:10075000020108EDFE37130100010203010403301A
:100760000000000E03470065006F0072006700691B
:100770000000002603670020004800650061007645
:10078000007900200049006E006400750073007459
:100790000072006900650073000000040309040092
:1007A00011241FBECFEFDAE0DEBFCDBF04B603FEDB
:1007B00027C08091AA039091AB03A091AC03B091A4
:1007C000AD038730904BA740B04BD1F41092AA03F1
:1007D0001092AB031092AC031092AD0314BE84B719
:1007E000877F84BF0FB6F894A895809160008861D8
:1007F00080936000109260000FBEE0E0F8E309957E
:1008000011E0A0E0B1E0EEE6F5E602C005900D9241
:10081000A033B107D9F723E0A0E3B1E001C01D92F6
:10082000AA3AB207E1F70E94922E0C9455320C942A
:100830000000FF93EF93E0913001F0913101309788
:1008400009F00995EF91FF910895FC0185918030A1
:1008500011F0EFDFFBCF0895FF27E0E230E247FF22
:100860000CC0419597FF09C0EDE2609570958095A9
:100870009095611D711D811D911D27FF02C021955D
:1008800030E350E2AA27660F771F881F991FAA1F1F
:10089000A41710F0A41B63955A95A9F7AA3008F085
:1008A000A95FA05DAF93F395611571058105910571
:1008B00041F7ED3211F4EF93F395F21718F43F93EB
:1008C000F395FBCF8F91B5DFFA95E1F70895E991A4
:1008D000F9918591803021F0853219F0AADFF9CFA6
:1008E000089520E0E89455915532C1F3503311F446
:1008F000689455915A3348F4505390F3220F022EC6
:10090000220F220F200D250FF4CF0EF4219589918F
:100910009991533619F3533729F1533559F1BC01E5
:1009200088279927E8945C3621F4899199916894F5
:100930005591543639F446EF7EF077FF0DC08FEFB6
:100940009FEF0AC055374AE039F0583540E121F0B1
:10095000523642E009F00895FF93EF937DDFEF9167
:10096000FF91B7CFFF93EF93FC0181918030B9F3F2
:1009700060DFFBCFFF93EF9368DFF1CFDF93CF937F
:10098000CDB7DEB72596A3DFCF91DF910895E8EDCF
:10099000F0E080818E7F80831092E2001092DA0076
:1009A0001092E100A0EEB0E08C9181608C93808188
:1009B0008F77808319BCA7EDB0E08C918E7F8C93EC
:1009C00080818F7E808310927B0308952091E400C4
:1009D0003091E50095E6A9012091EC00822F81700D
:1009E00020FF06C08091E80080FF06C080E00895E7
:1009F0002091E80022FD1AC08091A903882389F084
:100A0000853089F08091EB0085FD0FC02091E400D6
:100A10003091E50042175307F9F29150E1F684E076
:100A2000089582E0089583E0089581E0089580911B
:100A3000A903843061F58091210190912201A09158
:100A40002301B0912401892B8A2B8B2B01F18091FA
:100A50000E018F708093E9009091F3008091F20075
:100A6000892B11F480E008959091E8008091E800CE
:100A70008E778093E80095FDF5CF0E94E604811102
:100A800007C09091E8009E779093E800089582E077
:100A900008958091A10387FF13C08091E80082FF31
:100AA00006C08091E8008B778093E80004C08091B5
:100AB000A9038111F2CF08958091A9038823D9F366
:100AC0008091E80080FFF8CF8091E8008E77ECCF2E
:100AD000982F9093E900242F762F50E0891731F05A
:100AE0007091EC002091ED005091F00021FD07C0C5
:100AF0009F5F973071F78093E90081E0089530910E
:100B0000EB003E7F3093EB003091ED003D7F309362
:100B1000ED003091EB0031603093EB007093EC000E
:100B20002093ED005093F0002091EE0027FDE0CFE0
:100B300080E00895CF92DF92EF92FF920F931F9380
:100B4000CF93DF93C8EDD0E088818F7E8883E7ED77
:100B5000F0E080818160808384E082BF81E08093C7
:100B60007B0388818E7F888302EE10E0F80110827B
:100B70001092DA0081EEC82ED12CF6011082888105
:100B80008F77888388818068888388818F7D888338
:100B900019BC1092A9031092A00310929F03109207
:100BA0009E0390EEE92EF12CF70180818B7F8083EC
:100BB00088818160888342E060E080E00E9468056F
:100BC000F60180818E7F8083F8018081816080833F
:100BD000808188608083F70180818E7F8083888117
:100BE00080618883DF91CF911F910F91FF90EF90EB
:100BF000DF90CF900895FC018091A7039091A80306
:100C000086179707A0F06115710529F49091E80007
:100C10009E779093E80090E06115710551F4911171
:100C200008C08091E80082FF34C080E00895BC01D4
:100C3000F2CF8091A9038823C1F18530C1F1809161
:100C4000E80083FD30C08091E80082FDEACF80910A
:100C5000E80080FFE1CF8091F3002091F200382F6F
:100C60006115710519F02830310558F091E02830F0
:100C7000310509F090E02091E8002E772093E800FC
:100C8000CBCF81918093F100615071092F5F3F4F6D
:100C9000E7CF8091A903882341F0853041F080910E
:100CA000E80083FFBECF81E0089582E0089583E0ED
:100CB000089580917803811107C08091A903843041
:100CC00011F482E0089581E0089580917D030895F4
:100CD00090916103803F41F48091620387FD1092FF
:100CE0006203992371F00895813F29F48091620392
:100CF0001816ACF3F6CF823F81F497FFF2CF109233
:100D000061038091620390916303892B9091640346
:100D1000892B49F7109265030895833F19F419163A
:100D200074F3DFCF893F39F4809163031816CCF652
:100D300010926303D6CF8A3F29F48091630387FF23
:100D4000D0CFF6CF8B3F39F48091640387FFC9CFB2
:100D500010926403C6CF8C3F29F480916403181667
:100D6000BCF3BFCF843F31F4809160038E7F8093CA
:100D70006003B7CF853F21F4809160038D7FF7CF6B
:100D8000863F21F4809160038B7FF1CF873F21F470
:100D900080916003877FEBCF883F21F480916003CF
:100DA0008F7EE5CF8D3F31F4809103038E7F80935A
:100DB000030397CF8E3F21F4809103038D7FF7CFFC
:100DC0008F3F09F08ECF809103038B7FF0CF80910E
:100DD000030380FD16C081FD16C082FD16C0809100
:100DE00065038823A1F0883280F428E0829FC00147
:100DF000112468E270E00E94E531862F672B39F0FC
:100E0000089582E0089584E0089588E0089581E0DF
:100E100008958091030380FD16C081FD16C082FDF8
:100E200018C080916503882391F08C3390F423E2FD
:100E3000829FC00111246CE370E00E94E531862F8F
:100E4000672B49F0089588E0089581E1089585E0D1
:100E5000089583E2089581E00895803F31F40E946F
:100E600009078195809362030895813F19F40E94D8
:100E70000907F8CF823F31F40E94090781958093DA
:100E800061030895833F19F40E940907F8CF893F51
:100E900029F40E94E7068093630308958A3F21F4B2
:100EA0000E94E7068195F7CF8B3F31F40E94E70659
:100EB00081958093640308958C3F19F40E94E7069E
:100EC000F8CF843F31F480916003816080936003A8
:100ED0000895853F21F4809160038260F7CF863FBB
:100EE00021F4809160038460F1CF873F21F48091E9
:100EF00060038860EBCF883F21F4809160038061BC
:100F0000E5CF8D3F31F4809103038160809303032B
:100F100008958E3F21F4809103038260F7CF8F3FC5
:100F2000B9F7809103038460F1CFCF92DF92EF9203
:100F3000FF920F931F932FB7F8944091FF025091A7
:100F4000000360910103709102032FBF6A017B01CE
:100F5000EE24FF248C0130E020E0C016D106E2062A
:100F6000F30650F0481B590BCA011F910F91FF90D7
:100F7000EF90DF90CF90089541505109F3CF2FB7F4
:100F8000F8948091FF0290910003A0910103B09129
:100F900002032FBF0895CF93DF938093BB0084E8B3
:100FA0008093BC000E94BF07EC018091BC0087FFCA
:100FB0000FC02091B900287F81E090E0283211F421
:100FC00090E080E0919581959109DF91CF9108950E
:100FD0000E94BF078C1B9D0B883E934030F38EEF21
:100FE0009FEFF3CF0F931F93CF93DF93C82F1092F0
:100FF000BC0084EA8093BC000E94BF078C018091F2
:10100000BC0087FF27C08091B900887F883029F015
:101010008091B900887F803199F5C093BB0084E846
:101020008093BC000E94BF07EC018091BC0087FF49
:101030001FC02091B900287F90E080E0283199F00E
:1010400081E090E0203411F490E080E0919581956A
:10105000910909C00E94BF07801B910B883E9340F5
:1010600070F28EEF9FEFDF91CF911F910F91089556
:101070000E94BF078C1B9D0B883E9340B0F2F1CFBE
:101080008FEF9FEFF0CF829590E09C01220F331FEE
:10109000220F331F2C7C95958795959587958373A3
:1010A000282B30E0C901880F991F8A7A359527953A
:1010B0002575822B0895990F990F890F982F977096
:1010C00086958695869525E0829FF0011124EF5242
:1010D000FD4F50E040E080E0219130E0092E02C059
:1010E000369527950A94E2F721703327042E01C024
:1010F000220F0A94EAF7822B4F5F5F4F453051056C
:1011000059F70895990F990F890F982F977041E01B
:1011100001C0440F9A95EAF786958695869595E0E5
:10112000899FF0011124EF52FD4F30E020E070E084
:101130005191DF011197CB01022E02C09695879540
:101140000A94E2F7817081958527842385278C9303
:101150002F5F3F4F2530310559F708958091D00218
:1011600090919F02981301C008958F5F8770FACF06
:101170002091DF013091E0012817390771F0909339
:10118000E0018093DF01E0914E03F0914F0330972F
:1011900021F00084F185E02D099408952091DD016E
:1011A0003091DE012817390771F09093DE018093AA
:1011B000DD01E0914E03F0914F03309721F006805E
:1011C000F781E02D09940895E0914E03F0914F03CB
:1011D000309721F00190F081E02D099480E008958E
:1011E000CF93DF9300D000D00F92CDB7DEB76B83E3
:1011F0007C838D838C819D81892B21F0CA01892379
:101200008F3F51F480E081700F900F900F900F90FE
:101210000F90DF91CF9108958B81F5CF90914C0382
:1012200092FF06C0282F2871283069F4877F8460D8
:1012300093FF06C0282F2871283161F4877E8461CE
:1012400094FD877E0895282F2471243089F78B7FA1
:101250008860EECF282F2471243191F78B7E88612E
:10126000EFCFCF93DF932EE0829FC0011124FC01CA
:10127000E70FF11DEE0FFF1FEE0FFF1FE60FF11D31
:10128000EE0FFF1FE653FD4FC591D491CE01C2383A
:10129000D105B9F108F03EC0C133D10509F482C0CF
:1012A00048F5C932D10509F476C0CA32D10509F42E
:1012B00080C0C11530E5D30708F0AFC0C11540E4C8
:1012C000D40708F0A9C1C83ED10508F08AC0C03EC5
:1012D000D105E8F4C83AD10508F072C0C53AD10585
:1012E00008F0F6C0C130D10591F0209729F124977C
:1012F00070F422C0C533D10509F446C0C933D10505
:10130000C1F620914C03237011F080EE90E0DF9144
:10131000CF910895C33ED10539F188F4C03ED1057F
:10132000E1F0C23ED10529F620914C0322FFEFCF18
:1013300083EE90E024FFEBCF90E080E0E8CFC63E64
:10134000D105C9F0C73ED10509F0B3CF20914C03B8
:1013500023FF0EC086EE90E0DACF20914C0320FFF1
:10136000D6CF89E390E0D3CF20914C0322FD9DC1DD
:1013700024FFCDCFE1CF20914C0323FFC8CF87EED0
:1013800090E024FDD9CFC3CF20914C0325FFBFCFE0
:1013900089E290E0BCCF20914C0325FFB8CF85E3D4
:1013A00090E0B5CF20914C0326FFB1CF8AE290E0C8
:1013B000AECF20914C0326FFAACF81E390E0A7CFC8
:1013C000CF3BD10508F493C0C03CD10508F4B4CF9D
:1013D000CE01880F991F865B9E4FFC0185919491E9
:1013E00096CFC11550E2D50760F4C11521E0D207B0
:1013F00008F08DCFCE019065C03FD10508F087CFB2
:101400009BCFC11530E3D30708F0FEC0FE01FF708B
:10141000EE0FFF1FE653FD4FE1CFC11545E5D407A1
:1014200048F5C11554E5D50708F027C1C11582E577
:10143000D80750F4C11521E5D20708F4F1C09C2F5C
:101440008827816F906A63CF2C2F26952695AE0151
:1014500043705527C115D34508F000C181E090E0E5
:1014600002C0880F991F4A95E2F750E2259F90012C
:101470001124F0C0C11549E5D407A0F4C11558E501
:10148000D50708F0FFC0C11586E5D80708F054CF8E
:101490008C2F0E940E0990E0982F882788279F7133
:1014A000906235CFC1152AE5D20708F4F0C0CE010D
:1014B00090568115904208F03FCF8D2F8F710E947A
:1014C0000E0990E0982F882788279F718C2BE8CFF2
:1014D00081E890E4C53AD10509F419CF82E890E497
:1014E000C63AD10509F413CF83E890E410CF82EE19
:1014F00094E4C83AD10509F40ACF89EE94E4C93AD4
:10150000D10509F404CF8AEE94E4CA3AD10509F46E
:10151000FECE85EB94E4CB3AD10509F4F8CE86EB08
:1015200094E4CC3AD10509F4F2CE83EB94E4CB3BBE
:10153000D10509F4ECCE84EB94E4CC3BD10509F45D
:10154000E6CE87EB94E4CD3AD10509F4E0CE8CECFD
:1015500094E4C03BD10509F4DACE8DEC94E4CE3AA4
:10156000D10509F4D4CE83E895E4CF3AD10509F446
:10157000CECE8AE895E4C13BD10509F4C8CE82E914
:1015800095E4C23BD10509F4C2CE84E995E4C33B9E
:10159000D10509F4BCCE81E296E4C43BD10509F43F
:1015A000B6CE83E296E4C53BD10509F4B0CE84E221
:1015B00096E4C63BD10509F4AACE85E296E4C73B82
:1015C000D10509F4A4CE86E296E4C83BD10509F41E
:1015D0009ECE87E296E4C93BD10509F498CE8FE60A
:1015E00094E4CD3BD10509F492CE80E794E4CE3B60
:1015F000D10509F48CCE80E094E4CA3BD10509F012
:1016000086CE8AE296E483CECE019927D3FF02C02C
:10161000986C7DCE906C7BCECE019F70906A77CE19
:101620009E01E4E036952795EA95E1F723708C2F2B
:1016300086958695837040E2849FC0011124AC0199
:10164000522B9A01C37081E090E002C0880F991F6D
:10165000CA95E2F7822B932B9C6859CE81E090E0EB
:1016600002C0880F991F4A95E2F740E2249F90013B
:101670001124822B932B9A684ACE9C2F8827846F43
:10168000906A45CE9C2F8827806F906A40CE8C2F21
:101690008F700E940E0934E0D695C7953A95E1F710
:1016A000CF708F70806E9C2FB9CF82EE90E02FCEDE
:1016B000BF92CF92DF92EF92FF920F931F93CF933F
:1016C000DF938C01C090F402D090F502E090F60216
:1016D000F090F7028091FB029091FC02A091FD0234
:1016E000B091FE02C82AD92AEA2AFB2ACFE1D0E02B
:1016F000BC2ED701C6010C2E04C0B695A7959795B0
:1017000087950A94D2F780FD0EC0219788F7B12CF7
:101710008B2DDF91CF911F910F91FF90EF90DF9074
:10172000CF90BF900895B8018C2F0E943109019786
:1017300061F3EECFCF93DF93EC010E94580BBE0113
:10174000DF91CF910C9431090E949A0B292F2F70B1
:1017500092959F7092509E3078F4E92FF0E0E95A0C
:10176000FD4C0C94F931803F19F020F4803E20F4B8
:1017700081E00895843FE1F380E00895803EC0F366
:10178000813FD1F7F5CF822F86958695869508956E
:101790006093D7017093D8018093D9019093DA01B7
:1017A00080916802909169029093D6018093D5014F
:1017B000E7EEF1E0A5E5B1E04191519161917191C0
:1017C0004D935D936D937D9382E0E736F807A1F723
:1017D00008950F931F93CF93DF93EC018B01FB01CF
:1017E0008281882309F44EC00E94BF079093540160
:1017F0008093530181E080936A02F8019281FE0197
:10180000FA55EA32F10508F0D9C1EB59FD4C0C94B8
:10181000F931409183025091840260918502709168
:101820008602992331F144604093830250938402ED
:10183000609385027093860280916802909169029C
:10184000FC01EE0FFF1FEE0FFF1FE951FE4F40910D
:1018500083025091840260918502709186024083D8
:101860005183628373830196909369028093680227
:1018700009C04B7F4093830250938402609385029A
:101880007093860281E0DF91CF911F910F910895AF
:10189000409183025091840260918502709186028A
:1018A000992311F04860C0CF477FE4CF4091830275
:1018B000509184026091850270918602992311F003
:1018C0004061B2CF4F7ED6CF4091830250918402C7
:1018D0006091850270918602992311F04062A4CF35
:1018E0004F7DC8CF40918302509184026091850260
:1018F00070918602992311F0416096CF4E7FBACF46
:101900004091830250918402609185027091860219
:10191000992311F0426088CF4D7FACCF4091830274
:10192000509184026091850270918602992311F092
:1019300040647ACF4F7B9ECF4091830250918402C6
:101940006091850270918602992311F040686CCFF6
:101950004F7790CF4091830250918402609185022D
:1019600070918602992311F051605ECF5E7F82CF25
:1019700040918302509184026091850270918602A9
:10198000992311F0526050CF5D7F74CF4091830254
:10199000509184026091850270918602992311F022
:1019A000546042CF5B7F66CF4091830250918402A6
:1019B0006091850270918602992311F0586034CFAE
:1019C000577F58CF409183025091840260918502E5
:1019D00070918602992311F0506126CF5F7E4ACF25
:1019E0004091830250918402609185027091860239
:1019F000992311F0506218CF5F7D3CCF4091830254
:101A0000509184026091850270918602992311F0B1
:101A100050640ACF5F7B2ECF4091830250918402A5
:101A20006091850270918602992311F05068FCCE76
:101A30005F7720CF409183025091840260918502AC
:101A400070918602992311F06160EECE6E7F12CF05
:101A500040918302509184026091850270918602C8
:101A6000992311F06260E0CE6D7F04CF4091830234
:101A7000509184026091850270918602992311F041
:101A80006460D2CE6B7FF6CE409183025091840287
:101A90006091850270918602992311F06860C4CE2E
:101AA000677FE8CE40918302509184026091850265
:101AB00070918602992311F06061B6CE6F7EDACE06
:101AC0004091830250918402609185027091860258
:101AD000992311F06062A8CE6F7DCCCE4091830235
:101AE000509184026091850270918602992311F0D1
:101AF00060649ACE6F7BBECE409183025091840287
:101B00006091850270918602992311F060688CCEF5
:101B10006F77B0CE4091830250918402609185022C
:101B200070918602992311F071607ECE7E7FA2CEE5
:101B300040918302509184026091850270918602E7
:101B4000992311F0726070CE7D7F94CE4091830214
:101B5000509184026091850270918602992311F060
:101B6000746062CE7B7F86CE409183025091840266
:101B70006091850270918602992311F0786054CEAD
:101B8000777F78CE409183025091840260918502E4
:101B900070918602992311F0706146CE7F7E6ACEE5
:101BA0004091830250918402609185027091860277
:101BB000992311F0706238CE7F7D5CCE992309F4B1
:101BC00061CE3ACECF93C82F873050F58091000177
:101BD00090910101892B11F580E40E94F207909306
:101BE000010180930001892BB1F482E10E94CB07AF
:101BF0009093010180930001892B69F481E090E0CA
:101C000001C0880FCA95EAF780950E94CB07909390
:101C100001018093000184E98093BC00CF91089575
:101C20008A30B1F038F4883069F0893071F0209A48
:101C30002898F4CF8C3091F070F08D30C1F73E9A37
:101C40004698ECCF219A2998E9CF229A2A98E6CF94
:101C5000239A2B98E3CF529A5A98E0CF539A5B98E5
:101C6000DDCF84B1807F84B985B1807F85B93E980E
:101C700046988AB1837F8AB98BB1837F8BB90895E7
:101C800080B38D7880BB81B3826781BB08958091DA
:101C9000690383FF7EC08BE195E00E94250480915B
:101CA00060031F928F9386E195E09F938F930E942C
:101CB000BE0484E195E00E94250480916103282FF1
:101CC000082E000C330B3F938F9381E195E09F9397
:101CD0008F930E94BE048FE095E00E9425048091BE
:101CE0006203282F082E000C330B3F938F938CE058
:101CF00095E09F938F930E94BE048AE095E00E9436
:101D0000250480916303282F082E000C330B3F938A
:101D10008F9387E095E09F938F930E94BE0485E0A8
:101D200095E00E94250480916403282F082E000C62
:101D3000330B3F938F9382E095E09F938F930E94A4
:101D4000BE048FEF94E00E942504809165031F92EA
:101D50008F938CEF94E09F938F930E94BE048AEF41
:101D600094E00E942504809103031F928F9387EFD4
:101D700094E09F938F930E94BE0484EF94E00E94AE
:101D800025048DB79EB74C960FB6F8949EBF0FBE34
:101D90008DBFE0914E03F0914F03309749F082E000
:101DA00080935F030480F581E02D8FE593E0099532
:101DB0000E94BF0790936703809366030895EF9294
:101DC000FF920F931F93CF93DF938091FA0290912C
:101DD000F902892B9091F802892B80933301E091CD
:101DE0004E03F0914F03309709F447C080910C01E6
:101DF000882309F440C080914C0387FF3CC085E0F4
:101E0000809332010280F381E02D82E391E0099515
:101E10008091690382FF31C080FF04C082EE94E0AC
:101E20000E942504C2E3D1E08BE3E82E81E0F82E86
:101E30000CED14E08091690380FF0BC088811F9234
:101E40008F931F930F930E94BE040F900F900F90DB
:101E50000F902196EC16FD0669F78091690380FFCB
:101E60000CC08AED94E0DF91CF911F910F91FF900C
:101E7000EF900C94250481E0C3CFDF91CF911F91A7
:101E80000F91FF90EF9008951092F9021092F802CE
:101E90000E94DF0E86E0EFE5F3E0DF011D928A95F8
:101EA000E9F710926503109203030E94470E90E039
:101EB00080E00E94CE0890E080E00C94B808609327
:101EC000F4027093F5028093F6029093F7020C945B
:101ED000440F0F931F9341E050E060E070E004C0B6
:101EE000440F551F661F771F8A95D2F7CB01BA01A1
:101EF00060957095809590950091F4021091F5028F
:101F00002091F6023091F7026023712382239323FC
:101F10001F910F910C945F0F0F931F9341E050E0BE
:101F200060E070E004C0440F551F661F771F8A955C
:101F3000D2F78091F4029091F502A091F602B0914F
:101F4000F7028A019B01082B192B2A2B3B2BC90175
:101F5000B8011F910F910C945F0F6093FB02709377
:101F6000FC028093FD029093FE020C94440F8823A0
:101F700041F080959091FA0289238093FA020C94A3
:101F8000DF0E0895882339F09091FA02982B9093F0
:101F9000FA020C94DF0E089590910C01992359F1E7
:101FA00090914C0397FF27C0E82FE695E695E695BC
:101FB000EE3180F4F0E0EE5CFE4F282F277081E0D8
:101FC00090E001C0880F2A95EAF7809592818923D5
:101FD000828308959091690390FF19C01F928F9397
:101FE0008CEB94E09F938F930E94BE040F900F9010
:101FF0000F900F900895E5E3F1E09191891303C0EC
:10200000DF0111971C9291E0EB33F907B1F70895C6
:1020100090910C01992349F190914C0397FF25C0B1
:10202000E82FE695E695E695EE3170F4F0E0EE5C8B
:10203000FE4F877021E030E001C0220F8A95EAF759
:102040008281822B828308959091690390FF1EC044
:102050001F928F938EE994E09F938F930E94BE040A
:102060000F900F900F900F900895A5E3B1E0EFEF60
:1020700090E02D91821751F0EF3F19F4211101C02A
:10208000E92F9F5F9630A9F7EF3F09F408950E2ED0
:10209000000CFF0BEE5CFE4F83830895882309F448
:1020A00059C0823871F40E94E40881FF53C089E36B
:1020B0000E9408100E94DF0E89E30E94CC0F0C944E
:1020C000DF0E833859F40E94E40880FF43C083E5A3
:1020D0000E9408100E94DF0E83E5EFCF843859F488
:1020E0000E94E40882FF36C087E40E9408100E9424
:1020F000DF0E87E4E2CF9CEF980F913AF0F290E286
:10210000980F983088F4877021E030E0A90102C070
:10211000440F551F8A95E2F7CA0180959091FA0203
:1021200089238093FA02CBCF9BE5980F933020F45C
:1021300090E080E00C94CE0898E5980F973120F459
:1021400090E080E00C94B808803F20F00E94680680
:102150000C94470E0895CF92DF92EF92FF920F9367
:102160001F93CF93DF93D82F873008F0A2C08091C0
:10217000000190910101892B61F480E40E94F20733
:102180009093010180930001892B29F084E98093C9
:10219000BC00C0E03CC083E10E94CB0790930101EA
:1021A00080930001892B91F781E40E94F2079093BC
:1021B000010180930001892B49F784E88093BC00DA
:1021C0000E94BF078C018091BC0087FF67C080918F
:1021D000BB0090E0909301018093000197FDD6CF62
:1021E000C82FC095109201011092000184E98093DC
:1021F000BC00CC2361F01F92CF938CEA90E09F93B8
:102200008F930E94BE040F900F900F900F902D2F70
:1022100030E0F901E35CFC4F60816C27C083F90179
:10222000EE0FFF1FEE0FFF1FEB5FFC4F50E040E093
:1022300090E0CC24C394D12C70E0D5E0142F819190
:10224000882309F442C07F01A1E0EA1AF108815015
:10225000D7018C93DB0102C0B595A7951A95E2F7DB
:10226000A0FF05C08F0101501109D801DC934F5F19
:102270005F4F4430510511F72F5A3C4F892F8095FD
:10228000F901208182239C23892BDF91CF911F911B
:102290000F91FF90EF90DF90CF9008950E94BF07BD
:1022A000801B910B883E934008F48DCF8EEF9FEFFB
:1022B00091CF9FB18FB196959170869586958695B1
:1022C0008E70892BC82FC095A2CF7601042E01C035
:1022D000EE0C0A94EAF79E29BDCF9FB7F8941092AE
:1022E00079039FBF9091A903943009F048C02091D1
:1022F000E9002F703091EC00932F917030FD90E841
:10230000922B22E02093E9002091EB0020FF34C0C3
:102310002091EE0027FF30C020910403222321F0FA
:102320002091E80025FF28C01092040326E0309198
:10233000E80035FF14C08093F1008091E80085FD2E
:1023400027C08091E80080FFFCCF8091E8008E7765
:102350008093E8009F709093E90080E008953091A9
:10236000A903343049F43091EB0035FD05C021500C
:1023700041F481E0809304039F709093E9008FEF14
:102380000895EFE9FFE03197F1F700C00000CFCFEB
:102390008FB7F89421E0209379038FBFDBCFCF93E1
:1023A000C091E9002091EC00922F917020FD90E8FF
:1023B00020911D0120FF12C0CF70C92B90910E01FA
:1023C0009F709093E9009091EB0090FF04C0909172
:1023D000EE0097FD05C0CF70C093E900CF9108953E
:1023E0009FEF2091E800915025FD06C025ED2A952C
:1023F000F1F700009111F5CF8093F1008DE091E0AD
:102400000E9417058091E80080FFE5CF8091E800E9
:102410008E778093E800DFCF882309F408C18238E3
:10242000B9F40E94E40881FD02C189E30E9408100A
:102430000E94DF0E2FEF81EE94E02150804090400B
:10244000E1F700C0000089E30E94CC0F0C94DF0E7E
:102450008338A1F40E94E40880FDE9C083E50E946E
:1024600008100E94DF0E2FEF81EE94E02150804093
:102470009040E1F700C0000083E5E6CF8438A1F486
:102480000E94E40882FDD3C087E40E9408100E94E5
:10249000DF0E2FEF81EE94E0215080409040E1F775
:1024A00000C0000087E4D0CF9CEF980F913A18F459
:1024B0000E940810CBCF90E2980F983068F4877094
:1024C00021E030E001C0220F8A95EAF78091FA02FC
:1024D000822B8093FA02BACF9BE5980F933070F469
:1024E000853A31F0863A39F083E890E00C94CE08D2
:1024F00081E890E0FBCF82E890E0F8CF98E5980F74
:10250000973108F08EC0883A09F446C0893A09F438
:1025100046C08A3A09F446C08B3A09F446C08C3A60
:1025200009F446C08B3B09F446C08C3B09F446C015
:102530008D3A09F446C0803B09F446C08E3A09F44E
:1025400046C08F3A09F446C0813B09F446C0823B3D
:1025500009F446C0833B09F446C0843B09F446C0F5
:10256000853B09F446C0863B09F446C0873B09F425
:1025700046C0883B09F446C0893B09F446C08D3B00
:1025800009F446C08E3B09F446C08A3B09F446C0B4
:1025900090E080E00C94B80882EE90E0FBCF89EEEA
:1025A00090E0F8CF8AEE90E0F5CF85EB90E0F2CFA7
:1025B00086EB90E0EFCF83EB90E0ECCF84EB90E004
:1025C000E9CF87EB90E0E6CF8CEC90E0E3CF8DECA9
:1025D00090E0E0CF83E891E0DDCF8AE891E0DACFC8
:1025E00082E991E0D7CF84E991E0D4CF81E292E013
:1025F000D1CF83E292E0CECF84E292E0CBCF85E2EE
:1026000092E0C8CF86E292E0C5CF87E292E0C2CFE7
:102610008FE690E0BFCF80E790E0BCCF8AE292E007
:10262000B9CF803F20F00E942D070C94470E0895EB
:10263000CF93C82F80918102823021F08C2FCF91CF
:102640000C940C12809180028431F8F41F9294E172
:102650009F931F928F9389E091E09F938F930E94A5
:10266000BE0480918002E82FF0E0E559FD4FC08361
:102670008F5F809380020F900F900F900F900F90BC
:102680000F90809181028230C9F6CF910895CF9248
:10269000DF92EF92FF92C0908302D0908402E0908C
:1026A0008502F0908602C11491E0D906E104F1049C
:1026B00061F4811103C084E10E941813C701B601BF
:1026C000FF90EF90DF90CF900895C11492E0D9066B
:1026D000E104F10421F48111F1CF84E0EDCFC114C4
:1026E00094E0D906E104F10421F48111E7CF8AE1F5
:1026F000E3CFC11490E1D906E104F10421F4811182
:10270000DDCF88E0D9CFC11490E4D906E104F1040B
:1027100021F48111D3CF85E1CFCFC11498E0D90640
:10272000E104F10421F48111C9CF86E1C5CFC114C0
:1027300090E2D906E104F10421F48111BFCF87E0D2
:10274000BBCFC11490E8D906E104F10421F4811152
:10275000B5CF89E0B1CF94E0C916D104E104F1040A
:1027600021F48111ABCF87E1A7CF98E0C916D1043E
:10277000E104F10421F48111A1CF8AE09DCFC114BD
:10278000D10491E0E906F10421F4811197CF86E0AC
:1027900093CFC114D10492E0E906F10421F4811130
:1027A0008DCF89E189CFC114D10494E0E906F10409
:1027B00021F4811183CF81E17FCFC114D10498E04E
:1027C000E906F10421F4811179CF80E175CF90E120
:1027D000C916D104E104F10421F481116FCF8CE119
:1027E0006BCF90E2C916D104E104F10421F4811108
:1027F00065CF8BE061CFC114D10490E1E906F1040B
:1028000021F481115BCF88E157CFC114D10490E44A
:10281000E906F10421F4811151CF8CE04DCFC114B0
:10282000D104E10491E0F90621F4811147CF82E15E
:1028300043CFC114D104E10494E0F90621F48111DD
:102840003DCF83E139CFC114D104E10490E1F90611
:1028500021F4811133CF8FE22FCFC114D10490E244
:10286000E906F10421F4811129CF8DE025CFC114AF
:10287000D10490E8E906F10421F481111FCF8EE024
:102880001BCFC114D104E10492E0F90621F48111B7
:1028900015CF8FE011CFC114D104E10498E0F906FF
:1028A00021F481110BCF83E307CFC114D104E104DC
:1028B00090E2F90621F4811101CF86E3FDCE90E488
:1028C000C916D104E104F10421F48111F7CE8EE19F
:1028D000F3CE90E8C916D104E104F104B1F3C12CA0
:1028E000D12C7601EBCEFF920F931F93CF93DF9302
:1028F0008C01F8012491222309F445C0E8012196B6
:10290000213049F4FE011491812F0E940C12812F75
:102910000E944E1006C0223041F4FE0184910E94B4
:102920000C128E010F5F1F4FE4CF233019F4FE010C
:102930008491EECF30E0F901E65BFD4FF490F901B0
:10294000E653FE4FD491F901E65BFE4FC491DD23BF
:1029500019F081EE0E940C12CC2319F086EE0E9431
:102960000C128F2D0E940C128F2D0E944E10CC2322
:1029700019F086EE0E944E10DD2319F081EE0E94C0
:102980004E10E801CECFDF91CF911F910F91FF90B4
:102990000895CF92DF92EF92FF92C0908302D09081
:1029A0008402E0908502F090860290E4C916D1047A
:1029B000E1049CE3F90689F4811108C088E391E001
:1029C0000E9473148CE291E00E947314C701B60157
:1029D000FF90EF90DF90CF90089590ECC916D1044E
:1029E0009FE0E906F10431F48111F0CF8EEA0E94F4
:1029F0001813ECCFC1149CE3D906E104F10449F4A7
:102A00008111E4CF80918102813001F78093DC0154
:102A1000DDCF9CE2C91690E2D906E104F10431F45D
:102A20008111D4CF8AE20E941813D0CFC1149AE04A
:102A3000D90692E0E906F10471F48111C7CF85EF60
:102A40000E942D070E94470E81E08093880285EF47
:102A500080938702BBCFC11490EAD90692E0E906C1
:102A6000F10471F48111B2CF84EF0E942D070E940E
:102A7000470E81E08093880284EF80938702A6CF7F
:102A8000C114D1049FE0E906F10431F481119ECF15
:102A900089E30E9418139ACFC114D10499E0E90682
:102AA000F10431F4811192CF89E20E9418138ECF84
:102AB000C114D10496E0E906F10431F4811186CF06
:102AC00080EE0E94181382CF90ECC916D10499E0D1
:102AD000E906F10449F4811179CF80EE0E941813C0
:102AE00081EE0E94181372CF90E4C916D10495E0CC
:102AF000E906F10461F4811169CF80EE0E94181398
:102B000081EE0E94181382EE0E9418135FCFC11449
:102B1000D104E1049CE3F90631F4811157CF83EE2F
:102B20000E94181353CFC114D104E10494E1F906B3
:102B300031F481114BCF80EE0E94181347CFC1149E
:102B4000D104E10498E2F90631F481113FCF82EE1D
:102B50000E9418133BCF90E4C916D10491E0E90616
:102B6000F10431F4811132CF80EE0E9418132ECF80
:102B7000C114D10493E0E906F10431F4811126CFA8
:102B800082EE0E94181322CFC114D10492E0E9060C
:102B9000F10431F481111ACF81EE0E94181316CF7F
:102BA000C1149AE5D90690E3E906F10431F48111E4
:102BB0000DCF8EE30E94181309CFC1149AE5D906F0
:102BC00090ECE906F10431F4811100CF8FE30E940B
:102BD0001813FCCEC1149AE5D906E10493E0F90676
:102BE00031F48111F3CE80E40E941813EFCEC114AA
:102BF0009AE5D906E1049CE0F90631F48111E6CEAC
:102C000081E40E941813E2CEC1149AE5D90690E13E
:102C1000E906F10431F48111D9CE8AE30E94181338
:102C2000D5CEC1149AE5D90690E4E906F10431F451
:102C30008111CCCE8BE30E941813C8CEC1149AE543
:102C4000D906E10491E0F90631F48111BFCE8CE39D
:102C50000E941813BBCEC1149AE5D906E10494E092
:102C6000F90631F48111B2CE8DE30E941813AECE75
:102C7000C1149AE5D90690E2E906F10431F4811114
:102C8000A5CE82E40E941813A1CEC1149AE5D906FC
:102C9000E10492E0F90631F4811198CE83E40E94B8
:102CA000181394CEC1149AE5D90690E8E906F10408
:102CB00031F481118BCE84E40E94181387CEC114A5
:102CC0009AE5D906E10498E0F90631F481117ECE47
:102CD00085E40E9418137ACE9CE0C916D10490E1D5
:102CE000E906F10431F4811171CE80E50E941813D8
:102CF0006DCE9CE0C916D10490E4E906F10431F4EC
:102D0000811164CE81E50E94181360CE9CE0C91643
:102D1000D104E10491E0F90631F4811157CE82E546
:102D20000E94181353CE9CE0C916D104E10494E02C
:102D3000F90631F481114ACE8FE40E94181346CE71
:102D40009CE1C916D104E104F10431F481113ECEB5
:102D50008BE40E9418133ACE9CE2C916D104E10418
:102D6000F10431F4811132CE8EE40E9418132ECE7C
:102D7000C1149AEAD90690E1E906F10431F481110F
:102D800025CE8CEA0E94181321CEC1149AEAD906E6
:102D900090E4E906F10431F4811118CE8EEA0E9424
:102DA000181314CEC1149AEAD906E10491E0F90689
:102DB00031F481110BCE8EEA0E94181307CEC11494
:102DC0009AEAD906E10494E0F90631F48111FECDC6
:102DD0008BEA0E941813FACDC1149AEAD906E104CD
:102DE00090E1F90631F48111F1CD89EA0E941813BE
:102DF000EDCDC1149AEAD906E10490E2F90631F466
:102E00008111E4CD8AEA0E941813E0CDC1149AEA38
:102E1000D906E10498E0F90631F48111D7CD88EAAA
:102E20000E941813D3CD90E4C91691E0D906E104AD
:102E3000F10431F48111CACD8EE10E941813C6CD80
:102E400090E4C91694E0D906E104F10431F481114B
:102E5000BDCD8FE10E941813B9CD90E4C91690E161
:102E6000D906E104F10431F48111B0CD80E20E9471
:102E70001813ACCD90E4C916D906E104F10431F47D
:102E80008111A4CD81E20E941813A0CD94E4C9164B
:102E9000D104E104F10431F4811198CD82E20E9461
:102EA000181394CD90E5C916D104E104F10431F46E
:102EB00081118CCD83E20E94181388CD90E4C9164D
:102EC000D10490E1E906F10431F481117FCD84E26F
:102ED0000E9418137BCD90E4C916D104E906F104D1
:102EE00031F4811173CD85E20E9418136FCD90E407
:102EF000C916D104E10491E0F90631F4811166CDDF
:102F000086E20E94181362CD90E4C916D104E10450
:102F100094E0F90631F4811159CD87E20E9418132B
:102F200055CD90E8C91691E0D906E104F10431F4D9
:102F300081114CCD8EE10E94181348CD90E8C9163E
:102F400094E0D906E104F10431F481113FCD8FE121
:102F50000E9418133BCD90E8C91690E1D906E10410
:102F6000F10431F4811132CD80E20E9418132ECD8C
:102F700090E8C91690E4D906E104F10431F4811116
:102F800025CD81E20E94181321CD94E8C916D10401
:102F9000E104F10431F4811119CD82E20E94181389
:102FA00015CD90E9C916D104E104F10431F4811181
:102FB0000DCD83E20E94181309CD90E8C916D10403
:102FC00090E1E906F10431F4811100CD84E20E9420
:102FD0001813FCCC90E8C916D10490E4E906F1047A
:102FE00031F48111F3CC85E20E941813EFCC90E804
:102FF000C916D104E10491E0F90631F48111E6CC5F
:1030000086E20E941813E2CC90E8C916D104E104CC
:1030100094E0F90631F48111D9CC87E20E941813AB
:10302000D5CC90E8C916D10491E0E906F10431F459
:103030008111CCCC82E20E941813C8CC90E8C9164A
:10304000D10498E0E906F10431F48111BFCC8BE2A0
:103050000E941813BBCCC114D1049CE0E906F10412
:1030600031F48111B3CC8AE20E941813AFCCC114A1
:10307000D104E10490E3F90631F48111A7CC88E290
:103080000E941813A3CCC114D10494E0E906F10402
:1030900031F481119BCC88E20E94181397CCC114A3
:1030A000D104E10490E1F90631F481118FCC8AE278
:1030B0000E9418138BCC90E4C916D104E104F104EA
:1030C00031F4811183CC8AE20E9418137FCC90E8FE
:1030D000C916D104E104F10431F4811177CC8AE2FC
:1030E0000E94181373CCC114D10491E0E906F104D5
:1030F00031F481116BCC8CE20E94181367CCC1149F
:10310000D10498E0E906F10431F481115FCC8CE23E
:103110000E9418135BCCC114D104E10490E2F906BB
:1031200031F4811153CC89E20E9418134FCC92E004
:10313000C916D1049CE0E906F10431F4811146CCB2
:1031400088E20E94181342CC92E0C916D10493E0A1
:10315000E906F10431F4811139CC8CE20E94181394
:1031600035CC92E0C91690E3D906E104F10449F4A4
:1031700081112CCC81EE0E94181386E20E94181354
:1031800025CC92E0C91690ECD906E104F10449F48B
:1031900081111CCC81EE0E94181387E20E94181343
:1031A00015CC9EE0C916D104E104F10431F481117B
:1031B0000DCC85E30E94181309CC92E0C916D10406
:1031C000E10490E3F90631F4811100CC89E20E9418
:1031D0001813FCCB92E0C91693E0D906E104F10480
:1031E00049F48111F3CB81EE0E94181380E20E9412
:1031F0001813ECCB92E0C9169CE0D906E104F10467
:1032000049F48111E3CB81EE0E94181381E20E9400
:103210001813DCCB92E0C91691E0D906E104F10461
:1032200049F48111D3CB81EE0E9418138EE10E94E4
:103230001813CCCB92E0C916D906E104F10449F485
:103240008111C4CB81EE0E94181382E20E941813F0
:10325000BDCB92E0C91694E0D906E104F10449F42B
:103260008111B4CB81EE0E9418138FE10E941813D4
:10327000ADCB92E0C91698E0D906E104F10449F417
:103280008111A4CB81EE0E94181383E20E941813CF
:103290009DCB92E0C91690E1D906E104F10449F40E
:1032A000811194CB81EE0E9418138FE20E941813B3
:1032B0008DCB92E0C91690E2D906E104F10431F415
:1032C000811184CB8FE20E94181380CB92E0C91643
:1032D00090E4D906E104F10449F4811177CB81EE41
:1032E0000E94181380E30E94181370CB92E0C91655
:1032F00090E8D906E104F10431F4811167CB80E351
:103300000E94181363CB96E0C916D104E104F104BE
:1033100049F481115BCB81EE0E94181381E30E9476
:10332000181354CB9AE0C916D104E104F10449F40E
:1033300081114CCB81EE0E94181385E30E94181373
:1033400045CB92E1C916D104E104F10431F48111B5
:103350003DCB84E30E94181339CB92E2C916D10405
:10336000E104F10449F4811131CB81EE0E9418137C
:1033700084E30E9418132ACB92E0C916D10490E18D
:10338000E906F10431F4811121CB87E50E9418137D
:103390001DCB92E0C916D10490E2E906F10449F48C
:1033A000811114CB81EE0E94181384E20E9418133D
:1033B0000DCB92E0C916D10490E4E906F10431F492
:1033C000811104CB8DE20E94181300CB92E0C91644
:1033D000D10490E8E906F10431F48111F7CA8EE2D4
:1033E0000E941813F3CA92E0C916D104E10491E0D7
:1033F000F90631F48111EACA88E30E941813E6CA7B
:1034000092E0C916D104E104F90631F48111DECA53
:1034100086E30E941813DACA92E0C916D104E104C7
:1034200094E0F90631F48111D1CA85E50E941813A0
:10343000CDCA92E0C916D104E10498E0F90631F44E
:103440008111C4CA87E30E941813C0CA92E0C9164A
:10345000D104E10490E1F90631F48111B7CA8BE29D
:103460000E941813B3CA92E0C916D10491E0E9068C
:10347000F10431F48111AACA81EE0E941813A6CA80
:1034800092E0C916D104E906F10431F481119ECA13
:1034900088E30E9418139ACA92E0C916D10494E0F6
:1034A000E906F10431F4811191CA83E30E941813F3
:1034B0008DCA92E0C916D10498E0E906F10431F40E
:1034C000811184CA81E30E94181380CA92E4C9164C
:1034D000D104E104F10431F4811178CA81E30E943E
:1034E000181374CAC11493E0D906E104F10431F44D
:1034F00081116CCA84E00E94181368CAC1149CE050
:10350000D906E104F10431F4811160CA86E10E9418
:1035100018135CCAC11490E3D906E104F10431F434
:10352000811154CA87E00E94181350CAC11490EC4C
:10353000D906E104F10431F4811148CA89E00E94FE
:10354000181344CA9CE0C916D104E104F10431F413
:1035500081113CCA8AE00E94181338CA90E3C91648
:10356000D104E104F10431F4811130CA8BE00E94EE
:1035700018132CCAC114D10490E3E906F10431F404
:10358000811124CA8DE00E94181320CAC114D104ED
:10359000E1049CE0F90631F4811118CA83E30E942A
:1035A000181314CAC114D104E10493E0F90631F4EC
:1035B00081110CCA8FE00E94181308CAC114D104EB
:1035C00090ECE906F10431F4811100CA8EE00E940A
:1035D0001813FCC9C11491E0D906E104F10431F4D7
:1035E0008111F4C984E10E941813F0C9C11492E05A
:1035F000D906E104F10431F48111E8C98DE10E949A
:103600001813E4C9C11494E0D906E104F10431F4BB
:103610008111DCC98AE10E941813D8C9C11498E04D
:10362000D906E104F10431F48111D0C98BE10E9483
:103630001813CCC9C11490E1D906E104F10431F4A6
:103640008111C4C988E00E941813C0C9C11490E256
:10365000D906E104F10431F48111B8C986E00E9471
:103660001813B4C9C11490E4D906E104F10431F48B
:103670008111ACC985E10E941813A8C9C11490E852
:10368000D906E104F10431F48111A0C989E10E9455
:1036900018139CC994E0C916D104E104F10431F473
:1036A000811194C987E10E94181390C998E0C91646
:1036B000D104E104F10431F4811188C985E00E944C
:1036C000181384C990E1C916D104E104F10431F45E
:1036D00081117CC98CE10E94181378C990E2C91647
:1036E000D104E104F10431F4811170C981E10E9437
:1036F00018136CC9C114D10490E1E906F10431F446
:10370000811164C988E10E94181360C9C114D104F1
:1037100090E2E906F10431F4811158C980E10E9478
:10372000181354C9C114D10490E4E906F10431F42A
:1037300081114CC98CE00E94181348C9C114D104EE
:1037400090E8E906F10431F4811140C986E30E9452
:1037500018133CC9C114D104E10491E0F90631F415
:10376000811134C982E10E94181330C9C114D104F7
:10377000E10492E0F90631F4811128C987E30E943F
:10378000181324C9C114D104E10494E0F90631F4FA
:1037900081111CC983E10E94181318C9C114D104F6
:1037A000E10498E0F90631F4811110C988E30E9420
:1037B00018130CC9C12CD12C760108C92F923F9245
:1037C0004F925F926F927F928F929F92AF92BF9231
:1037D000CF92DF92EF92FF920F931F93CF93DF93DD
:1037E000CDB7DEB7CB57D1090FB6F894DEBF0FBE09
:1037F000CDBF182FC0908302D0908402E090850244
:10380000F0908602C0FE0CC0D701C60121E08227DD
:103810008093830290938402A0938502B0938602E2
:10382000112361F181E00E94471380908302909000
:103830008402A0908502B0908602681579058A05F9
:103840009B05E1F480E0C558DF4F0FB6F894DEBF6A
:103850000FBECDBFDF91CF911F910F91FF90EF90E1
:10386000DF90CF90BF90AF909F908F907F906F90A0
:103870005F904F903F902F900C94471381E00E94EF
:10388000C9148090830290908402A0908502B09029
:103890008602681579058A059B0509F446C0AE01C4
:1038A0004F5F5F4FA3965FAF4EAFA397A5965FAFF5
:1038B0004EAFA597812C912C5401EA961FAE1EAEF7
:1038C000EA978C149D04AE04BF0409F475C127EE79
:1038D00031E0A7963FAF2EAFA797312C212CA896A9
:1038E0001FAEA897EB961FAEEB97EC961FAEEC972A
:1038F00000E060E070E0CB01240135014094509479
:1039000060947094E0964CAE5DAE6EAE7FAEE09784
:10391000A50194012270332744275527E4962CAF44
:103920003DAF4EAF5FAFE497C5C080E00E94C914C1
:103930008091DC01882361F18091D7019091D801B9
:10394000A091D901B091DA0180938302909384020F
:10395000A0938502B09386028091D5019091D60103
:103960009093690280936802E5E5F1E0A7EEB1E08B
:1039700041915191619171914D935D936D937D93BF
:1039800051E0E53DF507A1F71092DC0110E032CFE0
:1039900060918302709184028091850290918602E9
:1039A000C558DF4F0FB6F894DEBF0FBECDBFDF9115
:1039B000CF911F910F91FF90EF90DF90CF90BF902C
:1039C000AF909F908F907F906F905F904F903F90BF
:1039D0002F900C94C80BA796AEADBFADA7972D91B5
:1039E0003D914D915D91A796BFAFAEAFA797E09681
:1039F0004CAC5DAC6EAC7FACE097422253226422AB
:103A00007522E8964CAE5DAE6EAE7FAEE897409202
:103A10008302509284026092850270928602411461
:103A200051046104710409F442C02114310489F085
:103A3000611571058105910561F0462657266826B6
:103A40007926A3019201223031054105510509F47F
:103A500043C0E4964CAC5DAC6EAC7FACE4974528BB
:103A60004628472879F0E8962CAD3DAD4EAD5FADC8
:103A7000E89722602093830230938402409385026A
:103A80005093860281E0112309F45CC00E94471321
:103A9000611571058105910551F0A8966FAFA89742
:103AA000EB967FAFEB97EC968FAFEC97092F2FEF4C
:103AB000221A320A209168023091690222153305D8
:103AC0000CF089CFA8966FADA897EB967FADEB97DA
:103AD000EC968FADEC97902F862A972AA82AB92AC0
:103AE000A596AEADBFADA5976D937D938D939D9338
:103AF000A596BFAFAEAFA597EA96EEADFFADEA973C
:103B00003196EA96FFAFEEAFEA97789709F0D9CEF3
:103B1000C558DF4F0FB6F894DEBF0FBECDBFDF91A3
:103B2000CF911F910F91FF90EF90DF90CF90BF90BA
:103B3000AF909F908F907F906F905F904F903F904D
:103B40002F9008950E94C914A3CFA396EEADFFADA8
:103B5000A39781919191A191B191A396FFAFEEAFFF
:103B6000A3978093830290938402A0938502B093DD
:103B7000860280E01123E9F00E944713FFEFAF1A9D
:103B8000BF0AEA964EAC5FACEA974A145B04E9F6CA
:103B90008091DC01811104C0C701B6010E94C80BED
:103BA000C0928302D0928402E0928502F092860253
:103BB000AFCF0E94C914E2CFB12CA12CE2CF8EE18D
:103BC00091E00E94250480E290E0909301018093AF
:103BD00000018091DB01811111C01092B9008CE0CD
:103BE0008093B80081E08093DB012FEF83ED90E3B9
:103BF000215080409040E1F700C0000080E40E9426
:103C0000F2079093010180930001892B09F040C0D5
:103C100080E00E94CB079093010180930001892BE3
:103C2000B9F580E80E94CB079093010180930001D1
:103C3000892B71F58FEF0E94CB0790930101809340
:103C40000001892B29F584E98093BC0080E40E945F
:103C5000F2079093010180930001892BC9F48CE055
:103C60000E94CB079093010180930001892B81F47E
:103C700080E80E94CB079093010180930001892B7B
:103C800039F48FEF0E94CB079093010180930001DC
:103C900084E98093BC0080910001089590E080E069
:103CA0000E941B3221E08D3E9E4F09F020E0822FC2
:103CB00008956DEE7EEF90E080E00E943F3260E07C
:103CC00082E090E00E94213260E083E090E00E9478
:103CD00021321092FB021092FC021092FD0210920F
:103CE000FE0260E084E090E00E94213260E085E026
:103CF00090E00E94213260E086E090E00E94213254
:103D00006FEF87E090E00E94213240E050E0BA017E
:103D100088E090E00E94333260E08DE090E00E9405
:103D2000213240E050E0BA0188E190E00E94333255
:103D300060E087E190E00E94213240E050E0BA016B
:103D40008FE090E00E94333240E050E0BA0183E11E
:103D500090E00C9433321092FA0280910C01882387
:103D600069F080914C0387FF09C0E4E3F1E08EE144
:103D7000DF011D928A95E9F70C94440FE5E3F1E029
:103D800086E0F6CF0F931F93CF93DF93CDB7DEB7C7
:103D9000AA970FB6F894DEBF0FBECDBF8091A903DE
:103DA000882309F484C31091E9001F709091EC00FE
:103DB000892F817090FD80E8182B1092E900809186
:103DC000E80083FF71C381EA93E02091F100FC01D8
:103DD0002193CF01F3E0893A9F07B9F78091A203BD
:103DE000833009F4B8C008F04CC0813009F47EC0BB
:103DF000823009F4F8C08091E80083FF9BC02091D5
:103E00000D018091A5039091A6032817190609F0CA
:103E100091C08091A203813209F405C108F0F4C079
:103E2000803209F087C08091A103813209F082C0FD
:103E30008091E800877F8093E8008091E80082FF0E
:103E40002FC13091F1002091F1009091F10080910B
:103E5000F10030932101209322019093230180935C
:103E600024018091F100809325018091F1008093DD
:103E700026018091F100809327018091E8008B77E3
:103E80000AC18A3009F49EC08B3009F481C08930A0
:103E900009F0B1CF8091A103813209F0ACCF8091BC
:103EA000A5039091A603892B09F0A5CF8091E80086
:103EB000877F8093E8008091E80082FF37C090916F
:103EC000F3008091F200029729F48091F1008B7F3A
:103ED000813021F48091F10080937D038091E8008E
:103EE0008B778093E8000E94490585CF8091A103DC
:103EF000813A09F080CF8091E800877F8093E800C5
:103F00008091A5039091A603892B61F460E28EE76E
:103F100093E070E00E94FB058091E8008B7780932E
:103F2000E80069CF60E090E080E0F3CF8091A903E2
:103F30008111C1CF8091E80083FFA8C28091A103C5
:103F40009091A2039A3008F0A1C2E92FF0E0E15766
:103F5000FD4C0C94F9318091A103813A09F04BCFCB
:103F60008091A5039091A603892B09F044CF8091FD
:103F7000E800877F8093E8008091E80080FFFCCF15
:103F800080910C018093F1008091E8008E77A9CF99
:103F90008091A103813209F02ECF8091A5039091E9
:103FA000A603892B09F027CF8091E800877F8093B3
:103FB000E8000E9449058091A30380930C010E94B0
:103FC000AB1E19CF8091A103813209F014CF8091EB
:103FD000E800877F8093E8000E9449058091A40350
:103FE00080937C0308CF8091A103813A09F003CF2D
:103FF0008091E800877F8093E8008091E80080FF4F
:10400000FCCF80917C03BECF823209F44EC0833254
:1040100009F090CF8091A103813209F08BCF80917C
:10402000E800877F38C08091A103813A09F082CFF0
:104030008091E800877F8093E8008091E80080FF0E
:10404000FCCF8091210190912201A0912301B09198
:1040500024018093F100492F5A2F6B2F772740932B
:10406000F100AD01662777274093F1008B2F992748
:10407000AA27BB278093F100809125018093F1004E
:10408000809126018093F100809127018093F100B7
:104090008091E8008E778093E8000E9449054ACF1E
:1040A0008091A9038111C9CE45CF8091A1038132AE
:1040B00009F040CF8091E800877F8093E8000E945C
:1040C00049058091A3039091A40390931E018093CE
:1040D0001D0130CF803899F0823809F0D7C1809126
:1040E000A5038F70873008F0D1C18093E9008091DB
:1040F000EB0085FB882780F91092E90006C08091CB
:104100009E0390919F03911182609091E800977FA8
:104110009093E8008093F1001092F1008091E80004
:104120008E77B0C1882309F49EC1823009F0AEC1F8
:104130008091A3038111A1C18091A5038F702FEFFE
:10414000280F263008F0A2C18093E9002091EB00EF
:1041500020FF93C1933031F48091EB008062809313
:10416000EB008BC19091EB0090619093EB0021E00C
:1041700030E001C0220F8A95EAF72093EA001092FE
:10418000EA008091EB008860EACF81117FC1009145
:10419000A3030F778091E3008078802B8093E30066
:1041A0008091E800877F8093E8000E944905809114
:1041B000E80080FFFCCF8091E30080688093E300FB
:1041C00082E0011183E08093A90360C180588230AE
:1041D00008F05CC12091A3033091A4032C3D83E03F
:1041E0003807A1F583E08A838AE289834FB7F89480
:1041F000DE01139620E03EE051E2E32FF0E0509321
:104200005700E49120FF03C0E295EF703F5FEF702D
:104210008E2F90E0EA30C0F0C7968D939D932F5F6C
:10422000243159F74FBF8091E800877F8093E800E1
:104230006AE270E0CE0101960E94FB058091E800E1
:104240008B778093E80022C1C096E7CF4091A50309
:104250005091A603832F99278330910501F160F4D3
:104260008130910509F47EC0029709F00FC18FE7F4
:1042700090E0ECECF6E035C08132910509F466C0BF
:104280008232910509F002C14115510509F474C04B
:104290004130510509F0FAC0E8EAF5E022C03327C1
:1042A0002130310509F442C02115310581F0223059
:1042B000310509F443C02330310509F0E7C0EDE5CD
:1042C000F7E0E4918E2F90E0EDE5F7E007C0EBE931
:1042D000F7E0E4918E2F90E0EBE9F7E0009709F426
:1042E000D5C02091E800277F2093E8002091A70304
:1042F0003091A8038217930708F49C0140E0211530
:10430000310509F03EC041113CC08091E80082FDBA
:1043100095CF8091A903882309F490CF853009F4C3
:104320008DCF8091E80083FFF0CF88CFE3E7F7E0FF
:10433000E4918E2F90E0E3E7F7E0D0CFE3E6F7E0FB
:10434000E4918E2F90E0E3E6F7E0C8CF41155105E8
:1043500071F04130510509F099C089E090E0E7EF34
:10436000F6E0BFCF82E190E0EBE4F7E0BACF89E07E
:1043700090E0EEEDF6E0B5CF82E091E0EAECF5E01A
:10438000B0CF8091A903882309F458CF853009F470
:1043900055CF8091E80083FD51CF8091E80082FDE8
:1043A000B4CF8091E80080FFAACF9091F300809174
:1043B000F2002115310519F08830910550F041E0E7
:1043C000089709F040E08091E8008E778093E8003C
:1043D00096CF44914093F1003196215031090196D6
:1043E000E8CF803809F052C08091E800877F809341
:1043F000E8008091A0038093F10090CE811146C027
:104400000091A303023008F041C08091E800877F4B
:104410008093E8000093A0030E944905002311F057
:1044200084E005C08091E30087FDFACF81E08093AE
:10443000A90342E261EC81E00E94680542E261EC7E
:1044400082E00E94680542E061EC83E00E9468051A
:1044500042E160E885E00E94680542E161E884E0AD
:104460000E94680513C08091A303813079F481E034
:10447000933009F080E080939F031092E9008091CF
:10448000E800877F8093E8000E9449058091E8005A
:1044900083FF0AC08091E800877F8093E8008091C5
:1044A000EB0080628093EB001F701093E900AA96E6
:1044B0000FB6F894DEBF0FBECDBFDF91CF911F9135
:1044C0000F910895EF92FF920F931F93CF937C016A
:1044D0008B010E94E604C82F811119C08091E80069
:1044E00085FD0DC08091E8008E778093E8000E94E2
:1044F000C21E0E94E604882389F3C82F08C0F70172
:1045000081917F018093F1000150110939F78C2FBF
:10451000CF911F910F91FF90EF9008950F931F93EC
:10452000CF93DF9300D00F92CDB7DEB78C010E94FE
:104530005906823011F0843021F584E089831B8391
:104540000A8381E08093E9008FEF9091E800815029
:1045500095FD06C095ED9A95F1F700008111F5CF14
:104560008091E80085FF0DC050E040E063E070E01E
:10457000CE0101960E9462228091E8008E7780939E
:10458000E8000F900F900F90DF91CF911F910F9146
:104590000895CF93DF9300D00F92CDB7DEB720916F
:1045A000A903243031F523E02983805891099B83A6
:1045B0008A8381E08093E9008FEF9091E800815039
:1045C00095FD06C095ED9A95F1F700008111F5CFA4
:1045D0008091E80085FF0DC050E040E063E070E0AE
:1045E000CE0101960E9462228091E8008E7780932E
:1045F000E8000F900F900F90DF91CF910895CF9327
:10460000DF93EC010E945906823011F08430F9F4F6
:1046100081E08093E9008FEF9091E800815095FD53
:1046200006C095ED9A95F1F700008111F5CF8091C4
:10463000E80085FF0CC050E040E066E070E0CE018D
:104640000E9462228091E8008E778093E800DF91DB
:10465000CF910895CF93DF93EC010E9459068230E9
:1046600011F08430A9F580910C01882321F080910C
:104670004C0360E287FF69E081E08093E9008FEFFF
:104680009091E800815095FD06C095ED9A95F1F75F
:1046900000008111F5CF8091E80085FF19C080915D
:1046A0000C01811118C050E040E068E070E0CE01DC
:1046B00001960E9462228091E8008E778093E80044
:1046C00080E2FE01AEE7B3E001900D928A95E1F73A
:1046D000DF91CF91089570E050E040E0CE01E9CF46
:1046E0006F927F928F929F92AF92BF92CF92DF9202
:1046F000EF92FF920F931F93CF93DF93809100016E
:1047000090910101892BC9F0809152018F5F8093B4
:104710005201811112C08FEE90E00E9425040E9488
:10472000DF1D90E09093010180930001892B09F433
:104730007BC085ED90E00E94250401E513E0C0E018
:104740008C2F0E94E20DD7E0DC0F8D2F0E94E20D2E
:104750008C2F0E94AB10F80181938F018D2F0E9446
:10476000AB10F80186830E94310ECF5FC73041F74E
:1047700080918102813091F480916A02882371F0E6
:1047800080916702811153C080915301909154012F
:104790000E9495078F3E924008F064C0D0E0C0E0D0
:1047A000AA24A394B12C25EBE22E20E0F22E3E01A8
:1047B00065010C2E02C0CC0CDD1C0A94E2F781E5E9
:1047C000882E83E0982E10E000E0F40181914F01E3
:1047D00090E08C219D21892B71F07F926F921F9325
:1047E0000F93FF92EF920E94BE040F900F900F90D4
:1047F0000F900F900F900F5F1F4F0E30110529F78C
:104800002196C430D10599F681E0DF91CF911F91B7
:104810000F91FF90EF90DF90CF90BF90AF909F905F
:104820008F907F906F90089581EC90E084CF80917D
:104830005301909154010E9495074A9708F4AECF16
:1048400080E00E94DE1B0E94DF0E0E94AB1E0E94D1
:10485000BF079093540180935301809167028111A7
:104860009DCF92CF81E08093670298CF86E0E1EE02
:10487000F1E0DF01982F1D929A95E9F7E9E8F2E05F
:10488000DF011D928A95E9F70895CF93C82F0E9402
:104890003624C0934B036C2F8DE090E0CF910C94A5
:1048A00021328F929F92AF92BF92CF92DF92EF927E
:1048B000FF920F931F93CF93DF9300D000D00F92FE
:1048C000CDB7DEB77C01FC0183819481892B39F05F
:1048D00010810181812F80238F3F09F049C60F90FD
:1048E0000F900F900F900F90DF91CF911F910F912C
:1048F000FF90EF90DF90CF90BF90AF909F908F9000
:1049000008950E94580BD82E682F89819A810E94A1
:104910008208E02FF0E02EE0D29EE00DF11D112480
:10492000EE0FFF1FEE0FFF1FE10FF11DEE0FFF1F38
:10493000E653FD4F0591149100334AE5140709F43D
:104940006AC008F04EC0C8019A558A9708F48AC018
:10495000F7018281073DFCE51F0709F458C308F001
:104960001EC205314CE5140708F0F2C102309CE587
:10497000190708F0C8C20115ECE51E0709F467C263
:1049800001301C4509F495C291E0909395029093F3
:104990009602F70100811181882309F4AAC3C80196
:1049A0000E94580BD82E682FC8010E948208B801B7
:1049B0008D2D0E943109182FD82EF701358132959F
:1049C0003F70228121111092F902092F02950F7078
:1049D0000C3008F0C8C3E02FF0E0E756FD4C0C9413
:1049E000F93101339AE5190709F0B2CFB70181E334
:1049F0009AE50E94E90B882309F471CFF701408101
:104A000051816281738184810E94F008882309F4B6
:104A100066CF81E014C0B70180E39AE50E94E90BFC
:104A2000882309F45CCFF701408151816281738151
:104A300084810E94F008882309F451CF80E00F9010
:104A40000F900F900F900F90DF91CF911F910F91CA
:104A5000FF90EF90DF90CF90BF90AF909F908F909E
:104A60000C944524B701C8010E94E90B882309F47E
:104A700036CFD0904B03F701408151816281738121
:104A800084810E94F008582FDD20A1F0F1E0DF16AC
:104A900099F110918F02F7014081518162817381F8
:104AA00084810E94F008882309F448C01F5F109396
:104AB0008F0215CFF801FF27E65EFB4F9491A92FD7
:104AC000A295A695A695A370B0E0882371F09D01EC
:104AD0002F513E4FF9018081892B8083A757BD4F0D
:104AE0000C91E92FE02BEC93D4CFAF51BE4FE92FBF
:104AF000E0950C91E023F7CF802F67E00E94D93139
:104B0000492F90E066E070E0641B710921E030E01D
:104B100001C0220F6A95EAF7FC01EF51FE4F408178
:104B2000552349F0422B4083FC01E757FD4F80811C
:104B3000282B2083AECF20952423FBCF11501116B4
:104B40000CF4B5CF10928F0280918802882341F037
:104B500010928802809187020E9468060E94470E88
:104B60008091830290918402A0918502B091860287
:104B70008F309105A105B10579F48CE794E09F93FE
:104B80008F930E94BE048091820291E089278093D6
:104B900082020F900F902DC083309105A105F0E3A4
:104BA000BF0709F050C08CE694E09F938F930E945A
:104BB000BE04809181020F900F90823041F01092DC
:104BC000800280937F0282E08093810212C08091F4
:104BD0007F02809381023BE6E32E32E0F32E10E069
:104BE00000E0809180028017110609F024F50E94F0
:104BF000AB1E1092830210928402109285021092D2
:104C0000860210926A0210926902109268020E9453
:104C1000AB1E10926702E7EEF1E087E692E04FEFFD
:104C20005FEF60E070E041935193619371938E1751
:104C30009F07C9F73DC0F70181917F010E940C12C7
:104C40000F5F1F4FCECF83339105A105B10551F4FE
:104C50008AE594E09F938F930E94BE0481E00E94B6
:104C60008C0F97CF2091810281309105A105B1056C
:104C700039F4211102C081E0A7CF10928102B9CF8F
:104C8000213049F580FF31C010926A02109269020A
:104C90001092680210928302109284021092850290
:104CA0001092860280914B03882359F18130E1F103
:104CB0000F900F900F900F900F90DF91CF911F9159
:104CC0000F91FF90EF90DF90CF90BF90AF909F90AB
:104CD0008F900C943624223041F083709927AA27B4
:104CE000BB27892B8A2B8B2B21F080E00E94DE1BB7
:104CF00080CF2111C9CF80918202882329F281E0DF
:104D0000F5CF09E812E02DE8E22E22E0F22EF801BC
:104D100081918F0181110E94CF11E016F106B9F740
:104D200080E00E94CF11C4CF809189028068809377
:104D3000890209E812E09FE8E92E92E0F92EF801D5
:104D400081918F010E94CF11E016F106C1F7B0CF1B
:104D500006311C4509F018CE882309F4C0C18091A2
:104D6000FA028A7A91E009F490E09093900281111E
:104D7000B4C189E20E9408100F900F900F900F901D
:104D80000F90DF91CF911F910F91FF90EF90DF90E7
:104D9000CF90BF90AF909F908F900C94DF0E0C3D02
:104DA0004CE5140709F4A2C098F5083DECE51E0790
:104DB00009F472C1093D1C4509F0E6CD81116EC1AF
:104DC00080919602811187C1809193029091940203
:104DD0000E949507883C910508F07DC180E20E9401
:104DE000B70F88E20E940C1288E20F900F900F908C
:104DF0000F900F90DF91CF911F910F91FF90EF9047
:104E0000DF90CF90BF90AF909F908F900C944E10FA
:104E10000D3D2CE5120709F46FC00E3D1C4509F04D
:104E2000B3CD882309F45BCD0F900F900F900F90B6
:104E30000F90DF91CF911F910F91FF90EF90DF9036
:104E4000CF90BF90AF909F908F900C94591E882365
:104E500009F445CD0E94AB1E8FEF94E3ECE0815046
:104E60009040E040E1F700C0000081E08093E00066
:104E700080E28093D8001092C9008FE19EE40197F0
:104E8000F1F700C0000087E090EBDC018093AA03FB
:104E90009093AB03A093AC03B093AD0388E19CE087
:104EA0000FB6F894A895809360000FBE90936000B1
:104EB000FFCF882309F413CD80916903816080932B
:104EC00069038DE894E00F900F900F900F900F9072
:104ED000DF91CF911F910F91FF90EF90DF90CF90D6
:104EE000BF90AF909F908F900C942504882309F475
:104EF000F6CC10927803F3CC882309F4F0CC82E04E
:104F000080937803ECCC882309F443CD0E944E1E95
:104F1000811102C00E94591E84E090E00E94133269
:104F200090E090934D0380934C03F801E350FC45CF
:104F300080914C038160E231F10538F4EB55FD4C72
:104F40000C94F93180914C03826080934C03609102
:104F50004C0384E090E00E9421320F900F900F905C
:104F60000F900F90DF91CF911F910F91FF90EF90D5
:104F7000DF90CF90BF90AF909F908F900C94AB1E1E
:104F800080914C038460E1CF80914C038860DDCF39
:104F900080914C038061D9CF80914C038062D5CF42
:104FA00080914C038064D1CF80914C038068CDCF39
:104FB00080914C038C60C9CF80914C038E7FC5CF0C
:104FC00080914C038D7FC1CF80914C038B7FBDCFEF
:104FD00080914C03877FB9CF80914C038F7EB5CFF2
:104FE00080914C038F7DB1CF80914C038F7BADCFEF
:104FF00080914C038F77A9CF80914C03837FA5CFFD
:1050000090914C03892F97FB87F980589ECF882376
:10501000E1F0109295020E94BF0790939202809354
:10502000910282E00F900F900F900F900F90DF9100
:10503000CF911F910F91FF90EF90DF90CF90BF9095
:10504000AF909F908F900C94C20F80919502811128
:105050000FC080919102909192020E949507883C26
:10506000910530F486E20E940C1286E20E944E10F6
:1050700082E00F900F900F900F900F90DF91CF91E3
:105080001F910F91FF90EF90DF90CF90BF90AF9066
:105090009F908F900C94B70F882351F01092960236
:1050A0000E94BF07909394028093930280E2BACF4C
:1050B0008091960281110FC0809193029091940289
:1050C0000E949507883C910530F487E20E940C12FB
:1050D00087E20E944E1080E2CCCF85E34BCE8091D8
:1050E0009002811104C089E20E94CC0F45CE85E375
:1050F000FBCFC8010E945B08D82E59CCF92FFF7056
:10510000FF2E907F19F0F29480EFF8222223C9F04D
:10511000FF2069F080E2810F883010F0D1100BC0C1
:105120008091FA02F82AF092FA020E94DF0E812F93
:105130000E940C1218C08091F902F82AF092F9022C
:10514000F4CF812F0E944E10FF2069F0F094105E82
:10515000183010F0D11023C08091FA02F822F0929A
:10516000FA020E94DF0E083039F008F4B8CB0A5F6B
:105170000F70023008F0B3CB0F900F900F900F908C
:105180000F90DF91CF911F910F91FF90EF90DF90E3
:10519000CF90BF90AF909F908F900C94E408809137
:1051A000F902F822F092F902DCCF892F8F70907FFC
:1051B000903211F08295807F41E0D4120CC02223FE
:1051C00029F0333080F60E94C20FCDCF323058F62E
:1051D0000E94B70FC8CF222319F03323A1F3A7CF22
:1051E0003323B1F3812F0E944E10BDCF892F8695B6
:1051F0008695837061F0813009F0B5CF812F93706F
:10520000211102C090E080E00E94B808ACCF812F4D
:105210009370211102C090E080E00E94CE08A3CFDD
:10522000222309F1153F99F0163FB9F0143F49F4D4
:105230008091970290919802816090939802809358
:105240009702812F0E942D070E94470E8CCF8091DC
:105250009702909198028260F0CF8091970290918E
:1052600098028460EACF153F89F0163FA9F0143FF9
:1052700049F480919702909198028E7F90939802C2
:1052800080939702812F0E946806DECF809197025B
:10529000909198028D7FF2CF809197029091980221
:1052A0008B7FECCF892F837009F06EC021115BCF0B
:1052B000812F829586958770880F880F612F6F7078
:1052C000C62ED12CF12CE12C082E04C0CC0CDD1CF8
:1052D000EE1CFF1C0A94D2F740E050E0BA0114FF24
:1052E0000FC04FE050E060E070E004C0440F551F75
:1052F000661F771F8A95D2F74095509560957095F7
:105300009695969593708090FB029090FC02A090E9
:10531000FD02B090FE029230D9F028F5913069F08C
:105320004C295D296E297F29CB01BA016821792199
:105330008A219B210E94AD0F16CFC828D928EA28C0
:10534000FB28CB01BA016C297D298E299F29F2CF38
:105350004C295D296E297F29CB01BA016825792561
:105360008A259B25E7CFCB01BA01682179218A21C3
:105370009B210E94AD0F6091FB027091FC02809115
:10538000FD029091FE02DFCF8695222311F0892F36
:105390008170882309F4E7CE812F829586958770E6
:1053A000880F880F612F6F70C62ED12CF12CE12C45
:1053B000082E04C0CC0CDD1CEE1CFF1C0A94D2F796
:1053C00040E050E0BA0114FF0FC04FE050E060E051
:1053D00070E004C0440F551F661F771F8A95D2F7EF
:1053E00040955095609570959695969593708090A0
:1053F000F4029090F502A090F602B090F70292307D
:10540000D9F028F5913069F04C295D296E297F2962
:10541000CB01BA01682179218A219B210E945F0F6B
:10542000A2CEC828D928EA28FB28CB01BA016C29CA
:105430007D298E299F29F2CF4C295D296E297F294C
:10544000CB01BA01682579258A259B25E7CFCB01B9
:10545000BA01682179218A219B210E945F0F609106
:10546000F4027091F5028091F6029091F702DFCF7D
:10547000812FE0EFDE16A9F1ED1558F0F0EEDF1602
:1054800018F5222309F462C0311151CE892F8F7192
:105490004FC042EFD41609F44EC0D41608F444C0ED
:1054A000E3EFDE12EECF222309F44CC0292F2F7137
:1054B00061E070E080E090E004C0660F771F881F15
:1054C000991F2A95D2F7AACF1F70892F8F71222397
:1054D00021F00E948C0F812F76CE0E94690F812FC0
:1054E00077CE2223E9F0323008F03DCE292F2F71FC
:1054F00061E070E080E090E004C0660F771F881FD5
:10550000991F2A95D2F7C090F402D090F502E0904E
:10551000F602F090F7026C257D258E259F257ECF23
:10552000333008F020CEE2CF892F8F71222339F05B
:105530000E948C0F18CE892F8F712223C9F30E94ED
:10554000690F11CE60E070E0CB0168CF332369F0C2
:10555000893309F047CEFFEF27EE43E0F1502040BA
:105560004040E1F700C000003DCE892F8F71E7CFAA
:1055700085E0DE01119601900D928A95E1F7F70121
:10558000228189819A812111BCC90E945B08D82E91
:10559000C0C91F93CF93DF9380919E02807FC1F497
:1055A00080919B028823A1F08091D002C0919F023C
:1055B0006091990270919A0240919C0250919D02D3
:1055C000D62FD723DA01A095B09516E0C81304C0F2
:1055D000DF91CF911F91089590E04115510511F091
:1055E000DF3F31F401968770F1CF2A0F3B1F17C0C0
:1055F000189FF001199FF00D1124E056FD4F2181F5
:105600002713F0CF20812613EDCF22812111EACF7D
:10561000238134812417350740F3241B350B283CA4
:10562000310500F720919E022F70206120939E0289
:1056300026E0289FF001299FF00D1124EB55FD4F26
:1056400080818F708061808389E992E00E9451247B
:10565000DF91CF911F910C94AE08BF92CF92DF9251
:10566000EF92FF920F931F93CF93DF93CDB7DEB7E7
:1056700061970FB6F894DEBF0FBECDBF8C0185E0F9
:10568000F801DE011D9601900D928A95E1F7D8018F
:105690002C9111963C9111971296EC901297809153
:1056A0009C0290919D02009709F463C14091990278
:1056B00050919A02642F65236F3F09F45AC11396E3
:1056C000CD90DC90B0909B02BB2009F413C1C816AA
:1056D000D906C0F1F601E81BF90BCF01FF24F394C2
:1056E000883C910508F0F12C80919E02982F907FC4
:1056F000FF2009F4C1C091117DC0FE2C531327C0B7
:10570000421325C0E11023C08F70806180939E02F8
:1057100089E992E00E94512480919E02D801159659
:105720008C938F2D61960FB6F894DEBF0FBECDBF60
:10573000DF91CF911F910F91FF90EF90DF90CF906D
:10574000BF900895809590958C0D9D1DC7CFCD2855
:1057500029F0822F83238F3F09F029C180E0B82FE1
:10576000B170DB2E80FF3CC08091D00240919F023F
:1057700056E0841315C02D873E878D859E850E9437
:105780009A0B292F22952F702230F0F0243018F533
:105790009F70F1F0F8019581907FD1F4D12C1EC05B
:1057A00090E0589FF001599FF00D1124E056FD4FF5
:1057B0006181361306C06081261303C06281E61240
:1057C0000FC001968770D5CF9F7011F0882331F3F9
:1057D000805E883018F3C8010E945124FD2CA1CFAF
:1057E000EE2009F49ECF80919E02816080939E02FC
:1057F000F12C97CF531313C0421311C0E1100FC007
:10580000D80115968C93C8010E94512486E0F801B6
:10581000A9E9B2E001900D928A95E1F782CF2D8738
:105820003E878D859E850E94A40B882309F1EE207A
:10583000F9F080919E02803270F0209199023091AF
:105840009A0238872F831986DB86CA868C87CE0119
:1058500007960E94512486E0F801A9E9B2E0019080
:105860000D928A95E1F70E94C92AFF24F39459CF3B
:10587000C8010E945124F9CF91110CC089E992E02E
:105880000E94512486E0E9E9F2E0DF011D928A9549
:10589000E9F747CF531312C0421310C0E1100EC0F6
:1058A000F8018583C8010E945124E9E9F2E086E00D
:1058B000DF011D928A95E9F7FB2C33CF2D873E87B8
:1058C0008D859E850E94A40B882391F2EE2081F2A3
:1058D00080919E02803208F4BECF209199023091CF
:1058E0009A023A8329831B82DD82CC828E83CE0189
:1058F0000196AFCFC816D90640F0C81AD90AB8EC3D
:10590000CB16D10448F0F12CBDCF809590958C0D2D
:105910009D1D883C9105B8F7FE2CEE2009F4A8CF18
:10592000531316C0421314C080919E0280FD6ECFA7
:10593000982F907F09F46ACFF8018583903F09F48E
:1059400062CF982F907F905F8F70892B85835BCF7C
:105950002D873E878D859E850E94A40B81117BCF6C
:1059600080919E02816080939E02C8010E94512412
:10597000D8CEEE2009F47CCF2D873E878D859E857D
:105980000E94A40BF82E882309F472CF86E0F80158
:10599000A9E9B2E001900D928A95E1F78091990210
:1059A00090919A020E949A0B0E94C92ABACE81E075
:1059B0008E25D5CE1F93CF93DF93CDB7DEB76797F4
:1059C0000FB6F894DEBF0FBECDBF4B8B5C8B6D8BDB
:1059D0007E8B8F8B1A8A198A85E0FE017396DE0111
:1059E0001D9601900D928A95E1F786E0FE013D96A5
:1059F000DE01179601900D928A95E1F7CE01079688
:105A00000E942D2B811112C086E0FE013796DE0127
:105A1000119601900D928A95E1F78A859B85892BD5
:105A200029F08F81988589238F3FB1F516E0809109
:105A3000D00290919F0289131DC067960FB6F8940B
:105A4000DEBF0FBECDBFDF91CF911F91089596E0CD
:105A5000929FD001939FB00D1124A056BD4FFE011F
:105A6000319601900D929A95E1F780939F020E94E2
:105A7000AE08DCCF819FC001112480569D4F0E944B
:105A80002D2B8823D1F28091D00290E0019687706F
:105A900099278093D002CBCF20919F0230E0C9019B
:105AA0000196877099274091D0024817190679F618
:105AB0000E94AB1E10929F021092D00286E0E9E98C
:105AC000F2E0DF011D928A95E9F7B0CF1F920F92A5
:105AD0000FB60F9211242F933F934F935F936F93C1
