:100000000C944C030C9493030C9493030C9493035F
:100010000C9493030C9493030C9493030C94930308
:100020000C9493030C9493030C9481280C949303E5
:100030000C94AA2C0C9493030C9493030C949303A8
:100040000C9493030C9493030C9493030C949303D8
:100050000C9493030C94862C0C9493030C949303AC
:100060000C9493030C9493030C9493030C949303B8
:100070000C9493030C9493030C9493030C949303A8
:100080000C9493030C9493030C9493030C94930398
:100090000C9493030C9493030C9493030C94930388
:1000A0000C9493030C9493030C9493036C65667403
:1000B00020736964652061747461636865640A0013
:1000C0006C6566742073696465206E6F7420726558
:1000D00073706F6E64696E670A00747279696E6717
:1000E00020746F207265736574206D6370323330D5
:1000F00031380A007374617274696E6720696E69C1
:100100007400434D44204C454E3A2025642042550E
:10011000463A2025640A004D617220333020323087
:10012000313900416C7068612030323A204672618A
:100130006700000000000000000000000000000058
:1001400000000000000000000000000000000000AF
:100150000000000101010101010001010101000095
:10016000000000000000000000000000010001008D
:10017000010101010101010101010101010101016F
:100180000101010101010101010101010100000062
:10019000010100000000000000000000000000005D
:1001A000000000000000000000000000000101014C
:1001B000010000000000000000002A2B28000000C1
:1001C0000000000000000000000000000029000006
:1001D00000002C1E3420212224342627252E362DE3
:1001E0003738271E1F202122232425263333362E7D
:1001F00037381F0405060708090A0B0C0D0E0F10EF
:100200001112131415161718191A1B1C1D2F313033
:10021000232D350405060708090A0B0C0D0E0F10D7
:100220001112131415161718191A1B1C1D2F313013
:10023000354C0000165A175A195A00001A5A1B5A00
:10024000185A00001C5A1D5A235A00001E5A1F5AE1
:1002500000000000205A215A00000000225A295AAA
:10026000000000000000000000000000115A125AB7
:10027000105A00000D5A0E5A0F5A00000B5A0C5A11
:10028000015A0000095A0A5A00000000075A085A89
:1002900000000000005A155A000000000000000095
:1002A000000000001C000B002502000018000D00DB
:1002B0004C0000000C000E001050000012000F0057
:1002C000000000001300330000000000280034028A
:1002D00000000000000000000000000017000A00FD
:1002E00028420000150009002C000000080007004B
:1002F000E20000001A0016000000000014000400D4
:1003000000000000E100E00000000000000000002C
:10031000000000002300110025020000240010004E
:100320004C00000025003602105000002600370265
:100330000000000027003802000000002D00E5004A
:100340000000000000000000000000002200050086
:1003500028000000210019002C00000020000600E9
:10036000E20000001F001B00000000001E001D0036
:1003700000000000E100E0000000000000000000BC
:10038000000000D0D0D0D0D0D0010102040810204D
:1003900041424448480000004848506081828488B7
:1003A00090A0C1C2C4D0D0D0D0D0D0C8000000002E
:1003B000000000000000000000000000000000003D
:1003C0000000537769746368696E6720746F205109
:1003D0004D4B0A00434F4D4D414E4420546F6767CB
:1003E0006C650A0046616C6C6261636B20546F67D8
:1003F000676C650A0044454255473A20656E616264
:100400006C65642E0A00290A002575002F002575E9
:10041000005D28002564002000256400200025647C
:100420000020002564007C0025303258006D6F7577
:1004300073656B6579205B62746E7C7820792076B9
:1004400020685D287265702F61636C293A205B001B
:100450000A002530313662003A200025303258003B
:100460000A722F6320303132333435363738394110
:1004700042434445460A005B735D004B6579626FF9
:100480006172642073746172742E0A005B435D00B4
:100490005B445D005B535D005B575D005B525D003C
:1004A0000631FF0974A1010975150026FF0095208A
:1004B000750881020976150026FF009520750891C0
:1004C00002C005010906A1018501050719E029E718
:1004D00015002501950875018102950175088101B6
:1004E0000508190129059505750191029501750306
:1004F00091010507190029FF150026FF00950675D3
:10050000088100C005010902A10185020901A100BD
:1005100005091901290515002501950575018102B7
:100520009501750381010501093009311581257F88
:1005300095027508810609381581257F9501750892
:100540008106050C0A38021581257F950175088101
:1005500006C0C005010980A101850316010026031C
:10056000001A81002A8300751095018100C0050CD6
:100570000901A1018504160100269C021A01002A26
:100580009C02751095018100C005010906A1018535
:1005900005050719E029E715002501950875018172
:1005A0000205081901290595057501910295017546
:1005B0000391010507190029EF1500250195F07534
:1005C000018102C009027F00040100A0FA090400B1
:1005D00000010301010009211101000122020107AC
:1005E00005810320000A090401000203000000093C
:1005F00021110100012222000705820320000107CA
:10060000050203200001080B020202020100090496
:10061000020001020201000524001001042402026C
:100620000524060203070583030800FF09040300ED
:10063000020A0000000705050210000507058402F4
:1006400010000512011001EF020108EDFE37130141
:1006500000010203010403300000000E034700659F
:10066000006F007200670069000000260367002029
:100670000048006500610076007900200049006EA6
:1006800000640075007300740072006900650073F7
:10069000000000040309040011241FBECFEFDAE0BC
:1006A000DEBFCDBF04B603FE27C080919F029091AC
:1006B000A002A091A102B091A2028730904BA74066
:1006C000B04BD1F410929F021092A0021092A1029E
:1006D0001092A20214BE84B7877F84BF0FB6F8942D
:1006E000A8958091600088618093600010926000FE
:1006F0000FBEE0E0F8E3099511E0A0E0B1E0EEE51F
:10070000FBE502C005900D92A033B107D9F722E0B6
:10071000A0E3B1E001C01D92AF39B207E1F70E943A
:10072000AD290C944D2D0C940000FF93EF93E091B4
:100730003001F0913101309709F00995EF91FF9167
:100740000895FC018591803011F0EFDFFBCF089513
:10075000FF27E0E230E247FF0CC0419597FF09C058
:10076000EDE26095709580959095611D711D811DDC
:10077000911D27FF02C0219530E350E2AA27660FA2
:10078000771F881F991FAA1FA41710F0A41B639539
:100790005A95A9F7AA3008F0A95FA05DAF93F39529
:1007A000611571058105910541F7ED3211F4EF9363
:1007B000F395F21718F43F93F395FBCF8F91B5DFC4
:1007C000FA95E1F70895E991F9918591803021F04A
:1007D000853219F0AADFF9CF089520E0E894559109
:1007E0005532C1F3503311F4689455915A3348F49B
:1007F000505390F3220F022E220F220F200D250FAF
:10080000F4CF0EF4219589919991533619F353370A
:1008100029F1533559F1BC0188279927E8945C36B2
:1008200021F48991999168945591543639F446EFA1
:100830007EF077FF0DC08FEF9FEF0AC055374AE07B
:1008400039F0583540E121F0523642E009F0089580
:10085000FF93EF937DDFEF91FF91B7CFFF93EF937E
:10086000FC0181918030B9F360DFFBCFFF93EF9300
:1008700068DFF1CFDF93CF93CDB7DEB72596A3DF47
:10088000CF91DF910895E8EDF0E080818E7F808345
:100890001092E2001092DA001092E100A0EEB0E0B7
:1008A0008C9181608C9380818F77808319BCA7EDB8
:1008B000B0E08C918E7F8C9380818F7E80831092AC
:1008C000700208952091E4003091E50085E6A901C9
:1008D0009091EC0090FF06C09091E80090FF06C058
:1008E00080E008959091E80092FDFACF90919E02E9
:1008F000992389F0953089F09091EB0095FD0FC018
:100900002091E4003091E5004217530709F381502C
:10091000F1F684E0089582E0089583E0089581E08F
:10092000089580919E02843061F58091210190911B
:100930002201A0912301B0912401892B8A2B8B2BBA
:1009400001F180910E018F708093E9009091F30086
:100950008091F200892B11F480E008959091E800D5
:100960008091E8008E778093E80095FDF5CF0E9496
:100970006204811107C09091E8009E779093E8008F
:10098000089582E008958091960287FF13C08091B8
:10099000E80082FF06C08091E8008B778093E80032
:1009A00004C080919E028111F2CF089580919E0231
:1009B0008823D9F38091E80080FFF8CF8091E80088
:1009C0008E77ECCF982F9093E900242F762F50E06C
:1009D000891731F07091EC002091ED005091F000FA
:1009E00021FD07C09F5F973071F78093E90081E098
:1009F00008953091EB003E7F3093EB003091ED0095
:100A00003D7F3093ED003091EB0031603093EB008F
:100A10007093EC002093ED005093F0002091EE00D5
:100A200027FDE0CF80E00895CF92DF92EF92FF9212
:100A30000F931F93CF93DF93C8EDD0E088818F7E13
:100A40008883E7EDF0E080818160808384E082BF6D
:100A500081E08093700288818E7F888302EE10E0AF
:100A6000F80110821092DA0081EEC82ED12CF60126
:100A7000108288818F7788838881806888838881C5
:100A80008F7D888319BC10929E021092950210925D
:100A900094021092930290EEE92EF12CF7018081DE
:100AA0008B7F808388818160888342E060E080E082
:100AB0000E94E204F60180818E7F8083F8018081AC
:100AC00081608083808188608083F70180818E7F50
:100AD0008083888180618883DF91CF911F910F91FE
:100AE000FF90EF90DF90CF900895FC0180919C02E1
:100AF00090919D0286179707A0F06115710529F462
:100B00009091E8009E779093E80090E06115710560
:100B100051F4911108C08091E80082FF34C080E058
:100B20000895BC01F2CF80919E028823C1F18530E7
:100B3000C1F18091E80083FD30C08091E80082FD22
:100B4000EACF8091E80080FFE1CF8091F30020910F
:100B5000F200382F6115710519F02830310558F071
:100B600091E02830310509F090E02091E8002E77DF
:100B70002093E800CBCF81918093F10061507109FF
:100B80002F5F3F4FE7CF80919E02882341F0853051
:100B900041F08091E80083FFBECF81E0089582E0BC
:100BA000089583E0089580916D02811107C08091BE
:100BB0009E02843011F482E0089581E008958091CE
:100BC0007202089590915602803F41F4809157023D
:100BD00087FD10925702992371F00895813F29F4FF
:100BE000809157021816ACF3F6CF823F81F497FF3D
:100BF000F2CF109256028091570290915802892BA1
:100C000090915902892B49F710925A020895833F17
:100C100019F4191674F3DFCF893F39F48091580223
:100C20001816CCF610925802D6CF8A3F29F480913C
:100C3000580287FFD0CFF6CF8B3F39F4809159020D
:100C400087FFC9CF10925902C6CF8C3F29F48091FB
:100C500059021816BCF3BFCF843F31F4809155027E
:100C60008E7F80935502B7CF853F21F48091550246
:100C70008D7FF7CF863F21F4809155028B7FF1CF96
:100C8000873F21F480915502877FEBCF883F21F485
:100C9000809155028F7EE5CF8D3F31F48091F80130
:100CA0008E7F8093F80197CF8E3F21F48091F801D9
:100CB0008D7FF7CF8F3F09F08ECF8091F8018B7F2A
:100CC000F0CF8091F80180FD16C081FD16C082FD35
:100CD00016C080915A028823A1F0883280F428E05F
:100CE000829FC001112468E270E00E94DD2C862FF3
:100CF000672B39F0089582E0089584E0089588E034
:100D0000089581E008958091F80180FD16C081FD6D
:100D100016C082FD18C080915A02882391F08C334E
:100D200090F423E2829FC00111246CE370E00E94E2
:100D3000DD2C862F672B49F0089588E0089581E126
:100D4000089585E0089583E2089581E00895803F45
:100D500031F40E9483068195809357020895813F64
:100D600019F40E948306F8CF823F31F40E94830673
:100D70008195809356020895833F19F40E9483065B
:100D8000F8CF893F29F40E946106809358020895A4
:100D90008A3F21F40E9461068195F7CF8B3F31F4A1
:100DA0000E94610681958093590208958C3F19F441
:100DB0000E946106F8CF843F31F480915502816032
:100DC000809355020895853F21F4809155028260F9
:100DD000F7CF863F21F4809155028460F1CF873FA1
:100DE00021F4809155028860EBCF883F21F48091F7
:100DF00055028061E5CF8D3F31F48091F80181602B
:100E00008093F80108958E3F21F48091F80182606B
:100E1000F7CF8F3FB9F78091F8018460F1CFCF927F
:100E2000DF92EF92FF920F931F932FB7F8944091A8
:100E3000F4015091F5016091F6017091F7012FBF17
:100E40006A017B01EE24FF248C0130E020E0C01613
:100E5000D106E206F30650F0481B590BCA011F9158
:100E60000F91FF90EF90DF90CF900895415051097E
:100E7000F3CF2FB7F8948091F4019091F501A091F0
:100E8000F601B091F7012FBF08950F931F93CF93F1
:100E9000DF93C82F1092BC0084EA8093BC000E94AC
:100EA00039078C018091BC0087FF27C08091B90071
:100EB000887F883029F08091B900887F803199F54A
:100EC000C093BB0084E88093BC000E943907EC010A
:100ED0008091BC0087FF1FC02091B900287F90E05F
:100EE00080E0283199F081E090E0203411F490E026
:100EF00080E091958195910909C00E943907801B76
:100F0000910B883E934070F28EEF9FEFDF91CF916F
:100F10001F910F9108950E9439078C1B9D0B883EED
:100F20009340B0F2F1CF8FEF9FEFF0CFCF93DF93ED
:100F30008093BB0084E88093BC000E943907EC01D9
:100F40008091BC0087FF0FC02091B900287F81E00D
:100F500090E0283211F490E080E09195819591091C
:100F6000DF91CF9108950E9439078C1B9D0B883E1D
:100F7000934030F38EEF9FEFF3CF829590E09C018A
:100F8000220F331F220F331F2C7C95958795959543
:100F900087958373282B30E0C901880F991F8A7ABF
:100FA000359527952575822B08958091EF019091B5
:100FB000EE01892B9091ED01892B80933301E09113
:100FC0004302F0914402309799F080910C018823FC
:100FD00069F08091410287FF09C085E0809332016A
:100FE0000280F381E02D82E391E0099481E0F6CF65
:100FF000089590910C019923D1F09091410297FFAF
:1010000016C0E82FE695E695E695EE31E0F4F0E0BF
:10101000EE5CFE4F282F277081E090E001C0880F22
:101020002A95EAF780959281892382830895E5E3E2
:10103000F1E09191891303C0DF0111971C9291E0B7
:10104000EB33F907B1F7089590910C019923C1F0A2
:101050009091410297FF14C0E82FE695E695E6953A
:10106000EE31F8F4F0E0EE5CFE4F877021E030E006
:1010700001C0220F8A95EAF78281822B828308952C
:10108000A5E3B1E0EFEF90E02D91821751F0EF3F33
:1010900019F4211101C0E92F9F5F9630A9F7EF3FA6
:1010A00009F408950E2E000CFF0BEE5CFE4F8383B7
:1010B0000895990F990F890F982F977086958695A7
:1010C000869525E0829FF0011124EA53FE4F50E0FF
:1010D00040E080E0219130E0092E02C0369527954E
:1010E0000A94E2F721703327042E01C0220F0A94DC
:1010F000EAF7822B4F5F5F4F4530510559F708954E
:10110000990F990F890F982F977041E001C0440FF4
:101110009A95EAF786958695869595E0899FF001E0
:101120001124EA53FE4F30E020E070E05191DF01DE
:101130001197CB01022E02C0969587950A94E2F78B
:10114000817081958527842385278C932F5F3F4F5E
:101150002530310559F708958091C501909194018A
:10116000981301C008958F5F8770FACF882341F0EC
:1011700080959091EF0189238093EF010C94D5071E
:101180000895882339F09091EF01982B9093EF0107
:101190000C94D507089520915801309159012817D2
:1011A000390771F09093590180935801E0914302FF
:1011B000F0914402309721F00084F185E02D0994EC
:1011C000089520915601309157012817390771F081
:1011D0009093570180935601E0914302F0914402AD
:1011E000309721F00680F781E02D09940895E09171
:1011F0004302F0914402309721F00190F081E02DFC
:10120000099480E00895CF93DF9300D000D00F922F
:10121000CDB7DEB76B837C838D838C819D81892BD9
:1012200021F0CA0189238F3F51F480E081700F9033
:101230000F900F900F900F90DF91CF9108958B81B9
:10124000F5CF9091410292FF06C0282F28712830D7
:1012500069F4877F846093FF06C0282F28712831A6
:1012600061F4877E846194FD877E0895282F247120
:10127000243089F78B7F8860EECF282F24712431AA
:1012800091F78B7E8861EFCFCF93DF932EE0829F23
:10129000C0011124FC01E70FF11DEE0FFF1FEE0F3F
:1012A000FF1FE60FF11DEE0FFF1FEE5CFD4FC59116
:1012B000D491CE01C238D105B9F108F03EC0C13396
:1012C000D10509F482C048F5C932D10509F476C0C8
:1012D000CA32D10509F480C0C11530E5D30708F042
:1012E000AFC0C11540E4D40708F0A9C1C83ED1057C
:1012F00008F08AC0C03ED105E8F4C83AD10508F02C
:1013000072C0C53AD10508F0F6C0C130D10591F0E0
:10131000209729F1249770F422C0C533D10509F430
:1013200046C0C933D105C1F620914102237011F0A6
:1013300080EE90E0DF91CF910895C33ED10539F161
:1013400088F4C03ED105E1F0C23ED10529F62091D6
:10135000410222FFEFCF83EE90E024FFEBCF90E03D
:1013600080E0E8CFC63ED105C9F0C73ED10509F0FF
:10137000B3CF2091410223FF0EC086EE90E0DACF7A
:101380002091410220FFD6CF89E390E0D3CF209176
:10139000410222FD9DC124FFCDCFE1CF209141022A
:1013A00023FFC8CF87EE90E024FDD9CFC3CF209193
:1013B000410225FFBFCF89E290E0BCCF20914102DE
:1013C00025FFB8CF85E390E0B5CF2091410226FFFD
:1013D000B1CF8AE290E0AECF2091410226FFAACFA2
:1013E00081E390E0A7CFCF3BD10508F493C0C03C88
:1013F000D10508F4B4CFCE01880F991F8E549F4FAA
:10140000FC018591949196CFC11550E2D50760F407
:10141000C11521E0D20708F08DCFCE019065C03F05
:10142000D10508F087CF9BCFC11530E3D30708F073
:10143000FEC0FE01FF70EE0FFF1FEE5CFD4FE1CF1F
:10144000C11545E5D40748F5C11554E5D50708F0A1
:1014500027C1C11582E5D80750F4C11521E5D2078F
:1014600008F4F1C09C2F8827816F906A63CF2C2FDE
:1014700026952695AE0143705527C115D34508F032
:1014800000C181E090E002C0880F991F4A95E2F701
:1014900050E2259F90011124F0C0C11549E5D40701
:1014A000A0F4C11558E5D50708F0FFC0C11586E5C1
:1014B000D80708F054CF8C2F0E94210990E0982F74
:1014C000882788279F71906235CFC1152AE5D207FA
:1014D00008F4F0C0CE0190568115904208F03FCF3D
:1014E0008D2F8F710E94210990E0982F88278827DF
:1014F0009F718C2BE8CF81E890E4C53AD10509F4BF
:1015000019CF82E890E4C63AD10509F413CF83E8F5
:1015100090E410CF82EE94E4C83AD10509F40ACFE2
:1015200089EE94E4C93AD10509F404CF8AEE94E433
:10153000CA3AD10509F4FECE85EB94E4CB3AD10545
:1015400009F4F8CE86EB94E4CC3AD10509F4F2CE56
:1015500083EB94E4CB3BD10509F4ECCE84EB94E42B
:10156000CC3BD10509F4E6CE87EB94E4CD3AD10526
:1015700009F4E0CE8CEC94E4C03BD10509F4DACE5A
:101580008DEC94E4CE3AD10509F4D4CE83E895E409
:10159000CF3AD10509F4CECE8AE895E4C13BD10516
:1015A00009F4C8CE82E995E4C23BD10509F4C2CE64
:1015B00084E995E4C33BD10509F4BCCE81E296E40D
:1015C000C43BD10509F4B6CE83E296E4C53BD10510
:1015D00009F4B0CE84E296E4C63BD10509F4AACE64
:1015E00085E296E4C73BD10509F4A4CE86E296E4F1
:1015F000C83BD10509F49ECE87E296E4C93BD105EC
:1016000009F498CE8FE694E4CD3BD10509F492CE4F
:1016100080E794E4CE3BD10509F48CCE80E094E4DD
:10162000CA3BD10509F086CE8AE296E483CECE018C
:101630009927D3FF02C0986C7DCE906C7BCECE01F3
:101640009F70906A77CE9E01E4E036952795EA95E3
:10165000E1F723708C2F86958695837040E2849FF6
:10166000C0011124AC01522B9A01C37081E090E0BB
:1016700002C0880F991FCA95E2F7822B932B9C68B2
:1016800059CE81E090E002C0880F991F4A95E2F799
:1016900040E2249F90011124822B932B9A684ACE1A
:1016A0009C2F8827846F906A45CE9C2F8827806F57
:1016B000906A40CE8C2F8F700E94210934E0D6951D
:1016C000C7953A95E1F7CF708F70806E9C2FB9CF98
:1016D00082EE90E02FCEBF92CF92DF92EF92FF92F8
:1016E0000F931F93CF93DF938C01C090E901D090AB
:1016F000EA01E090EB01F090EC018091F001909113
:10170000F101A091F201B091F301C82AD92AEA2A85
:10171000FB2ACFE1D0E0BC2ED701C6010C2E04C0BD
:10172000B695A795979587950A94D2F780FD0EC038
:10173000219788F7B12C8B2DDF91CF911F910F91BD
:10174000FF90EF90DF90CF90BF900895B8018C2F5D
:101750000E944409019761F3EECFCF93DF93EC0130
:101760000E946B0BBE01DF91CF910C9444090E9443
:10177000AD0B292F2F7092959F7092509E3078F468
:10178000E92FF0E0E15BF24D0C94F12C803F19F071
:1017900020F4803E20F481E00895843FE1F380E06E
:1017A0000895803EC0F3813FD1F7F5CF822F869513
:1017B0008695869508950F931F93CF93DF93EC0141
:1017C0008B01FB018281882321F10E9439079093CC
:1017D000550180935401F8019281FE01FA55EA32D5
:1017E000F105B8F4E35AF24D0C94F12C40917801D4
:1017F0005091790160917A0170917B01992379F080
:101800004460409378015093790160937A0170931A
:101810007B0181E0DF91CF911F910F9108954B7F64
:10182000F0CF409178015091790160917A017091E7
:101830007B01992311F04860E4CF477FE2CF4091CC
:1018400078015091790160917A0170917B0199231F
:1018500011F04061D6CF4F7ED4CF409178015091A6
:10186000790160917A0170917B01992311F04062B6
:10187000C8CF4F7DC6CF40917801509179016091DA
:101880007A0170917B01992311F04160BACF4E7FAC
:10189000B8CF409178015091790160917A017091AF
:1018A0007B01992311F04260ACCF4D7FAACF4091CC
:1018B00078015091790160917A0170917B019923AF
:1018C00011F040649ECF4F7B9CCF409178015091A6
:1018D000790160917A0170917B01992311F0406840
:1018E00090CF4F778ECF40917801509179016091E0
:1018F0007A0170917B01992311F0516082CF5E7F54
:1019000080CF409178015091790160917A01709176
:101910007B01992311F0526074CF5D7F72CF4091AB
:1019200078015091790160917A0170917B0199233E
:1019300011F0546066CF5B7F64CF40917801509185
:10194000790160917A0170917B01992311F05860BF
:1019500058CF577F56CF40917801509179016091CF
:101960007A0170917B01992311F050614ACF5F7E1B
:1019700048CF409178015091790160917A0170913E
:101980007B01992311F050623CCF5F7D3ACF4091AB
:1019900078015091790160917A0170917B019923CE
:1019A00011F050642ECF5F7B2CCF40917801509185
:1019B000790160917A0170917B01992311F050684F
:1019C00020CF5F771ECF40917801509179016091CF
:1019D0007A0170917B01992311F0616012CF6E7FC3
:1019E00010CF409178015091790160917A01709106
:1019F0007B01992311F0626004CF6D7F02CF40918B
:101A000078015091790160917A0170917B0199235D
:101A100011F06460F6CE6B7FF4CE40917801509166
:101A2000790160917A0170917B01992311F06860CE
:101A3000E8CE677FE6CE40917801509179016091C0
:101A40007A0170917B01992311F06061DACE6F7E8B
:101A5000D8CE409178015091790160917A017091CE
:101A60007B01992311F06062CCCE6F7DCACE40918C
:101A700078015091790160917A0170917B019923ED
:101A800011F06064BECE6F7BBCCE40917801509166
:101A9000790160917A0170917B01992311F060685E
:101AA000B0CE6F77AECE40917801509179016091C0
:101AB0007A0170917B01992311F07160A2CE7E7F33
:101AC000A0CE409178015091790160917A01709196
:101AD0007B01992311F0726094CE7D7F92CE40916C
:101AE00078015091790160917A0170917B0199237D
:101AF00011F0746086CE7B7F84CE40917801509146
:101B0000790160917A0170917B01992311F07860DD
:101B100078CE777F76CE40917801509179016091AF
:101B20007A0170917B01992311F070616ACE7F7EFA
:101B300068CE409178015091790160917A0170915D
:101B40007B01992311F070625CCE7F7D5ACECF93DA
:101B5000C82F873050F58091000190910101892BA9
:101B600011F580E40E9445079093010180930001E4
:101B7000892BB1F482E10E94960790930101809332
:101B80000001892B69F481E090E001C0880FCA95BB
:101B9000EAF780950E9496079093010180930001D7
:101BA00084E98093BC00CF9108958A30B1F038F475
:101BB000883069F0893071F0209A2898F4CF8C3001
:101BC00091F070F08D30C1F73E9A4698ECCF219A93
:101BD0002998E9CF229A2A98E6CF239A2B98E3CF27
:101BE000529A5A98E0CF539A5B98DDCF84B1807FA8
:101BF00084B985B1807F85B93E9846988AB1837F44
:101C00008AB98BB1837F8BB9089580B38D7880BBFF
:101C100081B3826781BB0895CF92DF92EF92FF92EA
:101C20000F931F93CF93DF93C82F873008F090C096
:101C30008091000190910101892B09F094C080E40A
:101C40000E9445079093010180930001892B09F4BC
:101C50004BC090E084E98093BC002C2F30E0F90168
:101C6000EE5CFD4FA081A9279083F901EE0FFF1FC5
:101C7000EE0FFF1FE650FE4F70E060E040E0C1E075
:101C8000D0E0CA2ED12C55E0162F8191882309F47B
:101C90006CC07F01A1E0EA1AF1088150D7018C9352
:101CA000D60102C0B595A7951A95E2F7A0FF05C029
:101CB0008F0101501109D8015C936F5F7F4F643031
:101CC000710511F72A5B3D4F842F8095F901208122
:101CD00082239423892BDF91CF911F910F91FF9045
:101CE000EF90DF90CF90089583E10E949607909344
:101CF000010180930001892B09F0ABCF81E40E94A0
:101D000045079093010180930001892B09F0A1CF31
:101D100084E88093BC000E9439078C018091BC004C
:101D200087FF08C09091BB0090951092010110921E
:101D3000000190CF0E943907801B910B883E934091
:101D400068F38EEF9FEF909301018093000181CFA4
:101D50008FB19FB1869581709695969596959E7058
:101D6000982B90957ACF90E078CF7E01062E01C017
:101D7000EE0C0A94EAF74E2993CF80915E0283FF1E
:101D80007EC08DE294E00E94A103809155021F92D3
:101D90008F9388E294E09F938F930E943A0486E2A7
:101DA00094E00E94A10380915602282F082E000C77
:101DB000330B3F938F9383E294E09F938F930E9422
:101DC0003A0481E294E00E94A10380915702282FF7
:101DD000082E000C330B3F938F938EE194E09F937A
:101DE0008F930E943A048CE194E00E94A1038091B9
:101DF0005802282F082E000C330B3F938F9389E154
:101E000094E09F938F930E943A0487E194E00E94AC
:101E1000A10380915902282F082E000C330B3F9309
:101E20008F9384E194E09F938F930E943A0481E121
:101E300094E00E94A10380915A021F928F938EE03A
:101E400094E09F938F930E943A048CE094E00E9468
:101E5000A1038091F8011F928F9389E094E09F93F2
:101E60008F930E943A0486E094E00E94A1038DB70C
:101E70009EB74C960FB6F8949EBF0FBE8DBFE091F3
:101E80004302F0914402309749F082E0809354027B
:101E90000480F581E02D84E592E009950E943907E0
:101EA00090935C0280935B0208951092EE01109271
:101EB000ED010E94D50786E0E4E5F2E0DF011D9226
:101EC0008A95E9F710925A021092F8010E94BD0E0D
:101ED00090E080E00E94E10890E080E00C94CB0864
:101EE0006093E9017093EA018093EB019093EC0118
:101EF0000C94550F0F931F9341E050E060E070E0A9
:101F000004C0440F551F661F771F8A95D2F7CB0177
:101F1000BA0160957095809590950091E9011091B6
:101F2000EA012091EB013091EC01602371238223BF
:101F300093231F910F910C94700F0F931F9341E007
:101F400050E060E070E004C0440F551F661F771F2B
:101F50008A95D2F78091E9019091EA01A091EB0175
:101F6000B091EC018A019B01082B192B2A2B3B2BEA
:101F7000C901B8011F910F910C94700F6093F0018B
:101F80007093F1018093F2019093F3010C94550F3B
:101F9000882309F459C0823871F40E94F70881FF40
:101FA00053C089E30E9424080E94D50789E30E9458
:101FB000F9070C94D507833859F40E94F70880FF7D
:101FC00043C083E50E9424080E94D50783E5EFCF34
:101FD000843859F40E94F70882FF36C087E40E94D3
:101FE00024080E94D50787E4E2CF9CEF980F913A2E
:101FF000F0F290E2980F983088F4877021E030E09A
:10200000A90102C0440F551F8A95E2F7CA018095C5
:102010009091EF0189238093EF01CBCF9BE5980F3F
:10202000933020F490E080E00C94E10898E5980F5C
:10203000973120F490E080E00C94CB08803F20F0B2
:102040000E94E2050C94BD0E08959FB7F89410927B
:102050006E029FBF90919E02943009F049C020917A
:10206000E9002F709091EC0090FD30C090E0922B31
:1020700022E02093E9002091EB0020FF36C0209160
:10208000EE0027FF32C02091F901222321F0209198
:10209000E80025FF2AC01092F90126E03091E800FF
:1020A00035FF16C08093F1008091E80085FD29C0BE
:1020B0008091E80080FFFCCF8091E8008E778093CC
:1020C000E8009F709093E90080E0089590E8CFCFFA
:1020D00030919E02343049F43091EB0035FD05C05B
:1020E000215041F481E08093F9019F709093E900C1
:1020F0008FEF0895EFE9FFE03197F1F700C000009E
:10210000CDCF8FB7F89421E020936E028FBFD9CF47
:10211000CF93C091E9009091EC0090FD19C090E040
:1021200020911D0120FF12C0CF70C92B90910E018C
:102130009F709093E9009091EB0090FF04C0909104
:10214000EE0097FD07C0CF70C093E900CF910895CE
:1021500090E8E6CF9FEF2091E800915025FD06C062
:1021600025ED2A95F1F700009111F5CF8093F1004C
:102170008DE091E00E9491048091E80080FFE3CF20
:102180008091E8008E778093E800DDCF882309F402
:1021900008C18238B9F40E94F70881FD02C189E3C1
:1021A0000E9424080E94D5072FEF81EE94E0215071
:1021B00080409040E1F700C0000089E30E94F907E9
:1021C0000C94D5078338A1F40E94F70880FDE9C07C
:1021D00083E50E9424080E94D5072FEF81EE94E04A
:1021E000215080409040E1F700C0000083E5E6CF39
:1021F0008438A1F40E94F70882FDD3C087E40E94CE
:1022000024080E94D5072FEF81EE94E021508040F2
:102210009040E1F700C0000087E4D0CF9CEF980F1A
:10222000913A18F40E942408CBCF90E2980F98308E
:1022300068F4877021E030E001C0220F8A95EAF748
:102240008091EF01822B8093EF01BACF9BE5980F2D
:10225000933070F4853A31F0863A39F083E890E0B3
:102260000C94E10881E890E0FBCF82E890E0F8CFA1
:1022700098E5980F973108F08EC0883A09F446C067
:10228000893A09F446C08A3A09F446C08B3A09F4FF
:1022900046C08C3A09F446C08B3B09F446C08C3BDF
:1022A00009F446C08D3A09F446C0803B09F446C0A3
:1022B0008E3A09F446C08F3A09F446C0813B09F4CE
:1022C00046C0823B09F446C0833B09F446C0843BC8
:1022D00009F446C0853B09F446C0863B09F446C074
:1022E000873B09F446C0883B09F446C0893B09F4A2
:1022F00046C08D3B09F446C08E3B09F446C08A3B7C
:1023000009F446C090E080E00C94CB0882EE90E0A7
:10231000FBCF89EE90E0F8CF8AEE90E0F5CF85EB29
:1023200090E0F2CF86EB90E0EFCF83EB90E0ECCF44
:1023300084EB90E0E9CF87EB90E0E6CF8CEC90E087
:10234000E3CF8DEC90E0E0CF83E891E0DDCF8AE849
:1023500091E0DACF82E991E0D7CF84E991E0D4CF60
:1023600081E292E0D1CF83E292E0CECF84E292E0AC
:10237000CBCF85E292E0C8CF86E292E0C5CF87E27C
:1023800092E0C2CF8FE690E0BFCF80E790E0BCCF75
:102390008AE292E0B9CF803F20F00E94A7060C9419
:1023A000BD0E0895CF93C82F80917601823021F021
:1023B0008C2FCF910C94C610809175018431F8F464
:1023C0001F9294E19F931F928F9382E091E09F93DD
:1023D0008F930E943A0480917501E82FF0E0E05A53
:1023E000FE4FC0838F5F809375010F900F900F9009
:1023F0000F900F900F90809176018230C9F6CF91A7
:1024000008950F931F93CF93DF938C01F8012491CC
:10241000222309F43AC0E8012196213049F4FE0153
:102420001491812F0E94C610812F0E94C80F06C0F0
:10243000223041F4FE0184910E94C6108E010F5F8C
:102440001F4FE4CF233019F4FE018491EECF30E02A
:10245000F901EE54FE4FC4912E5C3E4FF9012491D8
:10246000222371F081EE0E94C6108C2F0E94C610AC
:102470008C2F0E94C80F81EE0E94C80FE801DECFAA
:102480008C2F0E94C6108C2FF7CFDF91CF911F9118
:102490000F9108958091780190917901A0917A012E
:1024A000B0917B0180349105A1052CE3B20751F472
:1024B00083E291E00E94011287E191E00E94011203
:1024C00081E00895803C91052FE0A207B10521F439
:1024D0008EEA0E94D211F4CF8C339105A105B1058B
:1024E00011F48AE2F6CF00972FE0A207B10511F4AC
:1024F00089E3EFCF009729E0A207B10511F489E243
:10250000E8CFAC01BD0144275527667077274115F8
:1025100051056640710569F426E0A2278093780191
:1025200090937901A0937A01B0937B0180EE0E9491
:10253000D2118091780190917901A0917A01B091A6
:102540007B01AC01BD01407C552769707727403C79
:1025500051056940710591F420EC822729E0A227FA
:102560008093780190937901A0937A01B0937B01D5
:1025700080EE0E94D21181EE0E94D21180917801EA
:1025800090917901A0917A01B0917B01AC01BD01DC
:1025900040745527657077274034510565407105B3
:1025A000A9F420E4822725E0A22780937801909364
:1025B0007901A0937A01B0937B0180EE0E94D21141
:1025C00081EE0E94D21182EE0E94D2118091780198
:1025D00090917901A0917A01B0917B01AC01BD018C
:1025E0004427552766277C734115510561057C43B7
:1025F00069F42CE3B2278093780190937901A0933A
:102600007A01B0937B0183EE0E94D2118091780110
:1026100090917901A0917A01B0917B01AC01BD014B
:10262000442755276627747141155105610574418A
:1026300069F424E1B2278093780190937901A09303
:102640007A01B0937B0180EE0E94D21180917801D3
:1026500090917901A0917A01B0917B01AC01BD010B
:102660004427552766277872411551056105784240
:1026700069F428E2B2278093780190937901A093BE
:102680007A01B0937B0182EE0E94D2118091780191
:1026900090917901A0917A01B0917B01AC01BD01CB
:1026A00040745527617077274034510561407105AA
:1026B00079F420E4822721E0A22780937801909387
:1026C0007901A0937A01B0937B0180EE0E94D21130
:1026D0008091780190917901A0917A01B0917B016C
:1026E000AC01BD014427552763707727411551057B
:1026F0006340710569F423E0A227809378019093E9
:102700007901A0937A01B0937B0182EE0E94D211ED
:102710008091780190917901A0917A01B0917B012B
:10272000A1FF0DC022E0A227809378019093790148
:10273000A0937A01B0937B0181EE0E94D211809127
:10274000780190917901A0917A01B0917B01811576
:102750002AE5920720E3A207B10511F48EE3B9CE72
:1027600081152AE5920720ECA207B10511F48FE349
:10277000B0CE81152AE59207A10523E0B20711F436
:1027800080E4A7CE81152AE59207A1052CE0B207C7
:1027900011F481E49ECE81152AE5920720E1A2077B
:1027A000B10511F48AE395CE81152AE5920720E45C
:1027B000A207B10511F48BE38CCE81152AE59207AF
:1027C000A10521E0B20711F48CE383CE81152AE53F
:1027D0009207A10524E0B20711F48DE37ACE8115AA
:1027E0002AE5920720E2A207B10511F482E471CE36
:1027F00081152AE59207A10522E0B20711F483E4CE
:1028000068CE81152AE5920720E8A207B10511F4E8
:1028100084E45FCE81152AE59207A10528E0B2077E
:1028200011F485E456CE8C30910520E1A207B10564
:1028300011F480E54ECE8C30910520E4A207B1055D
:1028400011F481E546CE8C309105A10521E0B20757
:1028500011F482E53ECE8C309105A10524E0B2074B
:1028600011F48FE436CE8C319105A105B10511F438
:102870008BE42FCE8C329105A105B10511F48EE4C5
:1028800028CE81152AEA920720E1A207B10511F4AA
:102890008CEA1FCE81152AEA920720E4A207B1052F
:1028A00009F416CE81152AEA9207A10521E0B207A4
:1028B00009F40ECE81152AEA9207A10524E0B20799
:1028C00011F48BEA06CE81152AEA9207A10520E1D0
:1028D000B20711F489EAFDCD81152AEA9207A10514
:1028E00020E2B20711F48AEAF4CD81152AEA9207B0
:1028F000A10528E0B20711F488EAEBCD811520E5A7
:102900009207A105B10561F484EF0E94A7060E9419
:10291000BD0E81E080937D0184EF80937C01D0CD5A
:10292000811520EA9207A105B10551F485EF0E94B7
:10293000A7060E94BD0E81E080937D0185EFEDCF5B
:10294000803421E09207A105B10511F48EE1C1CDDB
:10295000803424E09207A105B10511F48FE1B9CDCF
:10296000803420E19207A105B10511F480E2B1CDD8
:10297000803420E49207A105B10511F481E2A9CDCC
:1029800084349105A105B10511F482E2A2CD803510
:102990009105A105B10511F483E29BCD8034910529
:1029A00020E1A207B10511F484E293CD80349105B2
:1029B00020E4A207B10511F485E28BCD80349105A6
:1029C000A10521E0B20711F486E283CD80349105A0
:1029D000A10524E0B20711F487E27BCD8034910594
:1029E00021E0A207B10589F2803821E09207A10514
:1029F000B10509F4ABCF803824E09207A105B105F9
:102A000009F4ACCF803820E19207A105B10509F4A3
:102A1000ADCF803820E49207A105B10509F4AECF0F
:102A200084389105A105B10509F4AFCF803991052E
:102A3000A105B10509F4B0CF8038910520E1A207C6
:102A4000B10509F4B1CF8038910520E4A207B105A2
:102A500009F4B2CF80389105A10521E0B20709F44D
:102A6000B3CF80389105A10524E0B20709F4B4CFB3
:102A70008038910521E0A207B10509F486CF80389E
:102A8000910528E0A207B10511F48BE222CD009751
:102A90002CE0A207B10509F424CD0097A10520E39D
:102AA000B20711F488E215CD009724E0A207B10522
:102AB000C9F30097A10520E1B20709F412CD8034D3
:102AC0009105A105B10509F40CCD80389105A1054A
:102AD000B10509F406CD009721E0A207B10511F474
:102AE0008CE2F7CC009728E0A207B105C9F3009764
:102AF000A10520E2B20709F402CD811523E0920777
:102B0000A105B10511F484E0E4CC81152CE0920715
:102B1000A105B10511F486E1DCCC811520E3920713
:102B2000A105B10511F487E0D4CC811520EC920702
:102B3000A105B10511F489E0CCCC8C309105A1053B
:102B4000B10511F48AE0C5CC80339105A105B1052A
:102B500011F48BE0BECC009720E3A207B10511F47D
:102B60008DE0B7CC0097A1052CE0B20711F483E308
:102B7000B0CC0097A10523E0B20711F48FE0A9CCF7
:102B8000009720ECA207B10511F48EE0A2CC8115CC
:102B900021E09207A105B10511F484E19ACC8115D9
:102BA00022E09207A105B10511F48DE192CC8115C7
:102BB00024E09207A105B10511F48AE18ACC8115C0
:102BC00028E09207A105B10511F48BE182CC8115B3
:102BD00020E19207A105B10511F488E07ACC8115B6
:102BE00020E29207A105B10511F486E072CC8115AF
:102BF00020E49207A105B10511F485E16ACC8115A5
:102C000020E89207A105B10511F489E162CC843076
:102C10009105A105B10511F487E15BCC88309105E0
:102C2000A105B10511F485E054CC80319105A105D1
:102C3000B10511F48CE14DCC80329105A105B105AF
:102C400011F481E146CC009720E1A207B10511F40F
:102C500088E13FCC009720E2A207B10511F480E1A2
:102C600038CC009720E4A207B10511F48CE031CCF8
:102C7000009720E8A207B10511F486E32ACC00975B
:102C8000A10521E0B20711F482E123CC0097A10550
:102C900022E0B20711F487E31CCC0097A10524E0E1
:102CA000B20711F483E115CC0097A10528E0B20723
:102CB00011F488E30ECC823091052CE0A207B10517
:102CC00009F4F0CE8230910523E0A207B10509F4A2
:102CD00007CF823020E39207A105B10521F481EEF0
:102CE0000E94D21171CE823020EC9207A105B1056D
:102CF00021F481EE0E94D2116FCE8E309105A10594
:102D0000B10511F485E3E5CB82309105A10520E3FF
:102D1000B20709F4F4CB823023E09207A105B10594
:102D200021F481EE0E94D21121CE82302CE0920754
:102D3000A105B10521F481EE0E94D2111FCE82308F
:102D400021E09207A105B10521F481EE0E94D21184
:102D5000FDCD823022E09207A105B10521F481EE7C
:102D60000E94D21112CE823024E09207A105B10553
:102D700021F481EE0E94D211F1CD823028E0920739
:102D8000A105B10521F481EE0E94D21105CE823059
:102D900020E19207A105B10529F481EE0E94D2112C
:102DA0008FE297CB823020E29207A105B105C1F3F3
:102DB000823020E49207A105B10529F481EE0E943A
:102DC000D21180E386CB823020E89207A105B105BD
:102DD000C1F386309105A105B10529F481EE0E9469
:102DE000D21181E376CB8A309105A105B10521F49A
:102DF00081EE0E94D21186CF82319105A105B105E5
:102E000011F484E366CB82329105A105B10521F46A
:102E100081EE0E94D211F5CF8230910520E1A20708
:102E2000B10511F487E555CB8230910520E2A20768
:102E3000B10521F481EE0E94D211B6CD8230910508
:102E400020E4A207B10511F48DE243CB8230910555
:102E500020E8A207B10511F48EE23BCB8230910548
:102E6000A10521E0B20709F424CF82309105A10524
:102E700022E0B20709F401CF82309105A10524E0D8
:102E8000B20711F485E525CB82309105A10528E034
:102E9000B20709F400CF82309105A10520E1B20705
:102EA00009F4F3CD8230910521E0A207B10509F4C0
:102EB0005ECE8230910522E0A207B10509F4F9CE79
:102EC0008230910524E0A207B10509F450CE0297A3
:102ED000A840B10509F4EDCE80E0089584EF90E0BC
:102EE0000E94A10380E290E0909301018093000191
:102EF00080915301811111C01092B9008CE0809330
:102F0000B80081E0809353012FEF83ED90E32150CF
:102F100080409040E1F700C0000080E40E94450737
:102F20009093010180930001892B09F040C080E05B
:102F30000E9496079093010180930001892BB9F5B7
:102F400080E80E9496079093010180930001892BED
:102F500071F58FEF0E949607909301018093000115
:102F6000892B29F584E98093BC0080E40E94450701
:102F70009093010180930001892BC9F48CE00E9499
:102F800096079093010180930001892B81F480E8DA
:102F90000E9496079093010180930001892B39F4D8
:102FA0008FEF0E949607909301018093000184E9BE
:102FB0008093BC008091000108950F931F93CF93DD
:102FC000DF938091000190910101892BC1F08091E4
:102FD00052018F5F80935201811111C08AED90E000
:102FE0000E94A1030E946E1790E0909301018093CC
:102FF0000001892BE1F180EC90E00E94A10306E43E
:1030000012E0C0E08C2F0E94A70DD7E0DC0F8D2FBF
:103010000E94A70D8C2F0E940C0EF80181938F0146
:103020008D2F0E940C0EF80186830E94F60DCF5F53
:10303000C73041F780917601813099F48091540135
:10304000909155010E940F078D32914050F00E94DF
:103050004A120E94D5070E94390790935501809328
:10306000540181E0DF91CF911F910F9108958CEA77
:1030700090E0C3CF90E080E00E94132D21E08D3ED0
:103080009E4F09F020E0822F08956DEE7EEF90E0D4
:1030900080E00E94372D60E082E090E00E94192DD0
:1030A00060E083E090E00E94192D1092F0011092F0
:1030B000F1011092F2011092F30160E084E090E0DF
:1030C0000E94192D60E085E090E00E94192D60E0DB
:1030D00086E090E00E94192D6FEF87E090E00E945B
:1030E000192D40E050E0BA0188E090E00E942B2DBD
:1030F00060E08DE090E00E94192D40E050E0BA01C0
:1031000088E190E00E942B2D60E087E190E00E9432
:10311000192D40E050E0BA018FE090E00E942B2D85
:1031200040E050E0BA0183E190E00C942B2D109226
:10313000EF0180910C01882369F08091410287FFA3
:1031400009C0E4E3F1E08EE1DF011D928A95E9F721
:103150000C94550FE5E3F1E086E0F6CF0F931F9353
:10316000CF93DF93CDB7DEB7AA970FB6F894DEBF43
:103170000FBECDBF80919E02882309F485C31091B4
:10318000E9001F708091EC0080FD66C080E0182B84
:103190001092E9008091E80083FF73C386E992E012
:1031A0002091F100FC012193CF01F2E08E399F07BD
:1031B000B9F780919702833009F4BAC008F04EC085
:1031C000813009F480C0823009F4FAC08091E800AF
:1031D00083FF9DC020910D0180919A0290919B02E6
:1031E0002817190609F093C080919702813209F4DB
:1031F00007C108F0F6C0803209F089C080919602BC
:10320000813209F084C08091E800877F8093E800D4
:103210008091E80082FF31C13091F1002091F100EE
:103220009091F1008091F1003093210120932201CF
:1032300090932301809324018091F10080932501D4
:103240008091F100809326018091F1008093270105
:103250008091E8008B770CC180E899CF8A3009F41F
:103260009EC08B3009F481C0893009F0AFCF8091C6
:103270009602813209F0AACF80919A0290919B0226
:10328000892B09F0A3CF8091E800877F8093E80025
:103290008091E80082FF37C09091F3008091F200A6
:1032A000029729F48091F1008B7F813021F4809185
:1032B000F100809372028091E8008B778093E800A0
:1032C0000E94C30483CF80919602813A09F07ECF99
:1032D0008091E800877F8093E80080919A02909126
:1032E0009B02892B61F460E283E792E070E00E9428
:1032F00075058091E8008B778093E80067CF60E0E8
:1033000090E080E0F3CF80919E028111C1CF809147
:10331000E80083FFA8C280919602909197029A30AC
:1033200008F0A1C2E92FF0E0E957F24D0C94F12C1E
:1033300080919602813A09F049CF80919A0290914A
:103340009B02892B09F042CF8091E800877F809310
:10335000E8008091E80080FFFCCF80910C01809311
:10336000F1008091E8008E77A9CF8091960281329A
:1033700009F02CCF80919A0290919B02892B09F041
:1033800025CF8091E800877F8093E8000E94C304E6
:103390008091980280930C010E94971817CF80911A
:1033A0009602813209F012CF8091E800877F8093E6
:1033B000E8000E94C304809199028093710206CFB5
:1033C00080919602813A09F001CF8091E800877FD1
:1033D0008093E8008091E80080FFFCCF809171022B
:1033E000BECF823209F44EC0833209F090CF809173
:1033F0009602813209F08BCF8091E800877F38C038
:1034000080919602813A09F082CF8091E800877F0F
:103410008093E8008091E80080FFFCCF809121013B
:1034200090912201A0912301B09124018093F10099
:10343000492F5A2F6B2F77274093F100AD01662754
:1034400077274093F1008B2F9927AA27BB278093DA
:10345000F100809125018093F100809126018093F5
:10346000F100809127018093F1008091E8008E7730
:103470008093E8000E94C3044ACF80919E0281118C
:10348000C7CE45CF80919602813209F040CF80911E
:10349000E800877F8093E8000E94C304809198022F
:1034A0009091990290931E0180931D0130CF803836
:1034B00099F0823809F0D7C180919A028F708730D5
:1034C00008F0D1C18093E9008091EB0085FB88274B
:1034D00080F91092E90006C08091930290919402C5
:1034E000911182609091E800977F9093E80080931B
:1034F000F1001092F1008091E8008E77B0C188232E
:1035000009F49EC1823009F0AEC180919802811108
:10351000A1C180919A028F702FEF280F263008F0FA
:10352000A2C18093E9002091EB0020FF93C193306A
:1035300031F48091EB0080628093EB008BC190911D
:10354000EB0090619093EB0021E030E001C0220F8E
:103550008A95EAF72093EA001092EA008091EB0046
:103560008860EACF81117FC1009198020F77809126
:10357000E3008078802B8093E3008091E800877FD0
:103580008093E8000E94C3048091E80080FFFCCF94
:103590008091E30080688093E30082E0011183E082
:1035A00080939E0260C18058823008F05CC12091F7
:1035B0009802309199022C3D83E03807A1F583E011
:1035C0008A838AE289834FB7F894DE01139620E05C
:1035D0003EE051E2E32FF0E050935700E49120FFEA
:1035E00003C0E295EF703F5FEF708E2F90E0EA30FE
:1035F000C0F0C7968D939D932F5F243159F74FBF2D
:103600008091E800877F8093E8006AE270E0CE0155
:1036100001960E9475058091E8008B778093E80001
:1036200022C1C096E7CF40919A0250919B02832F0E
:1036300099278330910501F160F48130910509F4F7
:103640007EC0029709F00FC18FE790E0E4ECF5E04F
:1036500035C08132910509F466C08232910509F0C6
:1036600002C14115510509F474C04130510509F0FA
:10367000FAC0E0EAF4E022C033272130310509F432
:1036800042C02115310581F02230310509F443C0D3
:103690002330310509F0E7C0E5E5F6E0E4918E2F2F
:1036A00090E0E5E5F6E007C0E3E9F6E0E4918E2F6F
:1036B00090E0E3E9F6E0009709F4D5C02091E80036
:1036C000277F2093E80020919C0230919D02821771
:1036D000930708F49C0140E02115310509F03EC034
:1036E00041113CC08091E80082FD95CF80919E02FF
:1036F000882309F490CF853009F48DCF8091E800BC
:1037000083FFF0CF88CFEBE6F6E0E4918E2F90E0D8
:10371000EBE6F6E0D0CFEBE5F6E0E4918E2F90E01B
:10372000EBE5F6E0C8CF4115510571F04130510588
:1037300009F099C089E090E0EFEEF5E0BFCF82E1BB
:1037400090E0E3E4F6E0BACF89E090E0E6EDF5E062
:10375000B5CF82E091E0E2ECF4E0B0CF80919E0240
:10376000882309F458CF853009F455CF8091E800BB
:1037700083FD51CF8091E80082FDB4CF8091E800B5
:1037800080FFAACF9091F3008091F20021153105BE
:1037900019F08830910550F041E0089709F040E0B9
:1037A0008091E8008E778093E80096CF4491409313
:1037B000F1003196215031090196E8CF803809F0A7
:1037C00052C08091E800877F8093E8008091950245
:1037D0008093F10090CE811146C000919802023092
:1037E00008F041C08091E800877F8093E800009353
:1037F00095020E94C304002311F084E005C080916B
:10380000E30087FDFACF81E080939E0242E261EC03
:1038100081E00E94E20442E261EC82E00E94E20464
:1038200042E061EC83E00E94E20442E160E885E06E
:103830000E94E20442E161E884E00E94E20413C0D5
:1038400080919802813079F481E0933009F080E032
:10385000809394021092E9008091E800877F809322
:10386000E8000E94C3048091E80083FF0AC08091B1
:10387000E800877F8093E8008091EB00806280936E
:10388000EB001F701093E900AA960FB6F894DEBF04
:103890000FBECDBFDF91CF911F910F910895EF9291
:1038A000FF920F931F93CF937C018B010E946204C0
:1038B000C82F811119C08091E80085FD0DC080914D
:1038C000E8008E778093E8000E94AE180E946204A0
:1038D000882389F3C82F08C0F70181917F01809365
:1038E000F1000150110939F78C2FCF911F910F91E1
:1038F000FF90EF9008950F931F93CF93DF9300D025
:103900000F92CDB7DEB78C010E94D305823011F043
:10391000843021F584E089831B830A8381E08093CE
:10392000E9008FEF9091E800815095FD06C095ED7C
:103930009A95F1F700008111F5CF8091E80085FF9D
:103940000DC050E040E063E070E0CE0101960E94BF
:103950004F1C8091E8008E778093E8000F900F90C5
:103960000F90DF91CF911F910F910895CF93DF9327
:1039700000D00F92CDB7DEB720919E02243031F5F2
:1039800023E02983805891099B838A8381E0809377
:10399000E9008FEF9091E800815095FD06C095ED0C
:1039A0009A95F1F700008111F5CF8091E80085FF2D
:1039B0000DC050E040E063E070E0CE0101960E944F
:1039C0004F1C8091E8008E778093E8000F900F9055
:1039D0000F90DF91CF910895CF93DF93EC010E9478
:1039E000D305823011F08430F9F481E08093E9004E
:1039F0008FEF9091E800815095FD06C095ED9A9566
:103A0000F1F700008111F5CF8091E80085FF0CC02F
:103A100050E040E066E070E0CE010E944F1C8091D3
:103A2000E8008E778093E800DF91CF910895CF93DF
:103A3000DF93EC010E94D305823011F08430A9F5A8
:103A400080910C01882321F08091410260E287FF80
:103A500069E081E08093E9008FEF9091E800815068
:103A600095FD06C095ED9A95F1F700008111F5CF0F
:103A70008091E80085FF19C080910C01811118C068
:103A800050E040E068E070E0CE0101960E944F1CDB
:103A90008091E8008E778093E80080E2FE01A3E742
:103AA000B2E001900D928A95E1F7DF91CF910895F0
:103AB00070E050E040E0CE01E9CF86E0EAE5F1E0D9
:103AC000DF01982F1D929A95E9F7EEE7F1E0DF010B
:103AD0001D928A95E9F70895CF93C82F0E945D1D26
:103AE000C09340026C2F8DE090E0CF910C94192D83
:103AF000BF92CF92DF92EF92FF920F931F93CF93DB
:103B0000DF938C01FC0183819481892B41F0C0817A
:103B1000D1818C2F8D238F3F11F00C94D825DF910C
:103B2000CF911F910F91FF90EF90DF90CF90BF90BA
:103B30000895C7010E946B0BD82E682FC7010E9401
:103B40008008ED2FF0E02EE0D29EE00DF11D112453
:103B5000EE0FFF1FEE0FFF1FEC0FF11DEE0FFF1F0B
:103B6000EE5CFD4FC591D491C0334AE5D40709F40A
:103B70006AC008F04EC0CE019A558A9708F482C0F8
:103B8000F8018281C73DFCE5DF0709F47BC508F039
:103B900061C4C5314CE5D40708F03DC4C2309CE592
:103BA000D90708F0F3C4C115ECE5DE0709F49AC49F
:103BB000C130DC4509F4C8C491E090938A01909328
:103BC0008B01F801C081D181882309F4BDC5CE01E4
:103BD0000E946B0BF82E682FCE010E948008BE0158
:103BE0008F2D0E944409B82EF82EF80135813295A8
:103BF0003F70228121111092EE01C92FC295CF7022
:103C0000CC3008F0DAC5EC2FF0E0EF56F24D0C9412
:103C1000F12CC1339AE5D90709F0B2CFB80181E39D
:103C20009AE50E94DB0B882309F479CFF8014081E3
:103C300051816281738184810E940309882309F480
:103C40006ECF81E014C0B80180E39AE50E94DB0BDF
:103C5000882309F464CFF801408151816281738126
:103C600084810E940309882309F459CF80E0DF9101
:103C7000CF911F910F91FF90EF90DF90CF90BF9069
:103C80000C946C1DB801CE010E94DB0B882309F453
:103C900046CFF0904002F8014081518162817381EA
:103CA00084810E940309582FFF20A1F0F1E0FF1644
:103CB00081F1C0918401F801408151816281738159
:103CC00084810E940309882309F445C0CF5FC09313
:103CD000840125CFFE01FF27EE57FC4FE491AE2F64
:103CE000A295A695A695A370B0E0882361F0ED019A
:103CF000C65ADE4F88818E2B8883A258BE4FCC9146
:103D0000EC2BEC93D6CFA65ABE4FE095CC91EC238A
:103D1000F8CF8C2F67E00E94D12C492F90E066E00D
:103D200070E0641B710921E030E001C0220F6A9548
:103D3000EAF7FC01E65AFE4F4081552349F0422B39
:103D40004083FC01E258FE4F8081282B2083B1CFB5
:103D500020952423FBCFC1501C160CF4B8CF109231
:103D6000840180917D01882341F010927D01809132
:103D70007C010E94E2050E94BD0E80917801909125
:103D80007901A0917A01B0917B018F309105A10555
:103D9000B10579F484EE93E09F938F930E943A04E7
:103DA0008091770191E08927809377010F900F90A0
:103DB0002AC083309105A105F0E3BF07B1F584ED7A
:103DC00093E09F938F930E943A04809176010F9025
:103DD0000F90823041F0109275018093740182E05F
:103DE0008093760110C0809174018093760100E683
:103DF00011E0D0E0C0E0809175018C171D0609F03C
:103E00006CF40E9497180E949718109278011092F3
:103E1000790110927A0110927B0138C0F8018191EA
:103E20008F010E94C6102196E6CF83339105A1052C
:103E3000B10551F482EC93E09F938F930E943A0472
:103E400081E00E949D0FB2CF2091760181309105D3
:103E5000A105B10539F4211102C081E0C1CF109252
:103E60007601D1CF2130E9F480FF33C01092780180
:103E70001092790110927A0110927B018091400298
:103E8000882309F4A9C2813009F4B5C2DF91CF912A
:103E90001F910F91FF90EF90DF90CF90BF900C9407
:103EA0005D1D223051F0AC01BD01437055276627DE
:103EB0007727452B462B472B79F080FF0AC0F1E08E
:103EC0008F278093780190937901A0937A01B09322
:103ED0007B010E944A1297CF2111C8CF2091770110
:103EE000222321F290FF0DC021E0922780937801D8
:103EF00090937901A0937A01B0937B0184E10E94B1
:103F0000D2118091780190917901A0917A01B091BC
:103F10007B0191FF0DC042E094278093780190933C
:103F20007901A0937A01B0937B0184E00E94D211C1
:103F30008091780190917901A0917A01B0917B01F3
:103F400092FF0DC0E4E09E27809378019093790161
:103F5000A0937A01B0937B018AE10E94D2118091F3
:103F6000780190917901A0917A01B0917B0194FF41
:103F70000DC0F0E19F278093780190937901A09381
:103F80007A01B0937B0188E00E94D2118091780180
:103F900090917901A0917A01B0917B0196FF0DC0BB
:103FA00020E492278093780190937901A0937A017D
:103FB000B0937B0185E10E94D211809178019091AC
:103FC0007901A0917A01B0917B0193FF0DC048E087
:103FD00094278093780190937901A0937A01B0930C
:103FE0007B0186E10E94D211809178019091790144
:103FF000A0917A01B0917B0195FF0DC0E0E29E2770
:104000008093780190937901A0937A01B0937B011A
:1040100087E00E94D2118091780190917901A0915E
:104020007A01B0917B0197FF0CC090588093780182
:1040300090937901A0937A01B0937B0189E00E946B
:10404000D2118091780190917901A0917A01B0917B
:104050007B0182FF0DC024E082278093780190933A
:104060007901A0937A01B0937B0187E10E94D2117C
:104070008091780190917901A0917A01B0917B01B2
:1040800083FF0DC048E084278093780190937901E5
:10409000A0937A01B0937B018AE00E94D2118091B3
:1040A000780190917901A0917A01B0917B01A0FFF4
:1040B0000DC0E1E0AE278093780190937901A09341
:1040C0007A01B0937B0186E00E94D2118091780141
:1040D00090917901A0917A01B0917B01A1FF0DC06F
:1040E000F2E0AF278093780190937901A0937A0151
:1040F000B0937B0189E10E94D21180917801909167
:104100007901A0917A01B0917B01A2FF0DC024E05A
:10411000A2278093780190937901A0937A01B093BC
:104120007B0181E10E94D211809178019091790107
:10413000A0917A01B0917B01A3FF0DC048E0A427B4
:104140008093780190937901A0937A01B0937B01D9
:1041500080E10E94D2118091780190917901A09123
:104160007A01B0917B0184FF0DC0E0E18E2780933E
:10417000780190937901A0937A01B0937B018CE14F
:104180000E94D2118091780190917901A0917A01D9
:10419000B0917B0185FF0DC0F0E28F2780937801FD
:1041A00090937901A0937A01B0937B018BE00E94F8
:1041B000D2118091780190917901A0917A01B0910A
:1041C0007B01A4FF0DC020E1A2278093780190938A
:1041D0007901A0937A01B0937B0188E10E94D2110A
:1041E0008091780190917901A0917A01B0917B0141
:1041F000A6FF0DC040E4A427809378019093790135
:10420000A0937A01B0937B018CE00E94D21180913F
:10421000780190917901A0917A01B0917B01B0FF72
:104220000DC0E1E0BE278093780190937901A093BF
:104230007A01B0937B0182E10E94D21180917801D2
:1042400090917901A0917A01B0917B01B2FF0DC0EC
:10425000F4E0BF278093780190937901A0937A01CD
:10426000B0937B0183E10E94D211809178019091FB
:104270007901A0917A01B0917B01B4FF0DC020E1DA
:10428000B2278093780190937901A0937A01B0933B
:104290007B018FE20E94D211809178019091790187
:1042A000A0917A01B0917B01A5FF0DC040E2A42747
:1042B0008093780190937901A0937A01B0937B0168
:1042C0008DE00E94D2118091780190917901A091A6
:1042D0007A01B0917B01A7FF0CC0A05880937801B0
:1042E00090937901A0937A01B0937B018EE00E94B4
:1042F000D2118091780190917901A0917A01B091C9
:104300007B01B1FF0DC0F2E0BF278093780190934D
:104310007901A0937A01B0937B018FE00E94D211C2
:104320008091780190917901A0917A01B0917B01FF
:10433000B3FF0DC028E0B2278093780190937901F4
:10434000A0937A01B0937B0183E30E94D211809104
:10435000780190917901A0917A01B0917B01B5FF2C
:104360000DC040E2B4278093780190937901A09327
:104370007A01B0937B0186E30E94D211809178018B
:1043800090917901A0917A01B0917B0186FF0DC0D7
:10439000E0E48E278093780190937901A0937A01CD
:1043A000B0937B018EE10E94D211809178019091AF
:1043B0007901A0917A01B0917B0187FF24CD8058CB
:1043C0008093780190937901A0937A01B0937B0157
:1043D0008EE10E94D21117CDCEE7D1E002E811E0C4
:1043E000899181110E9488100C171D07C9F780E080
:1043F0000E9488104BCD80917E01806880937E0161
:10440000CEE7D1E004E811E089910E9488100C17F2
:104410001D07D1F73BCDC631DC4509F0CDCB882354
:1044200009F488C18091EF018A7A91E009F490E063
:104430009093850181117CC189E20E942408DF915B
:10444000CF911F910F91FF90EF90DF90CF90BF9091
:104450000C94D507CC3D4CE5D40709F48AC058F537
:10446000C83DECE5DE0709F442C1C93DDC4509F071
:10447000A3CB81113EC180918B01811157C18091E5
:104480008801909189010E940F07883C910508F0EE
:104490004DC180E20E94B60888E20E94C61088E200
:1044A000DF91CF911F910F91FF90EF90DF90CF9010
:1044B000BF900C94C80FCD3D2CE5D20709F45FC026
:1044C000CE3DDC4509F078CB882309F428CBDF9179
:1044D000CF911F910F91FF90EF90DF90CF90BF9001
:1044E0000C944518882309F41ACB0E9497188FEF73
:1044F00094E3ECE081509040E040E1F700C0000020
:1045000081E08093E00080E28093D8001092C9009F
:104510008FE19EE40197F1F700C0000087E090EB87
:10452000DC0180939F029093A002A093A102B0931C
:10453000A20288E19CE00FB6F894A89580936000F1
:104540000FBE90936000FFCF882309F4E8CA8091E2
:104550005E02816080935E0285EF93E0DF91CF91F0
:104560001F910F91FF90EF90DF90CF90BF900C9430
:10457000A103882309F4D3CA10926D02D0CA8823FC
:1045800009F4CDCA82E080936D02C9CA882309F478
:1045900018CB0E943A18811102C00E94451884E08D
:1045A00090E00E940B2D90E0909342028093410294
:1045B000FE01E350FC45809141028160E231F1054A
:1045C00038F4E356F24D0C94F12C80914102826054
:1045D000809341026091410284E090E00E94192D95
:1045E000DF91CF911F910F91FF90EF90DF90CF90CF
:1045F000BF900C949718809141028460E9CF80911C
:1046000041028860E5CF809141028061E1CF8091D5
:1046100041028062DDCF809141028064D9CF8091D8
:1046200041028068D5CF809141028C60D1CF8091CA
:1046300041028E7FCDCF809141028D7FC9CF809185
:1046400041028B7FC5CF80914102877FC1CF80918E
:1046500041028F7EBDCF809141028F7DB9CF809185
:1046600041028F7BB5CF809141028F77B1CF80918E
:104670004102837FADCF90914102892F97FB87F94B
:104680008058A6CF8823A1F010928A010E94390792
:10469000909387018093860182E0DF91CF911F91F3
:1046A0000F91FF90EF90DF90CF90BF900C94C108D6
:1046B00080918A0181110FC08091860190918701BC
:1046C0000E940F07883C910530F486E20E94C610D4
:1046D00086E20E94C80F82E0DF91CF911F910F9177
:1046E000FF90EF90DF90CF90BF900C94B608882396
:1046F00051F010928B010E943907909389018093A9
:10470000880180E2CACF80918B0181110FC0809116
:104710008801909189010E940F07883C910530F42F
:1047200087E20E94C61087E20E94C80F80E2D4CFC1
:1047300085E383CE80918501811104C089E20E94C6
:10474000F9077DCE85E3FBCFCE010E945908F82EF4
:1047500046CAD92FDF70907F11F0D295D07F2223E7
:10476000C9F0DD2369F080E28B0D883010F0F11084
:104770000BC08091EF01D82BD093EF010E94D50799
:104780008B2D0E94C61019C08091EE01D82BD093BA
:10479000EE01F4CF8B2D0E94C80FDD2371F0D09570
:1047A00080E28B0D883010F0F1101BC08091EF017A
:1047B000D823D093EF010E94D507C83039F008F410
:1047C000AEC9CA50CF70C23008F0A9C9DF91CF91ED
:1047D0001F910F91FF90EF90DF90CF90BF900C94BE
:1047E000F7088091EE01D823D093EE01E4CF892F12
:1047F0008F70907F903211F08295807FF1E0FF12F0
:104800000CC0222329F03330C0F60E94C108D5CF56
:10481000323098F60E94B608D0CF222319F0332305
:10482000A1F3AECF3323B1F38B2D0E94C80FC5CFB8
:10483000892F86958695837061F0813009F0BDCF10
:104840008B2D9370211102C090E080E00E94CB0874
:10485000B4CF8B2D9370211102C090E080E00E94B4
:10486000E108ABCF8B2D222309F1853F99F0863FDC
:10487000B9F0843F49F480918C0190918D01816061
:1048800090938D0180938C018B2D0E94A7060E942E
:10489000BD0E93CF80918C0190918D018260F0CFFD
:1048A00080918C0190918D018460EACF853F89F0E1
:1048B000863FA9F0843F49F480918C0190918D014D
:1048C0008E7F90938D0180938C018B2D0E94E20549
:1048D000DECF80918C0190918D018D7FF2CF809100
:1048E0008C0190918D018B7FECCF892F837009F023
:1048F0006EC0211162CF8B2D829586958770880FAF
:10490000880F6B2D6F70C62ED12CF12CE12C082E48
:1049100004C0CC0CDD1CEE1CFF1C0A94D2F740E056
:1049200050E0BA01B4FE0FC04FE050E060E070E02C
:1049300004C0440F551F661F771F8A95D2F7409514
:104940005095609570959695969593700091F001AD
:104950001091F1012091F2013091F3019230D9F0E0
:1049600028F5913069F04C295D296E297F29CB010A
:10497000BA0160237123822393230E94BE0F1DCFAF
:10498000C02AD12AE22AF32ACB01BA016C297D2957
:104990008E299F29F2CF4C295D296E297F29CB01D1
:1049A000BA016027712782279327E7CFCB01BA018D
:1049B00060237123822393230E94BE0F6091F00134
:1049C0007091F1018091F2019091F301DFCF869512
:1049D000222311F0892F8170882309F4EECE8B2DCC
:1049E000829586958770880F880F6B2D6F70C62E05
:1049F000D12CF12CE12C082E04C0CC0CDD1CEE1CBB
:104A0000FF1C0A94D2F740E050E0BA01B4FE0FC098
:104A10004FE050E060E070E004C0440F551F661F97
:104A2000771F8A95D2F74095509560957095969529
:104A3000969593700091E9011091EA012091EB01A4
:104A40003091EC019230D9F028F5913069F04C2981
:104A50005D296E297F29CB01BA016023712382234E
:104A600093230E94700FA9CEC02AD12AE22AF32AEA
:104A7000CB01BA016C297D298E299F29F2CF4C29BF
:104A80005D296E297F29CB01BA0160277127822712
:104A90009327E7CFCB01BA016023712382239323AD
:104AA0000E94700F6091E9017091EA018091EB0121
:104AB0009091EC01DFCF8B2D40EFF416B1F14F1543
:104AC00058F0E0EEFE1618F5222309F45FC031110C
:104AD00057CE892F8F714CC0F2EFFF1609F44BC0EF
:104AE000FF1608F441C043EFF412EECF222309F47D
:104AF00049C0292F2F7161E070E080E090E004C090
:104B0000660F771F881F991F2A95D2F7AACFDB2D32
:104B1000DF70892F8F71222321F00E949D0F8D2F2E
:104B200074CE0E947A0F8D2F75CE2223C9F03230B9
:104B300008F043CE292F2F7161E070E080E090E013
:104B400004C0660F771F881F991F2A95D2F700911E
:104B5000E9011091EA012091EB013091EC0195CF30
:104B6000333008F02ACEE6CF892F8F71222339F017
:104B70000E949D0F22CE892F8F712223C9F30E949C
:104B80007A0F1BCE60E070E0CB016BCF332369F06E
:104B9000893309F049CE8FEF97EEE3E081509040E2
:104BA000E040E1F700C000003FCE892F8F71E7CFD2
:104BB000E080F180828181110C94991DC7010E94CF
:104BC0005908D82E0C94A11D1F93CF93DF93809189
:104BD0009301807FC1F4809190018823A1F080919E
:104BE000C501C091940160918E0170918F01409137
:104BF000910150919201D62FD723DA01A095B0955B
:104C000016E0C81304C0DF91CF911F91089590E082
:104C10004115510511F0DF3F31F401968770F1CF56
:104C20002A0F3B1F17C0189FF001199FF00D112488
:104C3000EB56FE4F21812713F0CF20812613EDCFB5
:104C400022812111EACF238134812417350740F3D3
:104C5000241B350B283C310500F7209193012F7060
:104C600020612093930126E0289FF001299FF00DF9
:104C70001124E656FE4F80818F70806180838EE81C
:104C800091E00E94781DDF91CF911F910C94AC08A8
:104C9000BF92CF92DF92EF92FF920F931F93CF9329
:104CA000DF93CDB7DEB761970FB6F894DEBF0FBEC6
:104CB000CDBF8C0185E0F801DE011D9601900D92BB
:104CC0008A95E1F7D8012C9111963C911197129693
:104CD000EC9012978091910190919201009709F4C4
:104CE00063C140918E0150918F01642F65236F3F06
:104CF00009F45AC11396CD90DC90B0909001BB207E
:104D000009F413C1C816D906C0F1F601E81BF90B66
:104D1000CF01FF24F394883C910508F0F12C809199
:104D20009301982F907FFF2009F4C1C091117DC09D
:104D3000FE2C531327C0421325C0E11023C08F70EF
:104D40008061809393018EE891E00E94781D8091AC
:104D50009301D80115968C938F2D61960FB6F89418
:104D6000DEBF0FBECDBFDF91CF911F910F91FF909E
:104D7000EF90DF90CF90BF900895809590958C0D27
:104D80009D1DC7CFCD2829F0822F83238F3F09F0A7
:104D900029C180E0B82FB170DB2E80FF3CC080912C
:104DA000C5014091940156E0841315C02D873E87BC
:104DB0008D859E850E94AD0B292F22952F70223064
:104DC000F0F0243018F59F70F1F0F8019581907F94
:104DD000D1F4D12C1EC090E0589FF001599FF00DE6
:104DE0001124EB56FE4F6181361306C060812613F5
:104DF00003C06281E6120FC001968770D5CF9F7005
:104E000011F0882331F3805E883018F3C8010E94C6
:104E1000781DFD2CA1CFEE2009F49ECF8091930147
:104E2000816080939301F12C97CF531313C04213E9
:104E300011C0E1100FC0D80115968C93C8010E94D3
:104E4000781D86E0F801AEE8B1E001900D928A95F8
:104E5000E1F782CF2D873E878D859E850E94B70B17
:104E6000882309F1EE20F9F080919301803270F0EF
:104E700020918E0130918F0138872F831986DB8630
:104E8000CA868C87CE0107960E94781D86E0F801BD
:104E9000AEE8B1E001900D928A95E1F70E94E42519
:104EA000FF24F39459CFC8010E94781DF9CF9111C6
:104EB0000CC08EE891E00E94781D86E0EEE8F1E0FB
:104EC000DF011D928A95E9F747CF531312C04213B1
:104ED00010C0E1100EC0F8018583C8010E94781D42
:104EE000EEE8F1E086E0DF011D928A95E9F7FB2C00
:104EF00033CF2D873E878D859E850E94B70B8823F3
:104F000091F2EE2081F280919301803208F4BECFBD
:104F100020918E0130918F013A8329831B82DD829B
:104F2000CC828E83CE010196AFCFC816D90640F051
:104F3000C81AD90AB8ECCB16D10448F0F12CBDCF71
:104F4000809590958C0D9D1D883C9105B8F7FE2CA1
:104F5000EE2009F4A8CF531316C0421314C0809159
:104F6000930180FD6ECF982F907F09F46ACFF801EE
:104F70008583903F09F462CF982F907F905F8F7068
:104F8000892B85835BCF2D873E878D859E850E94EB
:104F9000B70B81117BCF8091930181608093930146
:104FA000C8010E94781DD8CEEE2009F47CCF2D8751
:104FB0003E878D859E850E94B70BF82E882309F4C5
:104FC00072CF86E0F801AEE8B1E001900D928A95CB
:104FD000E1F780918E0190918F010E94AD0B0E94AC
:104FE000E425BACE81E08E25D5CE1F93CF93DF93F3
:104FF000CDB7DEB767970FB6F894DEBF0FBECDBF53
:105000004B8B5C8B6D8B7E8B8F8B1A8A198A85E01C
:10501000FE017396DE011D9601900D928A95E1F7CF
:1050200086E0FE013D96DE01179601900D928A956D
:10503000E1F7CE0107960E944826811112C086E052
:10504000FE013796DE01119601900D928A95E1F7E7
:105050008A859B85892B29F08F81988589238F3FAD
:10506000B1F516E08091C5019091940189131DC09E
:1050700067960FB6F894DEBF0FBECDBFDF91CF911C
:105080001F91089596E0929FD001939FB00D112437
:10509000AB56BE4FFE01319601900D929A95E1F705
:1050A000809394010E94AC08DCCF819FC001112441
:1050B0008B569E4F0E9448268823D1F28091C501CD
:1050C00090E00196877099278093C501CBCF2091FE
:1050D000940130E0C9010196877099274091C5017C
:1050E0004817190679F60E949718109294011092A9
:1050F000C50186E0EEE8F1E0DF011D928A95E9F74F
:10510000B0CF1F920F920FB60F9211242F933F939F
:105110004F935F936F937F938F939F93AF93BF93BF
:10512000EF93FF938091E10082FF15C08091E20030
:1051300082FF11C08091E1008B7F8093E10020917C
:105140006F022F5F822F62E30E94D12C992309F412
:10515000BBC020936F028091DA0080FF28C080914D
:10516000D80080FF24C08091DA008E7F8093DA001F
:105170008091D90080FFDFC080E189BD82E189BDD7
:1051800009B400FEFDCF81E080939E028CE894E09C
:105190000E94A10380917002811109C00E94430402
:1051A0000E9414058091E20084608093E200809167
:1051B000E10080FF1BC08091E20080FF17C080915A
:1051C000E2008E7F8093E2008091E2008061809314
:1051D000E2008091D80080628093D80019BC85E0FD
:1051E00080939E0284E994E00E94A1038091E100F3
:1051F00084FF2FC08091E20084FF2BC080E189BD35
:1052000082E189BD09B400FEFDCF8091D8008F7D79
:105210008093D8008091E1008F7E8093E10080919F
:10522000E2008F7E8093E2008091E20081608093B3
:10523000E20080919502882309F487C084E080937E
:105240009E0288E994E00E94A1030E9497180E94A0
:10525000F7088091E10083FF26C08091E20083FF80
:1052600022C08091E100877F8093E10082E08093FB
:105270009E02109295028091E1008E7F8093E10062
:105280008091E2008E7F8093E2008091E200806155
:105290008093E20042E060E080E00E94E2048CE95A
:1052A00094E00E94A103FF91EF91BF91AF919F9174
:1052B0008F917F916F915F914F913F912F910F90BF
:1052C0000FBE0F901F90189510926F0280916E0282
:1052D000882309F440CF80919E028430B9F49091E4
:1052E000E9009F708091EC0080FD13C080E0892B65
:1052F00092E09093E9009091EB0090FF04C09091B0
:10530000EE0097FD0AC08F708093E90010926E0244
:1053100022CF80E8ECCF1092F1009091E80095FD4B
:10532000FACF9091E80090FFEECF9091E8009E7741
:105330009093E800E8CF19BC10929E0280E994E0B7
:105340000E94A1031092700232CF8091E30087FD8A
:1053500002C081E074CF83E072CFCDB7DEB72F9764
:105360000FB6F894DEBF0FBECDBF84B7877F84BF72
:105370000FB6F894A89580916000886180936000D2
:10538000109260000FBE80E880936100109261006F
:1053900085B7806885BF85B7806885BF0E94430454
:1053A0000E9414058091E20084608093E20085E20F
:1053B00090E1909331018093300178940E94AE186F
:1053C00082E084BD93E095BD9AEF97BD80936E0017
:1053D0000E946E1790E090930101809300010E945B
:1053E000F60D0E94050E82E392E0EAEFF1E046E45A
:1053F00052E0DA011D92AD01DC011D92CD01108257
:105400001182128213823496B2E044355B0789F729
:105410000E943A18811102C00E94451881E00E9442
:105420006C1D3F988AB18F708AB96E98479A8BB17C
:10543000806F8BB9769A0E943A18811102C00E943F
:10544000451882E090E00E940B2D80935E0284E07C
:1054500090E00E940B2D90E09093420280934102D5
:1054600083E090E00E940B2D682F70E090E080E0D8
:105470000E94BE0F0E943A18811102C00E94451876
:105480008DE090E00E940B2D8093400280914102BC
:1054900080688093410282E091E09093440280937F
:1054A000430282E090E09093200180931F0180915D
:1054B0009E02843079F58091210190912201A09182
:1054C0002301B0912401892B8A2B8B2B19F1809118
:1054D00018018F708093E90088E0E8E2F1E0DE01D6
:1054E000119601900D928A95E1F750E040E068E056
:1054F00070E0CE0101960E944F1C50E040E062E057
:1055000070E08FE191E00E944F1C8091E8008E775F
:105510008093E8008BE794E00E94A1034424439425
:10552000512C48E1642E712C80919E02853059F1F6
:105530000E94DD179FE5A92E92E0B92E26E4C22E27
:1055400022E0D22E10E000E00E87D6013D906D01E2
:10555000F50121905F01231063C00F5F1F4F0E30D4
:10556000110591F74FEF49874A871B860E9439073B
:105570008160782F9D878C8749855A856B858D85BD
:105580000E94F52783C087E794E00E94A1038091E1
:105590009E02843011F110924502E0E40FB6F894B7
:1055A000A895609260000FBEE093600083B7817F92
:1055B000846083BF83B7816083BF7894889583B705
:1055C0008E7F83BF0FB6F894A895809160008861A4
:1055D00080936000109260000FBE80919402882337
:1055E00009F4A2CF0E946E1790E09093010180937E
:1055F00000010E94F60D0E94050EE6E4F2E0119211
:1056000022E0E435F207D9F70E94DD17E6E4F2E084
:105610008191811161C142E0E435F407C9F784CF7B
:1056200080915E0281FD82C090E080E0222D2325E2
:1056300030E0B901082E02C0759567950A94E2F72B
:1056400060FFADC089832E852A83720102C0EE0CF3
:10565000FF1C8A95E2F7832D90E08E219F2121E0A7
:10566000892B09F420E02B830E9439078160782F71
:105670009D838C8349815A816B818D810E94F5279E
:10568000F801E15AFD4F8081E826E08280915B02BB
:1056900090915C020E940F079C0190915A029923FD
:1056A00019F02431310578F02091560210915702FB
:1056B000F090580200915902211177C0812F8F2953
:1056C000802B09F01FC10E94F70890915D02891795
:1056D00021F00E94F70880935D0280919E02843041
:1056E00009F0DAC08091210190912201A09123015B
:1056F000B0912401892B8A2B8B2B09F4CDC080918A
:1057000013018F708093E9009091E80092FFC4C06C
:105710009091F3002091F200392F232B09F09CC0C7
:105720008091E8008B778093E800B6C080E694E033
:105730000E94A10386E4882E82E0982EF12CE12CB1
:10574000FF92EF928BE594E09F938F930E943A042F
:1057500088E594E00E94A103F40181914F010E9429
:10576000BD078F8780E00E94BD07FF85FF938F9361
:1057700082E594E09F938F930E943A0480E594E041
:105780000E94A103BFEFEB1AFB0A0FB6F894DEBF2D
:105790000FBECDBFFEE0EF16F10491F645CF0196A6
:1057A0008430910509F045CFD8CE9F3F19F09F5F17
:1057B00090935A02121624F40E9483068093560294
:1057C0008091560287FF05C00E94830681958093D1
:1057D0005602111624F40E9483068093570280918A
:1057E000570287FF05C00E94830681958093570268
:1057F00030915602332379F020915702222359F039
:1058000045EB3403C0011124909356022403900108
:105810001124309357021F1424F40E9461068093D0
:1058200058028091580287FF05C00E946106819549
:1058300080935802101624F40E9461068093590246
:105840008091590287FF05C00E946106819580936F
:1058500059020E94BD0E37CF9091F3002091F200C3
:10586000392F232BC9F090919E029430A9F4809394
:10587000E9008091E80082FF0FC09091F3008091D1
:10588000F200892B11F08091F1009091F30080914A
:10589000F200892B09F444CF80919E028430C9F430
:1058A0008091210190912201A0912301B0912401C6
:1058B000892B8A2B8B2B69F080910E018F7080933E
:1058C000E9008091E80080FF04C08DE091E00E9433
:1058D00091040E94AE1828CE80E189BD92E199BD65
:1058E00009B400FEFDCF8091D8008F7D8093D80051
:1058F0008091E00082608093E0008091E00081FD73
:10590000FCCF12CE9F3F09F052CF63CF78941F9205
:105910001FB61F9211248F939F93AF93BF938091D3
:10592000F4019091F501A091F601B091F701019673
:10593000A11DB11D8093F4019093F501A093F60190
:10594000B093F701BF91AF919F918F911F901FBEB0
:105950001F9018951F921FB61F9211248F939F932B
:10596000AF93BF9380914502811113C08091F401E0
:105970009091F501A091F601B091F7014196A11D1A
:10598000B11D8093F4019093F501A093F601B093BB
:10599000F701BF91AF919F918F911F901FBE1F90F4
:1059A0001895991B79E004C0991F961708F0961B6B
:1059B000881F7A95C9F78095089597FB072E16F4EE
:1059C000009407D077FD09D00E94F72C07FC05D082
:1059D0003EF4909581959F4F0895709561957F4F06
:1059E0000895EE0FFF1F0590F491E02D0994AA1B76
:1059F000BB1B51E107C0AA1FBB1FA617B70710F0BA
:105A0000A61BB70B881F991F5A95A9F780959095EB
:105A1000BC01CD010895F999FECF92BD81BDF89AE0
:105A2000992780B50895A8E1B0E042E050E00C94D9
:105A30003F2D262FF999FECF92BD81BDF89A01978F
:105A400000B4021639F01FBA20BD0FB6F894FA9AC6
:105A5000F99A0FBE08950396272F0E941A2D0E94CF
:105A6000192D252F0E941A2D242F0C941A2D0196E2
:105A7000272F0E941A2D0C94192DDC01CB01FC015B
:105A8000F999FECF06C0F2BDE1BDF89A319600B497
:105A90000D9241505040B8F70895F894FFCFC60BCF
:105AA000C60BCF0BCF0BD10BCF0BCF0BCF0BC60B36
:105AB000C60BD60BCF0BCF0BD60B3B0C570C570C92
:105AC000570C570C570C570C730C810C8F0C9D0CFA
:105AD000AB0CB90CC70CD50CE30CF10CF60B110C8C
