:100000000C9486020C94CD020C94CD020C94CD027B
:100010000C94CD020C94CD020C94CD020C94CD0224
:100020000C94CD020C94CD020C9432290C94CD0288
:100030000C94B82C0C94CD020C94CD020C94CD02EF
:100040000C94CD020C94CD020C94CD020C94CD02F4
:100050000C94CD020C94942C0C94CD020C94CD02F3
:100060000C94CD020C94CD020C94CD020C94CD02D4
:100070000C94CD020C94CD020C94CD020C94CD02C4
:100080000C94CD020C94CD020C94CD020C94CD02B4
:100090000C94CD020C94CD020C94CD020C94CD02A4
:1000A0000C94CD020C94CD020C94CD0241707220C0
:1000B000313220323031390052432030313A20572A
:1000C000696C6672656400000000000000000000BA
:1000D0000000000000000000000000000000000020
:1000E0000000000000000000010101010101000109
:1000F00001010100000000000000000000000000FD
:1001000000010001000101010101010101010101E2
:1001100001010101010101010101010101010101CF
:1001200001010000000101000000000000000000CB
:1001300000000000000000000000000000000000BF
:100140000000010101010000000000000000002A81
:100150002B2800000000000000000000000000004C
:10016000000029000000002C1E3420212224342607
:1001700027252E362D3738271E1F20212223242500
:10018000263333362E37381F0405060708090A0BB5
:100190000C0D0E0F101112131415161718191A1B27
:1001A0001C1D2F3130232D350405060708090A0BC5
:1001B0000C0D0E0F101112131415161718191A1B07
:1001C0001C1D2F3130354C0000165A175A195A0091
:1001D000001A5A1B5A185A00001C5A1D5A235A005A
:1001E000001E5A1F5A00000000205A215A00000029
:1001F00000225A295A000000000000000000000000
:1002000000115A125A105A00000D5A0E5A0F5A0075
:10021000000B5A0C5A015A0000095A0A5A000000F1
:1002200000075A085A00000000005A155A00000042
:100230000000000000000000001C000B0025020070
:100240000018000D004C0000000C000E00105000C3
:100250000012000F00000000001300330000000037
:100260000028003402000000000000000000000030
:100270000017000A0028420000150009002C0000A9
:100280000008000700E20000001A0016000000004D
:10029000001400040000000000E100E00000000085
:1002A00000000000000000000023001100250200F3
:1002B00000240010004C0000002500360210500001
:1002C000002600370200000000270038020000006E
:1002D000002D00E50000000000000000000000000C
:1002E000002200050028000000210019002C000059
:1002F0000020000600E20000001F001B00000000BC
:10030000001E001D0000000000E100E000000000F1
:100310000000000000000000D0D0D0D0D0D00101FB
:100320000204081020414244484800000048485058
:10033000608182848890A0C1C2C4D0D0D0D0D0D0F7
:10034000C8000000000000000000000000000000E5
:100350000000000000000005010906A1018501055B
:100360000719E029E7150025019508750181029517
:100370000175088101050819012905950575019187
:10038000029501750391010507190029FF15002643
:10039000FF00950675088100C005010902A10185CD
:1003A000020901A10005091901290515002501957A
:1003B0000575018102950175038101050109300967
:1003C000311581257F95027508810609381581252B
:1003D0007F950175088106050C0A38021581257F75
:1003E000950175088106C0C005010980A10185033A
:1003F0001601002603001A81002A8300751095015A
:100400008100C0050C0901A1018504160100269C8C
:10041000021A01002A9C02751095018100C0050195
:100420000906A1018505050719E029E71500250141
:1004300095087501810205081901290595057501C1
:1004400091029501750391010507190029EF150027
:10045000250195F075018102C009025F00030100CA
:10046000A0FA0904000001030101000921110100A3
:10047000012202010705810320000A080B01020284
:10048000020100090401000102020100052400101C
:100490000104240202052406010207058203080064
:1004A000FF09040200020A00000007050402100010
:1004B000050705830210000512011001EF02010873
:1004C000EDFE3713010001020301040330000000B8
:1004D0000E03470065006F007200670069000000AE
:1004E000260367002000480065006100760079005F
:1004F000200049006E0064007500730074007200F3
:1005000069006500730000000403090411241FBE84
:10051000CFEFDAE0DEBFCDBF04B603FE27C0809187
:10052000A5039091A603A091A703B091A8038730DB
:10053000904BA740B04BD1F41092A5031092A603A4
:100540001092A7031092A80314BE84B7877F84BFBC
:100550000FB6F894A8958091600088618093600040
:10056000109260000FBEE0E0F8E3099511E0A0E012
:10057000B1E0EAE7FBE502C005900D92A033B107B8
:10058000D9F723E0A0E3B1E001C01D92A53AB2077C
:10059000E1F70E94082A0C945B2D0C940000E8ED12
:1005A000F0E080818E7F80831092E2001092DA006A
:1005B0001092E100A0EEB0E08C9181608C9380817C
:1005C0008F77808319BCA7EDB0E08C918E7F8C93E0
:1005D00080818F7E80831092760308952091E400BD
:1005E0003091E50095E6A9012091EC00822F817001
:1005F00020FF06C08091E80080FF06C080E00895DB
:100600002091E80022FD1AC08091A403882389F07C
:10061000853089F08091EB0085FD0FC02091E400CA
:100620003091E50042175307F9F29150E1F684E06A
:10063000089582E0089583E0089581E0089580910F
:10064000A403843061F58091210190912201A09151
:100650002301B0912401892B8A2B8B2B01F18091EE
:100660000E018F708093E9009091F3008091F20069
:10067000892B11F480E008959091E8008091E800C2
:100680008E778093E80095FDF5CF0E94EE028111F0
:1006900007C09091E8009E779093E800089582E06B
:1006A000089580919C0387FF13C08091E80082FF2A
:1006B00006C08091E8008B778093E80004C08091A9
:1006C000A4038111F2CF08958091A4038823D9F364
:1006D0008091E80080FFF8CF8091E8008E77ECCF22
:1006E000982F9093E900242F762F50E0891731F04E
:1006F0007091EC002091ED005091F00021FD07C0B9
:100700009F5F973071F78093E90081E00895309101
:10071000EB003E7F3093EB003091ED003D7F309356
:10072000ED003091EB0031603093EB007093EC0002
:100730002093ED005093F0002091EE0027FDE0CFD4
:1007400080E00895CF92DF92EF92FF920F931F9374
:10075000CF93DF93C8EDD0E088818F7E8883E7ED6B
:10076000F0E080818160808384E082BF81E08093BB
:10077000760388818E7F888302EE10E0F801108274
:100780001092DA0081EEC82ED12CF60110828881F9
:100790008F77888388818068888388818F7D88832C
:1007A00019BC1092A40310929B0310929A0310920A
:1007B000990390EEE92EF12CF70180818B7F8083E5
:1007C00088818160888342E060E080E00E9470035D
:1007D000F60180818E7F8083F80180818160808333
:1007E000808188608083F70180818E7F808388810B
:1007F00080618883DF91CF911F910F91FF90EF90DF
:10080000DF90CF900895FC018091A2039091A30303
:1008100086179707A0F06115710529F49091E800FB
:100820009E779093E80090E06115710551F4911165
:1008300008C08091E80082FF34C080E00895BC01C8
:10084000F2CF8091A4038823C1F18530C1F180915A
:10085000E80083FD30C08091E80082FDEACF8091FE
:10086000E80080FFE1CF8091F3002091F200382F63
:100870006115710519F02830310558F091E02830E4
:10088000310509F090E02091E8002E772093E800F0
:10089000CBCF81918093F100615071092F5F3F4F61
:1008A000E7CF8091A403882341F0853041F0809107
:1008B000E80083FFBECF81E0089582E0089583E0E1
:1008C000089580917503811107C08091A40384303D
:1008D00011F482E0089581E00895809178030895ED
:1008E00090915E03803F41F480915F0387FD1092F9
:1008F0005F03992371F00895813F29F480915F038C
:100900001816ACF3F6CF823F81F497FFF2CF109226
:100910005E0380915F0390916003892B9091610346
:10092000892B49F7109262030895833F19F4191631
:1009300074F3DFCF893F39F4809160031816CCF649
:1009400010926003D6CF8A3F29F48091600387FF1D
:10095000D0CFF6CF8B3F39F48091610387FFC9CFA9
:1009600010926103C6CF8C3F29F480916103181661
:10097000BCF3BFCF843F31F480915D038E7F8093C1
:100980005D03B7CF853F21F480915D038D7FF7CF65
:10099000863F21F480915D038B7FF1CF873F21F467
:1009A00080915D03877FEBCF883F21F480915D03C9
:1009B0008F7EE5CF8D3F31F4809101038E7F809350
:1009C000010397CF8E3F21F4809101038D7FF7CFF4
:1009D0008F3F09F08ECF809101038B7FF0CF809104
:1009E000010380FD16C081FD16C082FD16C08091F6
:1009F00062038823A1F0883280F428E0829FC0013E
:100A0000112468E270E00E94EB2C862F672B39F0EE
:100A1000089582E0089584E0089588E0089581E0D3
:100A200008958091010380FD16C081FD16C082FDEE
:100A300018C080916203882391F08C3390F423E2F4
:100A4000829FC00111246CE370E00E94EB2C862F82
:100A5000672B49F0089588E0089581E1089585E0C5
:100A6000089583E2089581E00895803F31F40E9463
:100A70001105819580935F030895813F19F40E94C9
:100A80001105F8CF823F31F40E94110581958093C2
:100A90005E030895833F19F40E941105F8CF893F42
:100AA00029F40E94EF048093600308958A3F21F4A3
:100AB0000E94EF048195F7CF8B3F31F40E94EF0441
:100AC00081958093610308958C3F19F40E94EF048F
:100AD000F8CF843F31F480915D03816080935D03A2
:100AE0000895853F21F480915D038260F7CF863FB2
:100AF00021F480915D038460F1CF873F21F48091E0
:100B00005D038860EBCF883F21F480915D038061B5
:100B1000E5CF8D3F31F48091010381608093010323
:100B200008958E3F21F4809101038260F7CF8F3FBB
:100B3000B9F7809101038460F1CFCF92DF92EF92F9
:100B4000FF920F931F932FB7F8944091FD0250919D
:100B5000FE026091FF02709100032FBF6A017B01CA
:100B6000EE24FF248C0130E020E0C016D106E2061E
:100B7000F30650F0481B590BCA011F910F91FF90CB
:100B8000EF90DF90CF90089541505109F3CF2FB7E8
:100B9000F8948091FD029091FE02A091FF02B09125
:100BA00000032FBF08950F931F93CF93DF93C82F98
:100BB0001092BC0084EA8093BC000E94C7058C019F
:100BC0008091BC0087FF27C08091B900887F883062
:100BD00029F08091B900887F803199F5C093BB00DE
:100BE00084E88093BC000E94C705EC018091BC00A2
:100BF00087FF1FC02091B900287F90E080E0283156
:100C000099F081E090E0203411F490E080E091953B
:100C10008195910909C00E94C705801B910B883EF0
:100C2000934070F28EEF9FEFDF91CF911F910F9164
:100C300008950E94C7058C1B9D0B883E9340B0F21F
:100C4000F1CF8FEF9FEFF0CFCF93DF938093BB0077
:100C500084E88093BC000E94C705EC018091BC0031
:100C600087FF0FC02091B900287F81E090E02832F3
:100C700011F490E080E0919581959109DF91CF91F9
:100C800008950E94C7058C1B9D0B883E934030F34E
:100C90008EEF9FEFF3CFE0914B03F0914C03309731
:100CA00049F082E080935C030480F581E02D8CE5BF
:100CB00093E009950E94C7059093640380936303B2
:100CC00008958091F8029091F702892B9091F60295
:100CD000892B80933101E0914B03F0914C033097C5
:100CE00099F080910C01882369F08091490387FF76
:100CF00009C085E0809330010280F381E02D80E31C
:100D000091E0099481E0F6CF089590910C01992328
:100D1000D1F09091490397FF16C0E82FE695E6952C
:100D2000E695EE31E0F4F0E0E05DFE4F282F27700D
:100D300081E090E001C0880F2A95EAF780959281C2
:100D4000892382830895E3E3F1E09191891303C03D
:100D5000DF0111971C9291E0E933F907B1F708958B
:100D600090910C019923C1F09091490397FF14C011
:100D7000E82FE695E695E695EE31F8F4F0E0E05DD3
:100D8000FE4F877021E030E001C0220F8A95EAF71C
:100D90008281822B82830895A3E3B1E0EFEF90E09C
:100DA0002D91821751F0EF3F19F4211101C0E92F65
:100DB0009F5F9630A9F7EF3F09F408950E2E000CBF
:100DC000FF0BE05DFE4F83830895990F990F890F04
:100DD000982F977086958695869525E0829FF001DD
:100DE0001124E153FD4F50E040E080E0219130E0DC
:100DF000092E02C0369527950A94E2F72170332711
:100E0000042E01C0220F0A94EAF7822B4F5F5F4F36
:100E10004530510559F70895990F990F890F982F6B
:100E2000977041E001C0440F9A95EAF78695869540
:100E3000869595E0899FF0011124E153FD4F30E044
:100E400020E070E05191DF011197CB01022E02C02A
:100E5000969587950A94E2F781708195852784237A
:100E600085278C932F5F3F4F2530310559F7089523
:100E70008091CE0290919D02981301C008958F5FDA
:100E80008770FACF882341F080959091F8028923EA
:100E90008093F8020C9461060895882339F09091AC
:100EA000F802982B9093F8020C9461060895209113
:100EB000DD013091DE012817390771F09093DE01D2
:100EC0008093DD01E0914B03F0914C03309721F0CA
:100ED0000084F185E02D099408952091DB01309183
:100EE000DC012817390771F09093DC018093DB0156
:100EF000E0914B03F0914C03309721F00680F7818D
:100F0000E02D099408951092F7021092F6020E94C3
:100F1000610686E0ECE5F3E0DF011D928A95E9F7D2
:100F200010926203109201030E944B0690E080E051
:100F30000E946D0790E080E00C9457076093F202E6
:100F40007093F3028093F4029093F5020C9483075C
:100F50000F931F9341E050E060E070E004C0440F45
:100F6000551F661F771F8A95D2F7CB01BA0160958E
:100F70007095809590950091F2021091F302209166
:100F8000F4023091F50260237123822393231F9191
:100F90000F910C949E070F931F9341E050E060E087
:100FA00070E004C0440F551F661F771F8A95D2F763
:100FB0008091F2029091F302A091F402B091F502B7
:100FC0008A019B01082B192B2A2B3B2BC901B80145
:100FD0001F910F910C949E076093F9027093FA028F
:100FE0008093FB029093FC020C948307E0914B03E7
:100FF000F0914C03309721F00190F081E02D09949D
:1010000080E00895882309F459C0823871F40E9461
:10101000F60781FF53C089E30E94B0060E94610673
:1010200089E30E9485060C946106833859F40E9476
:10103000F60780FF43C083E50E94B0060E94610668
:1010400083E5EFCF843859F40E94F60782FF36C05B
:1010500087E40E94B0060E94610687E4E2CF9CEF1D
:10106000980F913AF0F290E2980F983088F48770D8
:1010700021E030E0A90102C0440F551F8A95E2F734
:10108000CA0180959091F80289238093F802CBCF12
:101090009BE5980F933020F490E080E00C946D076E
:1010A00098E5980F973120F490E080E00C94570772
:1010B000803F20F00E9470040C944B060895CF935B
:1010C000DF9300D000D00F92CDB7DEB76B837C8367
:1010D0008D838C819D81892B21F0CA0189238F3FCB
:1010E00051F480E081700F900F900F900F900F904F
:1010F000DF91CF9108958B81F5CF9091490392FFB5
:1011000006C0282F2871283069F4877F846093FFF8
:1011100006C0282F2871283161F4877E846194FDF0
:10112000877E0895282F2471243089F78B7F88606B
:10113000EECF282F2471243191F78B7E8861EFCF79
:10114000CF93DF932EE0829FC0011124FC01E70FB3
:10115000F11DEE0FFF1FEE0FFF1FE60FF11DEE0F4B
:10116000FF1FE953FE4FC591D491CE01C238D1057E
:10117000B9F108F03EC0C133D10509F482C048F589
:10118000C932D10509F476C0CA32D10509F480C04C
:10119000C11530E5D30708F0AFC0C11540E4D4074E
:1011A00008F0A9C1C83ED10508F08AC0C03ED105EB
:1011B000E8F4C83AD10508F072C0C53AD10508F084
:1011C000F6C0C130D10591F0209729F1249770F431
:1011D00022C0C533D10509F446C0C933D105C1F6D3
:1011E00020914903237011F080EE90E0DF91CF91C0
:1011F0000895C33ED10539F188F4C03ED105E1F030
:10120000C23ED10529F62091490322FFEFCF83EE9C
:1012100090E024FFEBCF90E080E0E8CFC63ED10520
:10122000C9F0C73ED10509F0B3CF2091490323FF90
:101230000EC086EE90E0DACF2091490320FFD6CF92
:1012400089E390E0D3CF2091490322FD9DC124FF83
:10125000CDCFE1CF2091490323FFC8CF87EE90E0A7
:1012600024FDD9CFC3CF2091490325FFBFCF89E209
:1012700090E0BCCF2091490325FFB8CF85E390E0F3
:10128000B5CF2091490326FFB1CF8AE290E0AECFDF
:101290002091490326FFAACF81E390E0A7CFCF3B5F
:1012A000D10508F493C0C03CD10508F4B4CFCE01F9
:1012B000880F991F895B9F4FFC018591949196CF70
:1012C000C11550E2D50760F4C11521E0D20708F03E
:1012D0008DCFCE019065C03FD10508F087CF9BCF61
:1012E000C11530E3D30708F0FEC0FE01FF70EE0F1A
:1012F000FF1FE953FE4FE1CFC11545E5D40748F57F
:10130000C11554E5D50708F027C1C11582E5D807F6
:1013100050F4C11521E5D20708F4F1C09C2F8827AD
:10132000816F906A63CF2C2F26952695AE0143706E
:101330005527C115D34508F000C181E090E002C0F7
:10134000880F991F4A95E2F750E2259F90011124DA
:10135000F0C0C11549E5D407A0F4C11558E5D5077B
:1013600008F0FFC0C11586E5D80708F054CF8C2FD0
:101370000E947D0890E0982F882788279F719062AF
:1013800035CFC1152AE5D20708F4F0C0CE0190563A
:101390008115904208F03FCF8D2F8F710E947D08FC
:1013A00090E0982F882788279F718C2BE8CF81E8C1
:1013B00090E4C53AD10509F419CF82E890E4C63A21
:1013C000D10509F413CF83E890E410CF82EE94E4C2
:1013D000C83AD10509F40ACF89EE94E4C93AD10597
:1013E00009F404CF8AEE94E4CA3AD10509F4FECE9A
:1013F00085EB94E4CB3AD10509F4F8CE86EB94E47E
:10140000CC3AD10509F4F2CE83EB94E4CB3BD10581
:1014100009F4ECCE84EB94E4CC3BD10509F4E6CEA0
:1014200087EB94E4CD3AD10509F4E0CE8CEC94E45A
:10143000C03BD10509F4DACE8DEC94E4CE3AD10567
:1014400009F4D4CE83E895E4CF3AD10509F4CECEA1
:101450008AE895E4C13BD10509F4C8CE82E995E458
:10146000C23BD10509F4C2CE84E995E4C33BD10562
:1014700009F4BCCE81E296E4C43BD10509F4B6CEB2
:1014800083E296E4C53BD10509F4B0CE84E296E44C
:10149000C63BD10509F4AACE85E296E4C73BD10547
:1014A00009F4A4CE86E296E4C83BD10509F49ECEA9
:1014B00087E296E4C93BD10509F498CE8FE694E41F
:1014C000CD3BD10509F492CE80E794E4CE3BD10523
:1014D00009F48CCE80E094E4CA3BD10509F086CEB5
:1014E0008AE296E483CECE019927D3FF02C0986C9E
:1014F0007DCE906C7BCECE019F70906A77CE9E01A0
:10150000E4E036952795EA95E1F723708C2F8695D0
:101510008695837040E2849FC0011124AC01522B58
:101520009A01C37081E090E002C0880F991FCA95AC
:10153000E2F7822B932B9C6859CE81E090E002C0A9
:10154000880F991F4A95E2F740E2249F90011124E9
:10155000822B932B9A684ACE9C2F8827846F906A9F
:1015600045CE9C2F8827806F906A40CE8C2F8F703D
:101570000E947D0834E0D695C7953A95E1F7CF7083
:101580008F70806E9C2FB9CF82EE90E02FCEBF92ED
:10159000CF92DF92EF92FF920F931F93CF93DF933F
:1015A0008C01C090F202D090F302E090F402F0902F
:1015B000F5028091F9029091FA02A091FB02B0919C
:1015C000FC02C82AD92AEA2AFB2ACFE1D0E0BC2EA5
:1015D000D701C6010C2E04C0B695A795979587959F
:1015E0000A94D2F780FD0EC0219788F7B12C8B2D7D
:1015F000DF91CF911F910F91FF90EF90DF90CF90EF
:10160000BF900895B8018C2F0E94A008019761F344
:10161000EECFCF93DF93EC010E94C70ABE01DF91AA
:10162000CF910C94A0080E94090B292F2F7092953E
:101630009F7092509E3078F4E92FF0E0E35AF24D1B
:101640000C94FF2C803F19F020F4803E20F481E0C0
:101650000895843FE1F380E00895803EC0F3813F28
:10166000D1F7F5CF822F869586958695089560935C
:10167000D5017093D6018093D7019093D8018091C2
:101680006602909167029093D4018093D301E5EEB6
:10169000F1E0A3E5B1E041915191619171914D93D8
:1016A0005D936D937D9382E0E536F807A1F7089589
:1016B0000F931F93CF93DF93EC018B01FB0182818A
:1016C000882309F44EC00E94C7059093520180936D
:1016D000510181E080936802F8019281FE01FA5580
:1016E000EA32F10508F0D9C1E559F24D0C94FF2C0E
:1016F0004091810250918202609183027091840234
:10170000992331F1446040938102509382026093A7
:101710008302709384028091660290916702FC01BB
:10172000EE0FFF1FEE0FFF1FEB51FE4F40918102A6
:1017300050918202609183027091840240835183B0
:10174000628373830196909367028093660209C057
:101750004B7F409381025093820260938302709387
:10176000840281E0DF91CF911F910F910895409104
:1017700081025091820260918302709184029923C8
:1017800011F04860C0CF477FE4CF40918102509173
:1017900082026091830270918402992311F040616A
:1017A000B2CF4F7ED6CF409181025091820260919C
:1017B000830270918402992311F04062A4CF4F7D7F
:1017C000C8CF409181025091820260918302709152
:1017D0008402992311F0416096CF4E7FBACF409199
:1017E0008102509182026091830270918402992358
:1017F00011F0426088CF4D7FACCF40918102509173
:1018000082026091830270918402992311F04064F6
:101810007ACF4F7B9ECF409181025091820260919E
:10182000830270918402992311F040686CCF4F7746
:1018300090CF409181025091820260918302709119
:101840008402992311F051605ECF5E7F82CF409178
:1018500081025091820260918302709184029923E7
:1018600011F0526050CF5D7F74CF40918102509152
:1018700082026091830270918402992311F0546076
:1018800042CF5B7F66CF409181025091820260918E
:10189000830270918402992311F0586034CF577FEE
:1018A00058CF4091810250918202609183027091E1
:1018B0008402992311F0506126CF5F7E4ACF409178
:1018C0008102509182026091830270918402992377
:1018D00011F0506218CF5F7D3CCF40918102509152
:1018E00082026091830270918402992311F0506406
:1018F0000ACF5F7B2ECF409181025091820260918E
:10190000830270918402992311F05068FCCE5F77B6
:1019100020CF4091810250918202609183027091A8
:101920008402992311F06160EECE6E7F12CF409158
:101930008102509182026091830270918402992306
:1019400011F06260E0CE6D7F04CF40918102509132
:1019500082026091830270918402992311F0646085
:10196000D2CE6B7FF6CE409181025091820260917F
:10197000830270918402992311F06860C4CE677F5E
:10198000E8CE409181025091820260918302709171
:101990008402992311F06061B6CE6F7EDACE409159
:1019A0008102509182026091830270918402992396
:1019B00011F06062A8CE6F7DCCCE40918102509133
:1019C00082026091830270918402992311F0606415
:1019D0009ACE6F7BBECE409181025091820260917F
:1019E000830270918402992311F060688CCE6F7726
:1019F000B0CE409181025091820260918302709139
:101A00008402992311F071607ECE7E7FA2CE409138
:101A10008102509182026091830270918402992325
:101A200011F0726070CE7D7F94CE40918102509112
:101A300082026091830270918402992311F0746094
:101A400062CE7B7F86CE409181025091820260916E
:101A5000830270918402992311F0786054CE777FCD
:101A600078CE409181025091820260918302709100
:101A70008402992311F0706146CE7F7E6ACE409138
:101A800081025091820260918302709184029923B5
:101A900011F0706238CE7F7D5CCE992309F461CE5F
:101AA0003ACECF93C82F873050F5809100019091A6
:101AB0000101892B11F580E40E94D3059093010167
:101AC00080930001892BB1F482E10E942406909357
:101AD000010180930001892B69F481E090E001C04D
:101AE000880FCA95EAF780950E9424069093010119
:101AF0008093000184E98093BC00CF9108958A30DF
:101B0000B1F038F4883069F0893071F0209A289863
:101B1000F4CF8C3091F070F08D30C1F73E9A46983A
:101B2000ECCF219A2998E9CF229A2A98E6CF239AD6
:101B30002B98E3CF529A5A98E0CF539A5B98DDCF17
:101B400084B1807F84B985B1807F85B93E984698FD
:101B50008AB1837F8AB98BB1837F8BB9089580B3B3
:101B60008D7880BB81B3826781BB0895CF92DF926D
:101B7000EF92FF920F931F93CF93DF93C82F87307D
:101B800008F090C08091000190910101892B09F02B
:101B900094C080E40E94D3059093010180930001DA
:101BA000892B09F44BC090E084E98093BC002C2F72
:101BB00030E0F901E65CFC4FA081A9279083F90190
:101BC000EE0FFF1FEE0FFF1FEE5FFC4F70E060E0B7
:101BD00040E0C1E0D0E0CA2ED12C55E0162F819113
:101BE000882309F46CC07F01A1E0EA1AF108815052
:101BF000D7018C93D60102C0B595A7951A95E2F747
:101C0000A0FF05C08F0101501109D8015C936F5FDF
:101C10007F4F6430710511F7225B3C4F842F809514
:101C2000F901208182239423892BDF91CF911F9189
:101C30000F91FF90EF90DF90CF90089583E10E9485
:101C400024069093010180930001892B09F0ABCF0A
:101C500081E40E94D3059093010180930001892BB8
:101C600009F0A1CF84E88093BC000E94C7058C01D5
:101C70008091BC0087FF08C09091BB0090951092A6
:101C800001011092000190CF0E94C705801B910BAB
:101C9000883E934068F38EEF9FEF9093010180930D
:101CA000000181CF8FB19FB18695817096959695F1
:101CB00096959E70982B90957ACF90E078CF7E0184
:101CC000062E01C0EE0C0A94EAF74E2993CFCF936B
:101CD000C091E9002091EC00922F917020FD90E8D6
:101CE00020911D0120FF12C0CF70C92B90910E01D1
:101CF0009F709093E9009091EB0090FF04C0909149
:101D0000EE0097FD05C0CF70C093E900CF91089514
:101D10009FEF2091E800915025FD06C025ED2A9502
:101D2000F1F700009111F5CF8093F1008DE091E083
:101D30000E941F038091E80080FFE5CF8091E800BA
:101D40008E778093E800DFCF882309F408C18238BA
:101D5000B9F40E94F60781FD02C189E30E94B00632
:101D60000E9461062FEF81EE94E021508040904068
:101D7000E1F700C0000089E30E9485060C9461062B
:101D80008338A1F40E94F60780FDE9C083E50E9434
:101D9000B0060E9461062FEF81EE94E02150804052
:101DA0009040E1F700C0000083E5E6CF8438A1F45D
:101DB0000E94F60782FDD3C087E40E94B0060E940D
:101DC00061062FEF81EE94E0215080409040E1F7D2
:101DD00000C0000087E4D0CF9CEF980F913A18F430
:101DE0000E94B006CBCF90E2980F983068F48770CD
:101DF00021E030E001C0220F8A95EAF78091F802D5
:101E0000822B8093F802BACF9BE5980F933070F441
:101E1000853A31F0863A39F083E890E00C946D070A
:101E200081E890E0FBCF82E890E0F8CF98E5980F4A
:101E3000973108F08EC0883A09F446C0893A09F40F
:101E400046C08A3A09F446C08B3A09F446C08C3A37
:101E500009F446C08B3B09F446C08C3B09F446C0EC
:101E60008D3A09F446C0803B09F446C08E3A09F425
:101E700046C08F3A09F446C0813B09F446C0823B14
:101E800009F446C0833B09F446C0843B09F446C0CC
:101E9000853B09F446C0863B09F446C0873B09F4FC
:101EA00046C0883B09F446C0893B09F446C08D3BD7
:101EB00009F446C08E3B09F446C08A3B09F446C08B
:101EC00090E080E00C94570782EE90E0FBCF89EE23
:101ED00090E0F8CF8AEE90E0F5CF85EB90E0F2CF7E
:101EE00086EB90E0EFCF83EB90E0ECCF84EB90E0DB
:101EF000E9CF87EB90E0E6CF8CEC90E0E3CF8DEC80
:101F000090E0E0CF83E891E0DDCF8AE891E0DACF9E
:101F100082E991E0D7CF84E991E0D4CF81E292E0E9
:101F2000D1CF83E292E0CECF84E292E0CBCF85E2C4
:101F300092E0C8CF86E292E0C5CF87E292E0C2CFBE
:101F40008FE690E0BFCF80E790E0BCCF8AE292E0DE
:101F5000B9CF803F20F00E9435050C944B060895C0
:101F600090917F02923069F490917E02943158F4FE
:101F7000E92FF0E0E759FD4F80839F5F90937E0249
:101F800008950C94A40E0895CF92DF92EF92FF92E1
:101F9000C0908102D0908202E0908302F09084028F
:101FA000C11491E0D906E104F10461F4811103C088
:101FB00084E10E94B00FC701B601FF90EF90DF905F
:101FC000CF900895C11492E0D906E104F10421F400
:101FD0008111F1CF84E0EDCFC11494E0D906E10482
:101FE000F10421F48111E7CF8AE1E3CFC11490E13C
:101FF000D906E104F10421F48111DDCF88E0D9CFC5
:10200000C11490E4D906E104F10421F48111D3CF85
:1020100085E1CFCFC11498E0D906E104F10421F4A1
:102020008111C9CF86E1C5CFC11490E2D906E10480
:10203000F10421F48111BFCF87E0BBCFC11490E838
:10204000D906E104F10421F48111B5CF89E0B1CFC3
:1020500094E0C916D104E104F10421F48111ABCF5D
:1020600087E1A7CF98E0C916D104E104F10421F477
:102070008111A1CF8AE09DCFC114D10491E0E9067E
:10208000F10421F4811197CF86E093CFC114D104DC
:1020900092E0E906F10421F481118DCF89E189CF25
:1020A000C114D10494E0E906F10421F4811183CF35
:1020B00081E17FCFC114D10498E0E906F10421F455
:1020C000811179CF80E175CF90E1C916D104E10487
:1020D000F10421F481116FCF8CE16BCF90E2C9162E
:1020E000D104E104F10421F4811165CF8BE061CFCB
:1020F000C114D10490E1E906F10421F481115BCF10
:1021000088E157CFC114D10490E4E906F10421F429
:10211000811151CF8CE04DCFC114D104E10491E085
:10212000F90621F4811147CF82E143CFC114D104D4
:10213000E10494E0F90621F481113DCF83E139CF28
:10214000C114D104E10490E1F90621F4811133CFE7
:102150008FE22FCFC114D10490E2E906F10421F4FB
:10216000811129CF8DE025CFC114D10490E8E90673
:10217000F10421F481111FCF8EE01BCFC114D104D3
:10218000E10492E0F90621F4811115CF8FE011CF1F
:10219000C114D104E10498E0F90621F481110BCFB8
:1021A00083E307CFC114D104E10490E2F90621F4DE
:1021B000811101CF86E3FDCE90E4C916D104E1047C
:1021C000F10421F48111F7CE8EE1F3CE90E8C91627
:1021D000D104E104F104B1F3C12CD12C7601EBCE92
:1021E0000F931F93CF93DF938C01F8012491222347
:1021F00009F43AC0E8012196213049F4FE01149116
:10220000812F0E94A40E812F0E94020806C0223056
:1022100041F4FE0184910E94A40E8E010F5F1F4FB6
:10222000E4CF233019F4FE018491EECF30E0F901C0
:10223000E95BFE4FC49129533F4FF90124912223BA
:1022400071F081EE0E94A40E8C2F0E94A40E8C2FA0
:102250000E94020881EE0E940208E801DECF8C2F66
:102260000E94A40E8C2FF7CFDF91CF911F910F9179
:102270000895CF92DF92EF92FF92C0908102D090AA
:102280008202E0908302F090840290E4C916D104A7
:10229000E1049CE3F90689F4811108C088EB90E021
:1022A0000E94F0108CEA90E00E94F010C701B60185
:1022B000FF90EF90DF90CF90089590ECC916D10475
:1022C0009FE0E906F10431F48111F0CF8EEA0E941B
:1022D000B00FECCFC1149CE3D906E104F10449F43A
:1022E0008111E4CF80917F02813001F78093DA0180
:1022F000DDCF9CE2C91690E2D906E104F10431F485
:102300008111D4CF8AE20E94B00FD0CFC1149AE0DD
:10231000D90692E0E906F10471F48111C7CF85EF87
:102320000E9435050E944B0681E08093860285EF6E
:1023300080938502BBCFC11490EAD90692E0E906EA
:10234000F10471F48111B2CF84EF0E9435050E942F
:102350004B0681E08093860284EF80938502A6CFAE
:10236000C114D1049FE0E906F10431F481119ECF3C
:1023700089E30E94B00F9ACFC114D10499E0E90615
:10238000F10431F4811192CF89E20E94B00F8ECF17
:10239000C114D10496E0E906F10431F4811186CF2D
:1023A00080EE0E94B00F82CF90ECC916D10499E064
:1023B000E906F10449F4811179CF80EE0E94B00F53
:1023C00081EE0E94B00F72CF90E4C916D10495E05F
:1023D000E906F10461F4811169CF80EE0E94B00F2B
:1023E00081EE0E94B00F82EE0E94B00F5FCFC11449
:1023F000D104E1049CE3F90631F4811157CF83EE57
:102400000E94B00F53CFC114D104E10494E1F90646
:1024100031F481114BCF80EE0E94B00F47CFC11431
:10242000D104E10498E2F90631F481113FCF82EE44
:102430000E94B00F3BCF90E4C916D10491E0E906A9
:10244000F10431F4811132CF80EE0E94B00F2ECF13
:10245000C114D10493E0E906F10431F4811126CFCF
:1024600082EE0E94B00F22CFC114D10492E0E9069F
:10247000F10431F481111ACF81EE0E94B00F16CF12
:10248000C1149AE5D90690E3E906F10431F481110B
:102490000DCF8EE30E94B00F09CFC1149AE5D90683
:1024A00090ECE906F10431F4811100CF8FE30E9432
:1024B000B00FFCCEC1149AE5D906E10493E0F90609
:1024C00031F48111F3CE80E40E94B00FEFCEC1143D
:1024D0009AE5D906E1049CE0F90631F48111E6CED3
:1024E00081E40E94B00FE2CEC1149AE5D90690E1D2
:1024F000E906F10431F48111D9CE8AE30E94B00FCC
:10250000D5CEC1149AE5D90690E4E906F10431F478
:102510008111CCCE8BE30E94B00FC8CEC1149AE5D6
:10252000D906E10491E0F90631F48111BFCE8CE3C4
:102530000E94B00FBBCEC1149AE5D906E10494E025
:10254000F90631F48111B2CE8DE30E94B00FAECE08
:10255000C1149AE5D90690E2E906F10431F481113B
:10256000A5CE82E40E94B00FA1CEC1149AE5D9068F
:10257000E10492E0F90631F4811198CE83E40E94DF
:10258000B00F94CEC1149AE5D90690E8E906F1049B
:1025900031F481118BCE84E40E94B00F87CEC11438
:1025A0009AE5D906E10498E0F90631F481117ECE6E
:1025B00085E40E94B00F7ACE9CE0C916D10490E168
:1025C000E906F10431F4811171CE80E50E94B00F6B
:1025D0006DCE9CE0C916D10490E4E906F10431F413
:1025E000811164CE81E50E94B00F60CE9CE0C916D7
:1025F000D104E10491E0F90631F4811157CE82E56E
:102600000E94B00F53CE9CE0C916D104E10494E0BF
:10261000F90631F481114ACE8FE40E94B00F46CE04
:102620009CE1C916D104E104F10431F481113ECEDC
:102630008BE40E94B00F3ACE9CE2C916D104E104AB
:10264000F10431F4811132CE8EE40E94B00F2ECE0F
:10265000C1149AEAD90690E1E906F10431F4811136
:1026600025CE8CEA0E94B00F21CEC1149AEAD90679
:1026700090E4E906F10431F4811118CE8EEA0E944B
:10268000B00F14CEC1149AEAD906E10491E0F9061C
:1026900031F481110BCE8EEA0E94B00F07CEC11427
:1026A0009AEAD906E10494E0F90631F48111FECDED
:1026B0008BEA0E94B00FFACDC1149AEAD906E10460
:1026C00090E1F90631F48111F1CD89EA0E94B00F51
:1026D000EDCDC1149AEAD906E10490E2F90631F48D
:1026E0008111E4CD8AEA0E94B00FE0CDC1149AEACC
:1026F000D906E10498E0F90631F48111D7CD88EAD2
:102700000E94B00FD3CD90E4C91691E0D906E10440
:10271000F10431F48111CACD8EE10E94B00FC6CD13
:1027200090E4C91694E0D906E104F10431F4811172
:10273000BDCD8FE10E94B00FB9CD90E4C91690E1F4
:10274000D906E104F10431F48111B0CD80E20E9498
:10275000B00FACCD90E4C916D906E104F10431F410
:102760008111A4CD81E20E94B00FA0CD94E4C916DE
:10277000D104E104F10431F4811198CD82E20E9488
:10278000B00F94CD90E5C916D104E104F10431F401
:1027900081118CCD83E20E94B00F88CD90E4C916E0
:1027A000D10490E1E906F10431F481117FCD84E296
:1027B0000E94B00F7BCD90E4C916D104E906F10464
:1027C00031F4811173CD85E20E94B00F6FCD90E49A
:1027D000C916D104E10491E0F90631F4811166CD06
:1027E00086E20E94B00F62CD90E4C916D104E104E4
:1027F00094E0F90631F4811159CD87E20E94B00FBF
:1028000055CD90E8C91691E0D906E104F10431F400
:1028100081114CCD8EE10E94B00F48CD90E8C916D1
:1028200094E0D906E104F10431F481113FCD8FE148
:102830000E94B00F3BCD90E8C91690E1D906E104A3
:10284000F10431F4811132CD80E20E94B00F2ECD1F
:1028500090E8C91690E4D906E104F10431F481113D
:1028600025CD81E20E94B00F21CD94E8C916D10494
:10287000E104F10431F4811119CD82E20E94B00F1C
:1028800015CD90E9C916D104E104F10431F48111A8
:102890000DCD83E20E94B00F09CD90E8C916D10496
:1028A00090E1E906F10431F4811100CD84E20E9447
:1028B000B00FFCCC90E8C916D10490E4E906F1040D
:1028C00031F48111F3CC85E20E94B00FEFCC90E897
:1028D000C916D104E10491E0F90631F48111E6CC86
:1028E00086E20E94B00FE2CC90E8C916D104E10460
:1028F00094E0F90631F48111D9CC87E20E94B00F3F
:10290000D5CC90E8C916D10491E0E906F10431F480
:102910008111CCCC82E20E94B00FC8CC90E8C916DD
:10292000D10498E0E906F10431F48111BFCC8BE2C7
:102930000E94B00FBBCCC114D1049CE0E906F104A5
:1029400031F48111B3CC8AE20E94B00FAFCCC11434
:10295000D104E10490E3F90631F48111A7CC88E2B7
:102960000E94B00FA3CCC114D10494E0E906F10495
:1029700031F481119BCC88E20E94B00F97CCC11436
:10298000D104E10490E1F90631F481118FCC8AE29F
:102990000E94B00F8BCC90E4C916D104E104F1047D
:1029A00031F4811183CC8AE20E94B00F7FCC90E891
:1029B000C916D104E104F10431F4811177CC8AE223
:1029C0000E94B00F73CCC114D10491E0E906F10468
:1029D00031F481116BCC8CE20E94B00F67CCC11432
:1029E000D10498E0E906F10431F481115FCC8CE266
:1029F0000E94B00F5BCCC114D104E10490E2F9064F
:102A000031F4811153CC89E20E94B00F4FCC92E097
:102A1000C916D1049CE0E906F10431F4811146CCD9
:102A200088E20E94B00F42CC92E0C916D10493E034
:102A3000E906F10431F4811139CC8CE20E94B00F27
:102A400035CC92E0C91690E3D906E104F10449F4CB
:102A500081112CCC81EE0E94B00F86E20E94B00F53
:102A600025CC92E0C91690ECD906E104F10449F4B2
:102A700081111CCC81EE0E94B00F87E20E94B00F42
:102A800015CC9EE0C916D104E104F10431F48111A2
:102A90000DCC85E30E94B00F09CC92E0C916D10499
:102AA000E10490E3F90631F4811100CC89E20E943F
:102AB000B00FFCCB92E0C91693E0D906E104F10413
:102AC00049F48111F3CB81EE0E94B00F80E20E94A5
:102AD000B00FECCB92E0C9169CE0D906E104F104FA
:102AE00049F48111E3CB81EE0E94B00F81E20E9494
:102AF000B00FDCCB92E0C91691E0D906E104F104F5
:102B000049F48111D3CB81EE0E94B00F8EE10E9477
:102B1000B00FCCCB92E0C916D906E104F10449F418
:102B20008111C4CB81EE0E94B00F82E20E94B00FEF
:102B3000BDCB92E0C91694E0D906E104F10449F452
:102B40008111B4CB81EE0E94B00F8FE10E94B00FD3
:102B5000ADCB92E0C91698E0D906E104F10449F43E
:102B60008111A4CB81EE0E94B00F83E20E94B00FCE
:102B70009DCB92E0C91690E1D906E104F10449F435
:102B8000811194CB81EE0E94B00F8FE20E94B00FB2
:102B90008DCB92E0C91690E2D906E104F10431F43C
:102BA000811184CB8FE20E94B00F80CB92E0C916D6
:102BB00090E4D906E104F10449F4811177CB81EE68
:102BC0000E94B00F80E30E94B00F70CB92E0C91654
:102BD00090E8D906E104F10431F4811167CB80E378
:102BE0000E94B00F63CB96E0C916D104E104F10452
:102BF00049F481115BCB81EE0E94B00F81E30E940A
:102C0000B00F54CB9AE0C916D104E104F10449F4A1
:102C100081114CCB81EE0E94B00F85E30E94B00F72
:102C200045CB92E1C916D104E104F10431F48111DC
:102C30003DCB84E30E94B00F39CB92E2C916D10498
:102C4000E104F10449F4811131CB81EE0E94B00F0F
:102C500084E30E94B00F2ACB92E0C916D10490E120
:102C6000E906F10431F4811121CB87E50E94B00F10
:102C70001DCB92E0C916D10490E2E906F10449F4B3
:102C8000811114CB81EE0E94B00F84E20E94B00F3C
:102C90000DCB92E0C916D10490E4E906F10431F4B9
:102CA000811104CB8DE20E94B00F00CB92E0C916D7
:102CB000D10490E8E906F10431F48111F7CA8EE2FB
:102CC0000E94B00FF3CA92E0C916D104E10491E06A
:102CD000F90631F48111EACA88E30E94B00FE6CA0E
:102CE00092E0C916D104E104F90631F48111DECA7B
:102CF00086E30E94B00FDACA92E0C916D104E1045B
:102D000094E0F90631F48111D1CA85E50E94B00F33
:102D1000CDCA92E0C916D104E10498E0F90631F475
:102D20008111C4CA87E30E94B00FC0CA92E0C916DD
:102D3000D104E10490E1F90631F48111B7CA8BE2C4
:102D40000E94B00FB3CA92E0C916D10491E0E9061F
:102D5000F10431F48111AACA81EE0E94B00FA6CA13
:102D600092E0C916D104E906F10431F481119ECA3A
:102D700088E30E94B00F9ACA92E0C916D10494E089
:102D8000E906F10431F4811191CA83E30E94B00F86
:102D90008DCA92E0C916D10498E0E906F10431F435
:102DA000811184CA81E30E94B00F80CA92E4C916DF
:102DB000D104E104F10431F4811178CA81E30E9465
:102DC000B00F74CAC11493E0D906E104F10431F4E0
:102DD00081116CCA84E00E94B00F68CAC1149CE0E3
:102DE000D906E104F10431F4811160CA86E10E9440
:102DF000B00F5CCAC11490E3D906E104F10431F4C8
:102E0000811154CA87E00E94B00F50CAC11490ECDF
:102E1000D906E104F10431F4811148CA89E00E9425
:102E2000B00F44CA9CE0C916D104E104F10431F4A6
:102E300081113CCA8AE00E94B00F38CA90E3C916DB
:102E4000D104E104F10431F4811130CA8BE00E9415
:102E5000B00F2CCAC114D10490E3E906F10431F497
:102E6000811124CA8DE00E94B00F20CAC114D10480
:102E7000E1049CE0F90631F4811118CA83E30E9451
:102E8000B00F14CAC114D104E10493E0F90631F47F
:102E900081110CCA8FE00E94B00F08CAC114D1047E
:102EA00090ECE906F10431F4811100CA8EE00E9431
:102EB000B00FFCC9C11491E0D906E104F10431F46A
:102EC0008111F4C984E10E94B00FF0C9C11492E0ED
:102ED000D906E104F10431F48111E8C98DE10E94C1
:102EE000B00FE4C9C11494E0D906E104F10431F44F
:102EF0008111DCC98AE10E94B00FD8C9C11498E0E1
:102F0000D906E104F10431F48111D0C98BE10E94AA
:102F1000B00FCCC9C11490E1D906E104F10431F439
:102F20008111C4C988E00E94B00FC0C9C11490E2E9
:102F3000D906E104F10431F48111B8C986E00E9498
:102F4000B00FB4C9C11490E4D906E104F10431F41E
:102F50008111ACC985E10E94B00FA8C9C11490E8E5
:102F6000D906E104F10431F48111A0C989E10E947C
:102F7000B00F9CC994E0C916D104E104F10431F406
:102F8000811194C987E10E94B00F90C998E0C916D9
:102F9000D104E104F10431F4811188C985E00E9473
:102FA000B00F84C990E1C916D104E104F10431F4F1
:102FB00081117CC98CE10E94B00F78C990E2C916DA
:102FC000D104E104F10431F4811170C981E10E945E
:102FD000B00F6CC9C114D10490E1E906F10431F4D9
:102FE000811164C988E10E94B00F60C9C114D10485
:102FF00090E2E906F10431F4811158C980E10E94A0
:10300000B00F54C9C114D10490E4E906F10431F4BD
:1030100081114CC98CE00E94B00F48C9C114D10481
:1030200090E8E906F10431F4811140C986E30E9479
:10303000B00F3CC9C114D104E10491E0F90631F4A8
:10304000811134C982E10E94B00F30C9C114D1048A
:10305000E10492E0F90631F4811128C987E30E9466
:10306000B00F24C9C114D104E10494E0F90631F48D
:1030700081111CC983E10E94B00F18C9C114D10489
:10308000E10498E0F90631F4811110C988E30E9447
:10309000B00F0CC9C12CD12C760108C92F923F92D8
:1030A0004F925F926F927F928F929F92AF92BF9258
:1030B000CF92DF92EF92FF920F931F93CF93DF9304
:1030C000CDB7DEB7CB57D1090FB6F894DEBF0FBE30
:1030D000CDBF182FC0908102D0908202E090830271
:1030E000F0908402C0FE0CC0D701C60121E0822707
:1030F0008093810290938202A0938302B093840212
:10310000112361F181E00E94C40F809081029090B0
:103110008202A0908302B0908402681579058A0526
:103120009B05E1F480E0C558DF4F0FB6F894DEBF91
:103130000FBECDBFDF91CF911F910F91FF90EF9008
:10314000DF90CF90BF90AF909F908F907F906F90C7
:103150005F904F903F902F900C94C40F81E00E949D
:1031600039118090810290908202A0908302B090E9
:103170008402681579058A059B0509F446C0AE01ED
:103180004F5F5F4FA3965FAF4EAFA397A5965FAF1C
:103190004EAFA597812C912C5401EA961FAE1EAE1E
:1031A000EA978C149D04AE04BF0409F475C125EEA2
:1031B00031E0A7963FAF2EAFA797312C212CA896D0
:1031C0001FAEA897EB961FAEEB97EC961FAEEC9751
:1031D00000E060E070E0CB012401350140945094A0
:1031E00060947094E0964CAE5DAE6EAE7FAEE097AC
:1031F000A50194012270332744275527E4962CAF6C
:103200003DAF4EAF5FAFE497C5C080E00E9439117B
:103210008091DA01882361F18091D5019091D601E6
:10322000A091D701B091D80180938102909382023E
:10323000A0938302B09384028091D3019091D40132
:103240009093670280936602E3E5F1E0A5EEB1E0BA
:1032500041915191619171914D935D936D937D93E6
:1032600051E0E33DF507A1F71092DA0110E032CF0B
:103270006091810270918202809183029091840218
:10328000C558DF4F0FB6F894DEBF0FBECDBFDF913C
:10329000CF911F910F91FF90EF90DF90CF90BF9053
:1032A000AF909F908F907F906F905F904F903F90E6
:1032B0002F900C94370BA796AEADBFADA7972D916D
:1032C0003D914D915D91A796BFAFAEAFA797E096A8
:1032D0004CAC5DAC6EAC7FACE097422253226422D2
:1032E0007522E8964CAE5DAE6EAE7FAEE89740922A
:1032F0008102509282026092830270928402411491
:1033000051046104710409F442C02114310489F0AC
:10331000611571058105910561F0462657266826DD
:103320007926A3019201223031054105510509F4A6
:1033300043C0E4964CAC5DAC6EAC7FACE4974528E2
:103340004628472879F0E8962CAD3DAD4EAD5FADEF
:10335000E897226020938102309382024093830297
:103360005093840281E0112309F45CC00E94C40FD1
:10337000611571058105910551F0A8966FAFA89769
:10338000EB967FAFEB97EC968FAFEC97092F2FEF73
:10339000221A320A20916602309167022215330503
:1033A0000CF089CFA8966FADA897EB967FADEB9701
:1033B000EC968FADEC97902F862A972AA82AB92AE7
:1033C000A596AEADBFADA5976D937D938D939D935F
:1033D000A596BFAFAEAFA597EA96EEADFFADEA9763
:1033E0003196EA96FFAFEEAFEA97789709F0D9CE1B
:1033F000C558DF4F0FB6F894DEBF0FBECDBFDF91CB
:10340000CF911F910F91FF90EF90DF90CF90BF90E1
:10341000AF909F908F907F906F905F904F903F9074
:103420002F9008950E943911A3CFA396EEADFFAD62
:10343000A39781919191A191B191A396FFAFEEAF26
:10344000A3978093810290938202A0938302B0930A
:10345000840280E01123E9F00E94C40FFFEFAF1A4D
:10346000BF0AEA964EAC5FACEA974A145B04E9F6F1
:103470008091DA01811104C0C701B6010E94370BA7
:10348000C0928102D0928202E0928302F092840282
:10349000AFCF0E943911E2CFB12CA12CE2CF80E254
:1034A00090E090930101809300018091D9018111F6
:1034B00011C01092B9008CE08093B80081E0809335
:1034C000D9012FEF83ED90E3215080409040E1F748
:1034D00000C0000080E40E94D30590930101809316
:1034E0000001892B09F040C080E00E9424069093DF
:1034F000010180930001892BB9F580E80E94240620
:103500009093010180930001892B71F58FEF0E9448
:1035100024069093010180930001892B29F584E909
:103520008093BC0080E40E94D305909301018093B6
:103530000001892BC9F48CE00E94240690930101BC
:1035400080930001892B81F480E80E9424069093E7
:10355000010180930001892B39F48FEF0E9424062A
:10356000909301018093000184E98093BC008091D5
:103570000001089590E080E00E94212D21E08D3E21
:103580009E4F09F020E0822F08956DEE7EEF90E0CF
:1035900080E00E94452D60E082E090E00E94272DAF
:1035A00060E083E090E00E94272D1092F9021092D3
:1035B000FA021092FB021092FC0260E084E090E0BC
:1035C0000E94272D60E085E090E00E94272D60E0BA
:1035D00086E090E00E94272D6FEF87E090E00E9448
:1035E000272D40E050E0BA0188E090E00E94392D9C
:1035F00060E08DE090E00E94272D40E050E0BA01AD
:1036000088E190E00E94392D60E087E190E00E941F
:10361000272D40E050E0BA018FE090E00E94392D64
:1036200040E050E0BA0183E190E00C94392D109213
:10363000F80280910C01882369F08091490387FF8B
:1036400009C0E2E3F1E08EE1DF011D928A95E9F71E
:103650000C948307E3E3F1E086E0F6CF0F931F932A
:10366000CF93DF93CDB7DEB7AA970FB6F894DEBF3E
:103670000FBECDBF8091A403882309F469C31091C4
:10368000E9001F709091EC00892F817090FD80E817
:10369000182B1092E9008091E80083FF56C38CE953
:1036A00093E02091F100FC012193CF01F3E0843AF3
:1036B0009F07B9F780919D03833009F4B8C008F0E3
:1036C0004CC0813009F47EC0823009F4F8C080918A
:1036D000E80083FF9BC020910D018091A003909191
:1036E000A1032817190609F091C080919D0381322A
:1036F00009F405C108F0F4C0803209F087C0809158
:103700009C03813209F082C08091E800877F80931A
:10371000E8008091E80082FF2FC13091F1002091F4
:10372000F1009091F1008091F100309321012093FC
:10373000220190932301809324018091F1008093D2
:1037400025018091F100809326018091F100809302
:1037500027018091E8008B770AC18A3009F49EC066
:103760008B3009F481C0893009F0B1CF80919C037E
:10377000813209F0ACCF8091A0039091A103892BF5
:1037800009F0A5CF8091E800877F8093E8008091C1
:10379000E80082FF37C09091F3008091F200029719
:1037A00029F48091F1008B7F813021F48091F10028
:1037B000809378038091E8008B778093E8000E94E3
:1037C000510385CF80919C03813A09F080CF80918D
:1037D000E800877F8093E8008091A0039091A10387
:1037E000892B61F460E289E793E070E00E940304B2
:1037F0008091E8008B778093E80069CF60E090E0EB
:1038000080E0F3CF8091A4038111C1CF8091E800C3
:1038100083FF8DC280919C0390919D039A3008F0A4
:1038200086C2E92FF0E0EB56F24D0C94FF2C80910C
:103830009C03813A09F04BCF8091A0039091A103A2
:10384000892B09F044CF8091E800877F8093E800BE
:103850008091E80080FFFCCF80910C018093F10003
:103860008091E8008E77A9CF80919C03813209F086
:103870002ECF8091A0039091A103892B09F027CF2F
:103880008091E800877F8093E8000E945103809137
:103890009E0380930C010E94171B19CF80919C03FB
:1038A000813209F014CF8091E800877F8093E8008F
:1038B0000E94510380919F038093770308CF8091EA
:1038C0009C03813A09F003CF8091E800877F8093C1
:1038D000E8008091E80080FFFCCF80917703BECFA5
:1038E000823209F44EC0833209F090CF80919C035C
:1038F000813209F08BCF8091E800877F38C08091BA
:103900009C03813A09F082CF8091E800877F809301
:10391000E8008091E80080FFFCCF80912101909128
:103920002201A0912301B09124018093F100492F3D
:103930005A2F6B2F77274093F100AD016627772729
:103940004093F1008B2F9927AA27BB278093F10082
:10395000809125018093F100809126018093F100F0
:10396000809127018093F1008091E8008E77809309
:10397000E8000E9451034ACF8091A4038111C9CE6F
:1039800045CF80919C03813209F040CF8091E800BF
:10399000877F8093E8000E94510380919E0390915D
:1039A0009F0390931E0180931D0130CF803899F0C2
:1039B000823809F0BCC18091A0038F70873008F075
:1039C000B6C18093E9008091EB0085FB882780F9E0
:1039D0001092E90006C08091990390919A03911189
:1039E00082609091E800977F9093E8008093F100C7
:1039F0001092F1008091E8008E7795C1882309F438
:103A000083C1823009F093C180919E03811186C1E8
:103A10008091A0038F702FEF280F263008F087C108
:103A20008093E9002091EB0020FF78C1933031F4BE
:103A30008091EB0080628093EB0070C19091EB006D
:103A400090619093EB0021E030E001C0220F8A9555
:103A5000EAF72093EA001092EA008091EB00886078
:103A6000EACF811164C100919E030F778091E3003A
:103A70008078802B8093E3008091E800877F80939B
:103A8000E8000E9451038091E80080FFFCCF809104
:103A9000E30080688093E30082E0011183E080937B
:103AA000A40345C18058823008F041C180919E0333
:103AB00090919F038C3D23E09207A1F583E08A83D8
:103AC0008AE289834FB7F894DE01139620E03EE046
:103AD00051E2E32FF0E050935700E49120FF03C040
:103AE000E295EF703F5FEF708E2F90E0EA30C0F00C
:103AF000C7968D939D932F5F243159F74FBF8091C7
:103B0000E800877F8093E8006AE270E0CE010196CA
:103B10000E9403048091E8008B778093E80007C13E
:103B2000C096E7CF4091A0035091A103292F3327DE
:103B30002330310509F440C078F52130310509F40E
:103B400072C08FE590E0E9E5F4E02230310509F03C
:103B5000EEC02091E800277F2093E8002091A20387
:103B60003091A3038217930708F49C0140E02115CC
:103B7000310509F05DC041115BC08091E80082FD14
:103B8000C9CF8091A403882329F2853019F280914E
:103B9000E80083FFF2CFBECF2132310509F43BC0EC
:103BA0002232310509F0C3C0452B09F0C0C082E0C4
:103BB00091E0E7E5F3E0CDCF992781309105D9F089
:103BC000009771F082309105F1F0039709F0AFC0D2
:103BD000EAECF4E0E4918E2F90E0EAECF4E007C028
:103BE000E8E0F5E0E4918E2F90E0E8E0F5E0009762
:103BF00009F49DC0AECFE0EEF4E0E4918E2F90E0AA
:103C0000E0EEF4E0F4CFE0EDF4E0E4918E2F90E00C
:103C1000E0EDF4E0ECCF452B09F089C089E090E0BD
:103C2000EBE6F4E096CF82E190E0E8EBF4E091CFB0
:103C30008091A403882309F46DCF853009F46ACFFD
:103C40008091E80083FD66CF8091E80082FD95CFEA
:103C50008091E80080FF8BCF9091F3008091F2007B
:103C60002115310519F08830910550F041E0089791
:103C700009F040E08091E8008E778093E80077CFEC
:103C800044914093F1003196215031090196E8CFDB
:103C9000803809F04CC08091E800877F8093E8006D
:103CA00080919B038093F100A5CE811140C00091CB
:103CB0009E030230E0F58091E800877F8093E80062
:103CC00000939B030E945103002311F084E005C080
:103CD0008091E30087FDFACF81E08093A40342E264
:103CE00061EC81E00E94700342E061EC82E00E949E
:103CF000700342E160E884E00E94700342E161E801
:103D000083E00E94700313C080919E03813079F498
:103D100081E0933009F080E080939A031092E900EB
:103D20008091E800877F8093E8000E945103809192
:103D3000E80083FF0AC08091E800877F8093E80055
:103D40008091EB0080628093EB001F701093E9007C
:103D5000AA960FB6F894DEBF0FBECDBFDF91CF910C
:103D60001F910F910895EF92FF920F931F93CF939E
:103D70007C018B010E94EE02C82F811119C0809135
:103D8000E80085FD0DC08091E8008E778093E80003
:103D90000E942E1B0E94EE02882389F3C82F08C0C0
:103DA000F70181917F018093F1000150110939F7EA
:103DB0008C2FCF911F910F91FF90EF9008950F934B
:103DC0001F93CF93DF9300D00F92CDB7DEB78C0156
:103DD0000E946104823011F0843021F584E08983EF
:103DE0001B830A8381E08093E9008FEF9091E800C4
:103DF000815095FD06C095ED9A95F1F7000081116F
:103E0000F5CF8091E80085FF0DC050E040E063E011
:103E100070E0CE0101960E94B31E8091E8008E777B
:103E20008093E8000F900F900F90DF91CF911F913A
:103E30000F910895CF93DF9300D00F92CDB7DEB7E7
:103E40002091A403243031F523E02983805891097F
:103E50009B838A8381E08093E9008FEF9091E80053
:103E6000815095FD06C095ED9A95F1F700008111FE
:103E7000F5CF8091E80085FF0DC050E040E063E0A1
:103E800070E0CE0101960E94B31E8091E8008E770B
:103E90008093E8000F900F900F90DF91CF910895DD
:103EA000CF93DF93EC010E946104823011F08430E3
:103EB000F9F481E08093E9008FEF9091E800815060
:103EC00095FD06C095ED9A95F1F700008111F5CFAB
:103ED0008091E80085FF0CC050E040E066E070E0B3
:103EE000CE010E94B31E8091E8008E778093E80097
:103EF000DF91CF910895CF93DF93EC010E9461048D
:103F0000823011F08430A9F580910C01882321F0D2
:103F10008091490360E287FF69E081E08093E900D6
:103F20008FEF9091E800815095FD06C095ED9A9530
:103F3000F1F700008111F5CF8091E80085FF19C0ED
:103F400080910C01811118C050E040E068E070E001
:103F5000CE0101960E94B31E8091E8008E77809377
:103F6000E80080E2FE01A9E7B3E001900D928A9596
:103F7000E1F7DF91CF91089570E050E040E0CE018D
:103F8000E9CF0F931F93CF93DF938091000190911E
:103F90000101892B71F0809150018F5F8093500156
:103FA000811107C00E944F1A90E090930101809305
:103FB00000010EE413E0C0E08C2F0E94510DD7E009
:103FC000DC0F8D2F0E94510D8C2F0E94B60DF80131
:103FD00081938F018D2F0E94B60DF80186830E9478
:103FE000A00DCF5FC73041F780917F02813089F407
:103FF00080916802882369F08091650281110FC069
:1040000080915101909152010E949D058F3E9240F6
:1040100000F581E0DF91CF911F910F91089580917C
:104020005101909152010E949D054A9790F380E0C2
:104030000E944E180E9461060E94171B0E94C7052D
:104040009093520180935101809165028111E1CFDB
:10405000D7CF81E080936502DCCF86E0EFEDF1E021
:10406000DF01982F1D929A95E9F7E7E8F2E0DF016A
:104070001D928A95E9F70895CF93C82F0E942D20AD
:10408000C09348036C2F8DE090E0CF910C94272DC6
:104090008F929F92AF92BF92CF92DF92EF92FF9258
:1040A0000F931F93CF93DF9300D000D00F92CDB723
:1040B000DEB77C01FC0183819481892B39F010816A
:1040C0000181812F80238F3F09F01EC60F900F9032
:1040D0000F900F900F90DF91CF911F910F91FF9054
:1040E000EF90DF90CF90BF90AF909F908F9008950A
:1040F0000E94C70AD82E682F89819A810E940C07D6
:10410000E02FF0E02EE0D29EE00DF11D1124EE0F25
:10411000FF1FEE0FFF1FE10FF11DEE0FFF1FE95311
:10412000FE4F0591149100334AE5140709F46AC063
:1041300008F04EC0C8019A558A9708F48AC0F70162
:104140008281073DFCE51F0709F42DC308F007C273
:1041500005314CE5140708F0DBC102309CE5190776
:1041600008F09DC20115ECE51E0709F450C20130AC
:104170001C4509F47EC291E09093930290939402BF
:10418000F70100811181882309F47FC3C8010E94CF
:10419000C70AD82E682FC8010E940C07B8018D2DC0
:1041A0000E94A008182FD82EF701358132953F7054
:1041B000228121111092F702092F02950F700C3005
:1041C00008F09DC3E02FF0E0E156F24D0C94FF2C77
:1041D00001339AE5190709F0B2CFB70181E39AE5F7
:1041E0000E94580B882309F471CFF7014081518157
:1041F0006281738184810E945F08882309F466CFFD
:1042000081E014C0B70180E39AE50E94580B88232F
:1042100009F45CCFF701408151816281738184810F
:104220000E945F08882309F451CF80E00F900F901F
:104230000F900F900F90DF91CF911F910F91FF90F2
:10424000EF90DF90CF90BF90AF909F908F900C94A5
:104250003C20B701C8010E94580B882309F436CFCF
:10426000D0904803F701408151816281738184813C
:104270000E945F08582FDD20A1F0F1E0DF1699F1D0
:1042800010918D02F7014081518162817381848197
:104290000E945F08882309F448C01F5F10938D02B5
:1042A00015CFF801FF27E95EFC4F9491A92FA29545
:1042B000A695A695A370B0E0882371F09D012152C8
:1042C0003E4FF9018081892B8083A957BD4F0C9106
:1042D000E92FE02BEC93D4CFA152BE4FE92FE0950C
:1042E0000C91E023F7CF802F67E00E94DF2C492F4D
:1042F00090E066E070E0641B710921E030E001C0ED
:10430000220F6A95EAF7FC01E152FE4F40815523E6
:1043100049F0422B4083FC01E957FD4F8081282B57
:104320002083AECF20952423FBCF115011160CF41F
:10433000B5CF10928D0280918602882341F01092B1
:104340008602809185020E9470040E944B06809133
:10435000810290918202A0918302B09184028F30F9
:104360009105A105B10541F58091800291E0892771
:104370008093800210928102109282021092830236
:1043800010928402109268021092670210926602E4
:104390000E94171B10926502E5EEF1E085E692E0BF
:1043A0004FEF5FEF60E070E0419351936193719341
:1043B0008E179F07C9F75CC083309105A105F0E314
:1043C000BF0739F580917F02823041F010927E0262
:1043D00080937D0282E080937F02CCCF80917D022A
:1043E00080937F0239E6E32E32E0F32E10E000E006
:1043F00080917E028017110609F01CF40E94171BA1
:10440000B9CFF70181917F010E94A40E0F5F1F4F6A
:10441000EFCF83339105A105B10521F481E00E941E
:10442000CB07A8CF20917F0281309105A105B1056E
:1044300039F4211102C081E0CECF10927F029ACFD1
:10444000213049F580FF31C0109268021092670256
:1044500010926602109281021092820210928302E0
:104460001092840280914803882359F18130E1F150
:104470000F900F900F900F900F90DF91CF911F91A1
:104480000F91FF90EF90DF90CF90BF90AF909F90F3
:104490008F900C942D20223041F083709927AA2709
:1044A000BB27892B8A2B8B2B21F080E00E944E1892
:1044B00061CF2111C9CF80918002882329F281E048
:1044C000F5CF07E812E02BE8E22E22E0F22EF80109
:1044D00081918F0181110E94670EE016F106B9F7F4
:1044E00080E00E94670EC4CF80918702806880932D
:1044F000870207E812E09DE8E92E92E0F92EF80124
:1045000081918F010E94670EE016F106C1F7B0CFCE
:1045100006311C4509F02FCE882309F4ACC18091E7
:10452000F8028A7A91E009F490E090938E0281116A
:10453000A0C189E20E94B0060F900F900F900F90DB
:104540000F90DF91CF911F910F91FF90EF90DF902F
:10455000CF90BF90AF909F908F900C9461060C3DD0
:104560004CE5140709F48EC098F5083DECE51E07EC
:1045700009F45EC1093D1C4509F0FDCD81115AC108
:1045800080919402811173C1809191029091920265
:104590000E949D05883C910508F069C180E20E9457
:1045A000420788E20E94A40E88E20F900F900F90BD
:1045B0000F900F90DF91CF911F910F91FF90EF908F
:1045C000DF90CF90BF90AF909F908F900C94020897
:1045D0000D3D2CE5120709F45BC00E3D1C4509F0AA
:1045E000CACD882309F472CD0F900F900F900F90D1
:1045F0000F90DF91CF911F910F91FF90EF90DF907F
:10460000CF90BF90AF909F908F900C94C51A882345
:1046100009F45CCD0E94171B8FEF94E3ECE081500E
:104620009040E040E1F700C0000081E08093E000AE
:1046300080E28093D8001092C9008FE19EE4019738
:10464000F1F700C0000087E090EBDC018093A50348
:104650009093A603A093A703B093A80388E19CE0DE
:104660000FB6F894A895809360000FBE90936000F9
:10467000FFCF882309F42ACD80916603816080935F
:10468000660324CD882309F421CD109275031ECD35
:10469000882309F41BCD82E08093750317CD88230E
:1046A00009F46ECD0E94BA1A811102C00E94C51A87
:1046B00084E090E00E94192D90E090934A0380934B
:1046C0004903F801E350FC45809149038160E231E0
:1046D000F10538F4E555F24D0C94FF2C8091490317
:1046E0008260809349036091490384E090E00E94D6
:1046F000272D0F900F900F900F900F90DF91CF917B
:104700001F910F91FF90EF90DF90CF90BF90AF90EF
:104710009F908F900C94171B809149038460E1CF88
:10472000809149038860DDCF809149038061D9CFB2
:10473000809149038062D5CF809149038064D1CFB5
:10474000809149038068CDCF809149038C60C9CFA7
:10475000809149038E7FC5CF809149038D7FC1CF62
:10476000809149038B7FBDCF80914903877FB9CF6B
:10477000809149038F7EB5CF809149038F7DB1CF62
:10478000809149038F7BADCF809149038F77A9CF6B
:1047900080914903837FA5CF90914903892F97FB8F
:1047A00087F980589ECF8823E1F0109293020E94EF
:1047B000C7059093900280938F0282E00F900F9034
:1047C0000F900F900F90DF91CF911F910F91FF905D
:1047D000EF90DF90CF90BF90AF909F908F900C9410
:1047E0004D078091930281110FC080918F029091AB
:1047F00090020E949D05883C910530F486E20E945B
:10480000A40E86E20E94020882E00F900F900F90A3
:104810000F900F90DF91CF911F910F91FF90EF902C
:10482000DF90CF90BF90AF909F908F900C944207F5
:10483000882351F0109294020E94C705909392022F
:104840008093910280E2BACF8091940281110FC0CF
:1048500080919102909192020E949D05883C910561
:1048600030F487E20E94A40E87E20E94020880E2F0
:10487000CCCF85E35FCE80918E02811104C089E2A6
:104880000E94850659CE85E3FBCFC8010E94E5064C
:10489000D82E84CCF92FFF70FF2E907F19F0F29460
:1048A00080EFF8222223C9F0FF2069F080E2810F17
:1048B000883010F0D1100BC08091F802F82AF092E5
:1048C000F8020E946106812F0E94A40E18C08091F8
:1048D000F702F82AF092F702F4CF812F0E94020823
:1048E000FF2069F0F094105E183010F0D11023C052
:1048F0008091F802F822F092F8020E9461060830D6
:1049000039F008F4E3CB0A5F0F70023008F0DECB19
:104910000F900F900F900F900F90DF91CF911F91FC
:104920000F91FF90EF90DF90CF90BF90AF909F904E
:104930008F900C94F6078091F702F822F092F7021C
:10494000DCCF892F8F70907F903211F08295807F1D
:1049500041E0D4120CC0222329F0333080F60E94AB
:104960004D07CDCF323058F60E944207C8CF2223E0
:1049700019F03323A1F3A7CF3323B1F3812F0E9482
:104980000208BDCF892F86958695837061F08130AE
:1049900009F0B5CF812F9370211102C090E080E023
:1049A0000E945707ACCF812F9370211102C090E075
:1049B00080E00E946D07A3CF222309F1153F99F0F3
:1049C000163FB9F0143F49F48091950290919602F8
:1049D00081609093960280939502812F0E94350505
:1049E0000E944B068CCF8091950290919602826036
:1049F000F0CF80919502909196028460EACF153FA6
:104A000089F0163FA9F0143F49F4809195029091E6
:104A100096028E7F9093960280939502812F0E943A
:104A20007004DECF80919502909196028D7FF2CF37
:104A300080919502909196028B7FECCF892F8370A5
:104A400009F06EC021115BCF812F8295869587700A
:104A5000880F880F612F6F70C62ED12CF12CE12C9E
:104A6000082E04C0CC0CDD1CEE1CFF1C0A94D2F7EF
:104A700040E050E0BA0114FF0FC04FE050E060E0AA
:104A800070E004C0440F551F661F771F8A95D2F748
:104A900040955095609570959695969593708090F9
:104AA000F9029090FA02A090FB02B090FC029230C2
:104AB000D9F028F5913069F04C295D296E297F29BC
:104AC000CB01BA01682179218A219B210E94EC0740
:104AD00016CFC828D928EA28FB28CB01BA016C29AF
:104AE0007D298E299F29F2CF4C295D296E297F29A6
:104AF000CB01BA01682579258A259B25E7CFCB0113
:104B0000BA01682179218A219B210E94EC076091DA
:104B1000F9027091FA028091FB029091FC02DFCFC2
:104B20008695222311F0892F8170882309F4E7CE1E
:104B3000812F829586958770880F880F612F6F70FF
:104B4000C62ED12CF12CE12C082E04C0CC0CDD1C7F
:104B5000EE1CFF1C0A94D2F740E050E0BA0114FFAB
:104B60000FC04FE050E060E070E004C0440F551FFC
:104B7000661F771F8A95D2F740955095609570957E
:104B80009695969593708090F2029090F302A09083
:104B9000F402B090F5029230D9F028F5913069F026
:104BA0004C295D296E297F29CB01BA016821792121
:104BB0008A219B210E949E07A2CEC828D928EA28D4
:104BC000FB28CB01BA016C297D298E299F29F2CFC0
:104BD0004C295D296E297F29CB01BA0168257925E9
:104BE0008A259B25E7CFCB01BA01682179218A214B
:104BF0009B210E949E076091F2027091F3028091C6
:104C0000F4029091F502DFCF812FE0EFDE16A9F1DB
:104C1000ED1558F0F0EEDF1618F5222309F462C006
:104C2000311151CE892F8F714FC042EFD41609F444
:104C30004EC0D41608F444C0E3EFDE12EECF2223B8
:104C400009F44CC0292F2F7161E070E080E090E002
:104C500004C0660F771F881F991F2A95D2F7AACF25
:104C60001F70892F8F71222321F00E94CB07812F83
:104C700076CE0E94A807812F77CE2223E9F032302A
:104C800008F03DCE292F2F7161E070E080E090E0C8
:104C900004C0660F771F881F991F2A95D2F7C0900E
:104CA000F202D090F302E090F402F090F5026C254D
:104CB0007D258E259F257ECF333008F020CEE2CF94
:104CC000892F8F71222339F00E94CB0718CE892FAC
:104CD0008F712223C9F30E94A80711CE60E070E013
:104CE000CB0168CF332369F0893309F047CEFFEF5A
:104CF00027EE43E0F15020404040E1F700C00000C3
:104D00003DCE892F8F71E7CF85E0DE0111960190AE
:104D10000D928A95E1F7F701228189819A8121110B
:104D2000E7C90E94E506D82EEBC91F93CF93DF9306
:104D300080919C02807FC1F4809199028823A1F028
:104D40008091CE02C0919D0260919702709198026D
:104D500040919A0250919B02D62FD723DA01A09559
:104D6000B09516E0C81304C0DF91CF911F9108954C
:104D700090E04115510511F0DF3F31F40196877045
:104D8000F1CF2A0F3B1F17C0189FF001199FF00D9C
:104D90001124E256FD4F21812713F0CF20812613E5
:104DA000EDCF22812111EACF2381348124173507E9
:104DB00040F3241B350B283C310500F720919C0261
:104DC0002F70206120939C0226E0289FF001299FEC
:104DD000F00D1124ED55FD4F80818F70806180832F
:104DE00087E992E00E944820DF91CF911F910C94B7
:104DF0003807BF92CF92DF92EF92FF920F931F93EB
:104E0000CF93DF93CDB7DEB761970FB6F894DEBFCF
:104E10000FBECDBF8C0185E0F801DE011D9601902B
:104E20000D928A95E1F7D8012C9111963C9111973A
:104E30001296EC90129780919A0290919B020097A3
:104E400009F463C14091970250919802642F652341
:104E50006F3F09F45AC11396CD90DC90B09099023F
:104E6000BB2009F413C1C816D906C0F1F601E81B2E
:104E7000F90BCF01FF24F394883C910508F0F12C45
:104E800080919C02982F907FFF2009F4C1C091115E
:104E90007DC0FE2C531327C0421325C0E11023C050
:104EA0008F70806180939C0287E992E00E94482085
:104EB00080919C02D80115968C938F2D61960FB628
:104EC000F894DEBF0FBECDBFDF91CF911F910F9140
:104ED000FF90EF90DF90CF90BF90089580959095D0
:104EE0008C0D9D1DC7CFCD2829F0822F83238F3FA6
:104EF00009F029C180E0B82FB170DB2E80FF3CC0E3
:104F00008091CE0240919D0256E0841315C02D87FA
:104F10003E878D859E850E94090B292F22952F7033
:104F20002230F0F0243018F59F70F1F0F8019581EF
:104F3000907FD1F4D12C1EC090E0589FF001599F72
:104F4000F00D1124E256FD4F6181361306C06081D9
:104F5000261303C06281E6120FC001968770D5CF79
:104F60009F7011F0882331F3805E883018F3C801F8
:104F70000E944820FD2CA1CFEE2009F49ECF809105
:104F80009C02816080939C02F12C97CF531313C035
:104F9000421311C0E1100FC0D80115968C93C801BF
:104FA0000E94482086E0F801A7E9B2E001900D9246
:104FB0008A95E1F782CF2D873E878D859E850E9459
:104FC000130B882309F1EE20F9F080919C028032C6
:104FD00070F0209197023091980238872F831986BC
:104FE000DB86CA868C87CE0107960E94482086E021
:104FF000F801A7E9B2E001900D928A95E1F70E94CD
:105000009526FF24F39459CFC8010E944820F9CF78
:1050100091110CC087E992E00E94482086E0E7E900
:10502000F2E0DF011D928A95E9F747CF531312C0D2
:10503000421310C0E1100EC0F8018583C8010E9420
:105040004820E7E9F2E086E0DF011D928A95E9F762
:10505000FB2C33CF2D873E878D859E850E94130BB9
:10506000882391F2EE2081F280919C02803208F434
:10507000BECF20919702309198023A8329831B82F8
:10508000DD82CC828E83CE010196AFCFC816D906C1
:1050900040F0C81AD90AB8ECCB16D10448F0F12C6C
:1050A000BDCF809590958C0D9D1D883C9105B8F7DE
:1050B000FE2CEE2009F4A8CF531316C0421314C0DF
:1050C00080919C0280FD6ECF982F907F09F46ACF6B
:1050D000F8018583903F09F462CF982F907F905F0D
:1050E0008F70892B85835BCF2D873E878D859E852D
:1050F0000E94130B81117BCF80919C028160809371
:105100009C02C8010E944820D8CEEE2009F47CCF32
:105110002D873E878D859E850E94130BF82E882350
:1051200009F472CF86E0F801A7E9B2E001900D9290
:105130008A95E1F780919702909198020E94090B5D
:105140000E949526BACE81E08E25D5CE1F93CF93AF
:10515000DF93CDB7DEB767970FB6F894DEBF0FBE0B
:10516000CDBF4B8B5C8B6D8B7E8B8F8B1A8A198A94
:1051700085E0FE017396DE011D9601900D928A95E1
:10518000E1F786E0FE013D96DE01179601900D9253
:105190008A95E1F7CE0107960E94F926811112C087
:1051A00086E0FE013796DE01119601900D928A95F8
:1051B000E1F78A859B85892B29F08F819885892342
:1051C0008F3FB1F516E08091CE0290919D02891338
:1051D0001DC067960FB6F894DEBF0FBECDBFDF913E
:1051E000CF911F91089596E0929FD001939FB00DAB
:1051F0001124A256BD4FFE01319601900D929A9551
:10520000E1F780939D020E943807DCCF819FC001A7
:10521000112482569D4F0E94F9268823D1F2809155
:10522000CE0290E00196877099278093CE02CBCF73
:1052300020919D0230E0C901019687709927409125
:10524000CE024817190679F60E94171B10929D028C
:105250001092CE0286E0E7E9F2E0DF011D928A9526
:10526000E9F7B0CF1F920F920FB60F9211242F9330
:105270003F934F935F936F937F938F939F93AF93DE
:10528000BF93EF93FF938091E10082FF09C080916B
:10529000E20082FF05C08091E1008B7F8093E100F6
:1052A0008091DA0080FF24C08091D80080FF20C068
:1052B0008091DA008E7F8093DA008091D90080FFA0
:1052C0009AC080E189BD82E189BD09B400FEFDCFAD
:1052D00081E08093A40380917603811109C00E942C
:1052E000CF020E94A2038091E20084608093E200DA
:1052F0008091E10080FF17C08091E20080FF13C021
:105300008091E2008E7F8093E2008091E2008061D4
:105310008093E2008091D80080628093D80019BC0D
:1053200085E08093A4038091E10084FF2DC08091EB
:10533000E20084FF29C080E189BD82E189BD89B591
:10534000982F917080FFFBCF8091D8008F7D809344
:10535000D8008091E1008F7E8093E1008091E2008F
:105360008F7E8093E2008091E20081608093E20072
:1053700080919B03882309F444C084E08093A403B4
:105380000E94171B0E94F6078091E10083FF22C054
:105390008091E20083FF1EC08091E100877F8093AF
:1053A000E10082E08093A40310929B038091E100CE
:1053B0008E7F8093E1008091E2008E7F8093E200F7
:1053C0008091E20080618093E20042E060E080E052
:1053D0000E947003FF91EF91BF91AF919F918F91C8
:1053E0007F916F915F914F913F912F910F900FBEE1
:1053F0000F901F90189519BC1092A4031092760379
:1054000077CF8091E30087FD93E09093A403B8CF1A
:10541000CDB7DEB72D970FB6F894DEBF0FBECDBF68
:1054200084B7877F84BF0FB6F894A89580916000F9
:10543000886180936000109260000FBE80E88093C6
:1054400061001092610085B7806885BF85B780686C
:1054500085BF0E94CF020E94A2038091E200846077
:105460008093E20078940E942E1B82E084BD93E03A
:1054700095BD9AEF97BD80936E000E944F1A90E001
:1054800090930101809300010E94A00D0E94AF0D36
:105490008AE393E0E2E0F3E04EE453E0DA011D92A8
:1054A000AD01DC011D92CD011082118212821382A6
:1054B0003496B3E04C355B0789F70E94BA1A811124
:1054C00002C00E94C51A81E00E943C203F988AB128
:1054D0008F708AB96E98479A8BB1806F8BB9769A24
:1054E0000E94BA1A811102C00E94C51A82E090E09F
:1054F0000E94192D8093660384E090E00E94192D8C
:1055000090E090934A038093490383E090E00E94E7
:10551000192D682F70E090E080E00E94EC070E9457
:10552000BA1A811102C00E94C51A8DE090E00E9453
:10553000192D809348038091490380688093490323
:1055400082E091E090934C0380934B0382E090E0E3
:105550009093200180931F018091A403843079F5FA
:105560008091210190912201A0912301B091240109
:10557000892B8A2B8B2B19F1809118018F708093C6
:10558000E90088E0E8E2F1E0DE01119601900D9279
:105590008A95E1F750E040E068E070E0CE010196C6
:1055A0000E94B31E50E040E062E070E08FE191E0C5
:1055B0000E94B31E8091E8008E778093E800BB24A0
:1055C000BA94EE24E394F12C90E1692E22E1722E3C
:1055D00038E1C32ED12C40E4A42E8091A403853061
:1055E00009F490C00E94C11FE7E6F3E0AEE4B3E027
:1055F00010E000E0702F6D912191261709F4CFC0C3
:1056000090E080E0262730E0982EA901082E02C005
:10561000559547950A94E2F740FFBCC089837A8389
:10562000C70102C0880F991F9A94E2F74C01862F98
:1056300090E08821992121E0892B09F420E02B8337
:105640000E94C7058160782F9D838C8349815A8190
:105650006B818D810E94A628F801E959FC4F808159
:105660008826808280916303909164030E949D0547
:105670009C0190916203992319F02431310578F04F
:1056800020915E0390905F0300916003109161038D
:1056900021119BC0802F8929812B09F041C10E94D3
:1056A000F60790916503891721F00E94F607809311
:1056B00065038091A403843009F0FEC0809121012C
:1056C00090912201A0912301B0912401892B8A2B72
:1056D0008B2B09F4F1C0809113018F708093E90046
:1056E0009091E80092FFE8C09091F3002091F200C1
:1056F000392F232B09F0C0C08091E8008B7780936D
:10570000E800DAC08091A403843009F110924D03BF
:105710000FB6F894A895C09260000FBEA0926000EA
:1057200083B7817F846083BF83B7816083BF7894B0
:10573000889583B78E7F83BF0FB6F894A895809124
:105740006000886180936000109260000FBE8091BD
:105750009A03882309F441CF0E944F1A90E0909356
:105760000101809300010E94A00D0E94AF0DEEE4A4
:10577000F3E0119223E0EC35F207D9F70E94C11F44
:10578000EEE4F3E081918111B7C043E0EC35F4071A
:10579000C9F723CF01968430910509F035CF0F5F0B
:1057A0001F4F0E30110509F025CFB986BA861B862A
:1057B0000E94C7058160782F9D878C8749855A850F
:1057C0006B858D850E94A6284DCF9F3F19F09F5F66
:1057D00090936203121624F40E94110580935E03D5
:1057E00080915E0387FF05C00E941105819580931B
:1057F0005E03191424F40E94110580935F038091C5
:105800005F0387FF05C00E941105819580935F03A8
:1058100030915E03332379F020915F03222359F006
:1058200045EB3403C001112490935E0324039001DF
:10583000112430935F03101624F40E94EF04809328
:1058400060038091600387FF05C00E94EF0481958B
:1058500080936003111624F40E94EF048093610387
:105860008091610387FF05C00E94EF0481958093BA
:1058700061030E944B0613CF9091F3002091F20038
:10588000392F232BC9F09091A4039430A9F480936D
:10589000E9008091E80082FF0FC09091F3008091B1
:1058A000F200892B11F08091F1009091F30080912A
:1058B000F200892B09F420CF8091A4038430C9F42D
:1058C0008091210190912201A0912301B0912401A6
:1058D000892B8A2B8B2B69F080910E018F7080931E
:1058E000E9008091E80080FF04C08DE091E00E9413
:1058F0001F030E942E1B71CE69BC79BC09B400FE47
:10590000FDCF8091D8008F7D8093D8008091E000FA
:1059100082608093E0008091E00081FDFCCF5DCE4D
:105920009F3F09F054CF65CF78941F921FB61F9206
:1059300011248F939F93AF93BF938091FD02909119
:10594000FE02A091FF02B09100030196A11DB11DBE
:105950008093FD029093FE02A093FF02B093000398
:10596000BF91AF919F918F911F901FBE1F9018956F
:105970001F921FB61F9211248F939F93AF93BF93D3
:1059800080914D03811113C08091FD029091FE0220
:10599000A091FF02B09100034196A11DB11D80931B
:1059A000FD029093FE02A093FF02B0930003BF910B
:1059B000AF919F918F911F901FBE1F901895991BBB
:1059C00079E004C0991F961708F0961B881F7A95F6
:1059D000C9F78095089597FB072E16F4009407D019
:1059E00077FD09D00E94052D07FC05D03EF4909567
:1059F00081959F4F0895709561957F4F0895EE0FA3
:105A0000FF1F0590F491E02D0994AA1BBB1B51E1E7
:105A100007C0AA1FBB1FA617B70710F0A61BB70B1E
:105A2000881F991F5A95A9F780959095BC01CD01C3
:105A30000895F999FECF92BD81BDF89A992780B556
:105A40000895A8E1B0E042E050E00C944D2D262FDF
:105A5000F999FECF92BD81BDF89A019700B4021664
:105A600039F01FBA20BD0FB6F894FA9AF99A0FBE12
:105A700008950396272F0E94282D0E94272D252F59
:105A80000E94282D242F0C94282D0196272F0E9448
:105A9000282D0C94272DDC01CB01FC01F999FECFB8
:105AA00006C0F2BDE1BDF89A319600B40D924150A6
:105AB0005040B8F70895F894FFCF220B220B2B0B20
:105AC0002B0B2D0B2B0B2B0B2B0B220B220B320B2F
:105AD0002B0B2B0B320BE10BFD0BFD0BFD0BFD0B11
